{
	"contracts/EasyStaking.sol": {
		"EasyStaking": {
			"abi": [
				{
					"anonymous": false,
					"inputs": [
						{
							"indexed": true,
							"internalType": "address",
							"name": "sender",
							"type": "address"
						},
						{
							"indexed": true,
							"internalType": "uint256",
							"name": "id",
							"type": "uint256"
						},
						{
							"indexed": false,
							"internalType": "uint256",
							"name": "amount",
							"type": "uint256"
						},
						{
							"indexed": false,
							"internalType": "uint256",
							"name": "balance",
							"type": "uint256"
						},
						{
							"indexed": false,
							"internalType": "uint256",
							"name": "accruedEmission",
							"type": "uint256"
						},
						{
							"indexed": false,
							"internalType": "uint256",
							"name": "prevDepositDuration",
							"type": "uint256"
						}
					],
					"name": "Deposited",
					"type": "event"
				},
				{
					"anonymous": false,
					"inputs": [
						{
							"indexed": false,
							"internalType": "uint256",
							"name": "value",
							"type": "uint256"
						},
						{
							"indexed": false,
							"internalType": "address",
							"name": "sender",
							"type": "address"
						}
					],
					"name": "FeeSet",
					"type": "event"
				},
				{
					"anonymous": false,
					"inputs": [
						{
							"indexed": false,
							"internalType": "address",
							"name": "value",
							"type": "address"
						},
						{
							"indexed": false,
							"internalType": "address",
							"name": "sender",
							"type": "address"
						}
					],
					"name": "LiquidityProvidersRewardAddressSet",
					"type": "event"
				},
				{
					"anonymous": false,
					"inputs": [
						{
							"indexed": false,
							"internalType": "uint256",
							"name": "value",
							"type": "uint256"
						},
						{
							"indexed": false,
							"internalType": "address",
							"name": "sender",
							"type": "address"
						}
					],
					"name": "LockAfterStakeDurationSet",
					"type": "event"
				},
				{
					"anonymous": false,
					"inputs": [
						{
							"indexed": true,
							"internalType": "address",
							"name": "previousOwner",
							"type": "address"
						},
						{
							"indexed": true,
							"internalType": "address",
							"name": "newOwner",
							"type": "address"
						}
					],
					"name": "OwnershipTransferred",
					"type": "event"
				},
				{
					"anonymous": false,
					"inputs": [
						{
							"indexed": false,
							"internalType": "uint256",
							"name": "a",
							"type": "uint256"
						},
						{
							"indexed": false,
							"internalType": "int256",
							"name": "b",
							"type": "int256"
						},
						{
							"indexed": false,
							"internalType": "uint256",
							"name": "c",
							"type": "uint256"
						},
						{
							"indexed": false,
							"internalType": "address",
							"name": "sender",
							"type": "address"
						}
					],
					"name": "SigmoidParametersSet",
					"type": "event"
				},
				{
					"anonymous": false,
					"inputs": [
						{
							"indexed": false,
							"internalType": "uint256",
							"name": "value",
							"type": "uint256"
						},
						{
							"indexed": false,
							"internalType": "address",
							"name": "sender",
							"type": "address"
						}
					],
					"name": "TotalSupplyFactorSet",
					"type": "event"
				},
				{
					"anonymous": false,
					"inputs": [
						{
							"indexed": false,
							"internalType": "uint256",
							"name": "value",
							"type": "uint256"
						},
						{
							"indexed": false,
							"internalType": "address",
							"name": "sender",
							"type": "address"
						}
					],
					"name": "WithdrawalLockDurationSet",
					"type": "event"
				},
				{
					"anonymous": false,
					"inputs": [
						{
							"indexed": true,
							"internalType": "address",
							"name": "sender",
							"type": "address"
						},
						{
							"indexed": true,
							"internalType": "uint256",
							"name": "id",
							"type": "uint256"
						}
					],
					"name": "WithdrawalRequested",
					"type": "event"
				},
				{
					"anonymous": false,
					"inputs": [
						{
							"indexed": false,
							"internalType": "uint256",
							"name": "value",
							"type": "uint256"
						},
						{
							"indexed": false,
							"internalType": "address",
							"name": "sender",
							"type": "address"
						}
					],
					"name": "WithdrawalUnlockDurationSet",
					"type": "event"
				},
				{
					"anonymous": false,
					"inputs": [
						{
							"indexed": true,
							"internalType": "address",
							"name": "sender",
							"type": "address"
						},
						{
							"indexed": true,
							"internalType": "uint256",
							"name": "id",
							"type": "uint256"
						},
						{
							"indexed": false,
							"internalType": "uint256",
							"name": "amount",
							"type": "uint256"
						},
						{
							"indexed": false,
							"internalType": "uint256",
							"name": "fee",
							"type": "uint256"
						},
						{
							"indexed": false,
							"internalType": "uint256",
							"name": "balance",
							"type": "uint256"
						},
						{
							"indexed": false,
							"internalType": "uint256",
							"name": "accruedEmission",
							"type": "uint256"
						},
						{
							"indexed": false,
							"internalType": "uint256",
							"name": "lastDepositDuration",
							"type": "uint256"
						}
					],
					"name": "Withdrawn",
					"type": "event"
				},
				{
					"constant": true,
					"inputs": [],
					"name": "MAX_EMISSION_RATE",
					"outputs": [
						{
							"internalType": "uint256",
							"name": "",
							"type": "uint256"
						}
					],
					"payable": false,
					"stateMutability": "view",
					"type": "function"
				},
				{
					"constant": true,
					"inputs": [],
					"name": "PARAM_UPDATE_DELAY",
					"outputs": [
						{
							"internalType": "uint256",
							"name": "",
							"type": "uint256"
						}
					],
					"payable": false,
					"stateMutability": "view",
					"type": "function"
				},
				{
					"constant": true,
					"inputs": [
						{
							"internalType": "address",
							"name": "",
							"type": "address"
						},
						{
							"internalType": "uint256",
							"name": "",
							"type": "uint256"
						}
					],
					"name": "balances",
					"outputs": [
						{
							"internalType": "uint256",
							"name": "",
							"type": "uint256"
						}
					],
					"payable": false,
					"stateMutability": "view",
					"type": "function"
				},
				{
					"constant": false,
					"inputs": [
						{
							"internalType": "address",
							"name": "_token",
							"type": "address"
						},
						{
							"internalType": "address payable",
							"name": "_to",
							"type": "address"
						},
						{
							"internalType": "uint256",
							"name": "_amount",
							"type": "uint256"
						}
					],
					"name": "claimTokens",
					"outputs": [],
					"payable": false,
					"stateMutability": "nonpayable",
					"type": "function"
				},
				{
					"constant": false,
					"inputs": [
						{
							"internalType": "uint256",
							"name": "_amount",
							"type": "uint256"
						}
					],
					"name": "deposit",
					"outputs": [],
					"payable": false,
					"stateMutability": "nonpayable",
					"type": "function"
				},
				{
					"constant": false,
					"inputs": [
						{
							"internalType": "uint256",
							"name": "_depositId",
							"type": "uint256"
						},
						{
							"internalType": "uint256",
							"name": "_amount",
							"type": "uint256"
						}
					],
					"name": "deposit",
					"outputs": [],
					"payable": false,
					"stateMutability": "nonpayable",
					"type": "function"
				},
				{
					"constant": true,
					"inputs": [
						{
							"internalType": "address",
							"name": "",
							"type": "address"
						},
						{
							"internalType": "uint256",
							"name": "",
							"type": "uint256"
						}
					],
					"name": "depositDates",
					"outputs": [
						{
							"internalType": "uint256",
							"name": "",
							"type": "uint256"
						}
					],
					"payable": false,
					"stateMutability": "view",
					"type": "function"
				},
				{
					"constant": true,
					"inputs": [],
					"name": "fee",
					"outputs": [
						{
							"internalType": "uint256",
							"name": "",
							"type": "uint256"
						}
					],
					"payable": false,
					"stateMutability": "view",
					"type": "function"
				},
				{
					"constant": true,
					"inputs": [],
					"name": "feeParam",
					"outputs": [
						{
							"internalType": "uint256",
							"name": "oldValue",
							"type": "uint256"
						},
						{
							"internalType": "uint256",
							"name": "newValue",
							"type": "uint256"
						},
						{
							"internalType": "uint256",
							"name": "timestamp",
							"type": "uint256"
						}
					],
					"payable": false,
					"stateMutability": "view",
					"type": "function"
				},
				{
					"constant": true,
					"inputs": [
						{
							"internalType": "uint256",
							"name": "_depositDate",
							"type": "uint256"
						},
						{
							"internalType": "uint256",
							"name": "_amount",
							"type": "uint256"
						}
					],
					"name": "getAccruedEmission",
					"outputs": [
						{
							"internalType": "uint256",
							"name": "total",
							"type": "uint256"
						},
						{
							"internalType": "uint256",
							"name": "userShare",
							"type": "uint256"
						},
						{
							"internalType": "uint256",
							"name": "timePassed",
							"type": "uint256"
						}
					],
					"payable": false,
					"stateMutability": "view",
					"type": "function"
				},
				{
					"constant": true,
					"inputs": [],
					"name": "getSigmoidParameters",
					"outputs": [
						{
							"internalType": "uint256",
							"name": "a",
							"type": "uint256"
						},
						{
							"internalType": "int256",
							"name": "b",
							"type": "int256"
						},
						{
							"internalType": "uint256",
							"name": "c",
							"type": "uint256"
						}
					],
					"payable": false,
					"stateMutability": "view",
					"type": "function"
				},
				{
					"constant": true,
					"inputs": [],
					"name": "getSupplyBasedEmissionRate",
					"outputs": [
						{
							"internalType": "uint256",
							"name": "",
							"type": "uint256"
						}
					],
					"payable": false,
					"stateMutability": "view",
					"type": "function"
				},
				{
					"constant": false,
					"inputs": [],
					"name": "initialize",
					"outputs": [],
					"payable": false,
					"stateMutability": "nonpayable",
					"type": "function"
				},
				{
					"constant": false,
					"inputs": [
						{
							"internalType": "address",
							"name": "sender",
							"type": "address"
						}
					],
					"name": "initialize",
					"outputs": [],
					"payable": false,
					"stateMutability": "nonpayable",
					"type": "function"
				},
				{
					"constant": false,
					"inputs": [
						{
							"internalType": "address",
							"name": "_owner",
							"type": "address"
						},
						{
							"internalType": "address",
							"name": "_tokenAddress",
							"type": "address"
						},
						{
							"internalType": "address",
							"name": "_liquidityProvidersRewardAddress",
							"type": "address"
						},
						{
							"internalType": "uint256",
							"name": "_fee",
							"type": "uint256"
						},
						{
							"internalType": "uint256",
							"name": "_withdrawalLockDuration",
							"type": "uint256"
						},
						{
							"internalType": "uint256",
							"name": "_withdrawalUnlockDuration",
							"type": "uint256"
						},
						{
							"internalType": "uint256",
							"name": "_lockAfterStakeDuration",
							"type": "uint256"
						},
						{
							"internalType": "uint256",
							"name": "_totalSupplyFactor",
							"type": "uint256"
						},
						{
							"internalType": "uint256",
							"name": "_sigmoidParamA",
							"type": "uint256"
						},
						{
							"internalType": "int256",
							"name": "_sigmoidParamB",
							"type": "int256"
						},
						{
							"internalType": "uint256",
							"name": "_sigmoidParamC",
							"type": "uint256"
						}
					],
					"name": "initialize",
					"outputs": [],
					"payable": false,
					"stateMutability": "nonpayable",
					"type": "function"
				},
				{
					"constant": true,
					"inputs": [],
					"name": "isOwner",
					"outputs": [
						{
							"internalType": "bool",
							"name": "",
							"type": "bool"
						}
					],
					"payable": false,
					"stateMutability": "view",
					"type": "function"
				},
				{
					"constant": true,
					"inputs": [
						{
							"internalType": "address",
							"name": "",
							"type": "address"
						}
					],
					"name": "lastDepositIds",
					"outputs": [
						{
							"internalType": "uint256",
							"name": "",
							"type": "uint256"
						}
					],
					"payable": false,
					"stateMutability": "view",
					"type": "function"
				},
				{
					"constant": true,
					"inputs": [],
					"name": "liquidityProvidersRewardAddress",
					"outputs": [
						{
							"internalType": "address",
							"name": "",
							"type": "address"
						}
					],
					"payable": false,
					"stateMutability": "view",
					"type": "function"
				},
				{
					"constant": true,
					"inputs": [],
					"name": "liquidityProvidersRewardAddressParam",
					"outputs": [
						{
							"internalType": "address",
							"name": "oldValue",
							"type": "address"
						},
						{
							"internalType": "address",
							"name": "newValue",
							"type": "address"
						},
						{
							"internalType": "uint256",
							"name": "timestamp",
							"type": "uint256"
						}
					],
					"payable": false,
					"stateMutability": "view",
					"type": "function"
				},
				{
					"constant": true,
					"inputs": [],
					"name": "lockAfterStakeDuration",
					"outputs": [
						{
							"internalType": "uint256",
							"name": "",
							"type": "uint256"
						}
					],
					"payable": false,
					"stateMutability": "view",
					"type": "function"
				},
				{
					"constant": true,
					"inputs": [],
					"name": "lockAfterStakeDurationParam",
					"outputs": [
						{
							"internalType": "uint256",
							"name": "oldValue",
							"type": "uint256"
						},
						{
							"internalType": "uint256",
							"name": "newValue",
							"type": "uint256"
						},
						{
							"internalType": "uint256",
							"name": "timestamp",
							"type": "uint256"
						}
					],
					"payable": false,
					"stateMutability": "view",
					"type": "function"
				},
				{
					"constant": true,
					"inputs": [
						{
							"internalType": "address",
							"name": "_sender",
							"type": "address"
						},
						{
							"internalType": "uint256",
							"name": "_id",
							"type": "uint256"
						}
					],
					"name": "lockAfterStakeDurationPassed",
					"outputs": [
						{
							"internalType": "bool",
							"name": "",
							"type": "bool"
						}
					],
					"payable": false,
					"stateMutability": "view",
					"type": "function"
				},
				{
					"constant": false,
					"inputs": [
						{
							"internalType": "uint256",
							"name": "_depositId",
							"type": "uint256"
						},
						{
							"internalType": "uint256",
							"name": "_amount",
							"type": "uint256"
						}
					],
					"name": "makeForcedWithdrawal",
					"outputs": [],
					"payable": false,
					"stateMutability": "nonpayable",
					"type": "function"
				},
				{
					"constant": false,
					"inputs": [
						{
							"internalType": "uint256",
							"name": "_depositId",
							"type": "uint256"
						},
						{
							"internalType": "uint256",
							"name": "_amount",
							"type": "uint256"
						}
					],
					"name": "makeRequestedWithdrawal",
					"outputs": [],
					"payable": false,
					"stateMutability": "nonpayable",
					"type": "function"
				},
				{
					"constant": false,
					"inputs": [
						{
							"internalType": "address",
							"name": "_sender",
							"type": "address"
						},
						{
							"internalType": "uint256",
							"name": "_amount",
							"type": "uint256"
						},
						{
							"internalType": "bytes",
							"name": "",
							"type": "bytes"
						}
					],
					"name": "onTokenTransfer",
					"outputs": [
						{
							"internalType": "bool",
							"name": "",
							"type": "bool"
						}
					],
					"payable": false,
					"stateMutability": "nonpayable",
					"type": "function"
				},
				{
					"constant": true,
					"inputs": [],
					"name": "owner",
					"outputs": [
						{
							"internalType": "address",
							"name": "",
							"type": "address"
						}
					],
					"payable": false,
					"stateMutability": "view",
					"type": "function"
				},
				{
					"constant": false,
					"inputs": [],
					"name": "renounceOwnership",
					"outputs": [],
					"payable": false,
					"stateMutability": "nonpayable",
					"type": "function"
				},
				{
					"constant": false,
					"inputs": [
						{
							"internalType": "uint256",
							"name": "_depositId",
							"type": "uint256"
						}
					],
					"name": "requestWithdrawal",
					"outputs": [],
					"payable": false,
					"stateMutability": "nonpayable",
					"type": "function"
				},
				{
					"constant": false,
					"inputs": [
						{
							"internalType": "uint256",
							"name": "_value",
							"type": "uint256"
						}
					],
					"name": "setFee",
					"outputs": [],
					"payable": false,
					"stateMutability": "nonpayable",
					"type": "function"
				},
				{
					"constant": false,
					"inputs": [
						{
							"internalType": "address",
							"name": "_address",
							"type": "address"
						}
					],
					"name": "setLiquidityProvidersRewardAddress",
					"outputs": [],
					"payable": false,
					"stateMutability": "nonpayable",
					"type": "function"
				},
				{
					"constant": false,
					"inputs": [
						{
							"internalType": "uint256",
							"name": "_value",
							"type": "uint256"
						}
					],
					"name": "setLockAfterStakeDuration",
					"outputs": [],
					"payable": false,
					"stateMutability": "nonpayable",
					"type": "function"
				},
				{
					"constant": false,
					"inputs": [
						{
							"internalType": "uint256",
							"name": "_a",
							"type": "uint256"
						},
						{
							"internalType": "int256",
							"name": "_b",
							"type": "int256"
						},
						{
							"internalType": "uint256",
							"name": "_c",
							"type": "uint256"
						}
					],
					"name": "setSigmoidParameters",
					"outputs": [],
					"payable": false,
					"stateMutability": "nonpayable",
					"type": "function"
				},
				{
					"constant": false,
					"inputs": [
						{
							"internalType": "uint256",
							"name": "_value",
							"type": "uint256"
						}
					],
					"name": "setTotalSupplyFactor",
					"outputs": [],
					"payable": false,
					"stateMutability": "nonpayable",
					"type": "function"
				},
				{
					"constant": false,
					"inputs": [
						{
							"internalType": "uint256",
							"name": "_value",
							"type": "uint256"
						}
					],
					"name": "setWithdrawalLockDuration",
					"outputs": [],
					"payable": false,
					"stateMutability": "nonpayable",
					"type": "function"
				},
				{
					"constant": false,
					"inputs": [
						{
							"internalType": "uint256",
							"name": "_value",
							"type": "uint256"
						}
					],
					"name": "setWithdrawalUnlockDuration",
					"outputs": [],
					"payable": false,
					"stateMutability": "nonpayable",
					"type": "function"
				},
				{
					"constant": true,
					"inputs": [],
					"name": "token",
					"outputs": [
						{
							"internalType": "contract IERC20Mintable",
							"name": "",
							"type": "address"
						}
					],
					"payable": false,
					"stateMutability": "view",
					"type": "function"
				},
				{
					"constant": true,
					"inputs": [],
					"name": "totalStaked",
					"outputs": [
						{
							"internalType": "uint256",
							"name": "",
							"type": "uint256"
						}
					],
					"payable": false,
					"stateMutability": "view",
					"type": "function"
				},
				{
					"constant": true,
					"inputs": [],
					"name": "totalSupplyFactor",
					"outputs": [
						{
							"internalType": "uint256",
							"name": "",
							"type": "uint256"
						}
					],
					"payable": false,
					"stateMutability": "view",
					"type": "function"
				},
				{
					"constant": true,
					"inputs": [],
					"name": "totalSupplyFactorParam",
					"outputs": [
						{
							"internalType": "uint256",
							"name": "oldValue",
							"type": "uint256"
						},
						{
							"internalType": "uint256",
							"name": "newValue",
							"type": "uint256"
						},
						{
							"internalType": "uint256",
							"name": "timestamp",
							"type": "uint256"
						}
					],
					"payable": false,
					"stateMutability": "view",
					"type": "function"
				},
				{
					"constant": false,
					"inputs": [
						{
							"internalType": "address",
							"name": "newOwner",
							"type": "address"
						}
					],
					"name": "transferOwnership",
					"outputs": [],
					"payable": false,
					"stateMutability": "nonpayable",
					"type": "function"
				},
				{
					"constant": true,
					"inputs": [],
					"name": "withdrawalLockDuration",
					"outputs": [
						{
							"internalType": "uint256",
							"name": "",
							"type": "uint256"
						}
					],
					"payable": false,
					"stateMutability": "view",
					"type": "function"
				},
				{
					"constant": true,
					"inputs": [],
					"name": "withdrawalLockDurationParam",
					"outputs": [
						{
							"internalType": "uint256",
							"name": "oldValue",
							"type": "uint256"
						},
						{
							"internalType": "uint256",
							"name": "newValue",
							"type": "uint256"
						},
						{
							"internalType": "uint256",
							"name": "timestamp",
							"type": "uint256"
						}
					],
					"payable": false,
					"stateMutability": "view",
					"type": "function"
				},
				{
					"constant": true,
					"inputs": [
						{
							"internalType": "address",
							"name": "",
							"type": "address"
						},
						{
							"internalType": "uint256",
							"name": "",
							"type": "uint256"
						}
					],
					"name": "withdrawalRequestsDates",
					"outputs": [
						{
							"internalType": "uint256",
							"name": "",
							"type": "uint256"
						}
					],
					"payable": false,
					"stateMutability": "view",
					"type": "function"
				},
				{
					"constant": true,
					"inputs": [],
					"name": "withdrawalUnlockDuration",
					"outputs": [
						{
							"internalType": "uint256",
							"name": "",
							"type": "uint256"
						}
					],
					"payable": false,
					"stateMutability": "view",
					"type": "function"
				},
				{
					"constant": true,
					"inputs": [],
					"name": "withdrawalUnlockDurationParam",
					"outputs": [
						{
							"internalType": "uint256",
							"name": "oldValue",
							"type": "uint256"
						},
						{
							"internalType": "uint256",
							"name": "newValue",
							"type": "uint256"
						},
						{
							"internalType": "uint256",
							"name": "timestamp",
							"type": "uint256"
						}
					],
					"payable": false,
					"stateMutability": "view",
					"type": "function"
				}
			],
			"devdoc": {
				"methods": {
					"claimTokens(address,address,uint256)": {
						"details": "This method is used to claim unsupported tokens accidentally sent to the contract. It can only be called by the owner.",
						"params": {
							"_amount": "Amount to claim.",
							"_to": "The address of the tokens/coins receiver.",
							"_token": "The address of the token contract (zero address for claiming native coins)."
						}
					},
					"deposit(uint256)": {
						"details": "This method is used to deposit tokens to a new deposit. It generates a new deposit ID and calls another public \"deposit\" method. See its description.",
						"params": {
							"_amount": "The amount to deposit."
						}
					},
					"deposit(uint256,uint256)": {
						"details": "This method is used to deposit tokens to the deposit opened before. It calls the internal \"_deposit\" method and transfers tokens from sender to contract. Sender must approve tokens first.     * Instead this, user can use the simple \"transfer\" method of STAKE token contract to make a deposit. Sender's approval is not needed in this case.     * Note: each call updates the deposit date so be careful if you want to make a long staking.",
						"params": {
							"_amount": "The amount to deposit.",
							"_depositId": "User's unique deposit ID."
						}
					},
					"fee()": {
						"return": "Returns current fee."
					},
					"getAccruedEmission(uint256,uint256)": {
						"params": {
							"_amount": "Amount based on which emission is calculated and accrued.",
							"_depositDate": "Deposit date."
						},
						"return": "Total accrued emission (for the user and Liquidity Providers), user share, and seconds passed since the previous deposit started."
					},
					"getSigmoidParameters()": {
						"return": "Sigmoid parameters."
					},
					"getSupplyBasedEmissionRate()": {
						"return": "Emission rate based on the ratio of total staked to total supply."
					},
					"initialize(address)": {
						"details": "Initializes the contract setting the deployer as the initial owner."
					},
					"initialize(address,address,address,uint256,uint256,uint256,uint256,uint256,uint256,int256,uint256)": {
						"details": "Initializes the contract.",
						"params": {
							"_fee": "The fee of the forced withdrawal (in percentage).",
							"_liquidityProvidersRewardAddress": "The address for the Liquidity Providers reward.",
							"_owner": "The owner of the contract.",
							"_sigmoidParamA": "Sigmoid parameter A.",
							"_sigmoidParamB": "Sigmoid parameter B.",
							"_sigmoidParamC": "Sigmoid parameter C.",
							"_tokenAddress": "The address of the STAKE token contract.",
							"_totalSupplyFactor": "Total supply factor for calculating emission rate (in percentage).",
							"_withdrawalLockDuration": "The time from the request after which the withdrawal will be available (in seconds).",
							"_withdrawalUnlockDuration": "The time during which the withdrawal will be available from the moment of unlocking (in seconds)."
						}
					},
					"isOwner()": {
						"details": "Returns true if the caller is the current owner."
					},
					"liquidityProvidersRewardAddress()": {
						"return": "Returns current liquidity providers reward address."
					},
					"lockAfterStakeDuration()": {
						"return": "Returns current lock after stake duration."
					},
					"makeForcedWithdrawal(uint256,uint256)": {
						"details": "This method is used to make a forced withdrawal with a fee. It calls the internal \"_withdraw\" method.",
						"params": {
							"_amount": "The amount to withdraw (0 - to withdraw all).",
							"_depositId": "User's unique deposit ID."
						}
					},
					"makeRequestedWithdrawal(uint256,uint256)": {
						"details": "This method is used to make a requested withdrawal. It calls the internal \"_withdraw\" method and resets the date of the request.     * If sender didn't call this method during the unlock period (if timestamp >= lockEnd + withdrawalUnlockDuration) they have to call \"requestWithdrawal\" one more time.",
						"params": {
							"_amount": "The amount to withdraw (0 - to withdraw all).",
							"_depositId": "User's unique deposit ID."
						}
					},
					"onTokenTransfer(address,uint256,bytes)": {
						"details": "This method is called when STAKE tokens are transferred to this contract. using \"transfer\", \"transferFrom\", or \"transferAndCall\" method of STAKE token contract. It generates a new deposit ID and calls the internal \"_deposit\" method.",
						"params": {
							"_amount": "The transferred amount.",
							"_sender": "The sender of tokens."
						},
						"return": "true if successful"
					},
					"owner()": {
						"details": "Returns the address of the current owner."
					},
					"renounceOwnership()": {
						"details": "Leaves the contract without owner. It will not be possible to call `onlyOwner` functions anymore. Can only be called by the current owner.     * > Note: Renouncing ownership will leave the contract without an owner, thereby removing any functionality that is only available to the owner."
					},
					"requestWithdrawal(uint256)": {
						"details": "This method is used to request a withdrawal without a fee. It sets the date of the request.     * Note: each call updates the date of the request so don't call this method twice during the lock.",
						"params": {
							"_depositId": "User's unique deposit ID."
						}
					},
					"setFee(uint256)": {
						"details": "Sets the fee for forced withdrawals. Can only be called by owner.",
						"params": {
							"_value": "The new fee value (in percentage)."
						}
					},
					"setLiquidityProvidersRewardAddress(address)": {
						"details": "Sets the address for the Liquidity Providers reward. Can only be called by owner.",
						"params": {
							"_address": "The new address."
						}
					},
					"setLockAfterStakeDuration(uint256)": {
						"details": "Sets the time from the initial stake after which withdrawals are allowed Can only be called by owner.",
						"params": {
							"_value": "The new duration value (in seconds)."
						}
					},
					"setSigmoidParameters(uint256,int256,uint256)": {
						"details": "Sets parameters of the sigmoid that is used to calculate the user's current emission rate. Can only be called by owner.",
						"params": {
							"_a": "Sigmoid parameter A. Unsigned integer.",
							"_b": "Sigmoid parameter B. Signed integer.",
							"_c": "Sigmoid parameter C. Unsigned integer. Cannot be zero."
						}
					},
					"setTotalSupplyFactor(uint256)": {
						"details": "Sets total supply factor for calculating emission rate. Can only be called by owner.",
						"params": {
							"_value": "The new factor value (in percentage)."
						}
					},
					"setWithdrawalLockDuration(uint256)": {
						"details": "Sets the time from the request after which the withdrawal will be available. Can only be called by owner.",
						"params": {
							"_value": "The new duration value (in seconds)."
						}
					},
					"setWithdrawalUnlockDuration(uint256)": {
						"details": "Sets the time during which the withdrawal will be available from the moment of unlocking. Can only be called by owner.",
						"params": {
							"_value": "The new duration value (in seconds)."
						}
					},
					"totalSupplyFactor()": {
						"return": "Returns current total supply factor."
					},
					"transferOwnership(address)": {
						"details": "Transfers ownership of the contract to a new account (`newOwner`). Can only be called by the current owner."
					},
					"withdrawalLockDuration()": {
						"return": "Returns current withdrawal lock duration."
					},
					"withdrawalUnlockDuration()": {
						"return": "Returns current withdrawal unlock duration."
					}
				},
				"title": "EasyStaking * Note: all percentage values are between 0 (0%) and 1 (100%) and represented as fixed point numbers containing 18 decimals like with Ether 100% == 1 ether"
			},
			"evm": {
				"assembly": "    /* \"contracts/EasyStaking.sol\":722:25659  contract EasyStaking is Ownable, ReentrancyGuard {... */\n  mstore(0x40, 0x80)\n  dataSize(sub_0)\n  dup1\n  dataOffset(sub_0)\n  0x00\n  codecopy\n  0x00\n  return\nstop\n\nsub_0: assembly {\n        /* \"contracts/EasyStaking.sol\":722:25659  contract EasyStaking is Ownable, ReentrancyGuard {... */\n      mstore(0x40, 0x80)\n      callvalue\n        /* \"--CODEGEN--\":8:17   */\n      dup1\n        /* \"--CODEGEN--\":5:7   */\n      iszero\n      tag_1\n      jumpi\n        /* \"--CODEGEN--\":30:31   */\n      0x00\n        /* \"--CODEGEN--\":27:28   */\n      dup1\n        /* \"--CODEGEN--\":20:32   */\n      revert\n        /* \"--CODEGEN--\":5:7   */\n    tag_1:\n        /* \"contracts/EasyStaking.sol\":722:25659  contract EasyStaking is Ownable, ReentrancyGuard {... */\n      pop\n      jumpi(tag_2, lt(calldatasize, 0x04))\n      shr(0xe0, calldataload(0x00))\n      dup1\n      0x8b53ccb3\n      gt\n      tag_48\n      jumpi\n      dup1\n      0xc3bd8fd0\n      gt\n      tag_49\n      jumpi\n      dup1\n      0xdb51ef92\n      gt\n      tag_50\n      jumpi\n      dup1\n      0xdb51ef92\n      eq\n      tag_42\n      jumpi\n      dup1\n      0xddca3f43\n      eq\n      tag_43\n      jumpi\n      dup1\n      0xe0648a28\n      eq\n      tag_44\n      jumpi\n      dup1\n      0xe2bbb158\n      eq\n      tag_45\n      jumpi\n      dup1\n      0xf2fde38b\n      eq\n      tag_46\n      jumpi\n      dup1\n      0xfc0c546a\n      eq\n      tag_47\n      jumpi\n      jump(tag_2)\n    tag_50:\n      dup1\n      0xc3bd8fd0\n      eq\n      tag_36\n      jumpi\n      dup1\n      0xc4d66de8\n      eq\n      tag_37\n      jumpi\n      dup1\n      0xc5401ce3\n      eq\n      tag_38\n      jumpi\n      dup1\n      0xca758993\n      eq\n      tag_39\n      jumpi\n      dup1\n      0xcbf1304d\n      eq\n      tag_40\n      jumpi\n      dup1\n      0xd6463151\n      eq\n      tag_41\n      jumpi\n      jump(tag_2)\n    tag_49:\n      dup1\n      0x97559cdc\n      gt\n      tag_51\n      jumpi\n      dup1\n      0x97559cdc\n      eq\n      tag_30\n      jumpi\n      dup1\n      0x9ee679e8\n      eq\n      tag_31\n      jumpi\n      dup1\n      0x9fc314c8\n      eq\n      tag_32\n      jumpi\n      dup1\n      0xa4c0ed36\n      eq\n      tag_33\n      jumpi\n      dup1\n      0xb4a86c48\n      eq\n      tag_34\n      jumpi\n      dup1\n      0xb6b55f25\n      eq\n      tag_35\n      jumpi\n      jump(tag_2)\n    tag_51:\n      dup1\n      0x8b53ccb3\n      eq\n      tag_25\n      jumpi\n      dup1\n      0x8da5cb5b\n      eq\n      tag_26\n      jumpi\n      dup1\n      0x8df67680\n      eq\n      tag_27\n      jumpi\n      dup1\n      0x8f32d59b\n      eq\n      tag_28\n      jumpi\n      dup1\n      0x94967fa1\n      eq\n      tag_29\n      jumpi\n      jump(tag_2)\n    tag_48:\n      dup1\n      0x5e9e230d\n      gt\n      tag_52\n      jumpi\n      dup1\n      0x74949b6d\n      gt\n      tag_53\n      jumpi\n      dup1\n      0x74949b6d\n      eq\n      tag_19\n      jumpi\n      dup1\n      0x75fa901b\n      eq\n      tag_20\n      jumpi\n      dup1\n      0x8129fc1c\n      eq\n      tag_21\n      jumpi\n      dup1\n      0x817b1cd2\n      eq\n      tag_22\n      jumpi\n      dup1\n      0x8235c378\n      eq\n      tag_23\n      jumpi\n      dup1\n      0x868867b5\n      eq\n      tag_24\n      jumpi\n      jump(tag_2)\n    tag_53:\n      dup1\n      0x5e9e230d\n      eq\n      tag_14\n      jumpi\n      dup1\n      0x60c251c1\n      eq\n      tag_15\n      jumpi\n      dup1\n      0x60d4ffb0\n      eq\n      tag_16\n      jumpi\n      dup1\n      0x69fe0e2d\n      eq\n      tag_17\n      jumpi\n      dup1\n      0x715018a6\n      eq\n      tag_18\n      jumpi\n      jump(tag_2)\n    tag_52:\n      dup1\n      0x294a5b04\n      gt\n      tag_54\n      jumpi\n      dup1\n      0x294a5b04\n      eq\n      tag_8\n      jumpi\n      dup1\n      0x2c3144da\n      eq\n      tag_9\n      jumpi\n      dup1\n      0x41682990\n      eq\n      tag_10\n      jumpi\n      dup1\n      0x436cc3d6\n      eq\n      tag_11\n      jumpi\n      dup1\n      0x47e318de\n      eq\n      tag_12\n      jumpi\n      dup1\n      0x522ea5e2\n      eq\n      tag_13\n      jumpi\n      jump(tag_2)\n    tag_54:\n      dup1\n      0x03d6d343\n      eq\n      tag_3\n      jumpi\n      dup1\n      0x0e559215\n      eq\n      tag_4\n      jumpi\n      dup1\n      0x18194359\n      eq\n      tag_5\n      jumpi\n      dup1\n      0x18cca7a6\n      eq\n      tag_6\n      jumpi\n      dup1\n      0x224313fa\n      eq\n      tag_7\n      jumpi\n    tag_2:\n      0x00\n      dup1\n      revert\n        /* \"contracts/EasyStaking.sol\":5492:5536  UintParam public lockAfterStakeDurationParam */\n    tag_3:\n      tag_55\n      tag_56\n      jump\t// in\n    tag_55:\n      mload(0x40)\n      dup1\n      dup5\n      dup2\n      mstore\n      0x20\n      add\n      dup4\n      dup2\n      mstore\n      0x20\n      add\n      dup3\n      dup2\n      mstore\n      0x20\n      add\n      swap4\n      pop\n      pop\n      pop\n      pop\n      mload(0x40)\n      dup1\n      swap2\n      sub\n      swap1\n      return\n        /* \"contracts/EasyStaking.sol\":18036:18262  function lockAfterStakeDurationPassed(address _sender, uint256 _id) public view returns (bool) {... */\n    tag_4:\n      tag_57\n      0x04\n      dup1\n      calldatasize\n      sub\n        /* \"--CODEGEN--\":13:15   */\n      0x40\n        /* \"--CODEGEN--\":8:11   */\n      dup2\n        /* \"--CODEGEN--\":5:16   */\n      lt\n        /* \"--CODEGEN--\":2:4   */\n      iszero\n      tag_58\n      jumpi\n        /* \"--CODEGEN--\":29:30   */\n      0x00\n        /* \"--CODEGEN--\":26:27   */\n      dup1\n        /* \"--CODEGEN--\":19:31   */\n      revert\n        /* \"--CODEGEN--\":2:4   */\n    tag_58:\n        /* \"contracts/EasyStaking.sol\":18036:18262  function lockAfterStakeDurationPassed(address _sender, uint256 _id) public view returns (bool) {... */\n      dup2\n      add\n      swap1\n      dup1\n      dup1\n      calldataload\n      0xffffffffffffffffffffffffffffffffffffffff\n      and\n      swap1\n      0x20\n      add\n      swap1\n      swap3\n      swap2\n      swap1\n      dup1\n      calldataload\n      swap1\n      0x20\n      add\n      swap1\n      swap3\n      swap2\n      swap1\n      pop\n      pop\n      pop\n      tag_59\n      jump\t// in\n    tag_57:\n      mload(0x40)\n      dup1\n      dup3\n      iszero\n      iszero\n      iszero\n      iszero\n      dup2\n      mstore\n      0x20\n      add\n      swap2\n      pop\n      pop\n      mload(0x40)\n      dup1\n      swap2\n      sub\n      swap1\n      return\n        /* \"contracts/EasyStaking.sol\":4970:5026  AddressParam public liquidityProvidersRewardAddressParam */\n    tag_5:\n      tag_60\n      tag_61\n      jump\t// in\n    tag_60:\n      mload(0x40)\n      dup1\n      dup5\n      0xffffffffffffffffffffffffffffffffffffffff\n      and\n      0xffffffffffffffffffffffffffffffffffffffff\n      and\n      dup2\n      mstore\n      0x20\n      add\n      dup4\n      0xffffffffffffffffffffffffffffffffffffffff\n      and\n      0xffffffffffffffffffffffffffffffffffffffff\n      and\n      dup2\n      mstore\n      0x20\n      add\n      dup3\n      dup2\n      mstore\n      0x20\n      add\n      swap4\n      pop\n      pop\n      pop\n      pop\n      mload(0x40)\n      dup1\n      swap2\n      sub\n      swap1\n      return\n        /* \"contracts/EasyStaking.sol\":11853:12442  function makeRequestedWithdrawal(uint256 _depositId, uint256 _amount) external {... */\n    tag_6:\n      tag_62\n      0x04\n      dup1\n      calldatasize\n      sub\n        /* \"--CODEGEN--\":13:15   */\n      0x40\n        /* \"--CODEGEN--\":8:11   */\n      dup2\n        /* \"--CODEGEN--\":5:16   */\n      lt\n        /* \"--CODEGEN--\":2:4   */\n      iszero\n      tag_63\n      jumpi\n        /* \"--CODEGEN--\":29:30   */\n      0x00\n        /* \"--CODEGEN--\":26:27   */\n      dup1\n        /* \"--CODEGEN--\":19:31   */\n      revert\n        /* \"--CODEGEN--\":2:4   */\n    tag_63:\n        /* \"contracts/EasyStaking.sol\":11853:12442  function makeRequestedWithdrawal(uint256 _depositId, uint256 _amount) external {... */\n      dup2\n      add\n      swap1\n      dup1\n      dup1\n      calldataload\n      swap1\n      0x20\n      add\n      swap1\n      swap3\n      swap2\n      swap1\n      dup1\n      calldataload\n      swap1\n      0x20\n      add\n      swap1\n      swap3\n      swap2\n      swap1\n      pop\n      pop\n      pop\n      tag_64\n      jump\t// in\n    tag_62:\n      stop\n        /* \"contracts/EasyStaking.sol\":14135:14406  function setWithdrawalLockDuration(uint256 _value) public onlyOwner {... */\n    tag_7:\n      tag_65\n      0x04\n      dup1\n      calldatasize\n      sub\n        /* \"--CODEGEN--\":13:15   */\n      0x20\n        /* \"--CODEGEN--\":8:11   */\n      dup2\n        /* \"--CODEGEN--\":5:16   */\n      lt\n        /* \"--CODEGEN--\":2:4   */\n      iszero\n      tag_66\n      jumpi\n        /* \"--CODEGEN--\":29:30   */\n      0x00\n        /* \"--CODEGEN--\":26:27   */\n      dup1\n        /* \"--CODEGEN--\":19:31   */\n      revert\n        /* \"--CODEGEN--\":2:4   */\n    tag_66:\n        /* \"contracts/EasyStaking.sol\":14135:14406  function setWithdrawalLockDuration(uint256 _value) public onlyOwner {... */\n      dup2\n      add\n      swap1\n      dup1\n      dup1\n      calldataload\n      swap1\n      0x20\n      add\n      swap1\n      swap3\n      swap2\n      swap1\n      pop\n      pop\n      pop\n      tag_67\n      jump\t// in\n    tag_65:\n      stop\n        /* \"contracts/EasyStaking.sol\":16086:16397  function setSigmoidParameters(uint256 _a, int256 _b, uint256 _c) public onlyOwner {... */\n    tag_8:\n      tag_68\n      0x04\n      dup1\n      calldatasize\n      sub\n        /* \"--CODEGEN--\":13:15   */\n      0x60\n        /* \"--CODEGEN--\":8:11   */\n      dup2\n        /* \"--CODEGEN--\":5:16   */\n      lt\n        /* \"--CODEGEN--\":2:4   */\n      iszero\n      tag_69\n      jumpi\n        /* \"--CODEGEN--\":29:30   */\n      0x00\n        /* \"--CODEGEN--\":26:27   */\n      dup1\n        /* \"--CODEGEN--\":19:31   */\n      revert\n        /* \"--CODEGEN--\":2:4   */\n    tag_69:\n        /* \"contracts/EasyStaking.sol\":16086:16397  function setSigmoidParameters(uint256 _a, int256 _b, uint256 _c) public onlyOwner {... */\n      dup2\n      add\n      swap1\n      dup1\n      dup1\n      calldataload\n      swap1\n      0x20\n      add\n      swap1\n      swap3\n      swap2\n      swap1\n      dup1\n      calldataload\n      swap1\n      0x20\n      add\n      swap1\n      swap3\n      swap2\n      swap1\n      dup1\n      calldataload\n      swap1\n      0x20\n      add\n      swap1\n      swap3\n      swap2\n      swap1\n      pop\n      pop\n      pop\n      tag_70\n      jump\t// in\n    tag_68:\n      stop\n        /* \"contracts/EasyStaking.sol\":5210:5254  UintParam public withdrawalLockDurationParam */\n    tag_9:\n      tag_71\n      tag_72\n      jump\t// in\n    tag_71:\n      mload(0x40)\n      dup1\n      dup5\n      dup2\n      mstore\n      0x20\n      add\n      dup4\n      dup2\n      mstore\n      0x20\n      add\n      dup3\n      dup2\n      mstore\n      0x20\n      add\n      swap4\n      pop\n      pop\n      pop\n      pop\n      mload(0x40)\n      dup1\n      swap2\n      sub\n      swap1\n      return\n        /* \"contracts/EasyStaking.sol\":15481:15743  function setTotalSupplyFactor(uint256 _value) public onlyOwner {... */\n    tag_10:\n      tag_73\n      0x04\n      dup1\n      calldatasize\n      sub\n        /* \"--CODEGEN--\":13:15   */\n      0x20\n        /* \"--CODEGEN--\":8:11   */\n      dup2\n        /* \"--CODEGEN--\":5:16   */\n      lt\n        /* \"--CODEGEN--\":2:4   */\n      iszero\n      tag_74\n      jumpi\n        /* \"--CODEGEN--\":29:30   */\n      0x00\n        /* \"--CODEGEN--\":26:27   */\n      dup1\n        /* \"--CODEGEN--\":19:31   */\n      revert\n        /* \"--CODEGEN--\":2:4   */\n    tag_74:\n        /* \"contracts/EasyStaking.sol\":15481:15743  function setTotalSupplyFactor(uint256 _value) public onlyOwner {... */\n      dup2\n      add\n      swap1\n      dup1\n      dup1\n      calldataload\n      swap1\n      0x20\n      add\n      swap1\n      swap3\n      swap2\n      swap1\n      pop\n      pop\n      pop\n      tag_75\n      jump\t// in\n    tag_73:\n      stop\n        /* \"contracts/EasyStaking.sol\":4437:4491  uint256 public constant MAX_EMISSION_RATE = 150 finney */\n    tag_11:\n      tag_76\n      tag_77\n      jump\t// in\n    tag_76:\n      mload(0x40)\n      dup1\n      dup3\n      dup2\n      mstore\n      0x20\n      add\n      swap2\n      pop\n      pop\n      mload(0x40)\n      dup1\n      swap2\n      sub\n      swap1\n      return\n        /* \"contracts/EasyStaking.sol\":5088:5113  UintParam public feeParam */\n    tag_12:\n      tag_78\n      tag_79\n      jump\t// in\n    tag_78:\n      mload(0x40)\n      dup1\n      dup5\n      dup2\n      mstore\n      0x20\n      add\n      dup4\n      dup2\n      mstore\n      0x20\n      add\n      dup3\n      dup2\n      mstore\n      0x20\n      add\n      swap4\n      pop\n      pop\n      pop\n      pop\n      mload(0x40)\n      dup1\n      swap2\n      sub\n      swap1\n      return\n        /* \"contracts/EasyStaking.sol\":18336:18461  function totalSupplyFactor() public view returns (uint256) {... */\n    tag_13:\n      tag_80\n      tag_81\n      jump\t// in\n    tag_80:\n      mload(0x40)\n      dup1\n      dup3\n      dup2\n      mstore\n      0x20\n      add\n      swap2\n      pop\n      pop\n      mload(0x40)\n      dup1\n      swap2\n      sub\n      swap1\n      return\n        /* \"contracts/EasyStaking.sol\":5364:5410  UintParam public withdrawalUnlockDurationParam */\n    tag_14:\n      tag_82\n      tag_83\n      jump\t// in\n    tag_82:\n      mload(0x40)\n      dup1\n      dup5\n      dup2\n      mstore\n      0x20\n      add\n      dup4\n      dup2\n      mstore\n      0x20\n      add\n      dup3\n      dup2\n      mstore\n      0x20\n      add\n      swap4\n      pop\n      pop\n      pop\n      pop\n      mload(0x40)\n      dup1\n      swap2\n      sub\n      swap1\n      return\n        /* \"contracts/EasyStaking.sol\":17460:17595  function withdrawalLockDuration() public view returns (uint256) {... */\n    tag_15:\n      tag_84\n      tag_85\n      jump\t// in\n    tag_84:\n      mload(0x40)\n      dup1\n      dup3\n      dup2\n      mstore\n      0x20\n      add\n      swap2\n      pop\n      pop\n      mload(0x40)\n      dup1\n      swap2\n      sub\n      swap1\n      return\n        /* \"contracts/EasyStaking.sol\":19702:20473  function getAccruedEmission(... */\n    tag_16:\n      tag_86\n      0x04\n      dup1\n      calldatasize\n      sub\n        /* \"--CODEGEN--\":13:15   */\n      0x40\n        /* \"--CODEGEN--\":8:11   */\n      dup2\n        /* \"--CODEGEN--\":5:16   */\n      lt\n        /* \"--CODEGEN--\":2:4   */\n      iszero\n      tag_87\n      jumpi\n        /* \"--CODEGEN--\":29:30   */\n      0x00\n        /* \"--CODEGEN--\":26:27   */\n      dup1\n        /* \"--CODEGEN--\":19:31   */\n      revert\n        /* \"--CODEGEN--\":2:4   */\n    tag_87:\n        /* \"contracts/EasyStaking.sol\":19702:20473  function getAccruedEmission(... */\n      dup2\n      add\n      swap1\n      dup1\n      dup1\n      calldataload\n      swap1\n      0x20\n      add\n      swap1\n      swap3\n      swap2\n      swap1\n      dup1\n      calldataload\n      swap1\n      0x20\n      add\n      swap1\n      swap3\n      swap2\n      swap1\n      pop\n      pop\n      pop\n      tag_88\n      jump\t// in\n    tag_86:\n      mload(0x40)\n      dup1\n      dup5\n      dup2\n      mstore\n      0x20\n      add\n      dup4\n      dup2\n      mstore\n      0x20\n      add\n      dup3\n      dup2\n      mstore\n      0x20\n      add\n      swap4\n      pop\n      pop\n      pop\n      pop\n      mload(0x40)\n      dup1\n      swap2\n      sub\n      swap1\n      return\n        /* \"contracts/EasyStaking.sol\":13789:13930  function setFee(uint256 _value) public onlyOwner {... */\n    tag_17:\n      tag_89\n      0x04\n      dup1\n      calldatasize\n      sub\n        /* \"--CODEGEN--\":13:15   */\n      0x20\n        /* \"--CODEGEN--\":8:11   */\n      dup2\n        /* \"--CODEGEN--\":5:16   */\n      lt\n        /* \"--CODEGEN--\":2:4   */\n      iszero\n      tag_90\n      jumpi\n        /* \"--CODEGEN--\":29:30   */\n      0x00\n        /* \"--CODEGEN--\":26:27   */\n      dup1\n        /* \"--CODEGEN--\":19:31   */\n      revert\n        /* \"--CODEGEN--\":2:4   */\n    tag_90:\n        /* \"contracts/EasyStaking.sol\":13789:13930  function setFee(uint256 _value) public onlyOwner {... */\n      dup2\n      add\n      swap1\n      dup1\n      dup1\n      calldataload\n      swap1\n      0x20\n      add\n      swap1\n      swap3\n      swap2\n      swap1\n      pop\n      pop\n      pop\n      tag_91\n      jump\t// in\n    tag_89:\n      stop\n        /* \"@openzeppelin/contracts-ethereum-package/contracts/ownership/Ownable.sol\":1746:1883  function renounceOwnership() public onlyOwner {... */\n    tag_18:\n      tag_92\n      tag_93\n      jump\t// in\n    tag_92:\n      stop\n        /* \"contracts/EasyStaking.sol\":15098:15296  function setLockAfterStakeDuration(uint256 _value) public onlyOwner {... */\n    tag_19:\n      tag_94\n      0x04\n      dup1\n      calldatasize\n      sub\n        /* \"--CODEGEN--\":13:15   */\n      0x20\n        /* \"--CODEGEN--\":8:11   */\n      dup2\n        /* \"--CODEGEN--\":5:16   */\n      lt\n        /* \"--CODEGEN--\":2:4   */\n      iszero\n      tag_95\n      jumpi\n        /* \"--CODEGEN--\":29:30   */\n      0x00\n        /* \"--CODEGEN--\":26:27   */\n      dup1\n        /* \"--CODEGEN--\":19:31   */\n      revert\n        /* \"--CODEGEN--\":2:4   */\n    tag_95:\n        /* \"contracts/EasyStaking.sol\":15098:15296  function setLockAfterStakeDuration(uint256 _value) public onlyOwner {... */\n      dup2\n      add\n      swap1\n      dup1\n      dup1\n      calldataload\n      swap1\n      0x20\n      add\n      swap1\n      swap3\n      swap2\n      swap1\n      pop\n      pop\n      pop\n      tag_96\n      jump\t// in\n    tag_94:\n      stop\n        /* \"contracts/EasyStaking.sol\":20530:20662  function getSigmoidParameters() public view returns (uint256 a, int256 b, uint256 c) {... */\n    tag_20:\n      tag_97\n      tag_98\n      jump\t// in\n    tag_97:\n      mload(0x40)\n      dup1\n      dup5\n      dup2\n      mstore\n      0x20\n      add\n      dup4\n      dup2\n      mstore\n      0x20\n      add\n      dup3\n      dup2\n      mstore\n      0x20\n      add\n      swap4\n      pop\n      pop\n      pop\n      pop\n      mload(0x40)\n      dup1\n      swap2\n      sub\n      swap1\n      return\n        /* \"@openzeppelin/contracts-ethereum-package/contracts/utils/ReentrancyGuard.sol\":769:983  function initialize() public initializer {... */\n    tag_21:\n      tag_99\n      tag_100\n      jump\t// in\n    tag_99:\n      stop\n        /* \"contracts/EasyStaking.sol\":6127:6153  uint256 public totalStaked */\n    tag_22:\n      tag_101\n      tag_102\n      jump\t// in\n    tag_101:\n      mload(0x40)\n      dup1\n      dup3\n      dup2\n      mstore\n      0x20\n      add\n      swap2\n      pop\n      pop\n      mload(0x40)\n      dup1\n      swap2\n      sub\n      swap1\n      return\n        /* \"contracts/EasyStaking.sol\":18899:19414  function getSupplyBasedEmissionRate() public view returns (uint256) {... */\n    tag_23:\n      tag_103\n      tag_104\n      jump\t// in\n    tag_103:\n      mload(0x40)\n      dup1\n      dup3\n      dup2\n      mstore\n      0x20\n      add\n      swap2\n      pop\n      pop\n      mload(0x40)\n      dup1\n      swap2\n      sub\n      swap1\n      return\n        /* \"contracts/EasyStaking.sol\":14624:14897  function setWithdrawalUnlockDuration(uint256 _value) public onlyOwner {... */\n    tag_24:\n      tag_105\n      0x04\n      dup1\n      calldatasize\n      sub\n        /* \"--CODEGEN--\":13:15   */\n      0x20\n        /* \"--CODEGEN--\":8:11   */\n      dup2\n        /* \"--CODEGEN--\":5:16   */\n      lt\n        /* \"--CODEGEN--\":2:4   */\n      iszero\n      tag_106\n      jumpi\n        /* \"--CODEGEN--\":29:30   */\n      0x00\n        /* \"--CODEGEN--\":26:27   */\n      dup1\n        /* \"--CODEGEN--\":19:31   */\n      revert\n        /* \"--CODEGEN--\":2:4   */\n    tag_106:\n        /* \"contracts/EasyStaking.sol\":14624:14897  function setWithdrawalUnlockDuration(uint256 _value) public onlyOwner {... */\n      dup2\n      add\n      swap1\n      dup1\n      dup1\n      calldataload\n      swap1\n      0x20\n      add\n      swap1\n      swap3\n      swap2\n      swap1\n      pop\n      pop\n      pop\n      tag_107\n      jump\t// in\n    tag_105:\n      stop\n        /* \"contracts/EasyStaking.sol\":5805:5874  mapping (address => mapping (uint256 => uint256)) public depositDates */\n    tag_25:\n      tag_108\n      0x04\n      dup1\n      calldatasize\n      sub\n        /* \"--CODEGEN--\":13:15   */\n      0x40\n        /* \"--CODEGEN--\":8:11   */\n      dup2\n        /* \"--CODEGEN--\":5:16   */\n      lt\n        /* \"--CODEGEN--\":2:4   */\n      iszero\n      tag_109\n      jumpi\n        /* \"--CODEGEN--\":29:30   */\n      0x00\n        /* \"--CODEGEN--\":26:27   */\n      dup1\n        /* \"--CODEGEN--\":19:31   */\n      revert\n        /* \"--CODEGEN--\":2:4   */\n    tag_109:\n        /* \"contracts/EasyStaking.sol\":5805:5874  mapping (address => mapping (uint256 => uint256)) public depositDates */\n      dup2\n      add\n      swap1\n      dup1\n      dup1\n      calldataload\n      0xffffffffffffffffffffffffffffffffffffffff\n      and\n      swap1\n      0x20\n      add\n      swap1\n      swap3\n      swap2\n      swap1\n      dup1\n      calldataload\n      swap1\n      0x20\n      add\n      swap1\n      swap3\n      swap2\n      swap1\n      pop\n      pop\n      pop\n      tag_110\n      jump\t// in\n    tag_108:\n      mload(0x40)\n      dup1\n      dup3\n      dup2\n      mstore\n      0x20\n      add\n      swap2\n      pop\n      pop\n      mload(0x40)\n      dup1\n      swap2\n      sub\n      swap1\n      return\n        /* \"@openzeppelin/contracts-ethereum-package/contracts/ownership/Ownable.sol\":959:1036  function owner() public view returns (address) {... */\n    tag_26:\n      tag_111\n      tag_112\n      jump\t// in\n    tag_111:\n      mload(0x40)\n      dup1\n      dup3\n      0xffffffffffffffffffffffffffffffffffffffff\n      and\n      0xffffffffffffffffffffffffffffffffffffffff\n      and\n      dup2\n      mstore\n      0x20\n      add\n      swap2\n      pop\n      pop\n      mload(0x40)\n      dup1\n      swap2\n      sub\n      swap1\n      return\n        /* \"contracts/EasyStaking.sol\":17676:17815  function withdrawalUnlockDuration() public view returns (uint256) {... */\n    tag_27:\n      tag_113\n      tag_114\n      jump\t// in\n    tag_113:\n      mload(0x40)\n      dup1\n      dup3\n      dup2\n      mstore\n      0x20\n      add\n      swap2\n      pop\n      pop\n      mload(0x40)\n      dup1\n      swap2\n      sub\n      swap1\n      return\n        /* \"@openzeppelin/contracts-ethereum-package/contracts/ownership/Ownable.sol\":1310:1402  function isOwner() public view returns (bool) {... */\n    tag_28:\n      tag_115\n      tag_116\n      jump\t// in\n    tag_115:\n      mload(0x40)\n      dup1\n      dup3\n      iszero\n      iszero\n      iszero\n      iszero\n      dup2\n      mstore\n      0x20\n      add\n      swap2\n      pop\n      pop\n      mload(0x40)\n      dup1\n      swap2\n      sub\n      swap1\n      return\n        /* \"contracts/EasyStaking.sol\":10644:10785  function makeForcedWithdrawal(uint256 _depositId, uint256 _amount) external {... */\n    tag_29:\n      tag_117\n      0x04\n      dup1\n      calldatasize\n      sub\n        /* \"--CODEGEN--\":13:15   */\n      0x40\n        /* \"--CODEGEN--\":8:11   */\n      dup2\n        /* \"--CODEGEN--\":5:16   */\n      lt\n        /* \"--CODEGEN--\":2:4   */\n      iszero\n      tag_118\n      jumpi\n        /* \"--CODEGEN--\":29:30   */\n      0x00\n        /* \"--CODEGEN--\":26:27   */\n      dup1\n        /* \"--CODEGEN--\":19:31   */\n      revert\n        /* \"--CODEGEN--\":2:4   */\n    tag_118:\n        /* \"contracts/EasyStaking.sol\":10644:10785  function makeForcedWithdrawal(uint256 _depositId, uint256 _amount) external {... */\n      dup2\n      add\n      swap1\n      dup1\n      dup1\n      calldataload\n      swap1\n      0x20\n      add\n      swap1\n      swap3\n      swap2\n      swap1\n      dup1\n      calldataload\n      swap1\n      0x20\n      add\n      swap1\n      swap3\n      swap2\n      swap1\n      pop\n      pop\n      pop\n      tag_119\n      jump\t// in\n    tag_117:\n      stop\n        /* \"contracts/EasyStaking.sol\":17895:18030  function lockAfterStakeDuration() public view returns (uint256) {... */\n    tag_30:\n      tag_120\n      tag_121\n      jump\t// in\n    tag_120:\n      mload(0x40)\n      dup1\n      dup3\n      dup2\n      mstore\n      0x20\n      add\n      swap2\n      pop\n      pop\n      mload(0x40)\n      dup1\n      swap2\n      sub\n      swap1\n      return\n        /* \"contracts/EasyStaking.sol\":11087:11371  function requestWithdrawal(uint256 _depositId) external {... */\n    tag_31:\n      tag_122\n      0x04\n      dup1\n      calldatasize\n      sub\n        /* \"--CODEGEN--\":13:15   */\n      0x20\n        /* \"--CODEGEN--\":8:11   */\n      dup2\n        /* \"--CODEGEN--\":5:16   */\n      lt\n        /* \"--CODEGEN--\":2:4   */\n      iszero\n      tag_123\n      jumpi\n        /* \"--CODEGEN--\":29:30   */\n      0x00\n        /* \"--CODEGEN--\":26:27   */\n      dup1\n        /* \"--CODEGEN--\":19:31   */\n      revert\n        /* \"--CODEGEN--\":2:4   */\n    tag_123:\n        /* \"contracts/EasyStaking.sol\":11087:11371  function requestWithdrawal(uint256 _depositId) external {... */\n      dup2\n      add\n      swap1\n      dup1\n      dup1\n      calldataload\n      swap1\n      0x20\n      add\n      swap1\n      swap3\n      swap2\n      swap1\n      pop\n      pop\n      pop\n      tag_124\n      jump\t// in\n    tag_122:\n      stop\n        /* \"contracts/EasyStaking.sol\":12798:13633  function claimTokens(address _token, address payable _to, uint256 _amount) external onlyOwner {... */\n    tag_32:\n      tag_125\n      0x04\n      dup1\n      calldatasize\n      sub\n        /* \"--CODEGEN--\":13:15   */\n      0x60\n        /* \"--CODEGEN--\":8:11   */\n      dup2\n        /* \"--CODEGEN--\":5:16   */\n      lt\n        /* \"--CODEGEN--\":2:4   */\n      iszero\n      tag_126\n      jumpi\n        /* \"--CODEGEN--\":29:30   */\n      0x00\n        /* \"--CODEGEN--\":26:27   */\n      dup1\n        /* \"--CODEGEN--\":19:31   */\n      revert\n        /* \"--CODEGEN--\":2:4   */\n    tag_126:\n        /* \"contracts/EasyStaking.sol\":12798:13633  function claimTokens(address _token, address payable _to, uint256 _amount) external onlyOwner {... */\n      dup2\n      add\n      swap1\n      dup1\n      dup1\n      calldataload\n      0xffffffffffffffffffffffffffffffffffffffff\n      and\n      swap1\n      0x20\n      add\n      swap1\n      swap3\n      swap2\n      swap1\n      dup1\n      calldataload\n      0xffffffffffffffffffffffffffffffffffffffff\n      and\n      swap1\n      0x20\n      add\n      swap1\n      swap3\n      swap2\n      swap1\n      dup1\n      calldataload\n      swap1\n      0x20\n      add\n      swap1\n      swap3\n      swap2\n      swap1\n      pop\n      pop\n      pop\n      tag_127\n      jump\t// in\n    tag_125:\n      stop\n        /* \"contracts/EasyStaking.sol\":10074:10382  function onTokenTransfer(address _sender, uint256 _amount, bytes calldata) external returns (bool) {... */\n    tag_33:\n      tag_128\n      0x04\n      dup1\n      calldatasize\n      sub\n        /* \"--CODEGEN--\":13:15   */\n      0x60\n        /* \"--CODEGEN--\":8:11   */\n      dup2\n        /* \"--CODEGEN--\":5:16   */\n      lt\n        /* \"--CODEGEN--\":2:4   */\n      iszero\n      tag_129\n      jumpi\n        /* \"--CODEGEN--\":29:30   */\n      0x00\n        /* \"--CODEGEN--\":26:27   */\n      dup1\n        /* \"--CODEGEN--\":19:31   */\n      revert\n        /* \"--CODEGEN--\":2:4   */\n    tag_129:\n        /* \"contracts/EasyStaking.sol\":10074:10382  function onTokenTransfer(address _sender, uint256 _amount, bytes calldata) external returns (bool) {... */\n      dup2\n      add\n      swap1\n      dup1\n      dup1\n      calldataload\n      0xffffffffffffffffffffffffffffffffffffffff\n      and\n      swap1\n      0x20\n      add\n      swap1\n      swap3\n      swap2\n      swap1\n      dup1\n      calldataload\n      swap1\n      0x20\n      add\n      swap1\n      swap3\n      swap2\n      swap1\n      dup1\n      calldataload\n      swap1\n      0x20\n      add\n      swap1\n        /* \"--CODEGEN--\":21:32   */\n      0x0100000000\n        /* \"--CODEGEN--\":8:19   */\n      dup2\n        /* \"--CODEGEN--\":5:33   */\n      gt\n        /* \"--CODEGEN--\":2:4   */\n      iszero\n      tag_130\n      jumpi\n        /* \"--CODEGEN--\":46:47   */\n      0x00\n        /* \"--CODEGEN--\":43:44   */\n      dup1\n        /* \"--CODEGEN--\":36:48   */\n      revert\n        /* \"--CODEGEN--\":2:4   */\n    tag_130:\n        /* \"contracts/EasyStaking.sol\":10074:10382  function onTokenTransfer(address _sender, uint256 _amount, bytes calldata) external returns (bool) {... */\n      dup3\n      add\n        /* \"--CODEGEN--\":35:44   */\n      dup4\n        /* \"--CODEGEN--\":28:32   */\n      0x20\n        /* \"--CODEGEN--\":12:26   */\n      dup3\n        /* \"--CODEGEN--\":8:33   */\n      add\n        /* \"--CODEGEN--\":5:45   */\n      gt\n        /* \"--CODEGEN--\":2:4   */\n      iszero\n      tag_131\n      jumpi\n        /* \"--CODEGEN--\":58:59   */\n      0x00\n        /* \"--CODEGEN--\":55:56   */\n      dup1\n        /* \"--CODEGEN--\":48:60   */\n      revert\n        /* \"--CODEGEN--\":2:4   */\n    tag_131:\n        /* \"contracts/EasyStaking.sol\":10074:10382  function onTokenTransfer(address _sender, uint256 _amount, bytes calldata) external returns (bool) {... */\n      dup1\n      calldataload\n      swap1\n      0x20\n      add\n      swap2\n        /* \"--CODEGEN--\":100:109   */\n      dup5\n        /* \"--CODEGEN--\":95:96   */\n      0x01\n        /* \"--CODEGEN--\":81:93   */\n      dup4\n        /* \"--CODEGEN--\":77:97   */\n      mul\n        /* \"--CODEGEN--\":67:75   */\n      dup5\n        /* \"--CODEGEN--\":63:98   */\n      add\n        /* \"--CODEGEN--\":60:110   */\n      gt\n        /* \"--CODEGEN--\":39:50   */\n      0x0100000000\n        /* \"--CODEGEN--\":25:37   */\n      dup4\n        /* \"--CODEGEN--\":22:51   */\n      gt\n        /* \"--CODEGEN--\":11:118   */\n      or\n        /* \"--CODEGEN--\":8:10   */\n      iszero\n      tag_132\n      jumpi\n        /* \"--CODEGEN--\":131:132   */\n      0x00\n        /* \"--CODEGEN--\":128:129   */\n      dup1\n        /* \"--CODEGEN--\":121:133   */\n      revert\n        /* \"--CODEGEN--\":8:10   */\n    tag_132:\n        /* \"contracts/EasyStaking.sol\":10074:10382  function onTokenTransfer(address _sender, uint256 _amount, bytes calldata) external returns (bool) {... */\n      swap1\n      swap2\n      swap3\n      swap4\n      swap2\n      swap3\n      swap4\n      swap1\n      pop\n      pop\n      pop\n      tag_133\n      jump\t// in\n    tag_128:\n      mload(0x40)\n      dup1\n      dup3\n      iszero\n      iszero\n      iszero\n      iszero\n      dup2\n      mstore\n      0x20\n      add\n      swap2\n      pop\n      pop\n      mload(0x40)\n      dup1\n      swap2\n      sub\n      swap1\n      return\n        /* \"contracts/EasyStaking.sol\":5615:5654  UintParam public totalSupplyFactorParam */\n    tag_34:\n      tag_134\n      tag_135\n      jump\t// in\n    tag_134:\n      mload(0x40)\n      dup1\n      dup5\n      dup2\n      mstore\n      0x20\n      add\n      dup4\n      dup2\n      mstore\n      0x20\n      add\n      dup3\n      dup2\n      mstore\n      0x20\n      add\n      swap4\n      pop\n      pop\n      pop\n      pop\n      mload(0x40)\n      dup1\n      swap2\n      sub\n      swap1\n      return\n        /* \"contracts/EasyStaking.sol\":8592:8698  function deposit(uint256 _amount) external {... */\n    tag_35:\n      tag_136\n      0x04\n      dup1\n      calldatasize\n      sub\n        /* \"--CODEGEN--\":13:15   */\n      0x20\n        /* \"--CODEGEN--\":8:11   */\n      dup2\n        /* \"--CODEGEN--\":5:16   */\n      lt\n        /* \"--CODEGEN--\":2:4   */\n      iszero\n      tag_137\n      jumpi\n        /* \"--CODEGEN--\":29:30   */\n      0x00\n        /* \"--CODEGEN--\":26:27   */\n      dup1\n        /* \"--CODEGEN--\":19:31   */\n      revert\n        /* \"--CODEGEN--\":2:4   */\n    tag_137:\n        /* \"contracts/EasyStaking.sol\":8592:8698  function deposit(uint256 _amount) external {... */\n      dup2\n      add\n      swap1\n      dup1\n      dup1\n      calldataload\n      swap1\n      0x20\n      add\n      swap1\n      swap3\n      swap2\n      swap1\n      pop\n      pop\n      pop\n      tag_138\n      jump\t// in\n    tag_136:\n      stop\n        /* \"contracts/EasyStaking.sol\":6040:6090  mapping (address => uint256) public lastDepositIds */\n    tag_36:\n      tag_139\n      0x04\n      dup1\n      calldatasize\n      sub\n        /* \"--CODEGEN--\":13:15   */\n      0x20\n        /* \"--CODEGEN--\":8:11   */\n      dup2\n        /* \"--CODEGEN--\":5:16   */\n      lt\n        /* \"--CODEGEN--\":2:4   */\n      iszero\n      tag_140\n      jumpi\n        /* \"--CODEGEN--\":29:30   */\n      0x00\n        /* \"--CODEGEN--\":26:27   */\n      dup1\n        /* \"--CODEGEN--\":19:31   */\n      revert\n        /* \"--CODEGEN--\":2:4   */\n    tag_140:\n        /* \"contracts/EasyStaking.sol\":6040:6090  mapping (address => uint256) public lastDepositIds */\n      dup2\n      add\n      swap1\n      dup1\n      dup1\n      calldataload\n      0xffffffffffffffffffffffffffffffffffffffff\n      and\n      swap1\n      0x20\n      add\n      swap1\n      swap3\n      swap2\n      swap1\n      pop\n      pop\n      pop\n      tag_141\n      jump\t// in\n    tag_139:\n      mload(0x40)\n      dup1\n      dup3\n      dup2\n      mstore\n      0x20\n      add\n      swap2\n      pop\n      pop\n      mload(0x40)\n      dup1\n      swap2\n      sub\n      swap1\n      return\n        /* \"@openzeppelin/contracts-ethereum-package/contracts/ownership/Ownable.sol\":741:883  function initialize(address sender) public initializer {... */\n    tag_37:\n      tag_142\n      0x04\n      dup1\n      calldatasize\n      sub\n        /* \"--CODEGEN--\":13:15   */\n      0x20\n        /* \"--CODEGEN--\":8:11   */\n      dup2\n        /* \"--CODEGEN--\":5:16   */\n      lt\n        /* \"--CODEGEN--\":2:4   */\n      iszero\n      tag_143\n      jumpi\n        /* \"--CODEGEN--\":29:30   */\n      0x00\n        /* \"--CODEGEN--\":26:27   */\n      dup1\n        /* \"--CODEGEN--\":19:31   */\n      revert\n        /* \"--CODEGEN--\":2:4   */\n    tag_143:\n        /* \"@openzeppelin/contracts-ethereum-package/contracts/ownership/Ownable.sol\":741:883  function initialize(address sender) public initializer {... */\n      dup2\n      add\n      swap1\n      dup1\n      dup1\n      calldataload\n      0xffffffffffffffffffffffffffffffffffffffff\n      and\n      swap1\n      0x20\n      add\n      swap1\n      swap3\n      swap2\n      swap1\n      pop\n      pop\n      pop\n      tag_144\n      jump\t// in\n    tag_142:\n      stop\n        /* \"contracts/EasyStaking.sol\":18550:18796  function liquidityProvidersRewardAddress() public view returns (address) {... */\n    tag_38:\n      tag_145\n      tag_146\n      jump\t// in\n    tag_145:\n      mload(0x40)\n      dup1\n      dup3\n      0xffffffffffffffffffffffffffffffffffffffff\n      and\n      0xffffffffffffffffffffffffffffffffffffffff\n      and\n      dup2\n      mstore\n      0x20\n      add\n      swap2\n      pop\n      pop\n      mload(0x40)\n      dup1\n      swap2\n      sub\n      swap1\n      return\n        /* \"contracts/EasyStaking.sol\":7213:8356  function initialize(... */\n    tag_39:\n      tag_147\n      0x04\n      dup1\n      calldatasize\n      sub\n        /* \"--CODEGEN--\":13:16   */\n      0x0160\n        /* \"--CODEGEN--\":8:11   */\n      dup2\n        /* \"--CODEGEN--\":5:17   */\n      lt\n        /* \"--CODEGEN--\":2:4   */\n      iszero\n      tag_148\n      jumpi\n        /* \"--CODEGEN--\":30:31   */\n      0x00\n        /* \"--CODEGEN--\":27:28   */\n      dup1\n        /* \"--CODEGEN--\":20:32   */\n      revert\n        /* \"--CODEGEN--\":2:4   */\n    tag_148:\n        /* \"contracts/EasyStaking.sol\":7213:8356  function initialize(... */\n      dup2\n      add\n      swap1\n      dup1\n      dup1\n      calldataload\n      0xffffffffffffffffffffffffffffffffffffffff\n      and\n      swap1\n      0x20\n      add\n      swap1\n      swap3\n      swap2\n      swap1\n      dup1\n      calldataload\n      0xffffffffffffffffffffffffffffffffffffffff\n      and\n      swap1\n      0x20\n      add\n      swap1\n      swap3\n      swap2\n      swap1\n      dup1\n      calldataload\n      0xffffffffffffffffffffffffffffffffffffffff\n      and\n      swap1\n      0x20\n      add\n      swap1\n      swap3\n      swap2\n      swap1\n      dup1\n      calldataload\n      swap1\n      0x20\n      add\n      swap1\n      swap3\n      swap2\n      swap1\n      dup1\n      calldataload\n      swap1\n      0x20\n      add\n      swap1\n      swap3\n      swap2\n      swap1\n      dup1\n      calldataload\n      swap1\n      0x20\n      add\n      swap1\n      swap3\n      swap2\n      swap1\n      dup1\n      calldataload\n      swap1\n      0x20\n      add\n      swap1\n      swap3\n      swap2\n      swap1\n      dup1\n      calldataload\n      swap1\n      0x20\n      add\n      swap1\n      swap3\n      swap2\n      swap1\n      dup1\n      calldataload\n      swap1\n      0x20\n      add\n      swap1\n      swap3\n      swap2\n      swap1\n      dup1\n      calldataload\n      swap1\n      0x20\n      add\n      swap1\n      swap3\n      swap2\n      swap1\n      dup1\n      calldataload\n      swap1\n      0x20\n      add\n      swap1\n      swap3\n      swap2\n      swap1\n      pop\n      pop\n      pop\n      tag_149\n      jump\t// in\n    tag_147:\n      stop\n        /* \"contracts/EasyStaking.sol\":5698:5763  mapping (address => mapping (uint256 => uint256)) public balances */\n    tag_40:\n      tag_150\n      0x04\n      dup1\n      calldatasize\n      sub\n        /* \"--CODEGEN--\":13:15   */\n      0x40\n        /* \"--CODEGEN--\":8:11   */\n      dup2\n        /* \"--CODEGEN--\":5:16   */\n      lt\n        /* \"--CODEGEN--\":2:4   */\n      iszero\n      tag_151\n      jumpi\n        /* \"--CODEGEN--\":29:30   */\n      0x00\n        /* \"--CODEGEN--\":26:27   */\n      dup1\n        /* \"--CODEGEN--\":19:31   */\n      revert\n        /* \"--CODEGEN--\":2:4   */\n    tag_151:\n        /* \"contracts/EasyStaking.sol\":5698:5763  mapping (address => mapping (uint256 => uint256)) public balances */\n      dup2\n      add\n      swap1\n      dup1\n      dup1\n      calldataload\n      0xffffffffffffffffffffffffffffffffffffffff\n      and\n      swap1\n      0x20\n      add\n      swap1\n      swap3\n      swap2\n      swap1\n      dup1\n      calldataload\n      swap1\n      0x20\n      add\n      swap1\n      swap3\n      swap2\n      swap1\n      pop\n      pop\n      pop\n      tag_152\n      jump\t// in\n    tag_150:\n      mload(0x40)\n      dup1\n      dup3\n      dup2\n      mstore\n      0x20\n      add\n      swap2\n      pop\n      pop\n      mload(0x40)\n      dup1\n      swap2\n      sub\n      swap1\n      return\n        /* \"contracts/EasyStaking.sol\":16560:17226  function setLiquidityProvidersRewardAddress(address _address) public onlyOwner {... */\n    tag_41:\n      tag_153\n      0x04\n      dup1\n      calldatasize\n      sub\n        /* \"--CODEGEN--\":13:15   */\n      0x20\n        /* \"--CODEGEN--\":8:11   */\n      dup2\n        /* \"--CODEGEN--\":5:16   */\n      lt\n        /* \"--CODEGEN--\":2:4   */\n      iszero\n      tag_154\n      jumpi\n        /* \"--CODEGEN--\":29:30   */\n      0x00\n        /* \"--CODEGEN--\":26:27   */\n      dup1\n        /* \"--CODEGEN--\":19:31   */\n      revert\n        /* \"--CODEGEN--\":2:4   */\n    tag_154:\n        /* \"contracts/EasyStaking.sol\":16560:17226  function setLiquidityProvidersRewardAddress(address _address) public onlyOwner {... */\n      dup2\n      add\n      swap1\n      dup1\n      dup1\n      calldataload\n      0xffffffffffffffffffffffffffffffffffffffff\n      and\n      swap1\n      0x20\n      add\n      swap1\n      swap3\n      swap2\n      swap1\n      pop\n      pop\n      pop\n      tag_155\n      jump\t// in\n    tag_153:\n      stop\n        /* \"contracts/EasyStaking.sol\":4584:4635  uint256 public constant PARAM_UPDATE_DELAY = 7 days */\n    tag_42:\n      tag_156\n      tag_157\n      jump\t// in\n    tag_156:\n      mload(0x40)\n      dup1\n      dup3\n      dup2\n      mstore\n      0x20\n      add\n      swap2\n      pop\n      pop\n      mload(0x40)\n      dup1\n      swap2\n      sub\n      swap1\n      return\n        /* \"contracts/EasyStaking.sol\":17284:17381  function fee() public view returns (uint256) {... */\n    tag_43:\n      tag_158\n      tag_159\n      jump\t// in\n    tag_158:\n      mload(0x40)\n      dup1\n      dup3\n      dup2\n      mstore\n      0x20\n      add\n      swap2\n      pop\n      pop\n      mload(0x40)\n      dup1\n      swap2\n      sub\n      swap1\n      return\n        /* \"contracts/EasyStaking.sol\":5927:6007  mapping (address => mapping (uint256 => uint256)) public withdrawalRequestsDates */\n    tag_44:\n      tag_160\n      0x04\n      dup1\n      calldatasize\n      sub\n        /* \"--CODEGEN--\":13:15   */\n      0x40\n        /* \"--CODEGEN--\":8:11   */\n      dup2\n        /* \"--CODEGEN--\":5:16   */\n      lt\n        /* \"--CODEGEN--\":2:4   */\n      iszero\n      tag_161\n      jumpi\n        /* \"--CODEGEN--\":29:30   */\n      0x00\n        /* \"--CODEGEN--\":26:27   */\n      dup1\n        /* \"--CODEGEN--\":19:31   */\n      revert\n        /* \"--CODEGEN--\":2:4   */\n    tag_161:\n        /* \"contracts/EasyStaking.sol\":5927:6007  mapping (address => mapping (uint256 => uint256)) public withdrawalRequestsDates */\n      dup2\n      add\n      swap1\n      dup1\n      dup1\n      calldataload\n      0xffffffffffffffffffffffffffffffffffffffff\n      and\n      swap1\n      0x20\n      add\n      swap1\n      swap3\n      swap2\n      swap1\n      dup1\n      calldataload\n      swap1\n      0x20\n      add\n      swap1\n      swap3\n      swap2\n      swap1\n      pop\n      pop\n      pop\n      tag_162\n      jump\t// in\n    tag_160:\n      mload(0x40)\n      dup1\n      dup3\n      dup2\n      mstore\n      0x20\n      add\n      swap2\n      pop\n      pop\n      mload(0x40)\n      dup1\n      swap2\n      sub\n      swap1\n      return\n        /* \"contracts/EasyStaking.sol\":9308:9669  function deposit(uint256 _depositId, uint256 _amount) public {... */\n    tag_45:\n      tag_163\n      0x04\n      dup1\n      calldatasize\n      sub\n        /* \"--CODEGEN--\":13:15   */\n      0x40\n        /* \"--CODEGEN--\":8:11   */\n      dup2\n        /* \"--CODEGEN--\":5:16   */\n      lt\n        /* \"--CODEGEN--\":2:4   */\n      iszero\n      tag_164\n      jumpi\n        /* \"--CODEGEN--\":29:30   */\n      0x00\n        /* \"--CODEGEN--\":26:27   */\n      dup1\n        /* \"--CODEGEN--\":19:31   */\n      revert\n        /* \"--CODEGEN--\":2:4   */\n    tag_164:\n        /* \"contracts/EasyStaking.sol\":9308:9669  function deposit(uint256 _depositId, uint256 _amount) public {... */\n      dup2\n      add\n      swap1\n      dup1\n      dup1\n      calldataload\n      swap1\n      0x20\n      add\n      swap1\n      swap3\n      swap2\n      swap1\n      dup1\n      calldataload\n      swap1\n      0x20\n      add\n      swap1\n      swap3\n      swap2\n      swap1\n      pop\n      pop\n      pop\n      tag_165\n      jump\t// in\n    tag_163:\n      stop\n        /* \"@openzeppelin/contracts-ethereum-package/contracts/ownership/Ownable.sol\":2032:2139  function transferOwnership(address newOwner) public onlyOwner {... */\n    tag_46:\n      tag_166\n      0x04\n      dup1\n      calldatasize\n      sub\n        /* \"--CODEGEN--\":13:15   */\n      0x20\n        /* \"--CODEGEN--\":8:11   */\n      dup2\n        /* \"--CODEGEN--\":5:16   */\n      lt\n        /* \"--CODEGEN--\":2:4   */\n      iszero\n      tag_167\n      jumpi\n        /* \"--CODEGEN--\":29:30   */\n      0x00\n        /* \"--CODEGEN--\":26:27   */\n      dup1\n        /* \"--CODEGEN--\":19:31   */\n      revert\n        /* \"--CODEGEN--\":2:4   */\n    tag_167:\n        /* \"@openzeppelin/contracts-ethereum-package/contracts/ownership/Ownable.sol\":2032:2139  function transferOwnership(address newOwner) public onlyOwner {... */\n      dup2\n      add\n      swap1\n      dup1\n      dup1\n      calldataload\n      0xffffffffffffffffffffffffffffffffffffffff\n      and\n      swap1\n      0x20\n      add\n      swap1\n      swap3\n      swap2\n      swap1\n      pop\n      pop\n      pop\n      tag_168\n      jump\t// in\n    tag_166:\n      stop\n        /* \"contracts/EasyStaking.sol\":4661:4688  IERC20Mintable public token */\n    tag_47:\n      tag_169\n      tag_170\n      jump\t// in\n    tag_169:\n      mload(0x40)\n      dup1\n      dup3\n      0xffffffffffffffffffffffffffffffffffffffff\n      and\n      0xffffffffffffffffffffffffffffffffffffffff\n      and\n      dup2\n      mstore\n      0x20\n      add\n      swap2\n      pop\n      pop\n      mload(0x40)\n      dup1\n      swap2\n      sub\n      swap1\n      return\n        /* \"contracts/EasyStaking.sol\":5492:5536  UintParam public lockAfterStakeDurationParam */\n    tag_56:\n      0xa6\n      dup1\n      0x00\n      add\n      sload\n      swap1\n      dup1\n      0x01\n      add\n      sload\n      swap1\n      dup1\n      0x02\n      add\n      sload\n      swap1\n      pop\n      dup4\n      jump\t// out\n        /* \"contracts/EasyStaking.sol\":18036:18262  function lockAfterStakeDurationPassed(address _sender, uint256 _id) public view returns (bool) {... */\n    tag_59:\n        /* \"contracts/EasyStaking.sol\":18125:18129  bool */\n      0x00\n        /* \"contracts/EasyStaking.sol\":18141:18159  uint256 timePassed */\n      dup1\n        /* \"contracts/EasyStaking.sol\":18162:18200  _now().sub(depositDates[_sender][_id]) */\n      tag_172\n        /* \"contracts/EasyStaking.sol\":18173:18185  depositDates */\n      0xad\n        /* \"contracts/EasyStaking.sol\":18173:18194  depositDates[_sender] */\n      0x00\n        /* \"contracts/EasyStaking.sol\":18186:18193  _sender */\n      dup7\n        /* \"contracts/EasyStaking.sol\":18173:18194  depositDates[_sender] */\n      0xffffffffffffffffffffffffffffffffffffffff\n      and\n      0xffffffffffffffffffffffffffffffffffffffff\n      and\n      dup2\n      mstore\n      0x20\n      add\n      swap1\n      dup2\n      mstore\n      0x20\n      add\n      0x00\n      keccak256\n        /* \"contracts/EasyStaking.sol\":18173:18199  depositDates[_sender][_id] */\n      0x00\n        /* \"contracts/EasyStaking.sol\":18195:18198  _id */\n      dup6\n        /* \"contracts/EasyStaking.sol\":18173:18199  depositDates[_sender][_id] */\n      dup2\n      mstore\n      0x20\n      add\n      swap1\n      dup2\n      mstore\n      0x20\n      add\n      0x00\n      keccak256\n      sload\n        /* \"contracts/EasyStaking.sol\":18162:18168  _now() */\n      tag_173\n        /* \"contracts/EasyStaking.sol\":18162:18166  _now */\n      tag_174\n        /* \"contracts/EasyStaking.sol\":18162:18168  _now() */\n      jump\t// in\n    tag_173:\n        /* \"contracts/EasyStaking.sol\":18162:18172  _now().sub */\n      tag_175\n      swap1\n        /* \"contracts/EasyStaking.sol\":18162:18200  _now().sub(depositDates[_sender][_id]) */\n      swap2\n      swap1\n      0xffffffff\n      and\n      jump\t// in\n    tag_172:\n        /* \"contracts/EasyStaking.sol\":18141:18200  uint256 timePassed = _now().sub(depositDates[_sender][_id]) */\n      swap1\n      pop\n        /* \"contracts/EasyStaking.sol\":18231:18255  lockAfterStakeDuration() */\n      tag_176\n        /* \"contracts/EasyStaking.sol\":18231:18253  lockAfterStakeDuration */\n      tag_121\n        /* \"contracts/EasyStaking.sol\":18231:18255  lockAfterStakeDuration() */\n      jump\t// in\n    tag_176:\n        /* \"contracts/EasyStaking.sol\":18217:18227  timePassed */\n      dup2\n        /* \"contracts/EasyStaking.sol\":18217:18255  timePassed >= lockAfterStakeDuration() */\n      lt\n      iszero\n        /* \"contracts/EasyStaking.sol\":18210:18255  return timePassed >= lockAfterStakeDuration() */\n      swap2\n      pop\n      pop\n        /* \"contracts/EasyStaking.sol\":18036:18262  function lockAfterStakeDurationPassed(address _sender, uint256 _id) public view returns (bool) {... */\n      swap3\n      swap2\n      pop\n      pop\n      jump\t// out\n        /* \"contracts/EasyStaking.sol\":4970:5026  AddressParam public liquidityProvidersRewardAddressParam */\n    tag_61:\n      0x9a\n      dup1\n      0x00\n      add\n      0x00\n      swap1\n      sload\n      swap1\n      0x0100\n      exp\n      swap1\n      div\n      0xffffffffffffffffffffffffffffffffffffffff\n      and\n      swap1\n      dup1\n      0x01\n      add\n      0x00\n      swap1\n      sload\n      swap1\n      0x0100\n      exp\n      swap1\n      div\n      0xffffffffffffffffffffffffffffffffffffffff\n      and\n      swap1\n      dup1\n      0x02\n      add\n      sload\n      swap1\n      pop\n      dup4\n      jump\t// out\n        /* \"contracts/EasyStaking.sol\":11853:12442  function makeRequestedWithdrawal(uint256 _depositId, uint256 _amount) external {... */\n    tag_64:\n        /* \"contracts/EasyStaking.sol\":11942:11961  uint256 requestDate */\n      0x00\n        /* \"contracts/EasyStaking.sol\":11964:11987  withdrawalRequestsDates */\n      0xae\n        /* \"contracts/EasyStaking.sol\":11964:11999  withdrawalRequestsDates[msg.sender] */\n      0x00\n        /* \"contracts/EasyStaking.sol\":11988:11998  msg.sender */\n      caller\n        /* \"contracts/EasyStaking.sol\":11964:11999  withdrawalRequestsDates[msg.sender] */\n      0xffffffffffffffffffffffffffffffffffffffff\n      and\n      0xffffffffffffffffffffffffffffffffffffffff\n      and\n      dup2\n      mstore\n      0x20\n      add\n      swap1\n      dup2\n      mstore\n      0x20\n      add\n      0x00\n      keccak256\n        /* \"contracts/EasyStaking.sol\":11964:12011  withdrawalRequestsDates[msg.sender][_depositId] */\n      0x00\n        /* \"contracts/EasyStaking.sol\":12000:12010  _depositId */\n      dup5\n        /* \"contracts/EasyStaking.sol\":11964:12011  withdrawalRequestsDates[msg.sender][_depositId] */\n      dup2\n      mstore\n      0x20\n      add\n      swap1\n      dup2\n      mstore\n      0x20\n      add\n      0x00\n      keccak256\n      sload\n        /* \"contracts/EasyStaking.sol\":11942:12011  uint256 requestDate = withdrawalRequestsDates[msg.sender][_depositId] */\n      swap1\n      pop\n        /* \"contracts/EasyStaking.sol\":12043:12044  0 */\n      0x00\n        /* \"contracts/EasyStaking.sol\":12029:12040  requestDate */\n      dup2\n        /* \"contracts/EasyStaking.sol\":12029:12044  requestDate > 0 */\n      gt\n        /* \"contracts/EasyStaking.sol\":12021:12076  require(requestDate > 0, \"withdrawal wasn't requested\") */\n      tag_178\n      jumpi\n      mload(0x40)\n      0x08c379a000000000000000000000000000000000000000000000000000000000\n      dup2\n      mstore\n      0x04\n      add\n      dup1\n      dup1\n      0x20\n      add\n      dup3\n      dup2\n      sub\n      dup3\n      mstore\n      0x1b\n      dup2\n      mstore\n      0x20\n      add\n      dup1\n      0x7769746864726177616c207761736e2774207265717565737465640000000000\n      dup2\n      mstore\n      pop\n      0x20\n      add\n      swap2\n      pop\n      pop\n      mload(0x40)\n      dup1\n      swap2\n      sub\n      swap1\n      revert\n    tag_178:\n        /* \"contracts/EasyStaking.sol\":12086:12103  uint256 timestamp */\n      0x00\n        /* \"contracts/EasyStaking.sol\":12106:12112  _now() */\n      tag_179\n        /* \"contracts/EasyStaking.sol\":12106:12110  _now */\n      tag_174\n        /* \"contracts/EasyStaking.sol\":12106:12112  _now() */\n      jump\t// in\n    tag_179:\n        /* \"contracts/EasyStaking.sol\":12086:12112  uint256 timestamp = _now() */\n      swap1\n      pop\n        /* \"contracts/EasyStaking.sol\":12122:12137  uint256 lockEnd */\n      0x00\n        /* \"contracts/EasyStaking.sol\":12140:12181  requestDate.add(withdrawalLockDuration()) */\n      tag_180\n        /* \"contracts/EasyStaking.sol\":12156:12180  withdrawalLockDuration() */\n      tag_181\n        /* \"contracts/EasyStaking.sol\":12156:12178  withdrawalLockDuration */\n      tag_85\n        /* \"contracts/EasyStaking.sol\":12156:12180  withdrawalLockDuration() */\n      jump\t// in\n    tag_181:\n        /* \"contracts/EasyStaking.sol\":12140:12151  requestDate */\n      dup5\n        /* \"contracts/EasyStaking.sol\":12140:12155  requestDate.add */\n      tag_182\n      swap1\n        /* \"contracts/EasyStaking.sol\":12140:12181  requestDate.add(withdrawalLockDuration()) */\n      swap2\n      swap1\n      0xffffffff\n      and\n      jump\t// in\n    tag_180:\n        /* \"contracts/EasyStaking.sol\":12122:12181  uint256 lockEnd = requestDate.add(withdrawalLockDuration()) */\n      swap1\n      pop\n        /* \"contracts/EasyStaking.sol\":12212:12219  lockEnd */\n      dup1\n        /* \"contracts/EasyStaking.sol\":12199:12208  timestamp */\n      dup3\n        /* \"contracts/EasyStaking.sol\":12199:12219  timestamp >= lockEnd */\n      lt\n      iszero\n        /* \"contracts/EasyStaking.sol\":12191:12233  require(timestamp >= lockEnd, \"too early\") */\n      tag_183\n      jumpi\n      mload(0x40)\n      0x08c379a000000000000000000000000000000000000000000000000000000000\n      dup2\n      mstore\n      0x04\n      add\n      dup1\n      dup1\n      0x20\n      add\n      dup3\n      dup2\n      sub\n      dup3\n      mstore\n      0x09\n      dup2\n      mstore\n      0x20\n      add\n      dup1\n      0x746f6f206561726c790000000000000000000000000000000000000000000000\n      dup2\n      mstore\n      pop\n      0x20\n      add\n      swap2\n      pop\n      pop\n      mload(0x40)\n      dup1\n      swap2\n      sub\n      swap1\n      revert\n    tag_183:\n        /* \"contracts/EasyStaking.sol\":12263:12302  lockEnd.add(withdrawalUnlockDuration()) */\n      tag_184\n        /* \"contracts/EasyStaking.sol\":12275:12301  withdrawalUnlockDuration() */\n      tag_185\n        /* \"contracts/EasyStaking.sol\":12275:12299  withdrawalUnlockDuration */\n      tag_114\n        /* \"contracts/EasyStaking.sol\":12275:12301  withdrawalUnlockDuration() */\n      jump\t// in\n    tag_185:\n        /* \"contracts/EasyStaking.sol\":12263:12270  lockEnd */\n      dup3\n        /* \"contracts/EasyStaking.sol\":12263:12274  lockEnd.add */\n      tag_182\n      swap1\n        /* \"contracts/EasyStaking.sol\":12263:12302  lockEnd.add(withdrawalUnlockDuration()) */\n      swap2\n      swap1\n      0xffffffff\n      and\n      jump\t// in\n    tag_184:\n        /* \"contracts/EasyStaking.sol\":12251:12260  timestamp */\n      dup3\n        /* \"contracts/EasyStaking.sol\":12251:12302  timestamp < lockEnd.add(withdrawalUnlockDuration()) */\n      lt\n        /* \"contracts/EasyStaking.sol\":12243:12315  require(timestamp < lockEnd.add(withdrawalUnlockDuration()), \"too late\") */\n      tag_186\n      jumpi\n      mload(0x40)\n      0x08c379a000000000000000000000000000000000000000000000000000000000\n      dup2\n      mstore\n      0x04\n      add\n      dup1\n      dup1\n      0x20\n      add\n      dup3\n      dup2\n      sub\n      dup3\n      mstore\n      0x08\n      dup2\n      mstore\n      0x20\n      add\n      dup1\n      0x746f6f206c617465000000000000000000000000000000000000000000000000\n      dup2\n      mstore\n      pop\n      0x20\n      add\n      swap2\n      pop\n      pop\n      mload(0x40)\n      dup1\n      swap2\n      sub\n      swap1\n      revert\n    tag_186:\n        /* \"contracts/EasyStaking.sol\":12375:12376  0 */\n      0x00\n        /* \"contracts/EasyStaking.sol\":12325:12348  withdrawalRequestsDates */\n      0xae\n        /* \"contracts/EasyStaking.sol\":12325:12360  withdrawalRequestsDates[msg.sender] */\n      0x00\n        /* \"contracts/EasyStaking.sol\":12349:12359  msg.sender */\n      caller\n        /* \"contracts/EasyStaking.sol\":12325:12360  withdrawalRequestsDates[msg.sender] */\n      0xffffffffffffffffffffffffffffffffffffffff\n      and\n      0xffffffffffffffffffffffffffffffffffffffff\n      and\n      dup2\n      mstore\n      0x20\n      add\n      swap1\n      dup2\n      mstore\n      0x20\n      add\n      0x00\n      keccak256\n        /* \"contracts/EasyStaking.sol\":12325:12372  withdrawalRequestsDates[msg.sender][_depositId] */\n      0x00\n        /* \"contracts/EasyStaking.sol\":12361:12371  _depositId */\n      dup8\n        /* \"contracts/EasyStaking.sol\":12325:12372  withdrawalRequestsDates[msg.sender][_depositId] */\n      dup2\n      mstore\n      0x20\n      add\n      swap1\n      dup2\n      mstore\n      0x20\n      add\n      0x00\n      keccak256\n        /* \"contracts/EasyStaking.sol\":12325:12376  withdrawalRequestsDates[msg.sender][_depositId] = 0 */\n      dup2\n      swap1\n      sstore\n      pop\n        /* \"contracts/EasyStaking.sol\":12386:12435  _withdraw(msg.sender, _depositId, _amount, false) */\n      tag_187\n        /* \"contracts/EasyStaking.sol\":12396:12406  msg.sender */\n      caller\n        /* \"contracts/EasyStaking.sol\":12408:12418  _depositId */\n      dup7\n        /* \"contracts/EasyStaking.sol\":12420:12427  _amount */\n      dup7\n        /* \"contracts/EasyStaking.sol\":12429:12434  false */\n      0x00\n        /* \"contracts/EasyStaking.sol\":12386:12395  _withdraw */\n      tag_188\n        /* \"contracts/EasyStaking.sol\":12386:12435  _withdraw(msg.sender, _depositId, _amount, false) */\n      jump\t// in\n    tag_187:\n        /* \"contracts/EasyStaking.sol\":11853:12442  function makeRequestedWithdrawal(uint256 _depositId, uint256 _amount) external {... */\n      pop\n      pop\n      pop\n      pop\n      pop\n      jump\t// out\n        /* \"contracts/EasyStaking.sol\":14135:14406  function setWithdrawalLockDuration(uint256 _value) public onlyOwner {... */\n    tag_67:\n        /* \"@openzeppelin/contracts-ethereum-package/contracts/ownership/Ownable.sol\":1163:1172  isOwner() */\n      tag_190\n        /* \"@openzeppelin/contracts-ethereum-package/contracts/ownership/Ownable.sol\":1163:1170  isOwner */\n      tag_116\n        /* \"@openzeppelin/contracts-ethereum-package/contracts/ownership/Ownable.sol\":1163:1172  isOwner() */\n      jump\t// in\n    tag_190:\n        /* \"@openzeppelin/contracts-ethereum-package/contracts/ownership/Ownable.sol\":1155:1209  require(isOwner(), \"Ownable: caller is not the owner\") */\n      tag_191\n      jumpi\n      mload(0x40)\n      0x08c379a000000000000000000000000000000000000000000000000000000000\n      dup2\n      mstore\n      0x04\n      add\n      dup1\n      dup1\n      0x20\n      add\n      dup3\n      dup2\n      sub\n      dup3\n      mstore\n      0x20\n      dup2\n      mstore\n      0x20\n      add\n      dup1\n      0x4f776e61626c653a2063616c6c6572206973206e6f7420746865206f776e6572\n      dup2\n      mstore\n      pop\n      0x20\n      add\n      swap2\n      pop\n      pop\n      mload(0x40)\n      dup1\n      swap2\n      sub\n      swap1\n      revert\n    tag_191:\n        /* \"contracts/EasyStaking.sol\":14231:14238  30 days */\n      0x278d00\n        /* \"contracts/EasyStaking.sol\":14221:14227  _value */\n      dup2\n        /* \"contracts/EasyStaking.sol\":14221:14238  _value <= 30 days */\n      gt\n      iszero\n        /* \"contracts/EasyStaking.sol\":14213:14276  require(_value <= 30 days, \"shouldn't be greater than 30 days\") */\n      tag_193\n      jumpi\n      mload(0x40)\n      0x08c379a000000000000000000000000000000000000000000000000000000000\n      dup2\n      mstore\n      0x04\n      add\n      dup1\n      dup1\n      0x20\n      add\n      dup3\n      dup2\n      sub\n      dup3\n      mstore\n      0x21\n      dup2\n      mstore\n      0x20\n      add\n      dup1\n      data_efcc4c1bf2d1d2579b900a9df600f3c0d822d0a6e5ef236f035bfce4f914ebf5\n      0x21\n      swap2\n      codecopy\n      0x40\n      add\n      swap2\n      pop\n      pop\n      mload(0x40)\n      dup1\n      swap2\n      sub\n      swap1\n      revert\n    tag_193:\n        /* \"contracts/EasyStaking.sol\":14286:14339  _updateUintParam(withdrawalLockDurationParam, _value) */\n      tag_194\n        /* \"contracts/EasyStaking.sol\":14303:14330  withdrawalLockDurationParam */\n      0xa0\n        /* \"contracts/EasyStaking.sol\":14332:14338  _value */\n      dup3\n        /* \"contracts/EasyStaking.sol\":14286:14302  _updateUintParam */\n      tag_195\n        /* \"contracts/EasyStaking.sol\":14286:14339  _updateUintParam(withdrawalLockDurationParam, _value) */\n      jump\t// in\n    tag_194:\n        /* \"contracts/EasyStaking.sol\":14354:14399  WithdrawalLockDurationSet(_value, msg.sender) */\n      0xb1effbb8dc5cfa97751137110a061198891986f1567677e11ec9449743180f74\n        /* \"contracts/EasyStaking.sol\":14380:14386  _value */\n      dup2\n        /* \"contracts/EasyStaking.sol\":14388:14398  msg.sender */\n      caller\n        /* \"contracts/EasyStaking.sol\":14354:14399  WithdrawalLockDurationSet(_value, msg.sender) */\n      mload(0x40)\n      dup1\n      dup4\n      dup2\n      mstore\n      0x20\n      add\n      dup3\n      0xffffffffffffffffffffffffffffffffffffffff\n      and\n      0xffffffffffffffffffffffffffffffffffffffff\n      and\n      dup2\n      mstore\n      0x20\n      add\n      swap3\n      pop\n      pop\n      pop\n      mload(0x40)\n      dup1\n      swap2\n      sub\n      swap1\n      log1\n        /* \"contracts/EasyStaking.sol\":14135:14406  function setWithdrawalLockDuration(uint256 _value) public onlyOwner {... */\n      pop\n      jump\t// out\n        /* \"contracts/EasyStaking.sol\":16086:16397  function setSigmoidParameters(uint256 _a, int256 _b, uint256 _c) public onlyOwner {... */\n    tag_70:\n        /* \"@openzeppelin/contracts-ethereum-package/contracts/ownership/Ownable.sol\":1163:1172  isOwner() */\n      tag_197\n        /* \"@openzeppelin/contracts-ethereum-package/contracts/ownership/Ownable.sol\":1163:1170  isOwner */\n      tag_116\n        /* \"@openzeppelin/contracts-ethereum-package/contracts/ownership/Ownable.sol\":1163:1172  isOwner() */\n      jump\t// in\n    tag_197:\n        /* \"@openzeppelin/contracts-ethereum-package/contracts/ownership/Ownable.sol\":1155:1209  require(isOwner(), \"Ownable: caller is not the owner\") */\n      tag_198\n      jumpi\n      mload(0x40)\n      0x08c379a000000000000000000000000000000000000000000000000000000000\n      dup2\n      mstore\n      0x04\n      add\n      dup1\n      dup1\n      0x20\n      add\n      dup3\n      dup2\n      sub\n      dup3\n      mstore\n      0x20\n      dup2\n      mstore\n      0x20\n      add\n      dup1\n      0x4f776e61626c653a2063616c6c6572206973206e6f7420746865206f776e6572\n      dup2\n      mstore\n      pop\n      0x20\n      add\n      swap2\n      pop\n      pop\n      mload(0x40)\n      dup1\n      swap2\n      sub\n      swap1\n      revert\n    tag_198:\n        /* \"contracts/EasyStaking.sol\":16192:16216  MAX_EMISSION_RATE.div(2) */\n      tag_200\n        /* \"contracts/EasyStaking.sol\":16214:16215  2 */\n      0x02\n        /* \"contracts/EasyStaking.sol\":4481:4491  150 finney */\n      0x0214e8348c4f0000\n        /* \"contracts/EasyStaking.sol\":16192:16213  MAX_EMISSION_RATE.div */\n      tag_201\n      swap1\n        /* \"contracts/EasyStaking.sol\":16192:16216  MAX_EMISSION_RATE.div(2) */\n      swap2\n      swap1\n      0xffffffff\n      and\n      jump\t// in\n    tag_200:\n        /* \"contracts/EasyStaking.sol\":16186:16188  _a */\n      dup4\n        /* \"contracts/EasyStaking.sol\":16186:16216  _a <= MAX_EMISSION_RATE.div(2) */\n      gt\n      iszero\n        /* \"contracts/EasyStaking.sol\":16178:16288  require(_a <= MAX_EMISSION_RATE.div(2), \"should be less than or equal to a half of the maximum emission rate\") */\n      tag_202\n      jumpi\n      mload(0x40)\n      0x08c379a000000000000000000000000000000000000000000000000000000000\n      dup2\n      mstore\n      0x04\n      add\n      dup1\n      dup1\n      0x20\n      add\n      dup3\n      dup2\n      sub\n      dup3\n      mstore\n      0x43\n      dup2\n      mstore\n      0x20\n      add\n      dup1\n      data_4998dfccf9aebf799608e8abb3a4403d6d01bdd7d35c16885304d7b267aa9576\n      0x43\n      swap2\n      codecopy\n      0x60\n      add\n      swap2\n      pop\n      pop\n      mload(0x40)\n      dup1\n      swap2\n      sub\n      swap1\n      revert\n    tag_202:\n        /* \"contracts/EasyStaking.sol\":16298:16331  sigmoid.setParameters(_a, _b, _c) */\n      tag_203\n        /* \"contracts/EasyStaking.sol\":16320:16322  _a */\n      dup4\n        /* \"contracts/EasyStaking.sol\":16324:16326  _b */\n      dup4\n        /* \"contracts/EasyStaking.sol\":16328:16330  _c */\n      dup4\n        /* \"contracts/EasyStaking.sol\":16298:16305  sigmoid */\n      0xb2\n        /* \"contracts/EasyStaking.sol\":16298:16319  sigmoid.setParameters */\n      tag_204\n      swap1\n        /* \"contracts/EasyStaking.sol\":16298:16331  sigmoid.setParameters(_a, _b, _c) */\n      swap4\n      swap3\n      swap2\n      swap1\n      0xffffffff\n      and\n      jump\t// in\n    tag_203:\n        /* \"contracts/EasyStaking.sol\":16346:16390  SigmoidParametersSet(_a, _b, _c, msg.sender) */\n      0xddf30262673035378258d8aab83a68d6d8b8e45e5510d3b295fcc7cd65c6378a\n        /* \"contracts/EasyStaking.sol\":16367:16369  _a */\n      dup4\n        /* \"contracts/EasyStaking.sol\":16371:16373  _b */\n      dup4\n        /* \"contracts/EasyStaking.sol\":16375:16377  _c */\n      dup4\n        /* \"contracts/EasyStaking.sol\":16379:16389  msg.sender */\n      caller\n        /* \"contracts/EasyStaking.sol\":16346:16390  SigmoidParametersSet(_a, _b, _c, msg.sender) */\n      mload(0x40)\n      dup1\n      dup6\n      dup2\n      mstore\n      0x20\n      add\n      dup5\n      dup2\n      mstore\n      0x20\n      add\n      dup4\n      dup2\n      mstore\n      0x20\n      add\n      dup3\n      0xffffffffffffffffffffffffffffffffffffffff\n      and\n      0xffffffffffffffffffffffffffffffffffffffff\n      and\n      dup2\n      mstore\n      0x20\n      add\n      swap5\n      pop\n      pop\n      pop\n      pop\n      pop\n      mload(0x40)\n      dup1\n      swap2\n      sub\n      swap1\n      log1\n        /* \"contracts/EasyStaking.sol\":16086:16397  function setSigmoidParameters(uint256 _a, int256 _b, uint256 _c) public onlyOwner {... */\n      pop\n      pop\n      pop\n      jump\t// out\n        /* \"contracts/EasyStaking.sol\":5210:5254  UintParam public withdrawalLockDurationParam */\n    tag_72:\n      0xa0\n      dup1\n      0x00\n      add\n      sload\n      swap1\n      dup1\n      0x01\n      add\n      sload\n      swap1\n      dup1\n      0x02\n      add\n      sload\n      swap1\n      pop\n      dup4\n      jump\t// out\n        /* \"contracts/EasyStaking.sol\":15481:15743  function setTotalSupplyFactor(uint256 _value) public onlyOwner {... */\n    tag_75:\n        /* \"@openzeppelin/contracts-ethereum-package/contracts/ownership/Ownable.sol\":1163:1172  isOwner() */\n      tag_206\n        /* \"@openzeppelin/contracts-ethereum-package/contracts/ownership/Ownable.sol\":1163:1170  isOwner */\n      tag_116\n        /* \"@openzeppelin/contracts-ethereum-package/contracts/ownership/Ownable.sol\":1163:1172  isOwner() */\n      jump\t// in\n    tag_206:\n        /* \"@openzeppelin/contracts-ethereum-package/contracts/ownership/Ownable.sol\":1155:1209  require(isOwner(), \"Ownable: caller is not the owner\") */\n      tag_207\n      jumpi\n      mload(0x40)\n      0x08c379a000000000000000000000000000000000000000000000000000000000\n      dup2\n      mstore\n      0x04\n      add\n      dup1\n      dup1\n      0x20\n      add\n      dup3\n      dup2\n      sub\n      dup3\n      mstore\n      0x20\n      dup2\n      mstore\n      0x20\n      add\n      dup1\n      0x4f776e61626c653a2063616c6c6572206973206e6f7420746865206f776e6572\n      dup2\n      mstore\n      pop\n      0x20\n      add\n      swap2\n      pop\n      pop\n      mload(0x40)\n      dup1\n      swap2\n      sub\n      swap1\n      revert\n    tag_207:\n        /* \"contracts/EasyStaking.sol\":15572:15579  1 ether */\n      0x0de0b6b3a7640000\n        /* \"contracts/EasyStaking.sol\":15562:15568  _value */\n      dup2\n        /* \"contracts/EasyStaking.sol\":15562:15579  _value <= 1 ether */\n      gt\n      iszero\n        /* \"contracts/EasyStaking.sol\":15554:15623  require(_value <= 1 ether, \"should be less than or equal to 1 ether\") */\n      tag_209\n      jumpi\n      mload(0x40)\n      0x08c379a000000000000000000000000000000000000000000000000000000000\n      dup2\n      mstore\n      0x04\n      add\n      dup1\n      dup1\n      0x20\n      add\n      dup3\n      dup2\n      sub\n      dup3\n      mstore\n      0x27\n      dup2\n      mstore\n      0x20\n      add\n      dup1\n      data_df908f90cdd1684dfaa27aae3563b8fc031d301853c805a295067181cd132d8d\n      0x27\n      swap2\n      codecopy\n      0x40\n      add\n      swap2\n      pop\n      pop\n      mload(0x40)\n      dup1\n      swap2\n      sub\n      swap1\n      revert\n    tag_209:\n        /* \"contracts/EasyStaking.sol\":15633:15681  _updateUintParam(totalSupplyFactorParam, _value) */\n      tag_210\n        /* \"contracts/EasyStaking.sol\":15650:15672  totalSupplyFactorParam */\n      0xa9\n        /* \"contracts/EasyStaking.sol\":15674:15680  _value */\n      dup3\n        /* \"contracts/EasyStaking.sol\":15633:15649  _updateUintParam */\n      tag_195\n        /* \"contracts/EasyStaking.sol\":15633:15681  _updateUintParam(totalSupplyFactorParam, _value) */\n      jump\t// in\n    tag_210:\n        /* \"contracts/EasyStaking.sol\":15696:15736  TotalSupplyFactorSet(_value, msg.sender) */\n      0xb7b23f70fe41cd9debaaa54902f2492c79f94d7582d587844dc12fdc8fc42a2b\n        /* \"contracts/EasyStaking.sol\":15717:15723  _value */\n      dup2\n        /* \"contracts/EasyStaking.sol\":15725:15735  msg.sender */\n      caller\n        /* \"contracts/EasyStaking.sol\":15696:15736  TotalSupplyFactorSet(_value, msg.sender) */\n      mload(0x40)\n      dup1\n      dup4\n      dup2\n      mstore\n      0x20\n      add\n      dup3\n      0xffffffffffffffffffffffffffffffffffffffff\n      and\n      0xffffffffffffffffffffffffffffffffffffffff\n      and\n      dup2\n      mstore\n      0x20\n      add\n      swap3\n      pop\n      pop\n      pop\n      mload(0x40)\n      dup1\n      swap2\n      sub\n      swap1\n      log1\n        /* \"contracts/EasyStaking.sol\":15481:15743  function setTotalSupplyFactor(uint256 _value) public onlyOwner {... */\n      pop\n      jump\t// out\n        /* \"contracts/EasyStaking.sol\":4437:4491  uint256 public constant MAX_EMISSION_RATE = 150 finney */\n    tag_77:\n        /* \"contracts/EasyStaking.sol\":4481:4491  150 finney */\n      0x0214e8348c4f0000\n        /* \"contracts/EasyStaking.sol\":4437:4491  uint256 public constant MAX_EMISSION_RATE = 150 finney */\n      dup2\n      jump\t// out\n        /* \"contracts/EasyStaking.sol\":5088:5113  UintParam public feeParam */\n    tag_79:\n      0x9d\n      dup1\n      0x00\n      add\n      sload\n      swap1\n      dup1\n      0x01\n      add\n      sload\n      swap1\n      dup1\n      0x02\n      add\n      sload\n      swap1\n      pop\n      dup4\n      jump\t// out\n        /* \"contracts/EasyStaking.sol\":18336:18461  function totalSupplyFactor() public view returns (uint256) {... */\n    tag_81:\n        /* \"contracts/EasyStaking.sol\":18386:18393  uint256 */\n      0x00\n        /* \"contracts/EasyStaking.sol\":18412:18454  _getUintParamValue(totalSupplyFactorParam) */\n      tag_212\n        /* \"contracts/EasyStaking.sol\":18431:18453  totalSupplyFactorParam */\n      0xa9\n        /* \"contracts/EasyStaking.sol\":18412:18454  _getUintParamValue(totalSupplyFactorParam) */\n      mload(0x40)\n      dup1\n      0x60\n      add\n      0x40\n      mstore\n      swap1\n      dup2\n      0x00\n      dup3\n      add\n      sload\n      dup2\n      mstore\n      0x20\n      add\n      0x01\n      dup3\n      add\n      sload\n      dup2\n      mstore\n      0x20\n      add\n      0x02\n      dup3\n      add\n      sload\n      dup2\n      mstore\n      pop\n      pop\n        /* \"contracts/EasyStaking.sol\":18412:18430  _getUintParamValue */\n      tag_213\n        /* \"contracts/EasyStaking.sol\":18412:18454  _getUintParamValue(totalSupplyFactorParam) */\n      jump\t// in\n    tag_212:\n        /* \"contracts/EasyStaking.sol\":18405:18454  return _getUintParamValue(totalSupplyFactorParam) */\n      swap1\n      pop\n        /* \"contracts/EasyStaking.sol\":18336:18461  function totalSupplyFactor() public view returns (uint256) {... */\n      swap1\n      jump\t// out\n        /* \"contracts/EasyStaking.sol\":5364:5410  UintParam public withdrawalUnlockDurationParam */\n    tag_83:\n      0xa3\n      dup1\n      0x00\n      add\n      sload\n      swap1\n      dup1\n      0x01\n      add\n      sload\n      swap1\n      dup1\n      0x02\n      add\n      sload\n      swap1\n      pop\n      dup4\n      jump\t// out\n        /* \"contracts/EasyStaking.sol\":17460:17595  function withdrawalLockDuration() public view returns (uint256) {... */\n    tag_85:\n        /* \"contracts/EasyStaking.sol\":17515:17522  uint256 */\n      0x00\n        /* \"contracts/EasyStaking.sol\":17541:17588  _getUintParamValue(withdrawalLockDurationParam) */\n      tag_215\n        /* \"contracts/EasyStaking.sol\":17560:17587  withdrawalLockDurationParam */\n      0xa0\n        /* \"contracts/EasyStaking.sol\":17541:17588  _getUintParamValue(withdrawalLockDurationParam) */\n      mload(0x40)\n      dup1\n      0x60\n      add\n      0x40\n      mstore\n      swap1\n      dup2\n      0x00\n      dup3\n      add\n      sload\n      dup2\n      mstore\n      0x20\n      add\n      0x01\n      dup3\n      add\n      sload\n      dup2\n      mstore\n      0x20\n      add\n      0x02\n      dup3\n      add\n      sload\n      dup2\n      mstore\n      pop\n      pop\n        /* \"contracts/EasyStaking.sol\":17541:17559  _getUintParamValue */\n      tag_213\n        /* \"contracts/EasyStaking.sol\":17541:17588  _getUintParamValue(withdrawalLockDurationParam) */\n      jump\t// in\n    tag_215:\n        /* \"contracts/EasyStaking.sol\":17534:17588  return _getUintParamValue(withdrawalLockDurationParam) */\n      swap1\n      pop\n        /* \"contracts/EasyStaking.sol\":17460:17595  function withdrawalLockDuration() public view returns (uint256) {... */\n      swap1\n      jump\t// out\n        /* \"contracts/EasyStaking.sol\":19702:20473  function getAccruedEmission(... */\n    tag_88:\n        /* \"contracts/EasyStaking.sol\":19812:19825  uint256 total */\n      0x00\n        /* \"contracts/EasyStaking.sol\":19827:19844  uint256 userShare */\n      dup1\n        /* \"contracts/EasyStaking.sol\":19846:19864  uint256 timePassed */\n      0x00\n        /* \"contracts/EasyStaking.sol\":19891:19892  0 */\n      dup1\n        /* \"contracts/EasyStaking.sol\":19880:19887  _amount */\n      dup5\n        /* \"contracts/EasyStaking.sol\":19880:19892  _amount == 0 */\n      eq\n        /* \"contracts/EasyStaking.sol\":19880:19913  _amount == 0 || _depositDate == 0 */\n      dup1\n      tag_217\n      jumpi\n      pop\n        /* \"contracts/EasyStaking.sol\":19912:19913  0 */\n      0x00\n        /* \"contracts/EasyStaking.sol\":19896:19908  _depositDate */\n      dup6\n        /* \"contracts/EasyStaking.sol\":19896:19913  _depositDate == 0 */\n      eq\n        /* \"contracts/EasyStaking.sol\":19880:19913  _amount == 0 || _depositDate == 0 */\n    tag_217:\n        /* \"contracts/EasyStaking.sol\":19876:19931  if (_amount == 0 || _depositDate == 0) return (0, 0, 0) */\n      iszero\n      tag_218\n      jumpi\n        /* \"contracts/EasyStaking.sol\":19923:19924  0 */\n      0x00\n        /* \"contracts/EasyStaking.sol\":19926:19927  0 */\n      dup1\n        /* \"contracts/EasyStaking.sol\":19929:19930  0 */\n      0x00\n        /* \"contracts/EasyStaking.sol\":19915:19931  return (0, 0, 0) */\n      dup3\n      swap3\n      pop\n      dup2\n      swap2\n      pop\n      dup1\n      swap1\n      pop\n      swap3\n      pop\n      swap3\n      pop\n      swap3\n      pop\n      jump(tag_216)\n        /* \"contracts/EasyStaking.sol\":19876:19931  if (_amount == 0 || _depositDate == 0) return (0, 0, 0) */\n    tag_218:\n        /* \"contracts/EasyStaking.sol\":19954:19978  _now().sub(_depositDate) */\n      tag_219\n        /* \"contracts/EasyStaking.sol\":19965:19977  _depositDate */\n      dup6\n        /* \"contracts/EasyStaking.sol\":19954:19960  _now() */\n      tag_220\n        /* \"contracts/EasyStaking.sol\":19954:19958  _now */\n      tag_174\n        /* \"contracts/EasyStaking.sol\":19954:19960  _now() */\n      jump\t// in\n    tag_220:\n        /* \"contracts/EasyStaking.sol\":19954:19964  _now().sub */\n      tag_175\n      swap1\n        /* \"contracts/EasyStaking.sol\":19954:19978  _now().sub(_depositDate) */\n      swap2\n      swap1\n      0xffffffff\n      and\n      jump\t// in\n    tag_219:\n        /* \"contracts/EasyStaking.sol\":19941:19978  timePassed = _now().sub(_depositDate) */\n      swap1\n      pop\n        /* \"contracts/EasyStaking.sol\":20006:20007  0 */\n      0x00\n        /* \"contracts/EasyStaking.sol\":19992:20002  timePassed */\n      dup2\n        /* \"contracts/EasyStaking.sol\":19992:20007  timePassed == 0 */\n      eq\n        /* \"contracts/EasyStaking.sol\":19988:20025  if (timePassed == 0) return (0, 0, 0) */\n      iszero\n      tag_221\n      jumpi\n        /* \"contracts/EasyStaking.sol\":20017:20018  0 */\n      0x00\n        /* \"contracts/EasyStaking.sol\":20020:20021  0 */\n      dup1\n        /* \"contracts/EasyStaking.sol\":20023:20024  0 */\n      0x00\n        /* \"contracts/EasyStaking.sol\":20009:20025  return (0, 0, 0) */\n      dup3\n      swap3\n      pop\n      dup2\n      swap2\n      pop\n      dup1\n      swap1\n      pop\n      swap3\n      pop\n      swap3\n      pop\n      swap3\n      pop\n      jump(tag_216)\n        /* \"contracts/EasyStaking.sol\":19988:20025  if (timePassed == 0) return (0, 0, 0) */\n    tag_221:\n        /* \"contracts/EasyStaking.sol\":20035:20059  uint256 userEmissionRate */\n      0x00\n        /* \"contracts/EasyStaking.sol\":20062:20099  sigmoid.calculate(int256(timePassed)) */\n      tag_222\n        /* \"contracts/EasyStaking.sol\":20087:20097  timePassed */\n      dup3\n        /* \"contracts/EasyStaking.sol\":20062:20069  sigmoid */\n      0xb2\n        /* \"contracts/EasyStaking.sol\":20062:20079  sigmoid.calculate */\n      tag_223\n      swap1\n        /* \"contracts/EasyStaking.sol\":20062:20099  sigmoid.calculate(int256(timePassed)) */\n      swap2\n      swap1\n      0xffffffff\n      and\n      jump\t// in\n    tag_222:\n        /* \"contracts/EasyStaking.sol\":20035:20099  uint256 userEmissionRate = sigmoid.calculate(int256(timePassed)) */\n      swap1\n      pop\n        /* \"contracts/EasyStaking.sol\":20128:20178  userEmissionRate.add(getSupplyBasedEmissionRate()) */\n      tag_224\n        /* \"contracts/EasyStaking.sol\":20149:20177  getSupplyBasedEmissionRate() */\n      tag_225\n        /* \"contracts/EasyStaking.sol\":20149:20175  getSupplyBasedEmissionRate */\n      tag_104\n        /* \"contracts/EasyStaking.sol\":20149:20177  getSupplyBasedEmissionRate() */\n      jump\t// in\n    tag_225:\n        /* \"contracts/EasyStaking.sol\":20128:20144  userEmissionRate */\n      dup3\n        /* \"contracts/EasyStaking.sol\":20128:20148  userEmissionRate.add */\n      tag_182\n      swap1\n        /* \"contracts/EasyStaking.sol\":20128:20178  userEmissionRate.add(getSupplyBasedEmissionRate()) */\n      swap2\n      swap1\n      0xffffffff\n      and\n      jump\t// in\n    tag_224:\n        /* \"contracts/EasyStaking.sol\":20109:20178  userEmissionRate = userEmissionRate.add(getSupplyBasedEmissionRate()) */\n      swap1\n      pop\n        /* \"contracts/EasyStaking.sol\":20212:20213  0 */\n      0x00\n        /* \"contracts/EasyStaking.sol\":20192:20208  userEmissionRate */\n      dup2\n        /* \"contracts/EasyStaking.sol\":20192:20213  userEmissionRate == 0 */\n      eq\n        /* \"contracts/EasyStaking.sol\":20188:20240  if (userEmissionRate == 0) return (0, 0, timePassed) */\n      iszero\n      tag_226\n      jumpi\n        /* \"contracts/EasyStaking.sol\":20223:20224  0 */\n      0x00\n        /* \"contracts/EasyStaking.sol\":20226:20227  0 */\n      dup1\n        /* \"contracts/EasyStaking.sol\":20229:20239  timePassed */\n      dup4\n        /* \"contracts/EasyStaking.sol\":20215:20240  return (0, 0, timePassed) */\n      dup3\n      swap3\n      pop\n      dup2\n      swap2\n      pop\n      swap4\n      pop\n      swap4\n      pop\n      swap4\n      pop\n      pop\n      jump(tag_216)\n        /* \"contracts/EasyStaking.sol\":20188:20240  if (userEmissionRate == 0) return (0, 0, timePassed) */\n    tag_226:\n        /* \"contracts/EasyStaking.sol\":4481:4491  150 finney */\n      0x0214e8348c4f0000\n        /* \"contracts/EasyStaking.sol\":20257:20273  userEmissionRate */\n      dup2\n        /* \"contracts/EasyStaking.sol\":20257:20294  userEmissionRate <= MAX_EMISSION_RATE */\n      gt\n      iszero\n        /* \"contracts/EasyStaking.sol\":20250:20295  assert(userEmissionRate <= MAX_EMISSION_RATE) */\n      tag_227\n      jumpi\n      invalid\n    tag_227:\n        /* \"contracts/EasyStaking.sol\":20313:20379  _amount.mul(MAX_EMISSION_RATE).mul(timePassed).div(YEAR * 1 ether) */\n      tag_228\n        /* \"contracts/EasyStaking.sol\":20371:20378  1 ether */\n      0x0de0b6b3a7640000\n        /* \"contracts/EasyStaking.sol\":4374:4382  365 days */\n      0x01e13380\n        /* \"contracts/EasyStaking.sol\":20364:20378  YEAR * 1 ether */\n      mul\n        /* \"contracts/EasyStaking.sol\":20313:20359  _amount.mul(MAX_EMISSION_RATE).mul(timePassed) */\n      tag_229\n        /* \"contracts/EasyStaking.sol\":20348:20358  timePassed */\n      dup5\n        /* \"contracts/EasyStaking.sol\":20313:20343  _amount.mul(MAX_EMISSION_RATE) */\n      tag_230\n        /* \"contracts/EasyStaking.sol\":4481:4491  150 finney */\n      0x0214e8348c4f0000\n        /* \"contracts/EasyStaking.sol\":20313:20320  _amount */\n      dup11\n        /* \"contracts/EasyStaking.sol\":20313:20324  _amount.mul */\n      tag_231\n      swap1\n        /* \"contracts/EasyStaking.sol\":20313:20343  _amount.mul(MAX_EMISSION_RATE) */\n      swap2\n      swap1\n      0xffffffff\n      and\n      jump\t// in\n    tag_230:\n        /* \"contracts/EasyStaking.sol\":20313:20347  _amount.mul(MAX_EMISSION_RATE).mul */\n      tag_231\n      swap1\n        /* \"contracts/EasyStaking.sol\":20313:20359  _amount.mul(MAX_EMISSION_RATE).mul(timePassed) */\n      swap2\n      swap1\n      0xffffffff\n      and\n      jump\t// in\n    tag_229:\n        /* \"contracts/EasyStaking.sol\":20313:20363  _amount.mul(MAX_EMISSION_RATE).mul(timePassed).div */\n      tag_201\n      swap1\n        /* \"contracts/EasyStaking.sol\":20313:20379  _amount.mul(MAX_EMISSION_RATE).mul(timePassed).div(YEAR * 1 ether) */\n      swap2\n      swap1\n      0xffffffff\n      and\n      jump\t// in\n    tag_228:\n        /* \"contracts/EasyStaking.sol\":20305:20379  total = _amount.mul(MAX_EMISSION_RATE).mul(timePassed).div(YEAR * 1 ether) */\n      swap4\n      pop\n        /* \"contracts/EasyStaking.sol\":20401:20466  _amount.mul(userEmissionRate).mul(timePassed).div(YEAR * 1 ether) */\n      tag_232\n        /* \"contracts/EasyStaking.sol\":20458:20465  1 ether */\n      0x0de0b6b3a7640000\n        /* \"contracts/EasyStaking.sol\":4374:4382  365 days */\n      0x01e13380\n        /* \"contracts/EasyStaking.sol\":20451:20465  YEAR * 1 ether */\n      mul\n        /* \"contracts/EasyStaking.sol\":20401:20446  _amount.mul(userEmissionRate).mul(timePassed) */\n      tag_233\n        /* \"contracts/EasyStaking.sol\":20435:20445  timePassed */\n      dup5\n        /* \"contracts/EasyStaking.sol\":20401:20430  _amount.mul(userEmissionRate) */\n      tag_234\n        /* \"contracts/EasyStaking.sol\":20413:20429  userEmissionRate */\n      dup6\n        /* \"contracts/EasyStaking.sol\":20401:20408  _amount */\n      dup11\n        /* \"contracts/EasyStaking.sol\":20401:20412  _amount.mul */\n      tag_231\n      swap1\n        /* \"contracts/EasyStaking.sol\":20401:20430  _amount.mul(userEmissionRate) */\n      swap2\n      swap1\n      0xffffffff\n      and\n      jump\t// in\n    tag_234:\n        /* \"contracts/EasyStaking.sol\":20401:20434  _amount.mul(userEmissionRate).mul */\n      tag_231\n      swap1\n        /* \"contracts/EasyStaking.sol\":20401:20446  _amount.mul(userEmissionRate).mul(timePassed) */\n      swap2\n      swap1\n      0xffffffff\n      and\n      jump\t// in\n    tag_233:\n        /* \"contracts/EasyStaking.sol\":20401:20450  _amount.mul(userEmissionRate).mul(timePassed).div */\n      tag_201\n      swap1\n        /* \"contracts/EasyStaking.sol\":20401:20466  _amount.mul(userEmissionRate).mul(timePassed).div(YEAR * 1 ether) */\n      swap2\n      swap1\n      0xffffffff\n      and\n      jump\t// in\n    tag_232:\n        /* \"contracts/EasyStaking.sol\":20389:20466  userShare = _amount.mul(userEmissionRate).mul(timePassed).div(YEAR * 1 ether) */\n      swap3\n      pop\n        /* \"contracts/EasyStaking.sol\":19702:20473  function getAccruedEmission(... */\n      pop\n    tag_216:\n      swap3\n      pop\n      swap3\n      pop\n      swap3\n      jump\t// out\n        /* \"contracts/EasyStaking.sol\":13789:13930  function setFee(uint256 _value) public onlyOwner {... */\n    tag_91:\n        /* \"@openzeppelin/contracts-ethereum-package/contracts/ownership/Ownable.sol\":1163:1172  isOwner() */\n      tag_236\n        /* \"@openzeppelin/contracts-ethereum-package/contracts/ownership/Ownable.sol\":1163:1170  isOwner */\n      tag_116\n        /* \"@openzeppelin/contracts-ethereum-package/contracts/ownership/Ownable.sol\":1163:1172  isOwner() */\n      jump\t// in\n    tag_236:\n        /* \"@openzeppelin/contracts-ethereum-package/contracts/ownership/Ownable.sol\":1155:1209  require(isOwner(), \"Ownable: caller is not the owner\") */\n      tag_237\n      jumpi\n      mload(0x40)\n      0x08c379a000000000000000000000000000000000000000000000000000000000\n      dup2\n      mstore\n      0x04\n      add\n      dup1\n      dup1\n      0x20\n      add\n      dup3\n      dup2\n      sub\n      dup3\n      mstore\n      0x20\n      dup2\n      mstore\n      0x20\n      add\n      dup1\n      0x4f776e61626c653a2063616c6c6572206973206e6f7420746865206f776e6572\n      dup2\n      mstore\n      pop\n      0x20\n      add\n      swap2\n      pop\n      pop\n      mload(0x40)\n      dup1\n      swap2\n      sub\n      swap1\n      revert\n    tag_237:\n        /* \"contracts/EasyStaking.sol\":13848:13882  _updateUintParam(feeParam, _value) */\n      tag_239\n        /* \"contracts/EasyStaking.sol\":13865:13873  feeParam */\n      0x9d\n        /* \"contracts/EasyStaking.sol\":13875:13881  _value */\n      dup3\n        /* \"contracts/EasyStaking.sol\":13848:13864  _updateUintParam */\n      tag_195\n        /* \"contracts/EasyStaking.sol\":13848:13882  _updateUintParam(feeParam, _value) */\n      jump\t// in\n    tag_239:\n        /* \"contracts/EasyStaking.sol\":13897:13923  FeeSet(_value, msg.sender) */\n      0xc8242dc5446855370b781abbfc5d882af1d1a3cc29143216aba3558feb0ce925\n        /* \"contracts/EasyStaking.sol\":13904:13910  _value */\n      dup2\n        /* \"contracts/EasyStaking.sol\":13912:13922  msg.sender */\n      caller\n        /* \"contracts/EasyStaking.sol\":13897:13923  FeeSet(_value, msg.sender) */\n      mload(0x40)\n      dup1\n      dup4\n      dup2\n      mstore\n      0x20\n      add\n      dup3\n      0xffffffffffffffffffffffffffffffffffffffff\n      and\n      0xffffffffffffffffffffffffffffffffffffffff\n      and\n      dup2\n      mstore\n      0x20\n      add\n      swap3\n      pop\n      pop\n      pop\n      mload(0x40)\n      dup1\n      swap2\n      sub\n      swap1\n      log1\n        /* \"contracts/EasyStaking.sol\":13789:13930  function setFee(uint256 _value) public onlyOwner {... */\n      pop\n      jump\t// out\n        /* \"@openzeppelin/contracts-ethereum-package/contracts/ownership/Ownable.sol\":1746:1883  function renounceOwnership() public onlyOwner {... */\n    tag_93:\n        /* \"@openzeppelin/contracts-ethereum-package/contracts/ownership/Ownable.sol\":1163:1172  isOwner() */\n      tag_241\n        /* \"@openzeppelin/contracts-ethereum-package/contracts/ownership/Ownable.sol\":1163:1170  isOwner */\n      tag_116\n        /* \"@openzeppelin/contracts-ethereum-package/contracts/ownership/Ownable.sol\":1163:1172  isOwner() */\n      jump\t// in\n    tag_241:\n        /* \"@openzeppelin/contracts-ethereum-package/contracts/ownership/Ownable.sol\":1155:1209  require(isOwner(), \"Ownable: caller is not the owner\") */\n      tag_242\n      jumpi\n      mload(0x40)\n      0x08c379a000000000000000000000000000000000000000000000000000000000\n      dup2\n      mstore\n      0x04\n      add\n      dup1\n      dup1\n      0x20\n      add\n      dup3\n      dup2\n      sub\n      dup3\n      mstore\n      0x20\n      dup2\n      mstore\n      0x20\n      add\n      dup1\n      0x4f776e61626c653a2063616c6c6572206973206e6f7420746865206f776e6572\n      dup2\n      mstore\n      pop\n      0x20\n      add\n      swap2\n      pop\n      pop\n      mload(0x40)\n      dup1\n      swap2\n      sub\n      swap1\n      revert\n    tag_242:\n        /* \"@openzeppelin/contracts-ethereum-package/contracts/ownership/Ownable.sol\":1844:1845  0 */\n      0x00\n        /* \"@openzeppelin/contracts-ethereum-package/contracts/ownership/Ownable.sol\":1807:1847  OwnershipTransferred(_owner, address(0)) */\n      0xffffffffffffffffffffffffffffffffffffffff\n      and\n        /* \"@openzeppelin/contracts-ethereum-package/contracts/ownership/Ownable.sol\":1828:1834  _owner */\n      0x33\n      0x00\n      swap1\n      sload\n      swap1\n      0x0100\n      exp\n      swap1\n      div\n      0xffffffffffffffffffffffffffffffffffffffff\n      and\n        /* \"@openzeppelin/contracts-ethereum-package/contracts/ownership/Ownable.sol\":1807:1847  OwnershipTransferred(_owner, address(0)) */\n      0xffffffffffffffffffffffffffffffffffffffff\n      and\n      0x8be0079c531659141344cd1fd0a4f28419497f9722a3daafe3b4186f6b6457e0\n      mload(0x40)\n      mload(0x40)\n      dup1\n      swap2\n      sub\n      swap1\n      log3\n        /* \"@openzeppelin/contracts-ethereum-package/contracts/ownership/Ownable.sol\":1874:1875  0 */\n      0x00\n        /* \"@openzeppelin/contracts-ethereum-package/contracts/ownership/Ownable.sol\":1857:1863  _owner */\n      0x33\n      0x00\n        /* \"@openzeppelin/contracts-ethereum-package/contracts/ownership/Ownable.sol\":1857:1876  _owner = address(0) */\n      0x0100\n      exp\n      dup2\n      sload\n      dup2\n      0xffffffffffffffffffffffffffffffffffffffff\n      mul\n      not\n      and\n      swap1\n      dup4\n      0xffffffffffffffffffffffffffffffffffffffff\n      and\n      mul\n      or\n      swap1\n      sstore\n      pop\n        /* \"@openzeppelin/contracts-ethereum-package/contracts/ownership/Ownable.sol\":1746:1883  function renounceOwnership() public onlyOwner {... */\n      jump\t// out\n        /* \"contracts/EasyStaking.sol\":15098:15296  function setLockAfterStakeDuration(uint256 _value) public onlyOwner {... */\n    tag_96:\n        /* \"@openzeppelin/contracts-ethereum-package/contracts/ownership/Ownable.sol\":1163:1172  isOwner() */\n      tag_245\n        /* \"@openzeppelin/contracts-ethereum-package/contracts/ownership/Ownable.sol\":1163:1170  isOwner */\n      tag_116\n        /* \"@openzeppelin/contracts-ethereum-package/contracts/ownership/Ownable.sol\":1163:1172  isOwner() */\n      jump\t// in\n    tag_245:\n        /* \"@openzeppelin/contracts-ethereum-package/contracts/ownership/Ownable.sol\":1155:1209  require(isOwner(), \"Ownable: caller is not the owner\") */\n      tag_246\n      jumpi\n      mload(0x40)\n      0x08c379a000000000000000000000000000000000000000000000000000000000\n      dup2\n      mstore\n      0x04\n      add\n      dup1\n      dup1\n      0x20\n      add\n      dup3\n      dup2\n      sub\n      dup3\n      mstore\n      0x20\n      dup2\n      mstore\n      0x20\n      add\n      dup1\n      0x4f776e61626c653a2063616c6c6572206973206e6f7420746865206f776e6572\n      dup2\n      mstore\n      pop\n      0x20\n      add\n      swap2\n      pop\n      pop\n      mload(0x40)\n      dup1\n      swap2\n      sub\n      swap1\n      revert\n    tag_246:\n        /* \"contracts/EasyStaking.sol\":15176:15229  _updateUintParam(lockAfterStakeDurationParam, _value) */\n      tag_248\n        /* \"contracts/EasyStaking.sol\":15193:15220  lockAfterStakeDurationParam */\n      0xa6\n        /* \"contracts/EasyStaking.sol\":15222:15228  _value */\n      dup3\n        /* \"contracts/EasyStaking.sol\":15176:15192  _updateUintParam */\n      tag_195\n        /* \"contracts/EasyStaking.sol\":15176:15229  _updateUintParam(lockAfterStakeDurationParam, _value) */\n      jump\t// in\n    tag_248:\n        /* \"contracts/EasyStaking.sol\":15244:15289  LockAfterStakeDurationSet(_value, msg.sender) */\n      0x597b9881536f6a87f60171072e2a2d56c53e5e2c1d72270259008ad4932e61ed\n        /* \"contracts/EasyStaking.sol\":15270:15276  _value */\n      dup2\n        /* \"contracts/EasyStaking.sol\":15278:15288  msg.sender */\n      caller\n        /* \"contracts/EasyStaking.sol\":15244:15289  LockAfterStakeDurationSet(_value, msg.sender) */\n      mload(0x40)\n      dup1\n      dup4\n      dup2\n      mstore\n      0x20\n      add\n      dup3\n      0xffffffffffffffffffffffffffffffffffffffff\n      and\n      0xffffffffffffffffffffffffffffffffffffffff\n      and\n      dup2\n      mstore\n      0x20\n      add\n      swap3\n      pop\n      pop\n      pop\n      mload(0x40)\n      dup1\n      swap2\n      sub\n      swap1\n      log1\n        /* \"contracts/EasyStaking.sol\":15098:15296  function setLockAfterStakeDuration(uint256 _value) public onlyOwner {... */\n      pop\n      jump\t// out\n        /* \"contracts/EasyStaking.sol\":20530:20662  function getSigmoidParameters() public view returns (uint256 a, int256 b, uint256 c) {... */\n    tag_98:\n        /* \"contracts/EasyStaking.sol\":20583:20592  uint256 a */\n      0x00\n        /* \"contracts/EasyStaking.sol\":20594:20602  int256 b */\n      dup1\n        /* \"contracts/EasyStaking.sol\":20604:20613  uint256 c */\n      0x00\n        /* \"contracts/EasyStaking.sol\":20632:20655  sigmoid.getParameters() */\n      tag_250\n        /* \"contracts/EasyStaking.sol\":20632:20639  sigmoid */\n      0xb2\n        /* \"contracts/EasyStaking.sol\":20632:20653  sigmoid.getParameters */\n      tag_251\n        /* \"contracts/EasyStaking.sol\":20632:20655  sigmoid.getParameters() */\n      jump\t// in\n    tag_250:\n        /* \"contracts/EasyStaking.sol\":20625:20655  return sigmoid.getParameters() */\n      swap3\n      pop\n      swap3\n      pop\n      swap3\n      pop\n        /* \"contracts/EasyStaking.sol\":20530:20662  function getSigmoidParameters() public view returns (uint256 a, int256 b, uint256 c) {... */\n      swap1\n      swap2\n      swap3\n      jump\t// out\n        /* \"@openzeppelin/contracts-ethereum-package/contracts/utils/ReentrancyGuard.sol\":769:983  function initialize() public initializer {... */\n    tag_100:\n        /* \"@openzeppelin/upgrades/contracts/Initializable.sol\":1024:1036  initializing */\n      0x00\n      0x01\n      swap1\n      sload\n      swap1\n      0x0100\n      exp\n      swap1\n      div\n      0xff\n      and\n        /* \"@openzeppelin/upgrades/contracts/Initializable.sol\":1024:1055  initializing || isConstructor() */\n      dup1\n      tag_253\n      jumpi\n      pop\n        /* \"@openzeppelin/upgrades/contracts/Initializable.sol\":1040:1055  isConstructor() */\n      tag_254\n        /* \"@openzeppelin/upgrades/contracts/Initializable.sol\":1040:1053  isConstructor */\n      tag_255\n        /* \"@openzeppelin/upgrades/contracts/Initializable.sol\":1040:1055  isConstructor() */\n      jump\t// in\n    tag_254:\n        /* \"@openzeppelin/upgrades/contracts/Initializable.sol\":1024:1055  initializing || isConstructor() */\n    tag_253:\n        /* \"@openzeppelin/upgrades/contracts/Initializable.sol\":1024:1071  initializing || isConstructor() || !initialized */\n      dup1\n      tag_256\n      jumpi\n      pop\n        /* \"@openzeppelin/upgrades/contracts/Initializable.sol\":1060:1071  initialized */\n      0x00\n      dup1\n      swap1\n      sload\n      swap1\n      0x0100\n      exp\n      swap1\n      div\n      0xff\n      and\n        /* \"@openzeppelin/upgrades/contracts/Initializable.sol\":1059:1071  !initialized */\n      iszero\n        /* \"@openzeppelin/upgrades/contracts/Initializable.sol\":1024:1071  initializing || isConstructor() || !initialized */\n    tag_256:\n        /* \"@openzeppelin/upgrades/contracts/Initializable.sol\":1016:1122  require(initializing || isConstructor() || !initialized, \"Contract instance has already been initialized\") */\n      tag_257\n      jumpi\n      mload(0x40)\n      0x08c379a000000000000000000000000000000000000000000000000000000000\n      dup2\n      mstore\n      0x04\n      add\n      dup1\n      dup1\n      0x20\n      add\n      dup3\n      dup2\n      sub\n      dup3\n      mstore\n      0x2e\n      dup2\n      mstore\n      0x20\n      add\n      dup1\n      data_9fbba6c4dcac9134893b633b9564f36435b3f927c1d5fa152c5c14b20cecb1a4\n      0x2e\n      swap2\n      codecopy\n      0x40\n      add\n      swap2\n      pop\n      pop\n      mload(0x40)\n      dup1\n      swap2\n      sub\n      swap1\n      revert\n    tag_257:\n        /* \"@openzeppelin/upgrades/contracts/Initializable.sol\":1129:1148  bool isTopLevelCall */\n      0x00\n        /* \"@openzeppelin/upgrades/contracts/Initializable.sol\":1152:1164  initializing */\n      dup1\n      0x01\n      swap1\n      sload\n      swap1\n      0x0100\n      exp\n      swap1\n      div\n      0xff\n      and\n        /* \"@openzeppelin/upgrades/contracts/Initializable.sol\":1151:1164  !initializing */\n      iszero\n        /* \"@openzeppelin/upgrades/contracts/Initializable.sol\":1129:1164  bool isTopLevelCall = !initializing */\n      swap1\n      pop\n        /* \"@openzeppelin/upgrades/contracts/Initializable.sol\":1174:1188  isTopLevelCall */\n      dup1\n        /* \"@openzeppelin/upgrades/contracts/Initializable.sol\":1170:1250  if (isTopLevelCall) {... */\n      iszero\n      tag_258\n      jumpi\n        /* \"@openzeppelin/upgrades/contracts/Initializable.sol\":1213:1217  true */\n      0x01\n        /* \"@openzeppelin/upgrades/contracts/Initializable.sol\":1198:1210  initializing */\n      0x00\n      0x01\n        /* \"@openzeppelin/upgrades/contracts/Initializable.sol\":1198:1217  initializing = true */\n      0x0100\n      exp\n      dup2\n      sload\n      dup2\n      0xff\n      mul\n      not\n      and\n      swap1\n      dup4\n      iszero\n      iszero\n      mul\n      or\n      swap1\n      sstore\n      pop\n        /* \"@openzeppelin/upgrades/contracts/Initializable.sol\":1239:1243  true */\n      0x01\n        /* \"@openzeppelin/upgrades/contracts/Initializable.sol\":1225:1236  initialized */\n      0x00\n      dup1\n        /* \"@openzeppelin/upgrades/contracts/Initializable.sol\":1225:1243  initialized = true */\n      0x0100\n      exp\n      dup2\n      sload\n      dup2\n      0xff\n      mul\n      not\n      and\n      swap1\n      dup4\n      iszero\n      iszero\n      mul\n      or\n      swap1\n      sstore\n      pop\n        /* \"@openzeppelin/upgrades/contracts/Initializable.sol\":1170:1250  if (isTopLevelCall) {... */\n    tag_258:\n        /* \"@openzeppelin/contracts-ethereum-package/contracts/utils/ReentrancyGuard.sol\":975:976  1 */\n      0x01\n        /* \"@openzeppelin/contracts-ethereum-package/contracts/utils/ReentrancyGuard.sol\":959:972  _guardCounter */\n      0x66\n        /* \"@openzeppelin/contracts-ethereum-package/contracts/utils/ReentrancyGuard.sol\":959:976  _guardCounter = 1 */\n      dup2\n      swap1\n      sstore\n      pop\n        /* \"@openzeppelin/upgrades/contracts/Initializable.sol\":1268:1282  isTopLevelCall */\n      dup1\n        /* \"@openzeppelin/upgrades/contracts/Initializable.sol\":1264:1319  if (isTopLevelCall) {... */\n      iszero\n      tag_260\n      jumpi\n        /* \"@openzeppelin/upgrades/contracts/Initializable.sol\":1307:1312  false */\n      0x00\n        /* \"@openzeppelin/upgrades/contracts/Initializable.sol\":1292:1304  initializing */\n      dup1\n      0x01\n        /* \"@openzeppelin/upgrades/contracts/Initializable.sol\":1292:1312  initializing = false */\n      0x0100\n      exp\n      dup2\n      sload\n      dup2\n      0xff\n      mul\n      not\n      and\n      swap1\n      dup4\n      iszero\n      iszero\n      mul\n      or\n      swap1\n      sstore\n      pop\n        /* \"@openzeppelin/upgrades/contracts/Initializable.sol\":1264:1319  if (isTopLevelCall) {... */\n    tag_260:\n        /* \"@openzeppelin/contracts-ethereum-package/contracts/utils/ReentrancyGuard.sol\":769:983  function initialize() public initializer {... */\n      pop\n      jump\t// out\n        /* \"contracts/EasyStaking.sol\":6127:6153  uint256 public totalStaked */\n    tag_102:\n      sload(0xb0)\n      dup2\n      jump\t// out\n        /* \"contracts/EasyStaking.sol\":18899:19414  function getSupplyBasedEmissionRate() public view returns (uint256) {... */\n    tag_104:\n        /* \"contracts/EasyStaking.sol\":18958:18965  uint256 */\n      0x00\n        /* \"contracts/EasyStaking.sol\":18977:18996  uint256 totalSupply */\n      dup1\n        /* \"contracts/EasyStaking.sol\":18999:19004  token */\n      0x99\n      0x00\n      swap1\n      sload\n      swap1\n      0x0100\n      exp\n      swap1\n      div\n      0xffffffffffffffffffffffffffffffffffffffff\n      and\n        /* \"contracts/EasyStaking.sol\":18999:19016  token.totalSupply */\n      0xffffffffffffffffffffffffffffffffffffffff\n      and\n      0x18160ddd\n        /* \"contracts/EasyStaking.sol\":18999:19018  token.totalSupply() */\n      mload(0x40)\n      dup2\n      0xffffffff\n      and\n      0xe0\n      shl\n      dup2\n      mstore\n      0x04\n      add\n      0x20\n      mload(0x40)\n      dup1\n      dup4\n      sub\n      dup2\n      dup7\n      dup1\n      extcodesize\n      iszero\n        /* \"--CODEGEN--\":8:17   */\n      dup1\n        /* \"--CODEGEN--\":5:7   */\n      iszero\n      tag_262\n      jumpi\n        /* \"--CODEGEN--\":30:31   */\n      0x00\n        /* \"--CODEGEN--\":27:28   */\n      dup1\n        /* \"--CODEGEN--\":20:32   */\n      revert\n        /* \"--CODEGEN--\":5:7   */\n    tag_262:\n        /* \"contracts/EasyStaking.sol\":18999:19018  token.totalSupply() */\n      pop\n      gas\n      staticcall\n      iszero\n        /* \"--CODEGEN--\":8:17   */\n      dup1\n        /* \"--CODEGEN--\":5:7   */\n      iszero\n      tag_263\n      jumpi\n        /* \"--CODEGEN--\":45:61   */\n      returndatasize\n        /* \"--CODEGEN--\":42:43   */\n      0x00\n        /* \"--CODEGEN--\":39:40   */\n      dup1\n        /* \"--CODEGEN--\":24:62   */\n      returndatacopy\n        /* \"--CODEGEN--\":77:93   */\n      returndatasize\n        /* \"--CODEGEN--\":74:75   */\n      0x00\n        /* \"--CODEGEN--\":67:94   */\n      revert\n        /* \"--CODEGEN--\":5:7   */\n    tag_263:\n        /* \"contracts/EasyStaking.sol\":18999:19018  token.totalSupply() */\n      pop\n      pop\n      pop\n      pop\n      mload(0x40)\n      returndatasize\n        /* \"--CODEGEN--\":13:15   */\n      0x20\n        /* \"--CODEGEN--\":8:11   */\n      dup2\n        /* \"--CODEGEN--\":5:16   */\n      lt\n        /* \"--CODEGEN--\":2:4   */\n      iszero\n      tag_264\n      jumpi\n        /* \"--CODEGEN--\":29:30   */\n      0x00\n        /* \"--CODEGEN--\":26:27   */\n      dup1\n        /* \"--CODEGEN--\":19:31   */\n      revert\n        /* \"--CODEGEN--\":2:4   */\n    tag_264:\n        /* \"contracts/EasyStaking.sol\":18999:19018  token.totalSupply() */\n      dup2\n      add\n      swap1\n      dup1\n      dup1\n      mload\n      swap1\n      0x20\n      add\n      swap1\n      swap3\n      swap2\n      swap1\n      pop\n      pop\n      pop\n        /* \"contracts/EasyStaking.sol\":18977:19018  uint256 totalSupply = token.totalSupply() */\n      swap1\n      pop\n        /* \"contracts/EasyStaking.sol\":19028:19042  uint256 factor */\n      0x00\n        /* \"contracts/EasyStaking.sol\":19045:19064  totalSupplyFactor() */\n      tag_265\n        /* \"contracts/EasyStaking.sol\":19045:19062  totalSupplyFactor */\n      tag_81\n        /* \"contracts/EasyStaking.sol\":19045:19064  totalSupplyFactor() */\n      jump\t// in\n    tag_265:\n        /* \"contracts/EasyStaking.sol\":19028:19064  uint256 factor = totalSupplyFactor() */\n      swap1\n      pop\n        /* \"contracts/EasyStaking.sol\":19088:19089  0 */\n      0x00\n        /* \"contracts/EasyStaking.sol\":19078:19084  factor */\n      dup2\n        /* \"contracts/EasyStaking.sol\":19078:19089  factor == 0 */\n      eq\n        /* \"contracts/EasyStaking.sol\":19074:19099  if (factor == 0) return 0 */\n      iszero\n      tag_266\n      jumpi\n        /* \"contracts/EasyStaking.sol\":19098:19099  0 */\n      0x00\n        /* \"contracts/EasyStaking.sol\":19091:19099  return 0 */\n      swap3\n      pop\n      pop\n      pop\n      jump(tag_261)\n        /* \"contracts/EasyStaking.sol\":19074:19099  if (factor == 0) return 0 */\n    tag_266:\n        /* \"contracts/EasyStaking.sol\":19109:19123  uint256 target */\n      0x00\n        /* \"contracts/EasyStaking.sol\":19126:19162  totalSupply.mul(factor).div(1 ether) */\n      tag_267\n        /* \"contracts/EasyStaking.sol\":19154:19161  1 ether */\n      0x0de0b6b3a7640000\n        /* \"contracts/EasyStaking.sol\":19126:19149  totalSupply.mul(factor) */\n      tag_268\n        /* \"contracts/EasyStaking.sol\":19142:19148  factor */\n      dup5\n        /* \"contracts/EasyStaking.sol\":19126:19137  totalSupply */\n      dup7\n        /* \"contracts/EasyStaking.sol\":19126:19141  totalSupply.mul */\n      tag_231\n      swap1\n        /* \"contracts/EasyStaking.sol\":19126:19149  totalSupply.mul(factor) */\n      swap2\n      swap1\n      0xffffffff\n      and\n      jump\t// in\n    tag_268:\n        /* \"contracts/EasyStaking.sol\":19126:19153  totalSupply.mul(factor).div */\n      tag_201\n      swap1\n        /* \"contracts/EasyStaking.sol\":19126:19162  totalSupply.mul(factor).div(1 ether) */\n      swap2\n      swap1\n      0xffffffff\n      and\n      jump\t// in\n    tag_267:\n        /* \"contracts/EasyStaking.sol\":19109:19162  uint256 target = totalSupply.mul(factor).div(1 ether) */\n      swap1\n      pop\n        /* \"contracts/EasyStaking.sol\":19172:19206  uint256 maxSupplyBasedEmissionRate */\n      0x00\n        /* \"contracts/EasyStaking.sol\":19209:19233  MAX_EMISSION_RATE.div(2) */\n      tag_269\n        /* \"contracts/EasyStaking.sol\":19231:19232  2 */\n      0x02\n        /* \"contracts/EasyStaking.sol\":4481:4491  150 finney */\n      0x0214e8348c4f0000\n        /* \"contracts/EasyStaking.sol\":19209:19230  MAX_EMISSION_RATE.div */\n      tag_201\n      swap1\n        /* \"contracts/EasyStaking.sol\":19209:19233  MAX_EMISSION_RATE.div(2) */\n      swap2\n      swap1\n      0xffffffff\n      and\n      jump\t// in\n    tag_269:\n        /* \"contracts/EasyStaking.sol\":19172:19233  uint256 maxSupplyBasedEmissionRate = MAX_EMISSION_RATE.div(2) */\n      swap1\n      pop\n        /* \"contracts/EasyStaking.sol\":19270:19276  target */\n      dup2\n        /* \"contracts/EasyStaking.sol\":19255:19266  totalStaked */\n      sload(0xb0)\n        /* \"contracts/EasyStaking.sol\":19255:19276  totalStaked >= target */\n      lt\n        /* \"contracts/EasyStaking.sol\":19251:19336  if (totalStaked >= target) {... */\n      tag_270\n      jumpi\n        /* \"contracts/EasyStaking.sol\":19299:19325  maxSupplyBasedEmissionRate */\n      dup1\n        /* \"contracts/EasyStaking.sol\":19292:19325  return maxSupplyBasedEmissionRate */\n      swap5\n      pop\n      pop\n      pop\n      pop\n      pop\n      jump(tag_261)\n        /* \"contracts/EasyStaking.sol\":19251:19336  if (totalStaked >= target) {... */\n    tag_270:\n        /* \"contracts/EasyStaking.sol\":19352:19407  maxSupplyBasedEmissionRate.mul(totalStaked).div(target) */\n      tag_271\n        /* \"contracts/EasyStaking.sol\":19400:19406  target */\n      dup3\n        /* \"contracts/EasyStaking.sol\":19352:19395  maxSupplyBasedEmissionRate.mul(totalStaked) */\n      tag_272\n        /* \"contracts/EasyStaking.sol\":19383:19394  totalStaked */\n      sload(0xb0)\n        /* \"contracts/EasyStaking.sol\":19352:19378  maxSupplyBasedEmissionRate */\n      dup5\n        /* \"contracts/EasyStaking.sol\":19352:19382  maxSupplyBasedEmissionRate.mul */\n      tag_231\n      swap1\n        /* \"contracts/EasyStaking.sol\":19352:19395  maxSupplyBasedEmissionRate.mul(totalStaked) */\n      swap2\n      swap1\n      0xffffffff\n      and\n      jump\t// in\n    tag_272:\n        /* \"contracts/EasyStaking.sol\":19352:19399  maxSupplyBasedEmissionRate.mul(totalStaked).div */\n      tag_201\n      swap1\n        /* \"contracts/EasyStaking.sol\":19352:19407  maxSupplyBasedEmissionRate.mul(totalStaked).div(target) */\n      swap2\n      swap1\n      0xffffffff\n      and\n      jump\t// in\n    tag_271:\n        /* \"contracts/EasyStaking.sol\":19345:19407  return maxSupplyBasedEmissionRate.mul(totalStaked).div(target) */\n      swap5\n      pop\n      pop\n      pop\n      pop\n      pop\n        /* \"contracts/EasyStaking.sol\":18899:19414  function getSupplyBasedEmissionRate() public view returns (uint256) {... */\n    tag_261:\n      swap1\n      jump\t// out\n        /* \"contracts/EasyStaking.sol\":14624:14897  function setWithdrawalUnlockDuration(uint256 _value) public onlyOwner {... */\n    tag_107:\n        /* \"@openzeppelin/contracts-ethereum-package/contracts/ownership/Ownable.sol\":1163:1172  isOwner() */\n      tag_274\n        /* \"@openzeppelin/contracts-ethereum-package/contracts/ownership/Ownable.sol\":1163:1170  isOwner */\n      tag_116\n        /* \"@openzeppelin/contracts-ethereum-package/contracts/ownership/Ownable.sol\":1163:1172  isOwner() */\n      jump\t// in\n    tag_274:\n        /* \"@openzeppelin/contracts-ethereum-package/contracts/ownership/Ownable.sol\":1155:1209  require(isOwner(), \"Ownable: caller is not the owner\") */\n      tag_275\n      jumpi\n      mload(0x40)\n      0x08c379a000000000000000000000000000000000000000000000000000000000\n      dup2\n      mstore\n      0x04\n      add\n      dup1\n      dup1\n      0x20\n      add\n      dup3\n      dup2\n      sub\n      dup3\n      mstore\n      0x20\n      dup2\n      mstore\n      0x20\n      add\n      dup1\n      0x4f776e61626c653a2063616c6c6572206973206e6f7420746865206f776e6572\n      dup2\n      mstore\n      pop\n      0x20\n      add\n      swap2\n      pop\n      pop\n      mload(0x40)\n      dup1\n      swap2\n      sub\n      swap1\n      revert\n    tag_275:\n        /* \"contracts/EasyStaking.sol\":14722:14729  1 hours */\n      0x0e10\n        /* \"contracts/EasyStaking.sol\":14712:14718  _value */\n      dup2\n        /* \"contracts/EasyStaking.sol\":14712:14729  _value >= 1 hours */\n      lt\n      iszero\n        /* \"contracts/EasyStaking.sol\":14704:14763  require(_value >= 1 hours, \"shouldn't be less than 1 hour\") */\n      tag_277\n      jumpi\n      mload(0x40)\n      0x08c379a000000000000000000000000000000000000000000000000000000000\n      dup2\n      mstore\n      0x04\n      add\n      dup1\n      dup1\n      0x20\n      add\n      dup3\n      dup2\n      sub\n      dup3\n      mstore\n      0x1d\n      dup2\n      mstore\n      0x20\n      add\n      dup1\n      0x73686f756c646e2774206265206c657373207468616e203120686f7572000000\n      dup2\n      mstore\n      pop\n      0x20\n      add\n      swap2\n      pop\n      pop\n      mload(0x40)\n      dup1\n      swap2\n      sub\n      swap1\n      revert\n    tag_277:\n        /* \"contracts/EasyStaking.sol\":14773:14828  _updateUintParam(withdrawalUnlockDurationParam, _value) */\n      tag_278\n        /* \"contracts/EasyStaking.sol\":14790:14819  withdrawalUnlockDurationParam */\n      0xa3\n        /* \"contracts/EasyStaking.sol\":14821:14827  _value */\n      dup3\n        /* \"contracts/EasyStaking.sol\":14773:14789  _updateUintParam */\n      tag_195\n        /* \"contracts/EasyStaking.sol\":14773:14828  _updateUintParam(withdrawalUnlockDurationParam, _value) */\n      jump\t// in\n    tag_278:\n        /* \"contracts/EasyStaking.sol\":14843:14890  WithdrawalUnlockDurationSet(_value, msg.sender) */\n      0x3a963fa1d1d0da205f1ae9869aa14bf4ff7a4585efa819b0c94326b4a3e1e228\n        /* \"contracts/EasyStaking.sol\":14871:14877  _value */\n      dup2\n        /* \"contracts/EasyStaking.sol\":14879:14889  msg.sender */\n      caller\n        /* \"contracts/EasyStaking.sol\":14843:14890  WithdrawalUnlockDurationSet(_value, msg.sender) */\n      mload(0x40)\n      dup1\n      dup4\n      dup2\n      mstore\n      0x20\n      add\n      dup3\n      0xffffffffffffffffffffffffffffffffffffffff\n      and\n      0xffffffffffffffffffffffffffffffffffffffff\n      and\n      dup2\n      mstore\n      0x20\n      add\n      swap3\n      pop\n      pop\n      pop\n      mload(0x40)\n      dup1\n      swap2\n      sub\n      swap1\n      log1\n        /* \"contracts/EasyStaking.sol\":14624:14897  function setWithdrawalUnlockDuration(uint256 _value) public onlyOwner {... */\n      pop\n      jump\t// out\n        /* \"contracts/EasyStaking.sol\":5805:5874  mapping (address => mapping (uint256 => uint256)) public depositDates */\n    tag_110:\n      mstore(0x20, 0xad)\n      dup2\n      0x00\n      mstore\n      mstore(0x20, keccak256(0x00, 0x40))\n      dup1\n      0x00\n      mstore\n      keccak256(0x00, 0x40)\n      0x00\n      swap2\n      pop\n      swap2\n      pop\n      pop\n      sload\n      dup2\n      jump\t// out\n        /* \"@openzeppelin/contracts-ethereum-package/contracts/ownership/Ownable.sol\":959:1036  function owner() public view returns (address) {... */\n    tag_112:\n        /* \"@openzeppelin/contracts-ethereum-package/contracts/ownership/Ownable.sol\":997:1004  address */\n      0x00\n        /* \"@openzeppelin/contracts-ethereum-package/contracts/ownership/Ownable.sol\":1023:1029  _owner */\n      0x33\n      0x00\n      swap1\n      sload\n      swap1\n      0x0100\n      exp\n      swap1\n      div\n      0xffffffffffffffffffffffffffffffffffffffff\n      and\n        /* \"@openzeppelin/contracts-ethereum-package/contracts/ownership/Ownable.sol\":1016:1029  return _owner */\n      swap1\n      pop\n        /* \"@openzeppelin/contracts-ethereum-package/contracts/ownership/Ownable.sol\":959:1036  function owner() public view returns (address) {... */\n      swap1\n      jump\t// out\n        /* \"contracts/EasyStaking.sol\":17676:17815  function withdrawalUnlockDuration() public view returns (uint256) {... */\n    tag_114:\n        /* \"contracts/EasyStaking.sol\":17733:17740  uint256 */\n      0x00\n        /* \"contracts/EasyStaking.sol\":17759:17808  _getUintParamValue(withdrawalUnlockDurationParam) */\n      tag_281\n        /* \"contracts/EasyStaking.sol\":17778:17807  withdrawalUnlockDurationParam */\n      0xa3\n        /* \"contracts/EasyStaking.sol\":17759:17808  _getUintParamValue(withdrawalUnlockDurationParam) */\n      mload(0x40)\n      dup1\n      0x60\n      add\n      0x40\n      mstore\n      swap1\n      dup2\n      0x00\n      dup3\n      add\n      sload\n      dup2\n      mstore\n      0x20\n      add\n      0x01\n      dup3\n      add\n      sload\n      dup2\n      mstore\n      0x20\n      add\n      0x02\n      dup3\n      add\n      sload\n      dup2\n      mstore\n      pop\n      pop\n        /* \"contracts/EasyStaking.sol\":17759:17777  _getUintParamValue */\n      tag_213\n        /* \"contracts/EasyStaking.sol\":17759:17808  _getUintParamValue(withdrawalUnlockDurationParam) */\n      jump\t// in\n    tag_281:\n        /* \"contracts/EasyStaking.sol\":17752:17808  return _getUintParamValue(withdrawalUnlockDurationParam) */\n      swap1\n      pop\n        /* \"contracts/EasyStaking.sol\":17676:17815  function withdrawalUnlockDuration() public view returns (uint256) {... */\n      swap1\n      jump\t// out\n        /* \"@openzeppelin/contracts-ethereum-package/contracts/ownership/Ownable.sol\":1310:1402  function isOwner() public view returns (bool) {... */\n    tag_116:\n        /* \"@openzeppelin/contracts-ethereum-package/contracts/ownership/Ownable.sol\":1350:1354  bool */\n      0x00\n        /* \"@openzeppelin/contracts-ethereum-package/contracts/ownership/Ownable.sol\":1389:1395  _owner */\n      0x33\n      0x00\n      swap1\n      sload\n      swap1\n      0x0100\n      exp\n      swap1\n      div\n      0xffffffffffffffffffffffffffffffffffffffff\n      and\n        /* \"@openzeppelin/contracts-ethereum-package/contracts/ownership/Ownable.sol\":1373:1395  _msgSender() == _owner */\n      0xffffffffffffffffffffffffffffffffffffffff\n      and\n        /* \"@openzeppelin/contracts-ethereum-package/contracts/ownership/Ownable.sol\":1373:1385  _msgSender() */\n      tag_283\n        /* \"@openzeppelin/contracts-ethereum-package/contracts/ownership/Ownable.sol\":1373:1383  _msgSender */\n      tag_284\n        /* \"@openzeppelin/contracts-ethereum-package/contracts/ownership/Ownable.sol\":1373:1385  _msgSender() */\n      jump\t// in\n    tag_283:\n        /* \"@openzeppelin/contracts-ethereum-package/contracts/ownership/Ownable.sol\":1373:1395  _msgSender() == _owner */\n      0xffffffffffffffffffffffffffffffffffffffff\n      and\n      eq\n        /* \"@openzeppelin/contracts-ethereum-package/contracts/ownership/Ownable.sol\":1366:1395  return _msgSender() == _owner */\n      swap1\n      pop\n        /* \"@openzeppelin/contracts-ethereum-package/contracts/ownership/Ownable.sol\":1310:1402  function isOwner() public view returns (bool) {... */\n      swap1\n      jump\t// out\n        /* \"contracts/EasyStaking.sol\":10644:10785  function makeForcedWithdrawal(uint256 _depositId, uint256 _amount) external {... */\n    tag_119:\n        /* \"contracts/EasyStaking.sol\":10730:10778  _withdraw(msg.sender, _depositId, _amount, true) */\n      tag_286\n        /* \"contracts/EasyStaking.sol\":10740:10750  msg.sender */\n      caller\n        /* \"contracts/EasyStaking.sol\":10752:10762  _depositId */\n      dup4\n        /* \"contracts/EasyStaking.sol\":10764:10771  _amount */\n      dup4\n        /* \"contracts/EasyStaking.sol\":10773:10777  true */\n      0x01\n        /* \"contracts/EasyStaking.sol\":10730:10739  _withdraw */\n      tag_188\n        /* \"contracts/EasyStaking.sol\":10730:10778  _withdraw(msg.sender, _depositId, _amount, true) */\n      jump\t// in\n    tag_286:\n        /* \"contracts/EasyStaking.sol\":10644:10785  function makeForcedWithdrawal(uint256 _depositId, uint256 _amount) external {... */\n      pop\n      pop\n      jump\t// out\n        /* \"contracts/EasyStaking.sol\":17895:18030  function lockAfterStakeDuration() public view returns (uint256) {... */\n    tag_121:\n        /* \"contracts/EasyStaking.sol\":17950:17957  uint256 */\n      0x00\n        /* \"contracts/EasyStaking.sol\":17976:18023  _getUintParamValue(lockAfterStakeDurationParam) */\n      tag_288\n        /* \"contracts/EasyStaking.sol\":17995:18022  lockAfterStakeDurationParam */\n      0xa6\n        /* \"contracts/EasyStaking.sol\":17976:18023  _getUintParamValue(lockAfterStakeDurationParam) */\n      mload(0x40)\n      dup1\n      0x60\n      add\n      0x40\n      mstore\n      swap1\n      dup2\n      0x00\n      dup3\n      add\n      sload\n      dup2\n      mstore\n      0x20\n      add\n      0x01\n      dup3\n      add\n      sload\n      dup2\n      mstore\n      0x20\n      add\n      0x02\n      dup3\n      add\n      sload\n      dup2\n      mstore\n      pop\n      pop\n        /* \"contracts/EasyStaking.sol\":17976:17994  _getUintParamValue */\n      tag_213\n        /* \"contracts/EasyStaking.sol\":17976:18023  _getUintParamValue(lockAfterStakeDurationParam) */\n      jump\t// in\n    tag_288:\n        /* \"contracts/EasyStaking.sol\":17969:18023  return _getUintParamValue(lockAfterStakeDurationParam) */\n      swap1\n      pop\n        /* \"contracts/EasyStaking.sol\":17895:18030  function lockAfterStakeDuration() public view returns (uint256) {... */\n      swap1\n      jump\t// out\n        /* \"contracts/EasyStaking.sol\":11087:11371  function requestWithdrawal(uint256 _depositId) external {... */\n    tag_124:\n        /* \"contracts/EasyStaking.sol\":11174:11175  0 */\n      0x00\n        /* \"contracts/EasyStaking.sol\":11161:11171  _depositId */\n      dup2\n        /* \"contracts/EasyStaking.sol\":11161:11175  _depositId > 0 */\n      gt\n        /* \"contracts/EasyStaking.sol\":11161:11219  _depositId > 0 && _depositId <= lastDepositIds[msg.sender] */\n      dup1\n      iszero\n      tag_290\n      jumpi\n      pop\n        /* \"contracts/EasyStaking.sol\":11193:11207  lastDepositIds */\n      0xaf\n        /* \"contracts/EasyStaking.sol\":11193:11219  lastDepositIds[msg.sender] */\n      0x00\n        /* \"contracts/EasyStaking.sol\":11208:11218  msg.sender */\n      caller\n        /* \"contracts/EasyStaking.sol\":11193:11219  lastDepositIds[msg.sender] */\n      0xffffffffffffffffffffffffffffffffffffffff\n      and\n      0xffffffffffffffffffffffffffffffffffffffff\n      and\n      dup2\n      mstore\n      0x20\n      add\n      swap1\n      dup2\n      mstore\n      0x20\n      add\n      0x00\n      keccak256\n      sload\n        /* \"contracts/EasyStaking.sol\":11179:11189  _depositId */\n      dup2\n        /* \"contracts/EasyStaking.sol\":11179:11219  _depositId <= lastDepositIds[msg.sender] */\n      gt\n      iszero\n        /* \"contracts/EasyStaking.sol\":11161:11219  _depositId > 0 && _depositId <= lastDepositIds[msg.sender] */\n    tag_290:\n        /* \"contracts/EasyStaking.sol\":11153:11240  require(_depositId > 0 && _depositId <= lastDepositIds[msg.sender], \"wrong deposit id\") */\n      tag_291\n      jumpi\n      mload(0x40)\n      0x08c379a000000000000000000000000000000000000000000000000000000000\n      dup2\n      mstore\n      0x04\n      add\n      dup1\n      dup1\n      0x20\n      add\n      dup3\n      dup2\n      sub\n      dup3\n      mstore\n      0x10\n      dup2\n      mstore\n      0x20\n      add\n      dup1\n      0x77726f6e67206465706f73697420696400000000000000000000000000000000\n      dup2\n      mstore\n      pop\n      0x20\n      add\n      swap2\n      pop\n      pop\n      mload(0x40)\n      dup1\n      swap2\n      sub\n      swap1\n      revert\n    tag_291:\n        /* \"contracts/EasyStaking.sol\":11300:11306  _now() */\n      tag_292\n        /* \"contracts/EasyStaking.sol\":11300:11304  _now */\n      tag_174\n        /* \"contracts/EasyStaking.sol\":11300:11306  _now() */\n      jump\t// in\n    tag_292:\n        /* \"contracts/EasyStaking.sol\":11250:11273  withdrawalRequestsDates */\n      0xae\n        /* \"contracts/EasyStaking.sol\":11250:11285  withdrawalRequestsDates[msg.sender] */\n      0x00\n        /* \"contracts/EasyStaking.sol\":11274:11284  msg.sender */\n      caller\n        /* \"contracts/EasyStaking.sol\":11250:11285  withdrawalRequestsDates[msg.sender] */\n      0xffffffffffffffffffffffffffffffffffffffff\n      and\n      0xffffffffffffffffffffffffffffffffffffffff\n      and\n      dup2\n      mstore\n      0x20\n      add\n      swap1\n      dup2\n      mstore\n      0x20\n      add\n      0x00\n      keccak256\n        /* \"contracts/EasyStaking.sol\":11250:11297  withdrawalRequestsDates[msg.sender][_depositId] */\n      0x00\n        /* \"contracts/EasyStaking.sol\":11286:11296  _depositId */\n      dup4\n        /* \"contracts/EasyStaking.sol\":11250:11297  withdrawalRequestsDates[msg.sender][_depositId] */\n      dup2\n      mstore\n      0x20\n      add\n      swap1\n      dup2\n      mstore\n      0x20\n      add\n      0x00\n      keccak256\n        /* \"contracts/EasyStaking.sol\":11250:11306  withdrawalRequestsDates[msg.sender][_depositId] = _now() */\n      dup2\n      swap1\n      sstore\n      pop\n        /* \"contracts/EasyStaking.sol\":11353:11363  _depositId */\n      dup1\n        /* \"contracts/EasyStaking.sol\":11341:11351  msg.sender */\n      caller\n        /* \"contracts/EasyStaking.sol\":11321:11364  WithdrawalRequested(msg.sender, _depositId) */\n      0xffffffffffffffffffffffffffffffffffffffff\n      and\n      0xe670e4e82118d22a1f9ee18920455ebc958bae26a90a05d31d3378788b1b0e44\n      mload(0x40)\n      mload(0x40)\n      dup1\n      swap2\n      sub\n      swap1\n      log3\n        /* \"contracts/EasyStaking.sol\":11087:11371  function requestWithdrawal(uint256 _depositId) external {... */\n      pop\n      jump\t// out\n        /* \"contracts/EasyStaking.sol\":12798:13633  function claimTokens(address _token, address payable _to, uint256 _amount) external onlyOwner {... */\n    tag_127:\n        /* \"@openzeppelin/contracts-ethereum-package/contracts/ownership/Ownable.sol\":1163:1172  isOwner() */\n      tag_294\n        /* \"@openzeppelin/contracts-ethereum-package/contracts/ownership/Ownable.sol\":1163:1170  isOwner */\n      tag_116\n        /* \"@openzeppelin/contracts-ethereum-package/contracts/ownership/Ownable.sol\":1163:1172  isOwner() */\n      jump\t// in\n    tag_294:\n        /* \"@openzeppelin/contracts-ethereum-package/contracts/ownership/Ownable.sol\":1155:1209  require(isOwner(), \"Ownable: caller is not the owner\") */\n      tag_295\n      jumpi\n      mload(0x40)\n      0x08c379a000000000000000000000000000000000000000000000000000000000\n      dup2\n      mstore\n      0x04\n      add\n      dup1\n      dup1\n      0x20\n      add\n      dup3\n      dup2\n      sub\n      dup3\n      mstore\n      0x20\n      dup2\n      mstore\n      0x20\n      add\n      dup1\n      0x4f776e61626c653a2063616c6c6572206973206e6f7420746865206f776e6572\n      dup2\n      mstore\n      pop\n      0x20\n      add\n      swap2\n      pop\n      pop\n      mload(0x40)\n      dup1\n      swap2\n      sub\n      swap1\n      revert\n    tag_295:\n        /* \"contracts/EasyStaking.sol\":12925:12926  0 */\n      0x00\n        /* \"contracts/EasyStaking.sol\":12910:12927  _to != address(0) */\n      0xffffffffffffffffffffffffffffffffffffffff\n      and\n        /* \"contracts/EasyStaking.sol\":12910:12913  _to */\n      dup3\n        /* \"contracts/EasyStaking.sol\":12910:12927  _to != address(0) */\n      0xffffffffffffffffffffffffffffffffffffffff\n      and\n      eq\n      iszero\n        /* \"contracts/EasyStaking.sol\":12910:12951  _to != address(0) && _to != address(this) */\n      dup1\n      iszero\n      tag_297\n      jumpi\n      pop\n        /* \"contracts/EasyStaking.sol\":12946:12950  this */\n      address\n        /* \"contracts/EasyStaking.sol\":12931:12951  _to != address(this) */\n      0xffffffffffffffffffffffffffffffffffffffff\n      and\n        /* \"contracts/EasyStaking.sol\":12931:12934  _to */\n      dup3\n        /* \"contracts/EasyStaking.sol\":12931:12951  _to != address(this) */\n      0xffffffffffffffffffffffffffffffffffffffff\n      and\n      eq\n      iszero\n        /* \"contracts/EasyStaking.sol\":12910:12951  _to != address(0) && _to != address(this) */\n    tag_297:\n        /* \"contracts/EasyStaking.sol\":12902:12977  require(_to != address(0) && _to != address(this), \"not a valid recipient\") */\n      tag_298\n      jumpi\n      mload(0x40)\n      0x08c379a000000000000000000000000000000000000000000000000000000000\n      dup2\n      mstore\n      0x04\n      add\n      dup1\n      dup1\n      0x20\n      add\n      dup3\n      dup2\n      sub\n      dup3\n      mstore\n      0x15\n      dup2\n      mstore\n      0x20\n      add\n      dup1\n      0x6e6f7420612076616c696420726563697069656e740000000000000000000000\n      dup2\n      mstore\n      pop\n      0x20\n      add\n      swap2\n      pop\n      pop\n      mload(0x40)\n      dup1\n      swap2\n      sub\n      swap1\n      revert\n    tag_298:\n        /* \"contracts/EasyStaking.sol\":13005:13006  0 */\n      0x00\n        /* \"contracts/EasyStaking.sol\":12995:13002  _amount */\n      dup2\n        /* \"contracts/EasyStaking.sol\":12995:13006  _amount > 0 */\n      gt\n        /* \"contracts/EasyStaking.sol\":12987:13042  require(_amount > 0, \"amount should be greater than 0\") */\n      tag_299\n      jumpi\n      mload(0x40)\n      0x08c379a000000000000000000000000000000000000000000000000000000000\n      dup2\n      mstore\n      0x04\n      add\n      dup1\n      dup1\n      0x20\n      add\n      dup3\n      dup2\n      sub\n      dup3\n      mstore\n      0x1f\n      dup2\n      mstore\n      0x20\n      add\n      dup1\n      0x616d6f756e742073686f756c642062652067726561746572207468616e203000\n      dup2\n      mstore\n      pop\n      0x20\n      add\n      swap2\n      pop\n      pop\n      mload(0x40)\n      dup1\n      swap2\n      sub\n      swap1\n      revert\n    tag_299:\n        /* \"contracts/EasyStaking.sol\":13074:13075  0 */\n      0x00\n        /* \"contracts/EasyStaking.sol\":13056:13076  _token == address(0) */\n      0xffffffffffffffffffffffffffffffffffffffff\n      and\n        /* \"contracts/EasyStaking.sol\":13056:13062  _token */\n      dup4\n        /* \"contracts/EasyStaking.sol\":13056:13076  _token == address(0) */\n      0xffffffffffffffffffffffffffffffffffffffff\n      and\n      eq\n        /* \"contracts/EasyStaking.sol\":13052:13627  if (_token == address(0)) {... */\n      iszero\n      tag_300\n      jumpi\n        /* \"contracts/EasyStaking.sol\":13097:13100  _to */\n      dup2\n        /* \"contracts/EasyStaking.sol\":13097:13105  _to.send */\n      0xffffffffffffffffffffffffffffffffffffffff\n      and\n        /* \"contracts/EasyStaking.sol\":13097:13114  _to.send(_amount) */\n      0x08fc\n        /* \"contracts/EasyStaking.sol\":13106:13113  _amount */\n      dup3\n        /* \"contracts/EasyStaking.sol\":13097:13114  _to.send(_amount) */\n      swap1\n      dup2\n      iszero\n      mul\n      swap1\n      mload(0x40)\n      0x00\n      mload(0x40)\n      dup1\n      dup4\n      sub\n      dup2\n      dup6\n      dup9\n      dup9\n      call\n      swap4\n      pop\n      pop\n      pop\n      pop\n        /* \"contracts/EasyStaking.sol\":13092:13224  if (!_to.send(_amount)) { // solium-disable-line security/no-send... */\n      tag_301\n      jumpi\n        /* \"contracts/EasyStaking.sol\":13196:13203  _amount */\n      dup1\n        /* \"contracts/EasyStaking.sol\":13205:13208  _to */\n      dup3\n        /* \"contracts/EasyStaking.sol\":13174:13209  (new Sacrifice).value(_amount)(_to) */\n      mload(0x40)\n      tag_302\n      swap1\n      tag_303\n      jump\t// in\n    tag_302:\n      dup1\n      dup3\n      0xffffffffffffffffffffffffffffffffffffffff\n      and\n      0xffffffffffffffffffffffffffffffffffffffff\n      and\n      dup2\n      mstore\n      0x20\n      add\n      swap2\n      pop\n      pop\n      mload(0x40)\n      dup1\n      swap2\n      sub\n      swap1\n      dup3\n      create\n      dup1\n      iszero\n        /* \"--CODEGEN--\":8:17   */\n      dup1\n        /* \"--CODEGEN--\":5:7   */\n      iszero\n      tag_304\n      jumpi\n        /* \"--CODEGEN--\":45:61   */\n      returndatasize\n        /* \"--CODEGEN--\":42:43   */\n      0x00\n        /* \"--CODEGEN--\":39:40   */\n      dup1\n        /* \"--CODEGEN--\":24:62   */\n      returndatacopy\n        /* \"--CODEGEN--\":77:93   */\n      returndatasize\n        /* \"--CODEGEN--\":74:75   */\n      0x00\n        /* \"--CODEGEN--\":67:94   */\n      revert\n        /* \"--CODEGEN--\":5:7   */\n    tag_304:\n        /* \"contracts/EasyStaking.sol\":13174:13209  (new Sacrifice).value(_amount)(_to) */\n      pop\n      swap1\n      pop\n      pop\n        /* \"contracts/EasyStaking.sol\":13092:13224  if (!_to.send(_amount)) { // solium-disable-line security/no-send... */\n    tag_301:\n        /* \"contracts/EasyStaking.sol\":13052:13627  if (_token == address(0)) {... */\n      jump(tag_305)\n    tag_300:\n        /* \"contracts/EasyStaking.sol\":13262:13267  token */\n      0x99\n      0x00\n      swap1\n      sload\n      swap1\n      0x0100\n      exp\n      swap1\n      div\n      0xffffffffffffffffffffffffffffffffffffffff\n      and\n        /* \"contracts/EasyStaking.sol\":13244:13268  _token == address(token) */\n      0xffffffffffffffffffffffffffffffffffffffff\n      and\n        /* \"contracts/EasyStaking.sol\":13244:13250  _token */\n      dup4\n        /* \"contracts/EasyStaking.sol\":13244:13268  _token == address(token) */\n      0xffffffffffffffffffffffffffffffffffffffff\n      and\n      eq\n        /* \"contracts/EasyStaking.sol\":13240:13627  if (_token == address(token)) {... */\n      iszero\n      tag_306\n      jumpi\n        /* \"contracts/EasyStaking.sol\":13284:13307  uint256 availableAmount */\n      0x00\n        /* \"contracts/EasyStaking.sol\":13310:13357  token.balanceOf(address(this)).sub(totalStaked) */\n      tag_307\n        /* \"contracts/EasyStaking.sol\":13345:13356  totalStaked */\n      sload(0xb0)\n        /* \"contracts/EasyStaking.sol\":13310:13315  token */\n      0x99\n      0x00\n      swap1\n      sload\n      swap1\n      0x0100\n      exp\n      swap1\n      div\n      0xffffffffffffffffffffffffffffffffffffffff\n      and\n        /* \"contracts/EasyStaking.sol\":13310:13325  token.balanceOf */\n      0xffffffffffffffffffffffffffffffffffffffff\n      and\n      0x70a08231\n        /* \"contracts/EasyStaking.sol\":13334:13338  this */\n      address\n        /* \"contracts/EasyStaking.sol\":13310:13340  token.balanceOf(address(this)) */\n      mload(0x40)\n      dup3\n      0xffffffff\n      and\n      0xe0\n      shl\n      dup2\n      mstore\n      0x04\n      add\n      dup1\n      dup3\n      0xffffffffffffffffffffffffffffffffffffffff\n      and\n      0xffffffffffffffffffffffffffffffffffffffff\n      and\n      dup2\n      mstore\n      0x20\n      add\n      swap2\n      pop\n      pop\n      0x20\n      mload(0x40)\n      dup1\n      dup4\n      sub\n      dup2\n      dup7\n      dup1\n      extcodesize\n      iszero\n        /* \"--CODEGEN--\":8:17   */\n      dup1\n        /* \"--CODEGEN--\":5:7   */\n      iszero\n      tag_308\n      jumpi\n        /* \"--CODEGEN--\":30:31   */\n      0x00\n        /* \"--CODEGEN--\":27:28   */\n      dup1\n        /* \"--CODEGEN--\":20:32   */\n      revert\n        /* \"--CODEGEN--\":5:7   */\n    tag_308:\n        /* \"contracts/EasyStaking.sol\":13310:13340  token.balanceOf(address(this)) */\n      pop\n      gas\n      staticcall\n      iszero\n        /* \"--CODEGEN--\":8:17   */\n      dup1\n        /* \"--CODEGEN--\":5:7   */\n      iszero\n      tag_309\n      jumpi\n        /* \"--CODEGEN--\":45:61   */\n      returndatasize\n        /* \"--CODEGEN--\":42:43   */\n      0x00\n        /* \"--CODEGEN--\":39:40   */\n      dup1\n        /* \"--CODEGEN--\":24:62   */\n      returndatacopy\n        /* \"--CODEGEN--\":77:93   */\n      returndatasize\n        /* \"--CODEGEN--\":74:75   */\n      0x00\n        /* \"--CODEGEN--\":67:94   */\n      revert\n        /* \"--CODEGEN--\":5:7   */\n    tag_309:\n        /* \"contracts/EasyStaking.sol\":13310:13340  token.balanceOf(address(this)) */\n      pop\n      pop\n      pop\n      pop\n      mload(0x40)\n      returndatasize\n        /* \"--CODEGEN--\":13:15   */\n      0x20\n        /* \"--CODEGEN--\":8:11   */\n      dup2\n        /* \"--CODEGEN--\":5:16   */\n      lt\n        /* \"--CODEGEN--\":2:4   */\n      iszero\n      tag_310\n      jumpi\n        /* \"--CODEGEN--\":29:30   */\n      0x00\n        /* \"--CODEGEN--\":26:27   */\n      dup1\n        /* \"--CODEGEN--\":19:31   */\n      revert\n        /* \"--CODEGEN--\":2:4   */\n    tag_310:\n        /* \"contracts/EasyStaking.sol\":13310:13340  token.balanceOf(address(this)) */\n      dup2\n      add\n      swap1\n      dup1\n      dup1\n      mload\n      swap1\n      0x20\n      add\n      swap1\n      swap3\n      swap2\n      swap1\n      pop\n      pop\n      pop\n        /* \"contracts/EasyStaking.sol\":13310:13344  token.balanceOf(address(this)).sub */\n      tag_175\n      swap1\n        /* \"contracts/EasyStaking.sol\":13310:13357  token.balanceOf(address(this)).sub(totalStaked) */\n      swap2\n      swap1\n      0xffffffff\n      and\n      jump\t// in\n    tag_307:\n        /* \"contracts/EasyStaking.sol\":13284:13357  uint256 availableAmount = token.balanceOf(address(this)).sub(totalStaked) */\n      swap1\n      pop\n        /* \"contracts/EasyStaking.sol\":13398:13405  _amount */\n      dup2\n        /* \"contracts/EasyStaking.sol\":13379:13394  availableAmount */\n      dup2\n        /* \"contracts/EasyStaking.sol\":13379:13405  availableAmount >= _amount */\n      lt\n      iszero\n        /* \"contracts/EasyStaking.sol\":13371:13428  require(availableAmount >= _amount, \"insufficient funds\") */\n      tag_311\n      jumpi\n      mload(0x40)\n      0x08c379a000000000000000000000000000000000000000000000000000000000\n      dup2\n      mstore\n      0x04\n      add\n      dup1\n      dup1\n      0x20\n      add\n      dup3\n      dup2\n      sub\n      dup3\n      mstore\n      0x12\n      dup2\n      mstore\n      0x20\n      add\n      dup1\n      0x696e73756666696369656e742066756e64730000000000000000000000000000\n      dup2\n      mstore\n      pop\n      0x20\n      add\n      swap2\n      pop\n      pop\n      mload(0x40)\n      dup1\n      swap2\n      sub\n      swap1\n      revert\n    tag_311:\n        /* \"contracts/EasyStaking.sol\":13450:13455  token */\n      0x99\n      0x00\n      swap1\n      sload\n      swap1\n      0x0100\n      exp\n      swap1\n      div\n      0xffffffffffffffffffffffffffffffffffffffff\n      and\n        /* \"contracts/EasyStaking.sol\":13450:13464  token.transfer */\n      0xffffffffffffffffffffffffffffffffffffffff\n      and\n      0xa9059cbb\n        /* \"contracts/EasyStaking.sol\":13465:13468  _to */\n      dup5\n        /* \"contracts/EasyStaking.sol\":13470:13477  _amount */\n      dup5\n        /* \"contracts/EasyStaking.sol\":13450:13478  token.transfer(_to, _amount) */\n      mload(0x40)\n      dup4\n      0xffffffff\n      and\n      0xe0\n      shl\n      dup2\n      mstore\n      0x04\n      add\n      dup1\n      dup4\n      0xffffffffffffffffffffffffffffffffffffffff\n      and\n      0xffffffffffffffffffffffffffffffffffffffff\n      and\n      dup2\n      mstore\n      0x20\n      add\n      dup3\n      dup2\n      mstore\n      0x20\n      add\n      swap3\n      pop\n      pop\n      pop\n      0x20\n      mload(0x40)\n      dup1\n      dup4\n      sub\n      dup2\n      0x00\n      dup8\n      dup1\n      extcodesize\n      iszero\n        /* \"--CODEGEN--\":8:17   */\n      dup1\n        /* \"--CODEGEN--\":5:7   */\n      iszero\n      tag_312\n      jumpi\n        /* \"--CODEGEN--\":30:31   */\n      0x00\n        /* \"--CODEGEN--\":27:28   */\n      dup1\n        /* \"--CODEGEN--\":20:32   */\n      revert\n        /* \"--CODEGEN--\":5:7   */\n    tag_312:\n        /* \"contracts/EasyStaking.sol\":13450:13478  token.transfer(_to, _amount) */\n      pop\n      gas\n      call\n      iszero\n        /* \"--CODEGEN--\":8:17   */\n      dup1\n        /* \"--CODEGEN--\":5:7   */\n      iszero\n      tag_313\n      jumpi\n        /* \"--CODEGEN--\":45:61   */\n      returndatasize\n        /* \"--CODEGEN--\":42:43   */\n      0x00\n        /* \"--CODEGEN--\":39:40   */\n      dup1\n        /* \"--CODEGEN--\":24:62   */\n      returndatacopy\n        /* \"--CODEGEN--\":77:93   */\n      returndatasize\n        /* \"--CODEGEN--\":74:75   */\n      0x00\n        /* \"--CODEGEN--\":67:94   */\n      revert\n        /* \"--CODEGEN--\":5:7   */\n    tag_313:\n        /* \"contracts/EasyStaking.sol\":13450:13478  token.transfer(_to, _amount) */\n      pop\n      pop\n      pop\n      pop\n      mload(0x40)\n      returndatasize\n        /* \"--CODEGEN--\":13:15   */\n      0x20\n        /* \"--CODEGEN--\":8:11   */\n      dup2\n        /* \"--CODEGEN--\":5:16   */\n      lt\n        /* \"--CODEGEN--\":2:4   */\n      iszero\n      tag_314\n      jumpi\n        /* \"--CODEGEN--\":29:30   */\n      0x00\n        /* \"--CODEGEN--\":26:27   */\n      dup1\n        /* \"--CODEGEN--\":19:31   */\n      revert\n        /* \"--CODEGEN--\":2:4   */\n    tag_314:\n        /* \"contracts/EasyStaking.sol\":13450:13478  token.transfer(_to, _amount) */\n      dup2\n      add\n      swap1\n      dup1\n      dup1\n      mload\n      swap1\n      0x20\n      add\n      swap1\n      swap3\n      swap2\n      swap1\n      pop\n      pop\n      pop\n        /* \"contracts/EasyStaking.sol\":13442:13498  require(token.transfer(_to, _amount), \"transfer failed\") */\n      tag_315\n      jumpi\n      mload(0x40)\n      0x08c379a000000000000000000000000000000000000000000000000000000000\n      dup2\n      mstore\n      0x04\n      add\n      dup1\n      dup1\n      0x20\n      add\n      dup3\n      dup2\n      sub\n      dup3\n      mstore\n      0x0f\n      dup2\n      mstore\n      0x20\n      add\n      dup1\n      0x7472616e73666572206661696c65640000000000000000000000000000000000\n      dup2\n      mstore\n      pop\n      0x20\n      add\n      swap2\n      pop\n      pop\n      mload(0x40)\n      dup1\n      swap2\n      sub\n      swap1\n      revert\n    tag_315:\n        /* \"contracts/EasyStaking.sol\":13240:13627  if (_token == address(token)) {... */\n      pop\n      jump(tag_316)\n    tag_306:\n        /* \"contracts/EasyStaking.sol\":13529:13547  IERC20 customToken */\n      0x00\n        /* \"contracts/EasyStaking.sol\":13557:13563  _token */\n      dup4\n        /* \"contracts/EasyStaking.sol\":13529:13564  IERC20 customToken = IERC20(_token) */\n      swap1\n      pop\n        /* \"contracts/EasyStaking.sol\":13578:13616  customToken.safeTransfer(_to, _amount) */\n      tag_317\n        /* \"contracts/EasyStaking.sol\":13603:13606  _to */\n      dup4\n        /* \"contracts/EasyStaking.sol\":13608:13615  _amount */\n      dup4\n        /* \"contracts/EasyStaking.sol\":13578:13589  customToken */\n      dup4\n        /* \"contracts/EasyStaking.sol\":13578:13602  customToken.safeTransfer */\n      0xffffffffffffffffffffffffffffffffffffffff\n      and\n      tag_318\n      swap1\n        /* \"contracts/EasyStaking.sol\":13578:13616  customToken.safeTransfer(_to, _amount) */\n      swap3\n      swap2\n      swap1\n      0xffffffff\n      and\n      jump\t// in\n    tag_317:\n        /* \"contracts/EasyStaking.sol\":13240:13627  if (_token == address(token)) {... */\n      pop\n    tag_316:\n        /* \"contracts/EasyStaking.sol\":13052:13627  if (_token == address(0)) {... */\n    tag_305:\n        /* \"contracts/EasyStaking.sol\":12798:13633  function claimTokens(address _token, address payable _to, uint256 _amount) external onlyOwner {... */\n      pop\n      pop\n      pop\n      jump\t// out\n        /* \"contracts/EasyStaking.sol\":10074:10382  function onTokenTransfer(address _sender, uint256 _amount, bytes calldata) external returns (bool) {... */\n    tag_133:\n        /* \"contracts/EasyStaking.sol\":10167:10171  bool */\n      0x00\n        /* \"contracts/EasyStaking.sol\":10213:10218  token */\n      0x99\n      0x00\n      swap1\n      sload\n      swap1\n      0x0100\n      exp\n      swap1\n      div\n      0xffffffffffffffffffffffffffffffffffffffff\n      and\n        /* \"contracts/EasyStaking.sol\":10191:10219  msg.sender == address(token) */\n      0xffffffffffffffffffffffffffffffffffffffff\n      and\n        /* \"contracts/EasyStaking.sol\":10191:10201  msg.sender */\n      caller\n        /* \"contracts/EasyStaking.sol\":10191:10219  msg.sender == address(token) */\n      0xffffffffffffffffffffffffffffffffffffffff\n      and\n      eq\n        /* \"contracts/EasyStaking.sol\":10183:10254  require(msg.sender == address(token), \"only token contract is allowed\") */\n      tag_320\n      jumpi\n      mload(0x40)\n      0x08c379a000000000000000000000000000000000000000000000000000000000\n      dup2\n      mstore\n      0x04\n      add\n      dup1\n      dup1\n      0x20\n      add\n      dup3\n      dup2\n      sub\n      dup3\n      mstore\n      0x1e\n      dup2\n      mstore\n      0x20\n      add\n      dup1\n      0x6f6e6c7920746f6b656e20636f6e747261637420697320616c6c6f7765640000\n      dup2\n      mstore\n      pop\n      0x20\n      add\n      swap2\n      pop\n      pop\n      mload(0x40)\n      dup1\n      swap2\n      sub\n      swap1\n      revert\n    tag_320:\n        /* \"contracts/EasyStaking.sol\":10269:10275  locked */\n      0xb1\n      0x00\n      swap1\n      sload\n      swap1\n      0x0100\n      exp\n      swap1\n      div\n      0xff\n      and\n        /* \"contracts/EasyStaking.sol\":10264:10355  if (!locked) {... */\n      tag_321\n      jumpi\n        /* \"contracts/EasyStaking.sol\":10291:10344  _deposit(_sender, ++lastDepositIds[_sender], _amount) */\n      tag_322\n        /* \"contracts/EasyStaking.sol\":10300:10307  _sender */\n      dup6\n        /* \"contracts/EasyStaking.sol\":10311:10325  lastDepositIds */\n      0xaf\n        /* \"contracts/EasyStaking.sol\":10311:10334  lastDepositIds[_sender] */\n      0x00\n        /* \"contracts/EasyStaking.sol\":10326:10333  _sender */\n      dup9\n        /* \"contracts/EasyStaking.sol\":10311:10334  lastDepositIds[_sender] */\n      0xffffffffffffffffffffffffffffffffffffffff\n      and\n      0xffffffffffffffffffffffffffffffffffffffff\n      and\n      dup2\n      mstore\n      0x20\n      add\n      swap1\n      dup2\n      mstore\n      0x20\n      add\n      0x00\n      keccak256\n      0x00\n        /* \"contracts/EasyStaking.sol\":10309:10334  ++lastDepositIds[_sender] */\n      dup2\n      sload\n      0x01\n      add\n      swap2\n      swap1\n      pop\n      dup2\n      swap1\n      sstore\n        /* \"contracts/EasyStaking.sol\":10336:10343  _amount */\n      dup7\n        /* \"contracts/EasyStaking.sol\":10291:10299  _deposit */\n      tag_323\n        /* \"contracts/EasyStaking.sol\":10291:10344  _deposit(_sender, ++lastDepositIds[_sender], _amount) */\n      jump\t// in\n    tag_322:\n        /* \"contracts/EasyStaking.sol\":10264:10355  if (!locked) {... */\n    tag_321:\n        /* \"contracts/EasyStaking.sol\":10371:10375  true */\n      0x01\n        /* \"contracts/EasyStaking.sol\":10364:10375  return true */\n      swap1\n      pop\n        /* \"contracts/EasyStaking.sol\":10074:10382  function onTokenTransfer(address _sender, uint256 _amount, bytes calldata) external returns (bool) {... */\n      swap5\n      swap4\n      pop\n      pop\n      pop\n      pop\n      jump\t// out\n        /* \"contracts/EasyStaking.sol\":5615:5654  UintParam public totalSupplyFactorParam */\n    tag_135:\n      0xa9\n      dup1\n      0x00\n      add\n      sload\n      swap1\n      dup1\n      0x01\n      add\n      sload\n      swap1\n      dup1\n      0x02\n      add\n      sload\n      swap1\n      pop\n      dup4\n      jump\t// out\n        /* \"contracts/EasyStaking.sol\":8592:8698  function deposit(uint256 _amount) external {... */\n    tag_138:\n        /* \"contracts/EasyStaking.sol\":8645:8691  deposit(++lastDepositIds[msg.sender], _amount) */\n      tag_325\n        /* \"contracts/EasyStaking.sol\":8655:8669  lastDepositIds */\n      0xaf\n        /* \"contracts/EasyStaking.sol\":8655:8681  lastDepositIds[msg.sender] */\n      0x00\n        /* \"contracts/EasyStaking.sol\":8670:8680  msg.sender */\n      caller\n        /* \"contracts/EasyStaking.sol\":8655:8681  lastDepositIds[msg.sender] */\n      0xffffffffffffffffffffffffffffffffffffffff\n      and\n      0xffffffffffffffffffffffffffffffffffffffff\n      and\n      dup2\n      mstore\n      0x20\n      add\n      swap1\n      dup2\n      mstore\n      0x20\n      add\n      0x00\n      keccak256\n      0x00\n        /* \"contracts/EasyStaking.sol\":8653:8681  ++lastDepositIds[msg.sender] */\n      dup2\n      sload\n      0x01\n      add\n      swap2\n      swap1\n      pop\n      dup2\n      swap1\n      sstore\n        /* \"contracts/EasyStaking.sol\":8683:8690  _amount */\n      dup3\n        /* \"contracts/EasyStaking.sol\":8645:8652  deposit */\n      tag_165\n        /* \"contracts/EasyStaking.sol\":8645:8691  deposit(++lastDepositIds[msg.sender], _amount) */\n      jump\t// in\n    tag_325:\n        /* \"contracts/EasyStaking.sol\":8592:8698  function deposit(uint256 _amount) external {... */\n      pop\n      jump\t// out\n        /* \"contracts/EasyStaking.sol\":6040:6090  mapping (address => uint256) public lastDepositIds */\n    tag_141:\n      mstore(0x20, 0xaf)\n      dup1\n      0x00\n      mstore\n      keccak256(0x00, 0x40)\n      0x00\n      swap2\n      pop\n      swap1\n      pop\n      sload\n      dup2\n      jump\t// out\n        /* \"@openzeppelin/contracts-ethereum-package/contracts/ownership/Ownable.sol\":741:883  function initialize(address sender) public initializer {... */\n    tag_144:\n        /* \"@openzeppelin/upgrades/contracts/Initializable.sol\":1024:1036  initializing */\n      0x00\n      0x01\n      swap1\n      sload\n      swap1\n      0x0100\n      exp\n      swap1\n      div\n      0xff\n      and\n        /* \"@openzeppelin/upgrades/contracts/Initializable.sol\":1024:1055  initializing || isConstructor() */\n      dup1\n      tag_327\n      jumpi\n      pop\n        /* \"@openzeppelin/upgrades/contracts/Initializable.sol\":1040:1055  isConstructor() */\n      tag_328\n        /* \"@openzeppelin/upgrades/contracts/Initializable.sol\":1040:1053  isConstructor */\n      tag_255\n        /* \"@openzeppelin/upgrades/contracts/Initializable.sol\":1040:1055  isConstructor() */\n      jump\t// in\n    tag_328:\n        /* \"@openzeppelin/upgrades/contracts/Initializable.sol\":1024:1055  initializing || isConstructor() */\n    tag_327:\n        /* \"@openzeppelin/upgrades/contracts/Initializable.sol\":1024:1071  initializing || isConstructor() || !initialized */\n      dup1\n      tag_329\n      jumpi\n      pop\n        /* \"@openzeppelin/upgrades/contracts/Initializable.sol\":1060:1071  initialized */\n      0x00\n      dup1\n      swap1\n      sload\n      swap1\n      0x0100\n      exp\n      swap1\n      div\n      0xff\n      and\n        /* \"@openzeppelin/upgrades/contracts/Initializable.sol\":1059:1071  !initialized */\n      iszero\n        /* \"@openzeppelin/upgrades/contracts/Initializable.sol\":1024:1071  initializing || isConstructor() || !initialized */\n    tag_329:\n        /* \"@openzeppelin/upgrades/contracts/Initializable.sol\":1016:1122  require(initializing || isConstructor() || !initialized, \"Contract instance has already been initialized\") */\n      tag_330\n      jumpi\n      mload(0x40)\n      0x08c379a000000000000000000000000000000000000000000000000000000000\n      dup2\n      mstore\n      0x04\n      add\n      dup1\n      dup1\n      0x20\n      add\n      dup3\n      dup2\n      sub\n      dup3\n      mstore\n      0x2e\n      dup2\n      mstore\n      0x20\n      add\n      dup1\n      data_9fbba6c4dcac9134893b633b9564f36435b3f927c1d5fa152c5c14b20cecb1a4\n      0x2e\n      swap2\n      codecopy\n      0x40\n      add\n      swap2\n      pop\n      pop\n      mload(0x40)\n      dup1\n      swap2\n      sub\n      swap1\n      revert\n    tag_330:\n        /* \"@openzeppelin/upgrades/contracts/Initializable.sol\":1129:1148  bool isTopLevelCall */\n      0x00\n        /* \"@openzeppelin/upgrades/contracts/Initializable.sol\":1152:1164  initializing */\n      dup1\n      0x01\n      swap1\n      sload\n      swap1\n      0x0100\n      exp\n      swap1\n      div\n      0xff\n      and\n        /* \"@openzeppelin/upgrades/contracts/Initializable.sol\":1151:1164  !initializing */\n      iszero\n        /* \"@openzeppelin/upgrades/contracts/Initializable.sol\":1129:1164  bool isTopLevelCall = !initializing */\n      swap1\n      pop\n        /* \"@openzeppelin/upgrades/contracts/Initializable.sol\":1174:1188  isTopLevelCall */\n      dup1\n        /* \"@openzeppelin/upgrades/contracts/Initializable.sol\":1170:1250  if (isTopLevelCall) {... */\n      iszero\n      tag_331\n      jumpi\n        /* \"@openzeppelin/upgrades/contracts/Initializable.sol\":1213:1217  true */\n      0x01\n        /* \"@openzeppelin/upgrades/contracts/Initializable.sol\":1198:1210  initializing */\n      0x00\n      0x01\n        /* \"@openzeppelin/upgrades/contracts/Initializable.sol\":1198:1217  initializing = true */\n      0x0100\n      exp\n      dup2\n      sload\n      dup2\n      0xff\n      mul\n      not\n      and\n      swap1\n      dup4\n      iszero\n      iszero\n      mul\n      or\n      swap1\n      sstore\n      pop\n        /* \"@openzeppelin/upgrades/contracts/Initializable.sol\":1239:1243  true */\n      0x01\n        /* \"@openzeppelin/upgrades/contracts/Initializable.sol\":1225:1236  initialized */\n      0x00\n      dup1\n        /* \"@openzeppelin/upgrades/contracts/Initializable.sol\":1225:1243  initialized = true */\n      0x0100\n      exp\n      dup2\n      sload\n      dup2\n      0xff\n      mul\n      not\n      and\n      swap1\n      dup4\n      iszero\n      iszero\n      mul\n      or\n      swap1\n      sstore\n      pop\n        /* \"@openzeppelin/upgrades/contracts/Initializable.sol\":1170:1250  if (isTopLevelCall) {... */\n    tag_331:\n        /* \"@openzeppelin/contracts-ethereum-package/contracts/ownership/Ownable.sol\":815:821  sender */\n      dup2\n        /* \"@openzeppelin/contracts-ethereum-package/contracts/ownership/Ownable.sol\":806:812  _owner */\n      0x33\n      0x00\n        /* \"@openzeppelin/contracts-ethereum-package/contracts/ownership/Ownable.sol\":806:821  _owner = sender */\n      0x0100\n      exp\n      dup2\n      sload\n      dup2\n      0xffffffffffffffffffffffffffffffffffffffff\n      mul\n      not\n      and\n      swap1\n      dup4\n      0xffffffffffffffffffffffffffffffffffffffff\n      and\n      mul\n      or\n      swap1\n      sstore\n      pop\n        /* \"@openzeppelin/contracts-ethereum-package/contracts/ownership/Ownable.sol\":869:875  _owner */\n      0x33\n      0x00\n      swap1\n      sload\n      swap1\n      0x0100\n      exp\n      swap1\n      div\n      0xffffffffffffffffffffffffffffffffffffffff\n      and\n        /* \"@openzeppelin/contracts-ethereum-package/contracts/ownership/Ownable.sol\":836:876  OwnershipTransferred(address(0), _owner) */\n      0xffffffffffffffffffffffffffffffffffffffff\n      and\n        /* \"@openzeppelin/contracts-ethereum-package/contracts/ownership/Ownable.sol\":865:866  0 */\n      0x00\n        /* \"@openzeppelin/contracts-ethereum-package/contracts/ownership/Ownable.sol\":836:876  OwnershipTransferred(address(0), _owner) */\n      0xffffffffffffffffffffffffffffffffffffffff\n      and\n      0x8be0079c531659141344cd1fd0a4f28419497f9722a3daafe3b4186f6b6457e0\n      mload(0x40)\n      mload(0x40)\n      dup1\n      swap2\n      sub\n      swap1\n      log3\n        /* \"@openzeppelin/upgrades/contracts/Initializable.sol\":1268:1282  isTopLevelCall */\n      dup1\n        /* \"@openzeppelin/upgrades/contracts/Initializable.sol\":1264:1319  if (isTopLevelCall) {... */\n      iszero\n      tag_333\n      jumpi\n        /* \"@openzeppelin/upgrades/contracts/Initializable.sol\":1307:1312  false */\n      0x00\n        /* \"@openzeppelin/upgrades/contracts/Initializable.sol\":1292:1304  initializing */\n      dup1\n      0x01\n        /* \"@openzeppelin/upgrades/contracts/Initializable.sol\":1292:1312  initializing = false */\n      0x0100\n      exp\n      dup2\n      sload\n      dup2\n      0xff\n      mul\n      not\n      and\n      swap1\n      dup4\n      iszero\n      iszero\n      mul\n      or\n      swap1\n      sstore\n      pop\n        /* \"@openzeppelin/upgrades/contracts/Initializable.sol\":1264:1319  if (isTopLevelCall) {... */\n    tag_333:\n        /* \"@openzeppelin/contracts-ethereum-package/contracts/ownership/Ownable.sol\":741:883  function initialize(address sender) public initializer {... */\n      pop\n      pop\n      jump\t// out\n        /* \"contracts/EasyStaking.sol\":18550:18796  function liquidityProvidersRewardAddress() public view returns (address) {... */\n    tag_146:\n        /* \"contracts/EasyStaking.sol\":18614:18621  address */\n      0x00\n        /* \"contracts/EasyStaking.sol\":18633:18658  AddressParam memory param */\n      tag_335\n      tag_336\n      jump\t// in\n    tag_335:\n        /* \"contracts/EasyStaking.sol\":18661:18697  liquidityProvidersRewardAddressParam */\n      0x9a\n        /* \"contracts/EasyStaking.sol\":18633:18697  AddressParam memory param = liquidityProvidersRewardAddressParam */\n      mload(0x40)\n      dup1\n      0x60\n      add\n      0x40\n      mstore\n      swap1\n      dup2\n      0x00\n      dup3\n      add\n      0x00\n      swap1\n      sload\n      swap1\n      0x0100\n      exp\n      swap1\n      div\n      0xffffffffffffffffffffffffffffffffffffffff\n      and\n      0xffffffffffffffffffffffffffffffffffffffff\n      and\n      0xffffffffffffffffffffffffffffffffffffffff\n      and\n      dup2\n      mstore\n      0x20\n      add\n      0x01\n      dup3\n      add\n      0x00\n      swap1\n      sload\n      swap1\n      0x0100\n      exp\n      swap1\n      div\n      0xffffffffffffffffffffffffffffffffffffffff\n      and\n      0xffffffffffffffffffffffffffffffffffffffff\n      and\n      0xffffffffffffffffffffffffffffffffffffffff\n      and\n      dup2\n      mstore\n      0x20\n      add\n      0x02\n      dup3\n      add\n      sload\n      dup2\n      mstore\n      pop\n      pop\n      swap1\n      pop\n        /* \"contracts/EasyStaking.sol\":18714:18755  _paramUpdateDelayElapsed(param.timestamp) */\n      tag_337\n        /* \"contracts/EasyStaking.sol\":18739:18744  param */\n      dup2\n        /* \"contracts/EasyStaking.sol\":18739:18754  param.timestamp */\n      0x40\n      add\n      mload\n        /* \"contracts/EasyStaking.sol\":18714:18738  _paramUpdateDelayElapsed */\n      tag_338\n        /* \"contracts/EasyStaking.sol\":18714:18755  _paramUpdateDelayElapsed(param.timestamp) */\n      jump\t// in\n    tag_337:\n        /* \"contracts/EasyStaking.sol\":18714:18789  _paramUpdateDelayElapsed(param.timestamp) ? param.newValue : param.oldValue */\n      tag_339\n      jumpi\n        /* \"contracts/EasyStaking.sol\":18775:18780  param */\n      dup1\n        /* \"contracts/EasyStaking.sol\":18775:18789  param.oldValue */\n      0x00\n      add\n      mload\n        /* \"contracts/EasyStaking.sol\":18714:18789  _paramUpdateDelayElapsed(param.timestamp) ? param.newValue : param.oldValue */\n      jump(tag_340)\n    tag_339:\n        /* \"contracts/EasyStaking.sol\":18758:18763  param */\n      dup1\n        /* \"contracts/EasyStaking.sol\":18758:18772  param.newValue */\n      0x20\n      add\n      mload\n        /* \"contracts/EasyStaking.sol\":18714:18789  _paramUpdateDelayElapsed(param.timestamp) ? param.newValue : param.oldValue */\n    tag_340:\n        /* \"contracts/EasyStaking.sol\":18707:18789  return _paramUpdateDelayElapsed(param.timestamp) ? param.newValue : param.oldValue */\n      swap2\n      pop\n      pop\n        /* \"contracts/EasyStaking.sol\":18550:18796  function liquidityProvidersRewardAddress() public view returns (address) {... */\n      swap1\n      jump\t// out\n        /* \"contracts/EasyStaking.sol\":7213:8356  function initialize(... */\n    tag_149:\n        /* \"@openzeppelin/upgrades/contracts/Initializable.sol\":1024:1036  initializing */\n      0x00\n      0x01\n      swap1\n      sload\n      swap1\n      0x0100\n      exp\n      swap1\n      div\n      0xff\n      and\n        /* \"@openzeppelin/upgrades/contracts/Initializable.sol\":1024:1055  initializing || isConstructor() */\n      dup1\n      tag_342\n      jumpi\n      pop\n        /* \"@openzeppelin/upgrades/contracts/Initializable.sol\":1040:1055  isConstructor() */\n      tag_343\n        /* \"@openzeppelin/upgrades/contracts/Initializable.sol\":1040:1053  isConstructor */\n      tag_255\n        /* \"@openzeppelin/upgrades/contracts/Initializable.sol\":1040:1055  isConstructor() */\n      jump\t// in\n    tag_343:\n        /* \"@openzeppelin/upgrades/contracts/Initializable.sol\":1024:1055  initializing || isConstructor() */\n    tag_342:\n        /* \"@openzeppelin/upgrades/contracts/Initializable.sol\":1024:1071  initializing || isConstructor() || !initialized */\n      dup1\n      tag_344\n      jumpi\n      pop\n        /* \"@openzeppelin/upgrades/contracts/Initializable.sol\":1060:1071  initialized */\n      0x00\n      dup1\n      swap1\n      sload\n      swap1\n      0x0100\n      exp\n      swap1\n      div\n      0xff\n      and\n        /* \"@openzeppelin/upgrades/contracts/Initializable.sol\":1059:1071  !initialized */\n      iszero\n        /* \"@openzeppelin/upgrades/contracts/Initializable.sol\":1024:1071  initializing || isConstructor() || !initialized */\n    tag_344:\n        /* \"@openzeppelin/upgrades/contracts/Initializable.sol\":1016:1122  require(initializing || isConstructor() || !initialized, \"Contract instance has already been initialized\") */\n      tag_345\n      jumpi\n      mload(0x40)\n      0x08c379a000000000000000000000000000000000000000000000000000000000\n      dup2\n      mstore\n      0x04\n      add\n      dup1\n      dup1\n      0x20\n      add\n      dup3\n      dup2\n      sub\n      dup3\n      mstore\n      0x2e\n      dup2\n      mstore\n      0x20\n      add\n      dup1\n      data_9fbba6c4dcac9134893b633b9564f36435b3f927c1d5fa152c5c14b20cecb1a4\n      0x2e\n      swap2\n      codecopy\n      0x40\n      add\n      swap2\n      pop\n      pop\n      mload(0x40)\n      dup1\n      swap2\n      sub\n      swap1\n      revert\n    tag_345:\n        /* \"@openzeppelin/upgrades/contracts/Initializable.sol\":1129:1148  bool isTopLevelCall */\n      0x00\n        /* \"@openzeppelin/upgrades/contracts/Initializable.sol\":1152:1164  initializing */\n      dup1\n      0x01\n      swap1\n      sload\n      swap1\n      0x0100\n      exp\n      swap1\n      div\n      0xff\n      and\n        /* \"@openzeppelin/upgrades/contracts/Initializable.sol\":1151:1164  !initializing */\n      iszero\n        /* \"@openzeppelin/upgrades/contracts/Initializable.sol\":1129:1164  bool isTopLevelCall = !initializing */\n      swap1\n      pop\n        /* \"@openzeppelin/upgrades/contracts/Initializable.sol\":1174:1188  isTopLevelCall */\n      dup1\n        /* \"@openzeppelin/upgrades/contracts/Initializable.sol\":1170:1250  if (isTopLevelCall) {... */\n      iszero\n      tag_346\n      jumpi\n        /* \"@openzeppelin/upgrades/contracts/Initializable.sol\":1213:1217  true */\n      0x01\n        /* \"@openzeppelin/upgrades/contracts/Initializable.sol\":1198:1210  initializing */\n      0x00\n      0x01\n        /* \"@openzeppelin/upgrades/contracts/Initializable.sol\":1198:1217  initializing = true */\n      0x0100\n      exp\n      dup2\n      sload\n      dup2\n      0xff\n      mul\n      not\n      and\n      swap1\n      dup4\n      iszero\n      iszero\n      mul\n      or\n      swap1\n      sstore\n      pop\n        /* \"@openzeppelin/upgrades/contracts/Initializable.sol\":1239:1243  true */\n      0x01\n        /* \"@openzeppelin/upgrades/contracts/Initializable.sol\":1225:1236  initialized */\n      0x00\n      dup1\n        /* \"@openzeppelin/upgrades/contracts/Initializable.sol\":1225:1243  initialized = true */\n      0x0100\n      exp\n      dup2\n      sload\n      dup2\n      0xff\n      mul\n      not\n      and\n      swap1\n      dup4\n      iszero\n      iszero\n      mul\n      or\n      swap1\n      sstore\n      pop\n        /* \"@openzeppelin/upgrades/contracts/Initializable.sol\":1170:1250  if (isTopLevelCall) {... */\n    tag_346:\n        /* \"contracts/EasyStaking.sol\":7679:7680  0 */\n      0x00\n        /* \"contracts/EasyStaking.sol\":7661:7681  _owner != address(0) */\n      0xffffffffffffffffffffffffffffffffffffffff\n      and\n        /* \"contracts/EasyStaking.sol\":7661:7667  _owner */\n      dup13\n        /* \"contracts/EasyStaking.sol\":7661:7681  _owner != address(0) */\n      0xffffffffffffffffffffffffffffffffffffffff\n      and\n      eq\n      iszero\n        /* \"contracts/EasyStaking.sol\":7653:7698  require(_owner != address(0), \"zero address\") */\n      tag_348\n      jumpi\n      mload(0x40)\n      0x08c379a000000000000000000000000000000000000000000000000000000000\n      dup2\n      mstore\n      0x04\n      add\n      dup1\n      dup1\n      0x20\n      add\n      dup3\n      dup2\n      sub\n      dup3\n      mstore\n      0x0c\n      dup2\n      mstore\n      0x20\n      add\n      dup1\n      0x7a65726f20616464726573730000000000000000000000000000000000000000\n      dup2\n      mstore\n      pop\n      0x20\n      add\n      swap2\n      pop\n      pop\n      mload(0x40)\n      dup1\n      swap2\n      sub\n      swap1\n      revert\n    tag_348:\n        /* \"contracts/EasyStaking.sol\":7716:7742  _tokenAddress.isContract() */\n      tag_349\n        /* \"contracts/EasyStaking.sol\":7716:7729  _tokenAddress */\n      dup12\n        /* \"contracts/EasyStaking.sol\":7716:7740  _tokenAddress.isContract */\n      0xffffffffffffffffffffffffffffffffffffffff\n      and\n      tag_350\n        /* \"contracts/EasyStaking.sol\":7716:7742  _tokenAddress.isContract() */\n      jump\t// in\n    tag_349:\n        /* \"contracts/EasyStaking.sol\":7708:7769  require(_tokenAddress.isContract(), \"not a contract address\") */\n      tag_351\n      jumpi\n      mload(0x40)\n      0x08c379a000000000000000000000000000000000000000000000000000000000\n      dup2\n      mstore\n      0x04\n      add\n      dup1\n      dup1\n      0x20\n      add\n      dup3\n      dup2\n      sub\n      dup3\n      mstore\n      0x16\n      dup2\n      mstore\n      0x20\n      add\n      dup1\n      0x6e6f74206120636f6e7472616374206164647265737300000000000000000000\n      dup2\n      mstore\n      pop\n      0x20\n      add\n      swap2\n      pop\n      pop\n      mload(0x40)\n      dup1\n      swap2\n      sub\n      swap1\n      revert\n    tag_351:\n        /* \"contracts/EasyStaking.sol\":7779:7809  Ownable.initialize(msg.sender) */\n      tag_352\n        /* \"contracts/EasyStaking.sol\":7798:7808  msg.sender */\n      caller\n        /* \"contracts/EasyStaking.sol\":7779:7797  Ownable.initialize */\n      tag_144\n        /* \"contracts/EasyStaking.sol\":7779:7809  Ownable.initialize(msg.sender) */\n      jump\t// in\n    tag_352:\n        /* \"contracts/EasyStaking.sol\":7819:7847  ReentrancyGuard.initialize() */\n      tag_353\n        /* \"contracts/EasyStaking.sol\":7819:7845  ReentrancyGuard.initialize */\n      tag_100\n        /* \"contracts/EasyStaking.sol\":7819:7847  ReentrancyGuard.initialize() */\n      jump\t// in\n    tag_353:\n        /* \"contracts/EasyStaking.sol\":7880:7893  _tokenAddress */\n      dup11\n        /* \"contracts/EasyStaking.sol\":7857:7862  token */\n      0x99\n      0x00\n        /* \"contracts/EasyStaking.sol\":7857:7894  token = IERC20Mintable(_tokenAddress) */\n      0x0100\n      exp\n      dup2\n      sload\n      dup2\n      0xffffffffffffffffffffffffffffffffffffffff\n      mul\n      not\n      and\n      swap1\n      dup4\n      0xffffffffffffffffffffffffffffffffffffffff\n      and\n      mul\n      or\n      swap1\n      sstore\n      pop\n        /* \"contracts/EasyStaking.sol\":7904:7916  setFee(_fee) */\n      tag_354\n        /* \"contracts/EasyStaking.sol\":7911:7915  _fee */\n      dup10\n        /* \"contracts/EasyStaking.sol\":7904:7910  setFee */\n      tag_91\n        /* \"contracts/EasyStaking.sol\":7904:7916  setFee(_fee) */\n      jump\t// in\n    tag_354:\n        /* \"contracts/EasyStaking.sol\":7926:7976  setWithdrawalLockDuration(_withdrawalLockDuration) */\n      tag_355\n        /* \"contracts/EasyStaking.sol\":7952:7975  _withdrawalLockDuration */\n      dup9\n        /* \"contracts/EasyStaking.sol\":7926:7951  setWithdrawalLockDuration */\n      tag_67\n        /* \"contracts/EasyStaking.sol\":7926:7976  setWithdrawalLockDuration(_withdrawalLockDuration) */\n      jump\t// in\n    tag_355:\n        /* \"contracts/EasyStaking.sol\":7986:8040  setWithdrawalUnlockDuration(_withdrawalUnlockDuration) */\n      tag_356\n        /* \"contracts/EasyStaking.sol\":8014:8039  _withdrawalUnlockDuration */\n      dup8\n        /* \"contracts/EasyStaking.sol\":7986:8013  setWithdrawalUnlockDuration */\n      tag_107\n        /* \"contracts/EasyStaking.sol\":7986:8040  setWithdrawalUnlockDuration(_withdrawalUnlockDuration) */\n      jump\t// in\n    tag_356:\n        /* \"contracts/EasyStaking.sol\":8050:8100  setLockAfterStakeDuration(_lockAfterStakeDuration) */\n      tag_357\n        /* \"contracts/EasyStaking.sol\":8076:8099  _lockAfterStakeDuration */\n      dup7\n        /* \"contracts/EasyStaking.sol\":8050:8075  setLockAfterStakeDuration */\n      tag_96\n        /* \"contracts/EasyStaking.sol\":8050:8100  setLockAfterStakeDuration(_lockAfterStakeDuration) */\n      jump\t// in\n    tag_357:\n        /* \"contracts/EasyStaking.sol\":8110:8150  setTotalSupplyFactor(_totalSupplyFactor) */\n      tag_358\n        /* \"contracts/EasyStaking.sol\":8131:8149  _totalSupplyFactor */\n      dup6\n        /* \"contracts/EasyStaking.sol\":8110:8130  setTotalSupplyFactor */\n      tag_75\n        /* \"contracts/EasyStaking.sol\":8110:8150  setTotalSupplyFactor(_totalSupplyFactor) */\n      jump\t// in\n    tag_358:\n        /* \"contracts/EasyStaking.sol\":8160:8228  setSigmoidParameters(_sigmoidParamA, _sigmoidParamB, _sigmoidParamC) */\n      tag_359\n        /* \"contracts/EasyStaking.sol\":8181:8195  _sigmoidParamA */\n      dup5\n        /* \"contracts/EasyStaking.sol\":8197:8211  _sigmoidParamB */\n      dup5\n        /* \"contracts/EasyStaking.sol\":8213:8227  _sigmoidParamC */\n      dup5\n        /* \"contracts/EasyStaking.sol\":8160:8180  setSigmoidParameters */\n      tag_70\n        /* \"contracts/EasyStaking.sol\":8160:8228  setSigmoidParameters(_sigmoidParamA, _sigmoidParamB, _sigmoidParamC) */\n      jump\t// in\n    tag_359:\n        /* \"contracts/EasyStaking.sol\":8238:8306  setLiquidityProvidersRewardAddress(_liquidityProvidersRewardAddress) */\n      tag_360\n        /* \"contracts/EasyStaking.sol\":8273:8305  _liquidityProvidersRewardAddress */\n      dup11\n        /* \"contracts/EasyStaking.sol\":8238:8272  setLiquidityProvidersRewardAddress */\n      tag_155\n        /* \"contracts/EasyStaking.sol\":8238:8306  setLiquidityProvidersRewardAddress(_liquidityProvidersRewardAddress) */\n      jump\t// in\n    tag_360:\n        /* \"contracts/EasyStaking.sol\":8316:8349  Ownable.transferOwnership(_owner) */\n      tag_361\n        /* \"contracts/EasyStaking.sol\":8342:8348  _owner */\n      dup13\n        /* \"contracts/EasyStaking.sol\":8316:8341  Ownable.transferOwnership */\n      tag_168\n        /* \"contracts/EasyStaking.sol\":8316:8349  Ownable.transferOwnership(_owner) */\n      jump\t// in\n    tag_361:\n        /* \"@openzeppelin/upgrades/contracts/Initializable.sol\":1268:1282  isTopLevelCall */\n      dup1\n        /* \"@openzeppelin/upgrades/contracts/Initializable.sol\":1264:1319  if (isTopLevelCall) {... */\n      iszero\n      tag_362\n      jumpi\n        /* \"@openzeppelin/upgrades/contracts/Initializable.sol\":1307:1312  false */\n      0x00\n        /* \"@openzeppelin/upgrades/contracts/Initializable.sol\":1292:1304  initializing */\n      dup1\n      0x01\n        /* \"@openzeppelin/upgrades/contracts/Initializable.sol\":1292:1312  initializing = false */\n      0x0100\n      exp\n      dup2\n      sload\n      dup2\n      0xff\n      mul\n      not\n      and\n      swap1\n      dup4\n      iszero\n      iszero\n      mul\n      or\n      swap1\n      sstore\n      pop\n        /* \"@openzeppelin/upgrades/contracts/Initializable.sol\":1264:1319  if (isTopLevelCall) {... */\n    tag_362:\n        /* \"contracts/EasyStaking.sol\":7213:8356  function initialize(... */\n      pop\n      pop\n      pop\n      pop\n      pop\n      pop\n      pop\n      pop\n      pop\n      pop\n      pop\n      pop\n      jump\t// out\n        /* \"contracts/EasyStaking.sol\":5698:5763  mapping (address => mapping (uint256 => uint256)) public balances */\n    tag_152:\n      mstore(0x20, 0xac)\n      dup2\n      0x00\n      mstore\n      mstore(0x20, keccak256(0x00, 0x40))\n      dup1\n      0x00\n      mstore\n      keccak256(0x00, 0x40)\n      0x00\n      swap2\n      pop\n      swap2\n      pop\n      pop\n      sload\n      dup2\n      jump\t// out\n        /* \"contracts/EasyStaking.sol\":16560:17226  function setLiquidityProvidersRewardAddress(address _address) public onlyOwner {... */\n    tag_155:\n        /* \"@openzeppelin/contracts-ethereum-package/contracts/ownership/Ownable.sol\":1163:1172  isOwner() */\n      tag_364\n        /* \"@openzeppelin/contracts-ethereum-package/contracts/ownership/Ownable.sol\":1163:1170  isOwner */\n      tag_116\n        /* \"@openzeppelin/contracts-ethereum-package/contracts/ownership/Ownable.sol\":1163:1172  isOwner() */\n      jump\t// in\n    tag_364:\n        /* \"@openzeppelin/contracts-ethereum-package/contracts/ownership/Ownable.sol\":1155:1209  require(isOwner(), \"Ownable: caller is not the owner\") */\n      tag_365\n      jumpi\n      mload(0x40)\n      0x08c379a000000000000000000000000000000000000000000000000000000000\n      dup2\n      mstore\n      0x04\n      add\n      dup1\n      dup1\n      0x20\n      add\n      dup3\n      dup2\n      sub\n      dup3\n      mstore\n      0x20\n      dup2\n      mstore\n      0x20\n      add\n      dup1\n      0x4f776e61626c653a2063616c6c6572206973206e6f7420746865206f776e6572\n      dup2\n      mstore\n      pop\n      0x20\n      add\n      swap2\n      pop\n      pop\n      mload(0x40)\n      dup1\n      swap2\n      sub\n      swap1\n      revert\n    tag_365:\n        /* \"contracts/EasyStaking.sol\":16677:16678  0 */\n      0x00\n        /* \"contracts/EasyStaking.sol\":16657:16679  _address != address(0) */\n      0xffffffffffffffffffffffffffffffffffffffff\n      and\n        /* \"contracts/EasyStaking.sol\":16657:16665  _address */\n      dup2\n        /* \"contracts/EasyStaking.sol\":16657:16679  _address != address(0) */\n      0xffffffffffffffffffffffffffffffffffffffff\n      and\n      eq\n      iszero\n        /* \"contracts/EasyStaking.sol\":16649:16696  require(_address != address(0), \"zero address\") */\n      tag_367\n      jumpi\n      mload(0x40)\n      0x08c379a000000000000000000000000000000000000000000000000000000000\n      dup2\n      mstore\n      0x04\n      add\n      dup1\n      dup1\n      0x20\n      add\n      dup3\n      dup2\n      sub\n      dup3\n      mstore\n      0x0c\n      dup2\n      mstore\n      0x20\n      add\n      dup1\n      0x7a65726f20616464726573730000000000000000000000000000000000000000\n      dup2\n      mstore\n      pop\n      0x20\n      add\n      swap2\n      pop\n      pop\n      mload(0x40)\n      dup1\n      swap2\n      sub\n      swap1\n      revert\n    tag_367:\n        /* \"contracts/EasyStaking.sol\":16734:16738  this */\n      address\n        /* \"contracts/EasyStaking.sol\":16714:16739  _address != address(this) */\n      0xffffffffffffffffffffffffffffffffffffffff\n      and\n        /* \"contracts/EasyStaking.sol\":16714:16722  _address */\n      dup2\n        /* \"contracts/EasyStaking.sol\":16714:16739  _address != address(this) */\n      0xffffffffffffffffffffffffffffffffffffffff\n      and\n      eq\n      iszero\n        /* \"contracts/EasyStaking.sol\":16706:16757  require(_address != address(this), \"wrong address\") */\n      tag_368\n      jumpi\n      mload(0x40)\n      0x08c379a000000000000000000000000000000000000000000000000000000000\n      dup2\n      mstore\n      0x04\n      add\n      dup1\n      dup1\n      0x20\n      add\n      dup3\n      dup2\n      sub\n      dup3\n      mstore\n      0x0d\n      dup2\n      mstore\n      0x20\n      add\n      dup1\n      0x77726f6e67206164647265737300000000000000000000000000000000000000\n      dup2\n      mstore\n      pop\n      0x20\n      add\n      swap2\n      pop\n      pop\n      mload(0x40)\n      dup1\n      swap2\n      sub\n      swap1\n      revert\n    tag_368:\n        /* \"contracts/EasyStaking.sol\":16767:16792  AddressParam memory param */\n      tag_369\n      tag_336\n      jump\t// in\n    tag_369:\n        /* \"contracts/EasyStaking.sol\":16795:16831  liquidityProvidersRewardAddressParam */\n      0x9a\n        /* \"contracts/EasyStaking.sol\":16767:16831  AddressParam memory param = liquidityProvidersRewardAddressParam */\n      mload(0x40)\n      dup1\n      0x60\n      add\n      0x40\n      mstore\n      swap1\n      dup2\n      0x00\n      dup3\n      add\n      0x00\n      swap1\n      sload\n      swap1\n      0x0100\n      exp\n      swap1\n      div\n      0xffffffffffffffffffffffffffffffffffffffff\n      and\n      0xffffffffffffffffffffffffffffffffffffffff\n      and\n      0xffffffffffffffffffffffffffffffffffffffff\n      and\n      dup2\n      mstore\n      0x20\n      add\n      0x01\n      dup3\n      add\n      0x00\n      swap1\n      sload\n      swap1\n      0x0100\n      exp\n      swap1\n      div\n      0xffffffffffffffffffffffffffffffffffffffff\n      and\n      0xffffffffffffffffffffffffffffffffffffffff\n      and\n      0xffffffffffffffffffffffffffffffffffffffff\n      and\n      dup2\n      mstore\n      0x20\n      add\n      0x02\n      dup3\n      add\n      sload\n      dup2\n      mstore\n      pop\n      pop\n      swap1\n      pop\n        /* \"contracts/EasyStaking.sol\":16864:16865  0 */\n      0x00\n        /* \"contracts/EasyStaking.sol\":16845:16850  param */\n      dup2\n        /* \"contracts/EasyStaking.sol\":16845:16860  param.timestamp */\n      0x40\n      add\n      mload\n        /* \"contracts/EasyStaking.sol\":16845:16865  param.timestamp == 0 */\n      eq\n        /* \"contracts/EasyStaking.sol\":16841:17026  if (param.timestamp == 0) {... */\n      iszero\n      tag_370\n      jumpi\n        /* \"contracts/EasyStaking.sol\":16898:16906  _address */\n      dup2\n        /* \"contracts/EasyStaking.sol\":16881:16886  param */\n      dup2\n        /* \"contracts/EasyStaking.sol\":16881:16895  param.oldValue */\n      0x00\n      add\n        /* \"contracts/EasyStaking.sol\":16881:16906  param.oldValue = _address */\n      swap1\n      0xffffffffffffffffffffffffffffffffffffffff\n      and\n      swap1\n      dup2\n      0xffffffffffffffffffffffffffffffffffffffff\n      and\n      dup2\n      mstore\n      pop\n      pop\n        /* \"contracts/EasyStaking.sol\":16841:17026  if (param.timestamp == 0) {... */\n      jump(tag_371)\n    tag_370:\n        /* \"contracts/EasyStaking.sol\":16927:16968  _paramUpdateDelayElapsed(param.timestamp) */\n      tag_372\n        /* \"contracts/EasyStaking.sol\":16952:16957  param */\n      dup2\n        /* \"contracts/EasyStaking.sol\":16952:16967  param.timestamp */\n      0x40\n      add\n      mload\n        /* \"contracts/EasyStaking.sol\":16927:16951  _paramUpdateDelayElapsed */\n      tag_338\n        /* \"contracts/EasyStaking.sol\":16927:16968  _paramUpdateDelayElapsed(param.timestamp) */\n      jump\t// in\n    tag_372:\n        /* \"contracts/EasyStaking.sol\":16923:17026  if (_paramUpdateDelayElapsed(param.timestamp)) {... */\n      iszero\n      tag_373\n      jumpi\n        /* \"contracts/EasyStaking.sol\":17001:17006  param */\n      dup1\n        /* \"contracts/EasyStaking.sol\":17001:17015  param.newValue */\n      0x20\n      add\n      mload\n        /* \"contracts/EasyStaking.sol\":16984:16989  param */\n      dup2\n        /* \"contracts/EasyStaking.sol\":16984:16998  param.oldValue */\n      0x00\n      add\n        /* \"contracts/EasyStaking.sol\":16984:17015  param.oldValue = param.newValue */\n      swap1\n      0xffffffffffffffffffffffffffffffffffffffff\n      and\n      swap1\n      dup2\n      0xffffffffffffffffffffffffffffffffffffffff\n      and\n      dup2\n      mstore\n      pop\n      pop\n        /* \"contracts/EasyStaking.sol\":16923:17026  if (_paramUpdateDelayElapsed(param.timestamp)) {... */\n    tag_373:\n        /* \"contracts/EasyStaking.sol\":16841:17026  if (param.timestamp == 0) {... */\n    tag_371:\n        /* \"contracts/EasyStaking.sol\":17052:17060  _address */\n      dup2\n        /* \"contracts/EasyStaking.sol\":17035:17040  param */\n      dup2\n        /* \"contracts/EasyStaking.sol\":17035:17049  param.newValue */\n      0x20\n      add\n        /* \"contracts/EasyStaking.sol\":17035:17060  param.newValue = _address */\n      swap1\n      0xffffffffffffffffffffffffffffffffffffffff\n      and\n      swap1\n      dup2\n      0xffffffffffffffffffffffffffffffffffffffff\n      and\n      dup2\n      mstore\n      pop\n      pop\n        /* \"contracts/EasyStaking.sol\":17088:17094  _now() */\n      tag_374\n        /* \"contracts/EasyStaking.sol\":17088:17092  _now */\n      tag_174\n        /* \"contracts/EasyStaking.sol\":17088:17094  _now() */\n      jump\t// in\n    tag_374:\n        /* \"contracts/EasyStaking.sol\":17070:17075  param */\n      dup2\n        /* \"contracts/EasyStaking.sol\":17070:17085  param.timestamp */\n      0x40\n      add\n        /* \"contracts/EasyStaking.sol\":17070:17094  param.timestamp = _now() */\n      dup2\n      dup2\n      mstore\n      pop\n      pop\n        /* \"contracts/EasyStaking.sol\":17143:17148  param */\n      dup1\n        /* \"contracts/EasyStaking.sol\":17104:17140  liquidityProvidersRewardAddressParam */\n      0x9a\n        /* \"contracts/EasyStaking.sol\":17104:17148  liquidityProvidersRewardAddressParam = param */\n      0x00\n      dup3\n      add\n      mload\n      dup2\n      0x00\n      add\n      exp(0x0100, 0x00)\n      dup2\n      sload\n      dup2\n      0xffffffffffffffffffffffffffffffffffffffff\n      mul\n      not\n      and\n      swap1\n      dup4\n      0xffffffffffffffffffffffffffffffffffffffff\n      and\n      mul\n      or\n      swap1\n      sstore\n      pop\n      0x20\n      dup3\n      add\n      mload\n      dup2\n      0x01\n      add\n      exp(0x0100, 0x00)\n      dup2\n      sload\n      dup2\n      0xffffffffffffffffffffffffffffffffffffffff\n      mul\n      not\n      and\n      swap1\n      dup4\n      0xffffffffffffffffffffffffffffffffffffffff\n      and\n      mul\n      or\n      swap1\n      sstore\n      pop\n      0x40\n      dup3\n      add\n      mload\n      dup2\n      0x02\n      add\n      sstore\n      swap1\n      pop\n      pop\n        /* \"contracts/EasyStaking.sol\":17163:17219  LiquidityProvidersRewardAddressSet(_address, msg.sender) */\n      0x26a68c9d9649fb5e7a060a37b211ffd1d9a4fe6eb068bfb33decba647d4ed539\n        /* \"contracts/EasyStaking.sol\":17198:17206  _address */\n      dup3\n        /* \"contracts/EasyStaking.sol\":17208:17218  msg.sender */\n      caller\n        /* \"contracts/EasyStaking.sol\":17163:17219  LiquidityProvidersRewardAddressSet(_address, msg.sender) */\n      mload(0x40)\n      dup1\n      dup4\n      0xffffffffffffffffffffffffffffffffffffffff\n      and\n      0xffffffffffffffffffffffffffffffffffffffff\n      and\n      dup2\n      mstore\n      0x20\n      add\n      dup3\n      0xffffffffffffffffffffffffffffffffffffffff\n      and\n      0xffffffffffffffffffffffffffffffffffffffff\n      and\n      dup2\n      mstore\n      0x20\n      add\n      swap3\n      pop\n      pop\n      pop\n      mload(0x40)\n      dup1\n      swap2\n      sub\n      swap1\n      log1\n        /* \"@openzeppelin/contracts-ethereum-package/contracts/ownership/Ownable.sol\":1219:1220  _ */\n      pop\n        /* \"contracts/EasyStaking.sol\":16560:17226  function setLiquidityProvidersRewardAddress(address _address) public onlyOwner {... */\n      pop\n      jump\t// out\n        /* \"contracts/EasyStaking.sol\":4584:4635  uint256 public constant PARAM_UPDATE_DELAY = 7 days */\n    tag_157:\n        /* \"contracts/EasyStaking.sol\":4629:4635  7 days */\n      0x093a80\n        /* \"contracts/EasyStaking.sol\":4584:4635  uint256 public constant PARAM_UPDATE_DELAY = 7 days */\n      dup2\n      jump\t// out\n        /* \"contracts/EasyStaking.sol\":17284:17381  function fee() public view returns (uint256) {... */\n    tag_159:\n        /* \"contracts/EasyStaking.sol\":17320:17327  uint256 */\n      0x00\n        /* \"contracts/EasyStaking.sol\":17346:17374  _getUintParamValue(feeParam) */\n      tag_376\n        /* \"contracts/EasyStaking.sol\":17365:17373  feeParam */\n      0x9d\n        /* \"contracts/EasyStaking.sol\":17346:17374  _getUintParamValue(feeParam) */\n      mload(0x40)\n      dup1\n      0x60\n      add\n      0x40\n      mstore\n      swap1\n      dup2\n      0x00\n      dup3\n      add\n      sload\n      dup2\n      mstore\n      0x20\n      add\n      0x01\n      dup3\n      add\n      sload\n      dup2\n      mstore\n      0x20\n      add\n      0x02\n      dup3\n      add\n      sload\n      dup2\n      mstore\n      pop\n      pop\n        /* \"contracts/EasyStaking.sol\":17346:17364  _getUintParamValue */\n      tag_213\n        /* \"contracts/EasyStaking.sol\":17346:17374  _getUintParamValue(feeParam) */\n      jump\t// in\n    tag_376:\n        /* \"contracts/EasyStaking.sol\":17339:17374  return _getUintParamValue(feeParam) */\n      swap1\n      pop\n        /* \"contracts/EasyStaking.sol\":17284:17381  function fee() public view returns (uint256) {... */\n      swap1\n      jump\t// out\n        /* \"contracts/EasyStaking.sol\":5927:6007  mapping (address => mapping (uint256 => uint256)) public withdrawalRequestsDates */\n    tag_162:\n      mstore(0x20, 0xae)\n      dup2\n      0x00\n      mstore\n      mstore(0x20, keccak256(0x00, 0x40))\n      dup1\n      0x00\n      mstore\n      keccak256(0x00, 0x40)\n      0x00\n      swap2\n      pop\n      swap2\n      pop\n      pop\n      sload\n      dup2\n      jump\t// out\n        /* \"contracts/EasyStaking.sol\":9308:9669  function deposit(uint256 _depositId, uint256 _amount) public {... */\n    tag_165:\n        /* \"contracts/EasyStaking.sol\":9400:9401  0 */\n      0x00\n        /* \"contracts/EasyStaking.sol\":9387:9397  _depositId */\n      dup3\n        /* \"contracts/EasyStaking.sol\":9387:9401  _depositId > 0 */\n      gt\n        /* \"contracts/EasyStaking.sol\":9387:9445  _depositId > 0 && _depositId <= lastDepositIds[msg.sender] */\n      dup1\n      iszero\n      tag_378\n      jumpi\n      pop\n        /* \"contracts/EasyStaking.sol\":9419:9433  lastDepositIds */\n      0xaf\n        /* \"contracts/EasyStaking.sol\":9419:9445  lastDepositIds[msg.sender] */\n      0x00\n        /* \"contracts/EasyStaking.sol\":9434:9444  msg.sender */\n      caller\n        /* \"contracts/EasyStaking.sol\":9419:9445  lastDepositIds[msg.sender] */\n      0xffffffffffffffffffffffffffffffffffffffff\n      and\n      0xffffffffffffffffffffffffffffffffffffffff\n      and\n      dup2\n      mstore\n      0x20\n      add\n      swap1\n      dup2\n      mstore\n      0x20\n      add\n      0x00\n      keccak256\n      sload\n        /* \"contracts/EasyStaking.sol\":9405:9415  _depositId */\n      dup3\n        /* \"contracts/EasyStaking.sol\":9405:9445  _depositId <= lastDepositIds[msg.sender] */\n      gt\n      iszero\n        /* \"contracts/EasyStaking.sol\":9387:9445  _depositId > 0 && _depositId <= lastDepositIds[msg.sender] */\n    tag_378:\n        /* \"contracts/EasyStaking.sol\":9379:9466  require(_depositId > 0 && _depositId <= lastDepositIds[msg.sender], \"wrong deposit id\") */\n      tag_379\n      jumpi\n      mload(0x40)\n      0x08c379a000000000000000000000000000000000000000000000000000000000\n      dup2\n      mstore\n      0x04\n      add\n      dup1\n      dup1\n      0x20\n      add\n      dup3\n      dup2\n      sub\n      dup3\n      mstore\n      0x10\n      dup2\n      mstore\n      0x20\n      add\n      dup1\n      0x77726f6e67206465706f73697420696400000000000000000000000000000000\n      dup2\n      mstore\n      pop\n      0x20\n      add\n      swap2\n      pop\n      pop\n      mload(0x40)\n      dup1\n      swap2\n      sub\n      swap1\n      revert\n    tag_379:\n        /* \"contracts/EasyStaking.sol\":9476:9517  _deposit(msg.sender, _depositId, _amount) */\n      tag_380\n        /* \"contracts/EasyStaking.sol\":9485:9495  msg.sender */\n      caller\n        /* \"contracts/EasyStaking.sol\":9497:9507  _depositId */\n      dup4\n        /* \"contracts/EasyStaking.sol\":9509:9516  _amount */\n      dup4\n        /* \"contracts/EasyStaking.sol\":9476:9484  _deposit */\n      tag_323\n        /* \"contracts/EasyStaking.sol\":9476:9517  _deposit(msg.sender, _depositId, _amount) */\n      jump\t// in\n    tag_380:\n        /* \"contracts/EasyStaking.sol\":9527:9543  _setLocked(true) */\n      tag_381\n        /* \"contracts/EasyStaking.sol\":9538:9542  true */\n      0x01\n        /* \"contracts/EasyStaking.sol\":9527:9537  _setLocked */\n      tag_382\n        /* \"contracts/EasyStaking.sol\":9527:9543  _setLocked(true) */\n      jump\t// in\n    tag_381:\n        /* \"contracts/EasyStaking.sol\":9561:9566  token */\n      0x99\n      0x00\n      swap1\n      sload\n      swap1\n      0x0100\n      exp\n      swap1\n      div\n      0xffffffffffffffffffffffffffffffffffffffff\n      and\n        /* \"contracts/EasyStaking.sol\":9561:9579  token.transferFrom */\n      0xffffffffffffffffffffffffffffffffffffffff\n      and\n      0x23b872dd\n        /* \"contracts/EasyStaking.sol\":9580:9590  msg.sender */\n      caller\n        /* \"contracts/EasyStaking.sol\":9600:9604  this */\n      address\n        /* \"contracts/EasyStaking.sol\":9607:9614  _amount */\n      dup5\n        /* \"contracts/EasyStaking.sol\":9561:9615  token.transferFrom(msg.sender, address(this), _amount) */\n      mload(0x40)\n      dup5\n      0xffffffff\n      and\n      0xe0\n      shl\n      dup2\n      mstore\n      0x04\n      add\n      dup1\n      dup5\n      0xffffffffffffffffffffffffffffffffffffffff\n      and\n      0xffffffffffffffffffffffffffffffffffffffff\n      and\n      dup2\n      mstore\n      0x20\n      add\n      dup4\n      0xffffffffffffffffffffffffffffffffffffffff\n      and\n      0xffffffffffffffffffffffffffffffffffffffff\n      and\n      dup2\n      mstore\n      0x20\n      add\n      dup3\n      dup2\n      mstore\n      0x20\n      add\n      swap4\n      pop\n      pop\n      pop\n      pop\n      0x20\n      mload(0x40)\n      dup1\n      dup4\n      sub\n      dup2\n      0x00\n      dup8\n      dup1\n      extcodesize\n      iszero\n        /* \"--CODEGEN--\":8:17   */\n      dup1\n        /* \"--CODEGEN--\":5:7   */\n      iszero\n      tag_383\n      jumpi\n        /* \"--CODEGEN--\":30:31   */\n      0x00\n        /* \"--CODEGEN--\":27:28   */\n      dup1\n        /* \"--CODEGEN--\":20:32   */\n      revert\n        /* \"--CODEGEN--\":5:7   */\n    tag_383:\n        /* \"contracts/EasyStaking.sol\":9561:9615  token.transferFrom(msg.sender, address(this), _amount) */\n      pop\n      gas\n      call\n      iszero\n        /* \"--CODEGEN--\":8:17   */\n      dup1\n        /* \"--CODEGEN--\":5:7   */\n      iszero\n      tag_384\n      jumpi\n        /* \"--CODEGEN--\":45:61   */\n      returndatasize\n        /* \"--CODEGEN--\":42:43   */\n      0x00\n        /* \"--CODEGEN--\":39:40   */\n      dup1\n        /* \"--CODEGEN--\":24:62   */\n      returndatacopy\n        /* \"--CODEGEN--\":77:93   */\n      returndatasize\n        /* \"--CODEGEN--\":74:75   */\n      0x00\n        /* \"--CODEGEN--\":67:94   */\n      revert\n        /* \"--CODEGEN--\":5:7   */\n    tag_384:\n        /* \"contracts/EasyStaking.sol\":9561:9615  token.transferFrom(msg.sender, address(this), _amount) */\n      pop\n      pop\n      pop\n      pop\n      mload(0x40)\n      returndatasize\n        /* \"--CODEGEN--\":13:15   */\n      0x20\n        /* \"--CODEGEN--\":8:11   */\n      dup2\n        /* \"--CODEGEN--\":5:16   */\n      lt\n        /* \"--CODEGEN--\":2:4   */\n      iszero\n      tag_385\n      jumpi\n        /* \"--CODEGEN--\":29:30   */\n      0x00\n        /* \"--CODEGEN--\":26:27   */\n      dup1\n        /* \"--CODEGEN--\":19:31   */\n      revert\n        /* \"--CODEGEN--\":2:4   */\n    tag_385:\n        /* \"contracts/EasyStaking.sol\":9561:9615  token.transferFrom(msg.sender, address(this), _amount) */\n      dup2\n      add\n      swap1\n      dup1\n      dup1\n      mload\n      swap1\n      0x20\n      add\n      swap1\n      swap3\n      swap2\n      swap1\n      pop\n      pop\n      pop\n        /* \"contracts/EasyStaking.sol\":9553:9635  require(token.transferFrom(msg.sender, address(this), _amount), \"transfer failed\") */\n      tag_386\n      jumpi\n      mload(0x40)\n      0x08c379a000000000000000000000000000000000000000000000000000000000\n      dup2\n      mstore\n      0x04\n      add\n      dup1\n      dup1\n      0x20\n      add\n      dup3\n      dup2\n      sub\n      dup3\n      mstore\n      0x0f\n      dup2\n      mstore\n      0x20\n      add\n      dup1\n      0x7472616e73666572206661696c65640000000000000000000000000000000000\n      dup2\n      mstore\n      pop\n      0x20\n      add\n      swap2\n      pop\n      pop\n      mload(0x40)\n      dup1\n      swap2\n      sub\n      swap1\n      revert\n    tag_386:\n        /* \"contracts/EasyStaking.sol\":9645:9662  _setLocked(false) */\n      tag_387\n        /* \"contracts/EasyStaking.sol\":9656:9661  false */\n      0x00\n        /* \"contracts/EasyStaking.sol\":9645:9655  _setLocked */\n      tag_382\n        /* \"contracts/EasyStaking.sol\":9645:9662  _setLocked(false) */\n      jump\t// in\n    tag_387:\n        /* \"contracts/EasyStaking.sol\":9308:9669  function deposit(uint256 _depositId, uint256 _amount) public {... */\n      pop\n      pop\n      jump\t// out\n        /* \"@openzeppelin/contracts-ethereum-package/contracts/ownership/Ownable.sol\":2032:2139  function transferOwnership(address newOwner) public onlyOwner {... */\n    tag_168:\n        /* \"@openzeppelin/contracts-ethereum-package/contracts/ownership/Ownable.sol\":1163:1172  isOwner() */\n      tag_389\n        /* \"@openzeppelin/contracts-ethereum-package/contracts/ownership/Ownable.sol\":1163:1170  isOwner */\n      tag_116\n        /* \"@openzeppelin/contracts-ethereum-package/contracts/ownership/Ownable.sol\":1163:1172  isOwner() */\n      jump\t// in\n    tag_389:\n        /* \"@openzeppelin/contracts-ethereum-package/contracts/ownership/Ownable.sol\":1155:1209  require(isOwner(), \"Ownable: caller is not the owner\") */\n      tag_390\n      jumpi\n      mload(0x40)\n      0x08c379a000000000000000000000000000000000000000000000000000000000\n      dup2\n      mstore\n      0x04\n      add\n      dup1\n      dup1\n      0x20\n      add\n      dup3\n      dup2\n      sub\n      dup3\n      mstore\n      0x20\n      dup2\n      mstore\n      0x20\n      add\n      dup1\n      0x4f776e61626c653a2063616c6c6572206973206e6f7420746865206f776e6572\n      dup2\n      mstore\n      pop\n      0x20\n      add\n      swap2\n      pop\n      pop\n      mload(0x40)\n      dup1\n      swap2\n      sub\n      swap1\n      revert\n    tag_390:\n        /* \"@openzeppelin/contracts-ethereum-package/contracts/ownership/Ownable.sol\":2104:2132  _transferOwnership(newOwner) */\n      tag_392\n        /* \"@openzeppelin/contracts-ethereum-package/contracts/ownership/Ownable.sol\":2123:2131  newOwner */\n      dup2\n        /* \"@openzeppelin/contracts-ethereum-package/contracts/ownership/Ownable.sol\":2104:2122  _transferOwnership */\n      tag_393\n        /* \"@openzeppelin/contracts-ethereum-package/contracts/ownership/Ownable.sol\":2104:2132  _transferOwnership(newOwner) */\n      jump\t// in\n    tag_392:\n        /* \"@openzeppelin/contracts-ethereum-package/contracts/ownership/Ownable.sol\":2032:2139  function transferOwnership(address newOwner) public onlyOwner {... */\n      pop\n      jump\t// out\n        /* \"contracts/EasyStaking.sol\":4661:4688  IERC20Mintable public token */\n    tag_170:\n      0x99\n      0x00\n      swap1\n      sload\n      swap1\n      0x0100\n      exp\n      swap1\n      div\n      0xffffffffffffffffffffffffffffffffffffffff\n      and\n      dup2\n      jump\t// out\n        /* \"contracts/EasyStaking.sol\":25357:25657  function _now() internal view returns (uint256) {... */\n    tag_174:\n        /* \"contracts/EasyStaking.sol\":25396:25403  uint256 */\n      0x00\n        /* \"contracts/EasyStaking.sol\":25598:25601  now */\n      timestamp\n        /* \"contracts/EasyStaking.sol\":25591:25601  return now */\n      swap1\n      pop\n        /* \"contracts/EasyStaking.sol\":25357:25657  function _now() internal view returns (uint256) {... */\n      swap1\n      jump\t// out\n        /* \"@openzeppelin/contracts-ethereum-package/contracts/math/SafeMath.sol\":1274:1408  function sub(uint256 a, uint256 b) internal pure returns (uint256) {... */\n    tag_175:\n        /* \"@openzeppelin/contracts-ethereum-package/contracts/math/SafeMath.sol\":1332:1339  uint256 */\n      0x00\n        /* \"@openzeppelin/contracts-ethereum-package/contracts/math/SafeMath.sol\":1358:1401  sub(a, b, \"SafeMath: subtraction overflow\") */\n      tag_396\n        /* \"@openzeppelin/contracts-ethereum-package/contracts/math/SafeMath.sol\":1362:1363  a */\n      dup4\n        /* \"@openzeppelin/contracts-ethereum-package/contracts/math/SafeMath.sol\":1365:1366  b */\n      dup4\n        /* \"@openzeppelin/contracts-ethereum-package/contracts/math/SafeMath.sol\":1358:1401  sub(a, b, \"SafeMath: subtraction overflow\") */\n      mload(0x40)\n      dup1\n      0x40\n      add\n      0x40\n      mstore\n      dup1\n      0x1e\n      dup2\n      mstore\n      0x20\n      add\n      0x536166654d6174683a207375627472616374696f6e206f766572666c6f770000\n      dup2\n      mstore\n      pop\n        /* \"@openzeppelin/contracts-ethereum-package/contracts/math/SafeMath.sol\":1358:1361  sub */\n      tag_397\n        /* \"@openzeppelin/contracts-ethereum-package/contracts/math/SafeMath.sol\":1358:1401  sub(a, b, \"SafeMath: subtraction overflow\") */\n      jump\t// in\n    tag_396:\n        /* \"@openzeppelin/contracts-ethereum-package/contracts/math/SafeMath.sol\":1351:1401  return sub(a, b, \"SafeMath: subtraction overflow\") */\n      swap1\n      pop\n        /* \"@openzeppelin/contracts-ethereum-package/contracts/math/SafeMath.sol\":1274:1408  function sub(uint256 a, uint256 b) internal pure returns (uint256) {... */\n      swap3\n      swap2\n      pop\n      pop\n      jump\t// out\n        /* \"@openzeppelin/contracts-ethereum-package/contracts/math/SafeMath.sol\":834:1010  function add(uint256 a, uint256 b) internal pure returns (uint256) {... */\n    tag_182:\n        /* \"@openzeppelin/contracts-ethereum-package/contracts/math/SafeMath.sol\":892:899  uint256 */\n      0x00\n        /* \"@openzeppelin/contracts-ethereum-package/contracts/math/SafeMath.sol\":911:920  uint256 c */\n      dup1\n        /* \"@openzeppelin/contracts-ethereum-package/contracts/math/SafeMath.sol\":927:928  b */\n      dup3\n        /* \"@openzeppelin/contracts-ethereum-package/contracts/math/SafeMath.sol\":923:924  a */\n      dup5\n        /* \"@openzeppelin/contracts-ethereum-package/contracts/math/SafeMath.sol\":923:928  a + b */\n      add\n        /* \"@openzeppelin/contracts-ethereum-package/contracts/math/SafeMath.sol\":911:928  uint256 c = a + b */\n      swap1\n      pop\n        /* \"@openzeppelin/contracts-ethereum-package/contracts/math/SafeMath.sol\":951:952  a */\n      dup4\n        /* \"@openzeppelin/contracts-ethereum-package/contracts/math/SafeMath.sol\":946:947  c */\n      dup2\n        /* \"@openzeppelin/contracts-ethereum-package/contracts/math/SafeMath.sol\":946:952  c >= a */\n      lt\n      iszero\n        /* \"@openzeppelin/contracts-ethereum-package/contracts/math/SafeMath.sol\":938:984  require(c >= a, \"SafeMath: addition overflow\") */\n      tag_399\n      jumpi\n      mload(0x40)\n      0x08c379a000000000000000000000000000000000000000000000000000000000\n      dup2\n      mstore\n      0x04\n      add\n      dup1\n      dup1\n      0x20\n      add\n      dup3\n      dup2\n      sub\n      dup3\n      mstore\n      0x1b\n      dup2\n      mstore\n      0x20\n      add\n      dup1\n      0x536166654d6174683a206164646974696f6e206f766572666c6f770000000000\n      dup2\n      mstore\n      pop\n      0x20\n      add\n      swap2\n      pop\n      pop\n      mload(0x40)\n      dup1\n      swap2\n      sub\n      swap1\n      revert\n    tag_399:\n        /* \"@openzeppelin/contracts-ethereum-package/contracts/math/SafeMath.sol\":1002:1003  c */\n      dup1\n        /* \"@openzeppelin/contracts-ethereum-package/contracts/math/SafeMath.sol\":995:1003  return c */\n      swap2\n      pop\n      pop\n        /* \"@openzeppelin/contracts-ethereum-package/contracts/math/SafeMath.sol\":834:1010  function add(uint256 a, uint256 b) internal pure returns (uint256) {... */\n      swap3\n      swap2\n      pop\n      pop\n      jump\t// out\n        /* \"contracts/EasyStaking.sol\":21936:23171  function _withdraw(address _sender, uint256 _id, uint256 _amount, bool _forced) internal nonReentrant {... */\n    tag_188:\n        /* \"@openzeppelin/contracts-ethereum-package/contracts/utils/ReentrancyGuard.sol\":1409:1410  1 */\n      0x01\n        /* \"@openzeppelin/contracts-ethereum-package/contracts/utils/ReentrancyGuard.sol\":1392:1405  _guardCounter */\n      0x66\n      0x00\n        /* \"@openzeppelin/contracts-ethereum-package/contracts/utils/ReentrancyGuard.sol\":1392:1410  _guardCounter += 1 */\n      dup3\n      dup3\n      sload\n      add\n      swap3\n      pop\n      pop\n      dup2\n      swap1\n      sstore\n      pop\n        /* \"@openzeppelin/contracts-ethereum-package/contracts/utils/ReentrancyGuard.sol\":1420:1440  uint256 localCounter */\n      0x00\n        /* \"@openzeppelin/contracts-ethereum-package/contracts/utils/ReentrancyGuard.sol\":1443:1456  _guardCounter */\n      sload(0x66)\n        /* \"@openzeppelin/contracts-ethereum-package/contracts/utils/ReentrancyGuard.sol\":1420:1456  uint256 localCounter = _guardCounter */\n      swap1\n      pop\n        /* \"contracts/EasyStaking.sol\":22062:22063  0 */\n      0x00\n        /* \"contracts/EasyStaking.sol\":22056:22059  _id */\n      dup5\n        /* \"contracts/EasyStaking.sol\":22056:22063  _id > 0 */\n      gt\n        /* \"contracts/EasyStaking.sol\":22056:22097  _id > 0 && _id <= lastDepositIds[_sender] */\n      dup1\n      iszero\n      tag_402\n      jumpi\n      pop\n        /* \"contracts/EasyStaking.sol\":22074:22088  lastDepositIds */\n      0xaf\n        /* \"contracts/EasyStaking.sol\":22074:22097  lastDepositIds[_sender] */\n      0x00\n        /* \"contracts/EasyStaking.sol\":22089:22096  _sender */\n      dup7\n        /* \"contracts/EasyStaking.sol\":22074:22097  lastDepositIds[_sender] */\n      0xffffffffffffffffffffffffffffffffffffffff\n      and\n      0xffffffffffffffffffffffffffffffffffffffff\n      and\n      dup2\n      mstore\n      0x20\n      add\n      swap1\n      dup2\n      mstore\n      0x20\n      add\n      0x00\n      keccak256\n      sload\n        /* \"contracts/EasyStaking.sol\":22067:22070  _id */\n      dup5\n        /* \"contracts/EasyStaking.sol\":22067:22097  _id <= lastDepositIds[_sender] */\n      gt\n      iszero\n        /* \"contracts/EasyStaking.sol\":22056:22097  _id > 0 && _id <= lastDepositIds[_sender] */\n    tag_402:\n        /* \"contracts/EasyStaking.sol\":22048:22118  require(_id > 0 && _id <= lastDepositIds[_sender], \"wrong deposit id\") */\n      tag_403\n      jumpi\n      mload(0x40)\n      0x08c379a000000000000000000000000000000000000000000000000000000000\n      dup2\n      mstore\n      0x04\n      add\n      dup1\n      dup1\n      0x20\n      add\n      dup3\n      dup2\n      sub\n      dup3\n      mstore\n      0x10\n      dup2\n      mstore\n      0x20\n      add\n      dup1\n      0x77726f6e67206465706f73697420696400000000000000000000000000000000\n      dup2\n      mstore\n      pop\n      0x20\n      add\n      swap2\n      pop\n      pop\n      mload(0x40)\n      dup1\n      swap2\n      sub\n      swap1\n      revert\n    tag_403:\n        /* \"contracts/EasyStaking.sol\":22161:22162  0 */\n      0x00\n        /* \"contracts/EasyStaking.sol\":22136:22144  balances */\n      0xac\n        /* \"contracts/EasyStaking.sol\":22136:22153  balances[_sender] */\n      0x00\n        /* \"contracts/EasyStaking.sol\":22145:22152  _sender */\n      dup8\n        /* \"contracts/EasyStaking.sol\":22136:22153  balances[_sender] */\n      0xffffffffffffffffffffffffffffffffffffffff\n      and\n      0xffffffffffffffffffffffffffffffffffffffff\n      and\n      dup2\n      mstore\n      0x20\n      add\n      swap1\n      dup2\n      mstore\n      0x20\n      add\n      0x00\n      keccak256\n        /* \"contracts/EasyStaking.sol\":22136:22158  balances[_sender][_id] */\n      0x00\n        /* \"contracts/EasyStaking.sol\":22154:22157  _id */\n      dup7\n        /* \"contracts/EasyStaking.sol\":22136:22158  balances[_sender][_id] */\n      dup2\n      mstore\n      0x20\n      add\n      swap1\n      dup2\n      mstore\n      0x20\n      add\n      0x00\n      keccak256\n      sload\n        /* \"contracts/EasyStaking.sol\":22136:22162  balances[_sender][_id] > 0 */\n      gt\n        /* \"contracts/EasyStaking.sol\":22136:22199  balances[_sender][_id] > 0 && balances[_sender][_id] >= _amount */\n      dup1\n      iszero\n      tag_404\n      jumpi\n      pop\n        /* \"contracts/EasyStaking.sol\":22192:22199  _amount */\n      dup3\n        /* \"contracts/EasyStaking.sol\":22166:22174  balances */\n      0xac\n        /* \"contracts/EasyStaking.sol\":22166:22183  balances[_sender] */\n      0x00\n        /* \"contracts/EasyStaking.sol\":22175:22182  _sender */\n      dup8\n        /* \"contracts/EasyStaking.sol\":22166:22183  balances[_sender] */\n      0xffffffffffffffffffffffffffffffffffffffff\n      and\n      0xffffffffffffffffffffffffffffffffffffffff\n      and\n      dup2\n      mstore\n      0x20\n      add\n      swap1\n      dup2\n      mstore\n      0x20\n      add\n      0x00\n      keccak256\n        /* \"contracts/EasyStaking.sol\":22166:22188  balances[_sender][_id] */\n      0x00\n        /* \"contracts/EasyStaking.sol\":22184:22187  _id */\n      dup7\n        /* \"contracts/EasyStaking.sol\":22166:22188  balances[_sender][_id] */\n      dup2\n      mstore\n      0x20\n      add\n      swap1\n      dup2\n      mstore\n      0x20\n      add\n      0x00\n      keccak256\n      sload\n        /* \"contracts/EasyStaking.sol\":22166:22199  balances[_sender][_id] >= _amount */\n      lt\n      iszero\n        /* \"contracts/EasyStaking.sol\":22136:22199  balances[_sender][_id] > 0 && balances[_sender][_id] >= _amount */\n    tag_404:\n        /* \"contracts/EasyStaking.sol\":22128:22222  require(balances[_sender][_id] > 0 && balances[_sender][_id] >= _amount, \"insufficient funds\") */\n      tag_405\n      jumpi\n      mload(0x40)\n      0x08c379a000000000000000000000000000000000000000000000000000000000\n      dup2\n      mstore\n      0x04\n      add\n      dup1\n      dup1\n      0x20\n      add\n      dup3\n      dup2\n      sub\n      dup3\n      mstore\n      0x12\n      dup2\n      mstore\n      0x20\n      add\n      dup1\n      0x696e73756666696369656e742066756e64730000000000000000000000000000\n      dup2\n      mstore\n      pop\n      0x20\n      add\n      swap2\n      pop\n      pop\n      mload(0x40)\n      dup1\n      swap2\n      sub\n      swap1\n      revert\n    tag_405:\n        /* \"contracts/EasyStaking.sol\":22240:22282  lockAfterStakeDurationPassed(_sender, _id) */\n      tag_406\n        /* \"contracts/EasyStaking.sol\":22269:22276  _sender */\n      dup6\n        /* \"contracts/EasyStaking.sol\":22278:22281  _id */\n      dup6\n        /* \"contracts/EasyStaking.sol\":22240:22268  lockAfterStakeDurationPassed */\n      tag_59\n        /* \"contracts/EasyStaking.sol\":22240:22282  lockAfterStakeDurationPassed(_sender, _id) */\n      jump\t// in\n    tag_406:\n        /* \"contracts/EasyStaking.sol\":22232:22330  require(lockAfterStakeDurationPassed(_sender, _id), \"can not withdraw during initial lock period\") */\n      tag_407\n      jumpi\n      mload(0x40)\n      0x08c379a000000000000000000000000000000000000000000000000000000000\n      dup2\n      mstore\n      0x04\n      add\n      dup1\n      dup1\n      0x20\n      add\n      dup3\n      dup2\n      sub\n      dup3\n      mstore\n      0x2b\n      dup2\n      mstore\n      0x20\n      add\n      dup1\n      data_a232e1f8b28a085f31f602663a0343288b51e95e524fa8082d77230266997c5c\n      0x2b\n      swap2\n      codecopy\n      0x40\n      add\n      swap2\n      pop\n      pop\n      mload(0x40)\n      dup1\n      swap2\n      sub\n      swap1\n      revert\n    tag_407:\n        /* \"contracts/EasyStaking.sol\":22341:22364  uint256 accruedEmission */\n      0x00\n        /* \"contracts/EasyStaking.sol\":22366:22384  uint256 timePassed */\n      dup1\n        /* \"contracts/EasyStaking.sol\":22388:22416  _mint(_sender, _id, _amount) */\n      tag_408\n        /* \"contracts/EasyStaking.sol\":22394:22401  _sender */\n      dup8\n        /* \"contracts/EasyStaking.sol\":22403:22406  _id */\n      dup8\n        /* \"contracts/EasyStaking.sol\":22408:22415  _amount */\n      dup8\n        /* \"contracts/EasyStaking.sol\":22388:22393  _mint */\n      tag_409\n        /* \"contracts/EasyStaking.sol\":22388:22416  _mint(_sender, _id, _amount) */\n      jump\t// in\n    tag_408:\n        /* \"contracts/EasyStaking.sol\":22340:22416  (uint256 accruedEmission, uint256 timePassed) = _mint(_sender, _id, _amount) */\n      swap2\n      pop\n      swap2\n      pop\n        /* \"contracts/EasyStaking.sol\":22426:22440  uint256 amount */\n      0x00\n        /* \"contracts/EasyStaking.sol\":22454:22455  0 */\n      dup1\n        /* \"contracts/EasyStaking.sol\":22443:22450  _amount */\n      dup7\n        /* \"contracts/EasyStaking.sol\":22443:22455  _amount == 0 */\n      eq\n        /* \"contracts/EasyStaking.sol\":22443:22511  _amount == 0 ? balances[_sender][_id] : _amount.add(accruedEmission) */\n      tag_410\n      jumpi\n        /* \"contracts/EasyStaking.sol\":22483:22511  _amount.add(accruedEmission) */\n      tag_411\n        /* \"contracts/EasyStaking.sol\":22495:22510  accruedEmission */\n      dup4\n        /* \"contracts/EasyStaking.sol\":22483:22490  _amount */\n      dup8\n        /* \"contracts/EasyStaking.sol\":22483:22494  _amount.add */\n      tag_182\n      swap1\n        /* \"contracts/EasyStaking.sol\":22483:22511  _amount.add(accruedEmission) */\n      swap2\n      swap1\n      0xffffffff\n      and\n      jump\t// in\n    tag_411:\n        /* \"contracts/EasyStaking.sol\":22443:22511  _amount == 0 ? balances[_sender][_id] : _amount.add(accruedEmission) */\n      jump(tag_412)\n    tag_410:\n        /* \"contracts/EasyStaking.sol\":22458:22466  balances */\n      0xac\n        /* \"contracts/EasyStaking.sol\":22458:22475  balances[_sender] */\n      0x00\n        /* \"contracts/EasyStaking.sol\":22467:22474  _sender */\n      dup10\n        /* \"contracts/EasyStaking.sol\":22458:22475  balances[_sender] */\n      0xffffffffffffffffffffffffffffffffffffffff\n      and\n      0xffffffffffffffffffffffffffffffffffffffff\n      and\n      dup2\n      mstore\n      0x20\n      add\n      swap1\n      dup2\n      mstore\n      0x20\n      add\n      0x00\n      keccak256\n        /* \"contracts/EasyStaking.sol\":22458:22480  balances[_sender][_id] */\n      0x00\n        /* \"contracts/EasyStaking.sol\":22476:22479  _id */\n      dup9\n        /* \"contracts/EasyStaking.sol\":22458:22480  balances[_sender][_id] */\n      dup2\n      mstore\n      0x20\n      add\n      swap1\n      dup2\n      mstore\n      0x20\n      add\n      0x00\n      keccak256\n      sload\n        /* \"contracts/EasyStaking.sol\":22443:22511  _amount == 0 ? balances[_sender][_id] : _amount.add(accruedEmission) */\n    tag_412:\n        /* \"contracts/EasyStaking.sol\":22426:22511  uint256 amount = _amount == 0 ? balances[_sender][_id] : _amount.add(accruedEmission) */\n      swap1\n      pop\n        /* \"contracts/EasyStaking.sol\":22546:22580  balances[_sender][_id].sub(amount) */\n      tag_413\n        /* \"contracts/EasyStaking.sol\":22573:22579  amount */\n      dup2\n        /* \"contracts/EasyStaking.sol\":22546:22554  balances */\n      0xac\n        /* \"contracts/EasyStaking.sol\":22546:22563  balances[_sender] */\n      0x00\n        /* \"contracts/EasyStaking.sol\":22555:22562  _sender */\n      dup12\n        /* \"contracts/EasyStaking.sol\":22546:22563  balances[_sender] */\n      0xffffffffffffffffffffffffffffffffffffffff\n      and\n      0xffffffffffffffffffffffffffffffffffffffff\n      and\n      dup2\n      mstore\n      0x20\n      add\n      swap1\n      dup2\n      mstore\n      0x20\n      add\n      0x00\n      keccak256\n        /* \"contracts/EasyStaking.sol\":22546:22568  balances[_sender][_id] */\n      0x00\n        /* \"contracts/EasyStaking.sol\":22564:22567  _id */\n      dup11\n        /* \"contracts/EasyStaking.sol\":22546:22568  balances[_sender][_id] */\n      dup2\n      mstore\n      0x20\n      add\n      swap1\n      dup2\n      mstore\n      0x20\n      add\n      0x00\n      keccak256\n      sload\n        /* \"contracts/EasyStaking.sol\":22546:22572  balances[_sender][_id].sub */\n      tag_175\n      swap1\n        /* \"contracts/EasyStaking.sol\":22546:22580  balances[_sender][_id].sub(amount) */\n      swap2\n      swap1\n      0xffffffff\n      and\n      jump\t// in\n    tag_413:\n        /* \"contracts/EasyStaking.sol\":22521:22529  balances */\n      0xac\n        /* \"contracts/EasyStaking.sol\":22521:22538  balances[_sender] */\n      0x00\n        /* \"contracts/EasyStaking.sol\":22530:22537  _sender */\n      dup11\n        /* \"contracts/EasyStaking.sol\":22521:22538  balances[_sender] */\n      0xffffffffffffffffffffffffffffffffffffffff\n      and\n      0xffffffffffffffffffffffffffffffffffffffff\n      and\n      dup2\n      mstore\n      0x20\n      add\n      swap1\n      dup2\n      mstore\n      0x20\n      add\n      0x00\n      keccak256\n        /* \"contracts/EasyStaking.sol\":22521:22543  balances[_sender][_id] */\n      0x00\n        /* \"contracts/EasyStaking.sol\":22539:22542  _id */\n      dup10\n        /* \"contracts/EasyStaking.sol\":22521:22543  balances[_sender][_id] */\n      dup2\n      mstore\n      0x20\n      add\n      swap1\n      dup2\n      mstore\n      0x20\n      add\n      0x00\n      keccak256\n        /* \"contracts/EasyStaking.sol\":22521:22580  balances[_sender][_id] = balances[_sender][_id].sub(amount) */\n      dup2\n      swap1\n      sstore\n      pop\n        /* \"contracts/EasyStaking.sol\":22604:22627  totalStaked.sub(amount) */\n      tag_414\n        /* \"contracts/EasyStaking.sol\":22620:22626  amount */\n      dup2\n        /* \"contracts/EasyStaking.sol\":22604:22615  totalStaked */\n      sload(0xb0)\n        /* \"contracts/EasyStaking.sol\":22604:22619  totalStaked.sub */\n      tag_175\n      swap1\n        /* \"contracts/EasyStaking.sol\":22604:22627  totalStaked.sub(amount) */\n      swap2\n      swap1\n      0xffffffff\n      and\n      jump\t// in\n    tag_414:\n        /* \"contracts/EasyStaking.sol\":22590:22601  totalStaked */\n      0xb0\n        /* \"contracts/EasyStaking.sol\":22590:22627  totalStaked = totalStaked.sub(amount) */\n      dup2\n      swap1\n      sstore\n      pop\n        /* \"contracts/EasyStaking.sol\":22667:22668  0 */\n      0x00\n        /* \"contracts/EasyStaking.sol\":22641:22649  balances */\n      0xac\n        /* \"contracts/EasyStaking.sol\":22641:22658  balances[_sender] */\n      0x00\n        /* \"contracts/EasyStaking.sol\":22650:22657  _sender */\n      dup11\n        /* \"contracts/EasyStaking.sol\":22641:22658  balances[_sender] */\n      0xffffffffffffffffffffffffffffffffffffffff\n      and\n      0xffffffffffffffffffffffffffffffffffffffff\n      and\n      dup2\n      mstore\n      0x20\n      add\n      swap1\n      dup2\n      mstore\n      0x20\n      add\n      0x00\n      keccak256\n        /* \"contracts/EasyStaking.sol\":22641:22663  balances[_sender][_id] */\n      0x00\n        /* \"contracts/EasyStaking.sol\":22659:22662  _id */\n      dup10\n        /* \"contracts/EasyStaking.sol\":22641:22663  balances[_sender][_id] */\n      dup2\n      mstore\n      0x20\n      add\n      swap1\n      dup2\n      mstore\n      0x20\n      add\n      0x00\n      keccak256\n      sload\n        /* \"contracts/EasyStaking.sol\":22641:22668  balances[_sender][_id] == 0 */\n      eq\n        /* \"contracts/EasyStaking.sol\":22637:22725  if (balances[_sender][_id] == 0) {... */\n      iszero\n      tag_415\n      jumpi\n        /* \"contracts/EasyStaking.sol\":22713:22714  0 */\n      0x00\n        /* \"contracts/EasyStaking.sol\":22684:22696  depositDates */\n      0xad\n        /* \"contracts/EasyStaking.sol\":22684:22705  depositDates[_sender] */\n      0x00\n        /* \"contracts/EasyStaking.sol\":22697:22704  _sender */\n      dup11\n        /* \"contracts/EasyStaking.sol\":22684:22705  depositDates[_sender] */\n      0xffffffffffffffffffffffffffffffffffffffff\n      and\n      0xffffffffffffffffffffffffffffffffffffffff\n      and\n      dup2\n      mstore\n      0x20\n      add\n      swap1\n      dup2\n      mstore\n      0x20\n      add\n      0x00\n      keccak256\n        /* \"contracts/EasyStaking.sol\":22684:22710  depositDates[_sender][_id] */\n      0x00\n        /* \"contracts/EasyStaking.sol\":22706:22709  _id */\n      dup10\n        /* \"contracts/EasyStaking.sol\":22684:22710  depositDates[_sender][_id] */\n      dup2\n      mstore\n      0x20\n      add\n      swap1\n      dup2\n      mstore\n      0x20\n      add\n      0x00\n      keccak256\n        /* \"contracts/EasyStaking.sol\":22684:22714  depositDates[_sender][_id] = 0 */\n      dup2\n      swap1\n      sstore\n      pop\n        /* \"contracts/EasyStaking.sol\":22637:22725  if (balances[_sender][_id] == 0) {... */\n    tag_415:\n        /* \"contracts/EasyStaking.sol\":22734:22750  uint256 feeValue */\n      0x00\n        /* \"contracts/EasyStaking.sol\":22753:22754  0 */\n      dup1\n        /* \"contracts/EasyStaking.sol\":22734:22754  uint256 feeValue = 0 */\n      swap1\n      pop\n        /* \"contracts/EasyStaking.sol\":22768:22775  _forced */\n      dup6\n        /* \"contracts/EasyStaking.sol\":22764:22987  if (_forced) {... */\n      iszero\n      tag_416\n      jumpi\n        /* \"contracts/EasyStaking.sol\":22802:22832  amount.mul(fee()).div(1 ether) */\n      tag_417\n        /* \"contracts/EasyStaking.sol\":22824:22831  1 ether */\n      0x0de0b6b3a7640000\n        /* \"contracts/EasyStaking.sol\":22802:22819  amount.mul(fee()) */\n      tag_418\n        /* \"contracts/EasyStaking.sol\":22813:22818  fee() */\n      tag_419\n        /* \"contracts/EasyStaking.sol\":22813:22816  fee */\n      tag_159\n        /* \"contracts/EasyStaking.sol\":22813:22818  fee() */\n      jump\t// in\n    tag_419:\n        /* \"contracts/EasyStaking.sol\":22802:22808  amount */\n      dup6\n        /* \"contracts/EasyStaking.sol\":22802:22812  amount.mul */\n      tag_231\n      swap1\n        /* \"contracts/EasyStaking.sol\":22802:22819  amount.mul(fee()) */\n      swap2\n      swap1\n      0xffffffff\n      and\n      jump\t// in\n    tag_418:\n        /* \"contracts/EasyStaking.sol\":22802:22823  amount.mul(fee()).div */\n      tag_201\n      swap1\n        /* \"contracts/EasyStaking.sol\":22802:22832  amount.mul(fee()).div(1 ether) */\n      swap2\n      swap1\n      0xffffffff\n      and\n      jump\t// in\n    tag_417:\n        /* \"contracts/EasyStaking.sol\":22791:22832  feeValue = amount.mul(fee()).div(1 ether) */\n      swap1\n      pop\n        /* \"contracts/EasyStaking.sol\":22855:22875  amount.sub(feeValue) */\n      tag_420\n        /* \"contracts/EasyStaking.sol\":22866:22874  feeValue */\n      dup2\n        /* \"contracts/EasyStaking.sol\":22855:22861  amount */\n      dup4\n        /* \"contracts/EasyStaking.sol\":22855:22865  amount.sub */\n      tag_175\n      swap1\n        /* \"contracts/EasyStaking.sol\":22855:22875  amount.sub(feeValue) */\n      swap2\n      swap1\n      0xffffffff\n      and\n      jump\t// in\n    tag_420:\n        /* \"contracts/EasyStaking.sol\":22846:22875  amount = amount.sub(feeValue) */\n      swap2\n      pop\n        /* \"contracts/EasyStaking.sol\":22897:22902  token */\n      0x99\n      0x00\n      swap1\n      sload\n      swap1\n      0x0100\n      exp\n      swap1\n      div\n      0xffffffffffffffffffffffffffffffffffffffff\n      and\n        /* \"contracts/EasyStaking.sol\":22897:22911  token.transfer */\n      0xffffffffffffffffffffffffffffffffffffffff\n      and\n      0xa9059cbb\n        /* \"contracts/EasyStaking.sol\":22912:22945  liquidityProvidersRewardAddress() */\n      tag_421\n        /* \"contracts/EasyStaking.sol\":22912:22943  liquidityProvidersRewardAddress */\n      tag_146\n        /* \"contracts/EasyStaking.sol\":22912:22945  liquidityProvidersRewardAddress() */\n      jump\t// in\n    tag_421:\n        /* \"contracts/EasyStaking.sol\":22947:22955  feeValue */\n      dup4\n        /* \"contracts/EasyStaking.sol\":22897:22956  token.transfer(liquidityProvidersRewardAddress(), feeValue) */\n      mload(0x40)\n      dup4\n      0xffffffff\n      and\n      0xe0\n      shl\n      dup2\n      mstore\n      0x04\n      add\n      dup1\n      dup4\n      0xffffffffffffffffffffffffffffffffffffffff\n      and\n      0xffffffffffffffffffffffffffffffffffffffff\n      and\n      dup2\n      mstore\n      0x20\n      add\n      dup3\n      dup2\n      mstore\n      0x20\n      add\n      swap3\n      pop\n      pop\n      pop\n      0x20\n      mload(0x40)\n      dup1\n      dup4\n      sub\n      dup2\n      0x00\n      dup8\n      dup1\n      extcodesize\n      iszero\n        /* \"--CODEGEN--\":8:17   */\n      dup1\n        /* \"--CODEGEN--\":5:7   */\n      iszero\n      tag_422\n      jumpi\n        /* \"--CODEGEN--\":30:31   */\n      0x00\n        /* \"--CODEGEN--\":27:28   */\n      dup1\n        /* \"--CODEGEN--\":20:32   */\n      revert\n        /* \"--CODEGEN--\":5:7   */\n    tag_422:\n        /* \"contracts/EasyStaking.sol\":22897:22956  token.transfer(liquidityProvidersRewardAddress(), feeValue) */\n      pop\n      gas\n      call\n      iszero\n        /* \"--CODEGEN--\":8:17   */\n      dup1\n        /* \"--CODEGEN--\":5:7   */\n      iszero\n      tag_423\n      jumpi\n        /* \"--CODEGEN--\":45:61   */\n      returndatasize\n        /* \"--CODEGEN--\":42:43   */\n      0x00\n        /* \"--CODEGEN--\":39:40   */\n      dup1\n        /* \"--CODEGEN--\":24:62   */\n      returndatacopy\n        /* \"--CODEGEN--\":77:93   */\n      returndatasize\n        /* \"--CODEGEN--\":74:75   */\n      0x00\n        /* \"--CODEGEN--\":67:94   */\n      revert\n        /* \"--CODEGEN--\":5:7   */\n    tag_423:\n        /* \"contracts/EasyStaking.sol\":22897:22956  token.transfer(liquidityProvidersRewardAddress(), feeValue) */\n      pop\n      pop\n      pop\n      pop\n      mload(0x40)\n      returndatasize\n        /* \"--CODEGEN--\":13:15   */\n      0x20\n        /* \"--CODEGEN--\":8:11   */\n      dup2\n        /* \"--CODEGEN--\":5:16   */\n      lt\n        /* \"--CODEGEN--\":2:4   */\n      iszero\n      tag_424\n      jumpi\n        /* \"--CODEGEN--\":29:30   */\n      0x00\n        /* \"--CODEGEN--\":26:27   */\n      dup1\n        /* \"--CODEGEN--\":19:31   */\n      revert\n        /* \"--CODEGEN--\":2:4   */\n    tag_424:\n        /* \"contracts/EasyStaking.sol\":22897:22956  token.transfer(liquidityProvidersRewardAddress(), feeValue) */\n      dup2\n      add\n      swap1\n      dup1\n      dup1\n      mload\n      swap1\n      0x20\n      add\n      swap1\n      swap3\n      swap2\n      swap1\n      pop\n      pop\n      pop\n        /* \"contracts/EasyStaking.sol\":22889:22976  require(token.transfer(liquidityProvidersRewardAddress(), feeValue), \"transfer failed\") */\n      tag_425\n      jumpi\n      mload(0x40)\n      0x08c379a000000000000000000000000000000000000000000000000000000000\n      dup2\n      mstore\n      0x04\n      add\n      dup1\n      dup1\n      0x20\n      add\n      dup3\n      dup2\n      sub\n      dup3\n      mstore\n      0x0f\n      dup2\n      mstore\n      0x20\n      add\n      dup1\n      0x7472616e73666572206661696c65640000000000000000000000000000000000\n      dup2\n      mstore\n      pop\n      0x20\n      add\n      swap2\n      pop\n      pop\n      mload(0x40)\n      dup1\n      swap2\n      sub\n      swap1\n      revert\n    tag_425:\n        /* \"contracts/EasyStaking.sol\":22764:22987  if (_forced) {... */\n    tag_416:\n        /* \"contracts/EasyStaking.sol\":23004:23009  token */\n      0x99\n      0x00\n      swap1\n      sload\n      swap1\n      0x0100\n      exp\n      swap1\n      div\n      0xffffffffffffffffffffffffffffffffffffffff\n      and\n        /* \"contracts/EasyStaking.sol\":23004:23018  token.transfer */\n      0xffffffffffffffffffffffffffffffffffffffff\n      and\n      0xa9059cbb\n        /* \"contracts/EasyStaking.sol\":23019:23026  _sender */\n      dup11\n        /* \"contracts/EasyStaking.sol\":23028:23034  amount */\n      dup5\n        /* \"contracts/EasyStaking.sol\":23004:23035  token.transfer(_sender, amount) */\n      mload(0x40)\n      dup4\n      0xffffffff\n      and\n      0xe0\n      shl\n      dup2\n      mstore\n      0x04\n      add\n      dup1\n      dup4\n      0xffffffffffffffffffffffffffffffffffffffff\n      and\n      0xffffffffffffffffffffffffffffffffffffffff\n      and\n      dup2\n      mstore\n      0x20\n      add\n      dup3\n      dup2\n      mstore\n      0x20\n      add\n      swap3\n      pop\n      pop\n      pop\n      0x20\n      mload(0x40)\n      dup1\n      dup4\n      sub\n      dup2\n      0x00\n      dup8\n      dup1\n      extcodesize\n      iszero\n        /* \"--CODEGEN--\":8:17   */\n      dup1\n        /* \"--CODEGEN--\":5:7   */\n      iszero\n      tag_426\n      jumpi\n        /* \"--CODEGEN--\":30:31   */\n      0x00\n        /* \"--CODEGEN--\":27:28   */\n      dup1\n        /* \"--CODEGEN--\":20:32   */\n      revert\n        /* \"--CODEGEN--\":5:7   */\n    tag_426:\n        /* \"contracts/EasyStaking.sol\":23004:23035  token.transfer(_sender, amount) */\n      pop\n      gas\n      call\n      iszero\n        /* \"--CODEGEN--\":8:17   */\n      dup1\n        /* \"--CODEGEN--\":5:7   */\n      iszero\n      tag_427\n      jumpi\n        /* \"--CODEGEN--\":45:61   */\n      returndatasize\n        /* \"--CODEGEN--\":42:43   */\n      0x00\n        /* \"--CODEGEN--\":39:40   */\n      dup1\n        /* \"--CODEGEN--\":24:62   */\n      returndatacopy\n        /* \"--CODEGEN--\":77:93   */\n      returndatasize\n        /* \"--CODEGEN--\":74:75   */\n      0x00\n        /* \"--CODEGEN--\":67:94   */\n      revert\n        /* \"--CODEGEN--\":5:7   */\n    tag_427:\n        /* \"contracts/EasyStaking.sol\":23004:23035  token.transfer(_sender, amount) */\n      pop\n      pop\n      pop\n      pop\n      mload(0x40)\n      returndatasize\n        /* \"--CODEGEN--\":13:15   */\n      0x20\n        /* \"--CODEGEN--\":8:11   */\n      dup2\n        /* \"--CODEGEN--\":5:16   */\n      lt\n        /* \"--CODEGEN--\":2:4   */\n      iszero\n      tag_428\n      jumpi\n        /* \"--CODEGEN--\":29:30   */\n      0x00\n        /* \"--CODEGEN--\":26:27   */\n      dup1\n        /* \"--CODEGEN--\":19:31   */\n      revert\n        /* \"--CODEGEN--\":2:4   */\n    tag_428:\n        /* \"contracts/EasyStaking.sol\":23004:23035  token.transfer(_sender, amount) */\n      dup2\n      add\n      swap1\n      dup1\n      dup1\n      mload\n      swap1\n      0x20\n      add\n      swap1\n      swap3\n      swap2\n      swap1\n      pop\n      pop\n      pop\n        /* \"contracts/EasyStaking.sol\":22996:23055  require(token.transfer(_sender, amount), \"transfer failed\") */\n      tag_429\n      jumpi\n      mload(0x40)\n      0x08c379a000000000000000000000000000000000000000000000000000000000\n      dup2\n      mstore\n      0x04\n      add\n      dup1\n      dup1\n      0x20\n      add\n      dup3\n      dup2\n      sub\n      dup3\n      mstore\n      0x0f\n      dup2\n      mstore\n      0x20\n      add\n      dup1\n      0x7472616e73666572206661696c65640000000000000000000000000000000000\n      dup2\n      mstore\n      pop\n      0x20\n      add\n      swap2\n      pop\n      pop\n      mload(0x40)\n      dup1\n      swap2\n      sub\n      swap1\n      revert\n    tag_429:\n        /* \"contracts/EasyStaking.sol\":23089:23092  _id */\n      dup8\n        /* \"contracts/EasyStaking.sol\":23080:23087  _sender */\n      dup10\n        /* \"contracts/EasyStaking.sol\":23070:23164  Withdrawn(_sender, _id, amount, feeValue, balances[_sender][_id], accruedEmission, timePassed) */\n      0xffffffffffffffffffffffffffffffffffffffff\n      and\n      0x6b4651e8f4162f82274a25e57a29f7ed9156d17078e76dd4d05f04ba08831aa4\n        /* \"contracts/EasyStaking.sol\":23094:23100  amount */\n      dup5\n        /* \"contracts/EasyStaking.sol\":23102:23110  feeValue */\n      dup5\n        /* \"contracts/EasyStaking.sol\":23112:23120  balances */\n      0xac\n        /* \"contracts/EasyStaking.sol\":23112:23129  balances[_sender] */\n      0x00\n        /* \"contracts/EasyStaking.sol\":23121:23128  _sender */\n      dup16\n        /* \"contracts/EasyStaking.sol\":23112:23129  balances[_sender] */\n      0xffffffffffffffffffffffffffffffffffffffff\n      and\n      0xffffffffffffffffffffffffffffffffffffffff\n      and\n      dup2\n      mstore\n      0x20\n      add\n      swap1\n      dup2\n      mstore\n      0x20\n      add\n      0x00\n      keccak256\n        /* \"contracts/EasyStaking.sol\":23112:23134  balances[_sender][_id] */\n      0x00\n        /* \"contracts/EasyStaking.sol\":23130:23133  _id */\n      dup15\n        /* \"contracts/EasyStaking.sol\":23112:23134  balances[_sender][_id] */\n      dup2\n      mstore\n      0x20\n      add\n      swap1\n      dup2\n      mstore\n      0x20\n      add\n      0x00\n      keccak256\n      sload\n        /* \"contracts/EasyStaking.sol\":23136:23151  accruedEmission */\n      dup10\n        /* \"contracts/EasyStaking.sol\":23153:23163  timePassed */\n      dup10\n        /* \"contracts/EasyStaking.sol\":23070:23164  Withdrawn(_sender, _id, amount, feeValue, balances[_sender][_id], accruedEmission, timePassed) */\n      mload(0x40)\n      dup1\n      dup7\n      dup2\n      mstore\n      0x20\n      add\n      dup6\n      dup2\n      mstore\n      0x20\n      add\n      dup5\n      dup2\n      mstore\n      0x20\n      add\n      dup4\n      dup2\n      mstore\n      0x20\n      add\n      dup3\n      dup2\n      mstore\n      0x20\n      add\n      swap6\n      pop\n      pop\n      pop\n      pop\n      pop\n      pop\n      mload(0x40)\n      dup1\n      swap2\n      sub\n      swap1\n      log3\n        /* \"@openzeppelin/contracts-ethereum-package/contracts/utils/ReentrancyGuard.sol\":1466:1467  _ */\n      pop\n      pop\n      pop\n      pop\n        /* \"@openzeppelin/contracts-ethereum-package/contracts/utils/ReentrancyGuard.sol\":1501:1514  _guardCounter */\n      sload(0x66)\n        /* \"@openzeppelin/contracts-ethereum-package/contracts/utils/ReentrancyGuard.sol\":1485:1497  localCounter */\n      dup2\n        /* \"@openzeppelin/contracts-ethereum-package/contracts/utils/ReentrancyGuard.sol\":1485:1514  localCounter == _guardCounter */\n      eq\n        /* \"@openzeppelin/contracts-ethereum-package/contracts/utils/ReentrancyGuard.sol\":1477:1550  require(localCounter == _guardCounter, \"ReentrancyGuard: reentrant call\") */\n      tag_430\n      jumpi\n      mload(0x40)\n      0x08c379a000000000000000000000000000000000000000000000000000000000\n      dup2\n      mstore\n      0x04\n      add\n      dup1\n      dup1\n      0x20\n      add\n      dup3\n      dup2\n      sub\n      dup3\n      mstore\n      0x1f\n      dup2\n      mstore\n      0x20\n      add\n      dup1\n      0x5265656e7472616e637947756172643a207265656e7472616e742063616c6c00\n      dup2\n      mstore\n      pop\n      0x20\n      add\n      swap2\n      pop\n      pop\n      mload(0x40)\n      dup1\n      swap2\n      sub\n      swap1\n      revert\n    tag_430:\n        /* \"contracts/EasyStaking.sol\":21936:23171  function _withdraw(address _sender, uint256 _id, uint256 _amount, bool _forced) internal nonReentrant {... */\n      pop\n      pop\n      pop\n      pop\n      pop\n      jump\t// out\n        /* \"contracts/EasyStaking.sol\":24282:24641  function _updateUintParam(UintParam storage _param, uint256 _newValue) internal {... */\n    tag_195:\n        /* \"contracts/EasyStaking.sol\":24396:24397  0 */\n      0x00\n        /* \"contracts/EasyStaking.sol\":24376:24382  _param */\n      dup3\n        /* \"contracts/EasyStaking.sol\":24376:24392  _param.timestamp */\n      0x02\n      add\n      sload\n        /* \"contracts/EasyStaking.sol\":24376:24397  _param.timestamp == 0 */\n      eq\n        /* \"contracts/EasyStaking.sol\":24372:24563  if (_param.timestamp == 0) {... */\n      iszero\n      tag_432\n      jumpi\n        /* \"contracts/EasyStaking.sol\":24431:24440  _newValue */\n      dup1\n        /* \"contracts/EasyStaking.sol\":24413:24419  _param */\n      dup3\n        /* \"contracts/EasyStaking.sol\":24413:24428  _param.oldValue */\n      0x00\n      add\n        /* \"contracts/EasyStaking.sol\":24413:24440  _param.oldValue = _newValue */\n      dup2\n      swap1\n      sstore\n      pop\n        /* \"contracts/EasyStaking.sol\":24372:24563  if (_param.timestamp == 0) {... */\n      jump(tag_433)\n    tag_432:\n        /* \"contracts/EasyStaking.sol\":24461:24503  _paramUpdateDelayElapsed(_param.timestamp) */\n      tag_434\n        /* \"contracts/EasyStaking.sol\":24486:24492  _param */\n      dup3\n        /* \"contracts/EasyStaking.sol\":24486:24502  _param.timestamp */\n      0x02\n      add\n      sload\n        /* \"contracts/EasyStaking.sol\":24461:24485  _paramUpdateDelayElapsed */\n      tag_338\n        /* \"contracts/EasyStaking.sol\":24461:24503  _paramUpdateDelayElapsed(_param.timestamp) */\n      jump\t// in\n    tag_434:\n        /* \"contracts/EasyStaking.sol\":24457:24563  if (_paramUpdateDelayElapsed(_param.timestamp)) {... */\n      iszero\n      tag_435\n      jumpi\n        /* \"contracts/EasyStaking.sol\":24537:24543  _param */\n      dup2\n        /* \"contracts/EasyStaking.sol\":24537:24552  _param.newValue */\n      0x01\n      add\n      sload\n        /* \"contracts/EasyStaking.sol\":24519:24525  _param */\n      dup3\n        /* \"contracts/EasyStaking.sol\":24519:24534  _param.oldValue */\n      0x00\n      add\n        /* \"contracts/EasyStaking.sol\":24519:24552  _param.oldValue = _param.newValue */\n      dup2\n      swap1\n      sstore\n      pop\n        /* \"contracts/EasyStaking.sol\":24457:24563  if (_paramUpdateDelayElapsed(_param.timestamp)) {... */\n    tag_435:\n        /* \"contracts/EasyStaking.sol\":24372:24563  if (_param.timestamp == 0) {... */\n    tag_433:\n        /* \"contracts/EasyStaking.sol\":24590:24599  _newValue */\n      dup1\n        /* \"contracts/EasyStaking.sol\":24572:24578  _param */\n      dup3\n        /* \"contracts/EasyStaking.sol\":24572:24587  _param.newValue */\n      0x01\n      add\n        /* \"contracts/EasyStaking.sol\":24572:24599  _param.newValue = _newValue */\n      dup2\n      swap1\n      sstore\n      pop\n        /* \"contracts/EasyStaking.sol\":24628:24634  _now() */\n      tag_436\n        /* \"contracts/EasyStaking.sol\":24628:24632  _now */\n      tag_174\n        /* \"contracts/EasyStaking.sol\":24628:24634  _now() */\n      jump\t// in\n    tag_436:\n        /* \"contracts/EasyStaking.sol\":24609:24615  _param */\n      dup3\n        /* \"contracts/EasyStaking.sol\":24609:24625  _param.timestamp */\n      0x02\n      add\n        /* \"contracts/EasyStaking.sol\":24609:24634  _param.timestamp = _now() */\n      dup2\n      swap1\n      sstore\n      pop\n        /* \"contracts/EasyStaking.sol\":24282:24641  function _updateUintParam(UintParam storage _param, uint256 _newValue) internal {... */\n      pop\n      pop\n      jump\t// out\n        /* \"@openzeppelin/contracts-ethereum-package/contracts/math/SafeMath.sol\":3073:3203  function div(uint256 a, uint256 b) internal pure returns (uint256) {... */\n    tag_201:\n        /* \"@openzeppelin/contracts-ethereum-package/contracts/math/SafeMath.sol\":3131:3138  uint256 */\n      0x00\n        /* \"@openzeppelin/contracts-ethereum-package/contracts/math/SafeMath.sol\":3157:3196  div(a, b, \"SafeMath: division by zero\") */\n      tag_438\n        /* \"@openzeppelin/contracts-ethereum-package/contracts/math/SafeMath.sol\":3161:3162  a */\n      dup4\n        /* \"@openzeppelin/contracts-ethereum-package/contracts/math/SafeMath.sol\":3164:3165  b */\n      dup4\n        /* \"@openzeppelin/contracts-ethereum-package/contracts/math/SafeMath.sol\":3157:3196  div(a, b, \"SafeMath: division by zero\") */\n      mload(0x40)\n      dup1\n      0x40\n      add\n      0x40\n      mstore\n      dup1\n      0x1a\n      dup2\n      mstore\n      0x20\n      add\n      0x536166654d6174683a206469766973696f6e206279207a65726f000000000000\n      dup2\n      mstore\n      pop\n        /* \"@openzeppelin/contracts-ethereum-package/contracts/math/SafeMath.sol\":3157:3160  div */\n      tag_439\n        /* \"@openzeppelin/contracts-ethereum-package/contracts/math/SafeMath.sol\":3157:3196  div(a, b, \"SafeMath: division by zero\") */\n      jump\t// in\n    tag_438:\n        /* \"@openzeppelin/contracts-ethereum-package/contracts/math/SafeMath.sol\":3150:3196  return div(a, b, \"SafeMath: division by zero\") */\n      swap1\n      pop\n        /* \"@openzeppelin/contracts-ethereum-package/contracts/math/SafeMath.sol\":3073:3203  function div(uint256 a, uint256 b) internal pure returns (uint256) {... */\n      swap3\n      swap2\n      pop\n      pop\n      jump\t// out\n        /* \"contracts/lib/Sigmoid.sol\":705:1231  function setParameters(State storage self, uint256 _a, int256 _b, uint256 _c) internal {... */\n    tag_204:\n        /* \"contracts/lib/Sigmoid.sol\":816:817  0 */\n      0x00\n        /* \"contracts/lib/Sigmoid.sol\":810:812  _c */\n      dup2\n        /* \"contracts/lib/Sigmoid.sol\":810:817  _c != 0 */\n      eq\n      iszero\n        /* \"contracts/lib/Sigmoid.sol\":802:846  require(_c != 0, \"should be greater than 0\") */\n      tag_441\n      jumpi\n      mload(0x40)\n      0x08c379a000000000000000000000000000000000000000000000000000000000\n      dup2\n      mstore\n      0x04\n      add\n      dup1\n      dup1\n      0x20\n      add\n      dup3\n      dup2\n      sub\n      dup3\n      mstore\n      0x18\n      dup2\n      mstore\n      0x20\n      add\n      dup1\n      0x73686f756c642062652067726561746572207468616e20300000000000000000\n      dup2\n      mstore\n      pop\n      0x20\n      add\n      swap2\n      pop\n      pop\n      mload(0x40)\n      dup1\n      swap2\n      sub\n      swap1\n      revert\n    tag_441:\n        /* \"contracts/lib/Sigmoid.sol\":884:908  uint256 currentTimestamp */\n      0x00\n        /* \"contracts/lib/Sigmoid.sol\":911:917  _now() */\n      tag_442\n        /* \"contracts/lib/Sigmoid.sol\":911:915  _now */\n      tag_443\n        /* \"contracts/lib/Sigmoid.sol\":911:917  _now() */\n      jump\t// in\n    tag_442:\n        /* \"contracts/lib/Sigmoid.sol\":884:917  uint256 currentTimestamp = _now() */\n      swap1\n      pop\n        /* \"contracts/lib/Sigmoid.sol\":949:950  0 */\n      0x00\n        /* \"contracts/lib/Sigmoid.sol\":931:935  self */\n      dup6\n        /* \"contracts/lib/Sigmoid.sol\":931:945  self.timestamp */\n      0x06\n      add\n      sload\n        /* \"contracts/lib/Sigmoid.sol\":931:950  self.timestamp == 0 */\n      eq\n        /* \"contracts/lib/Sigmoid.sol\":927:1137  if (self.timestamp == 0) {... */\n      iszero\n      tag_444\n      jumpi\n        /* \"contracts/lib/Sigmoid.sol\":983:1001  Params(_a, _b, _c) */\n      mload(0x40)\n      dup1\n      0x60\n      add\n      0x40\n      mstore\n      dup1\n        /* \"contracts/lib/Sigmoid.sol\":990:992  _a */\n      dup6\n        /* \"contracts/lib/Sigmoid.sol\":983:1001  Params(_a, _b, _c) */\n      dup2\n      mstore\n      0x20\n      add\n        /* \"contracts/lib/Sigmoid.sol\":994:996  _b */\n      dup5\n        /* \"contracts/lib/Sigmoid.sol\":983:1001  Params(_a, _b, _c) */\n      dup2\n      mstore\n      0x20\n      add\n        /* \"contracts/lib/Sigmoid.sol\":998:1000  _c */\n      dup4\n        /* \"contracts/lib/Sigmoid.sol\":983:1001  Params(_a, _b, _c) */\n      dup2\n      mstore\n      pop\n        /* \"contracts/lib/Sigmoid.sol\":966:970  self */\n      dup6\n        /* \"contracts/lib/Sigmoid.sol\":966:980  self.oldParams */\n      0x00\n      add\n        /* \"contracts/lib/Sigmoid.sol\":966:1001  self.oldParams = Params(_a, _b, _c) */\n      0x00\n      dup3\n      add\n      mload\n      dup2\n      0x00\n      add\n      sstore\n      0x20\n      dup3\n      add\n      mload\n      dup2\n      0x01\n      add\n      sstore\n      0x40\n      dup3\n      add\n      mload\n      dup2\n      0x02\n      add\n      sstore\n      swap1\n      pop\n      pop\n        /* \"contracts/lib/Sigmoid.sol\":927:1137  if (self.timestamp == 0) {... */\n      jump(tag_445)\n    tag_444:\n        /* \"contracts/lib/Sigmoid.sol\":1041:1079  self.timestamp.add(PARAM_UPDATE_DELAY) */\n      tag_446\n        /* \"contracts/lib/Sigmoid.sol\":338:344  7 days */\n      0x093a80\n        /* \"contracts/lib/Sigmoid.sol\":1041:1045  self */\n      dup7\n        /* \"contracts/lib/Sigmoid.sol\":1041:1055  self.timestamp */\n      0x06\n      add\n      sload\n        /* \"contracts/lib/Sigmoid.sol\":1041:1059  self.timestamp.add */\n      tag_182\n      swap1\n        /* \"contracts/lib/Sigmoid.sol\":1041:1079  self.timestamp.add(PARAM_UPDATE_DELAY) */\n      swap2\n      swap1\n      0xffffffff\n      and\n      jump\t// in\n    tag_446:\n        /* \"contracts/lib/Sigmoid.sol\":1022:1038  currentTimestamp */\n      dup2\n        /* \"contracts/lib/Sigmoid.sol\":1022:1079  currentTimestamp > self.timestamp.add(PARAM_UPDATE_DELAY) */\n      gt\n        /* \"contracts/lib/Sigmoid.sol\":1018:1137  if (currentTimestamp > self.timestamp.add(PARAM_UPDATE_DELAY)) {... */\n      iszero\n      tag_447\n      jumpi\n        /* \"contracts/lib/Sigmoid.sol\":1112:1116  self */\n      dup5\n        /* \"contracts/lib/Sigmoid.sol\":1112:1126  self.newParams */\n      0x03\n      add\n        /* \"contracts/lib/Sigmoid.sol\":1095:1099  self */\n      dup6\n        /* \"contracts/lib/Sigmoid.sol\":1095:1109  self.oldParams */\n      0x00\n      add\n        /* \"contracts/lib/Sigmoid.sol\":1095:1126  self.oldParams = self.newParams */\n      0x00\n      dup3\n      add\n      sload\n      dup2\n      0x00\n      add\n      sstore\n      0x01\n      dup3\n      add\n      sload\n      dup2\n      0x01\n      add\n      sstore\n      0x02\n      dup3\n      add\n      sload\n      dup2\n      0x02\n      add\n      sstore\n      swap1\n      pop\n      pop\n        /* \"contracts/lib/Sigmoid.sol\":1018:1137  if (currentTimestamp > self.timestamp.add(PARAM_UPDATE_DELAY)) {... */\n    tag_447:\n        /* \"contracts/lib/Sigmoid.sol\":927:1137  if (self.timestamp == 0) {... */\n    tag_445:\n        /* \"contracts/lib/Sigmoid.sol\":1163:1181  Params(_a, _b, _c) */\n      mload(0x40)\n      dup1\n      0x60\n      add\n      0x40\n      mstore\n      dup1\n        /* \"contracts/lib/Sigmoid.sol\":1170:1172  _a */\n      dup6\n        /* \"contracts/lib/Sigmoid.sol\":1163:1181  Params(_a, _b, _c) */\n      dup2\n      mstore\n      0x20\n      add\n        /* \"contracts/lib/Sigmoid.sol\":1174:1176  _b */\n      dup5\n        /* \"contracts/lib/Sigmoid.sol\":1163:1181  Params(_a, _b, _c) */\n      dup2\n      mstore\n      0x20\n      add\n        /* \"contracts/lib/Sigmoid.sol\":1178:1180  _c */\n      dup4\n        /* \"contracts/lib/Sigmoid.sol\":1163:1181  Params(_a, _b, _c) */\n      dup2\n      mstore\n      pop\n        /* \"contracts/lib/Sigmoid.sol\":1146:1150  self */\n      dup6\n        /* \"contracts/lib/Sigmoid.sol\":1146:1160  self.newParams */\n      0x03\n      add\n        /* \"contracts/lib/Sigmoid.sol\":1146:1181  self.newParams = Params(_a, _b, _c) */\n      0x00\n      dup3\n      add\n      mload\n      dup2\n      0x00\n      add\n      sstore\n      0x20\n      dup3\n      add\n      mload\n      dup2\n      0x01\n      add\n      sstore\n      0x40\n      dup3\n      add\n      mload\n      dup2\n      0x02\n      add\n      sstore\n      swap1\n      pop\n      pop\n        /* \"contracts/lib/Sigmoid.sol\":1208:1224  currentTimestamp */\n      dup1\n        /* \"contracts/lib/Sigmoid.sol\":1191:1195  self */\n      dup6\n        /* \"contracts/lib/Sigmoid.sol\":1191:1205  self.timestamp */\n      0x06\n      add\n        /* \"contracts/lib/Sigmoid.sol\":1191:1224  self.timestamp = currentTimestamp */\n      dup2\n      swap1\n      sstore\n      pop\n        /* \"contracts/lib/Sigmoid.sol\":705:1231  function setParameters(State storage self, uint256 _a, int256 _b, uint256 _c) internal {... */\n      pop\n      pop\n      pop\n      pop\n      pop\n      jump\t// out\n        /* \"contracts/EasyStaking.sol\":24722:24909  function _getUintParamValue(UintParam memory _param) internal view returns (uint256) {... */\n    tag_213:\n        /* \"contracts/EasyStaking.sol\":24798:24805  uint256 */\n      0x00\n        /* \"contracts/EasyStaking.sol\":24824:24866  _paramUpdateDelayElapsed(_param.timestamp) */\n      tag_449\n        /* \"contracts/EasyStaking.sol\":24849:24855  _param */\n      dup3\n        /* \"contracts/EasyStaking.sol\":24849:24865  _param.timestamp */\n      0x40\n      add\n      mload\n        /* \"contracts/EasyStaking.sol\":24824:24848  _paramUpdateDelayElapsed */\n      tag_338\n        /* \"contracts/EasyStaking.sol\":24824:24866  _paramUpdateDelayElapsed(_param.timestamp) */\n      jump\t// in\n    tag_449:\n        /* \"contracts/EasyStaking.sol\":24824:24902  _paramUpdateDelayElapsed(_param.timestamp) ? _param.newValue : _param.oldValue */\n      tag_450\n      jumpi\n        /* \"contracts/EasyStaking.sol\":24887:24893  _param */\n      dup2\n        /* \"contracts/EasyStaking.sol\":24887:24902  _param.oldValue */\n      0x00\n      add\n      mload\n        /* \"contracts/EasyStaking.sol\":24824:24902  _paramUpdateDelayElapsed(_param.timestamp) ? _param.newValue : _param.oldValue */\n      jump(tag_451)\n    tag_450:\n        /* \"contracts/EasyStaking.sol\":24869:24875  _param */\n      dup2\n        /* \"contracts/EasyStaking.sol\":24869:24884  _param.newValue */\n      0x20\n      add\n      mload\n        /* \"contracts/EasyStaking.sol\":24824:24902  _paramUpdateDelayElapsed(_param.timestamp) ? _param.newValue : _param.oldValue */\n    tag_451:\n        /* \"contracts/EasyStaking.sol\":24817:24902  return _paramUpdateDelayElapsed(_param.timestamp) ? _param.newValue : _param.oldValue */\n      swap1\n      pop\n        /* \"contracts/EasyStaking.sol\":24722:24909  function _getUintParamValue(UintParam memory _param) internal view returns (uint256) {... */\n      swap2\n      swap1\n      pop\n      jump\t// out\n        /* \"contracts/lib/Sigmoid.sol\":1707:2004  function calculate(State storage self, int256 _x) internal view returns (uint256) {... */\n    tag_223:\n        /* \"contracts/lib/Sigmoid.sol\":1780:1787  uint256 */\n      0x00\n        /* \"contracts/lib/Sigmoid.sol\":1800:1809  uint256 a */\n      dup1\n        /* \"contracts/lib/Sigmoid.sol\":1811:1819  int256 b */\n      0x00\n        /* \"contracts/lib/Sigmoid.sol\":1821:1830  uint256 c */\n      dup1\n        /* \"contracts/lib/Sigmoid.sol\":1834:1853  getParameters(self) */\n      tag_453\n        /* \"contracts/lib/Sigmoid.sol\":1848:1852  self */\n      dup7\n        /* \"contracts/lib/Sigmoid.sol\":1834:1847  getParameters */\n      tag_251\n        /* \"contracts/lib/Sigmoid.sol\":1834:1853  getParameters(self) */\n      jump\t// in\n    tag_453:\n        /* \"contracts/lib/Sigmoid.sol\":1799:1853  (uint256 a, int256 b, uint256 c) = getParameters(self) */\n      swap3\n      pop\n      swap3\n      pop\n      swap3\n      pop\n        /* \"contracts/lib/Sigmoid.sol\":1863:1871  int256 k */\n      0x00\n        /* \"contracts/lib/Sigmoid.sol\":1879:1880  b */\n      dup3\n        /* \"contracts/lib/Sigmoid.sol\":1874:1876  _x */\n      dup7\n        /* \"contracts/lib/Sigmoid.sol\":1874:1880  _x - b */\n      sub\n        /* \"contracts/lib/Sigmoid.sol\":1863:1880  int256 k = _x - b */\n      swap1\n      pop\n        /* \"contracts/lib/Sigmoid.sol\":1898:1899  0 */\n      0x00\n        /* \"contracts/lib/Sigmoid.sol\":1894:1895  k */\n      dup2\n        /* \"contracts/lib/Sigmoid.sol\":1894:1899  k < 0 */\n      slt\n        /* \"contracts/lib/Sigmoid.sol\":1890:1909  if (k < 0) return 0 */\n      iszero\n      tag_454\n      jumpi\n        /* \"contracts/lib/Sigmoid.sol\":1908:1909  0 */\n      0x00\n        /* \"contracts/lib/Sigmoid.sol\":1901:1909  return 0 */\n      swap5\n      pop\n      pop\n      pop\n      pop\n      pop\n      jump(tag_452)\n        /* \"contracts/lib/Sigmoid.sol\":1890:1909  if (k < 0) return 0 */\n    tag_454:\n        /* \"contracts/lib/Sigmoid.sol\":1919:1929  uint256 uk */\n      0x00\n        /* \"contracts/lib/Sigmoid.sol\":1940:1941  k */\n      dup2\n        /* \"contracts/lib/Sigmoid.sol\":1919:1942  uint256 uk = uint256(k) */\n      swap1\n      pop\n        /* \"contracts/lib/Sigmoid.sol\":1959:1997  a.mul(uk).div(uk.pow2().add(c).sqrt()) */\n      tag_455\n        /* \"contracts/lib/Sigmoid.sol\":1973:1996  uk.pow2().add(c).sqrt() */\n      tag_456\n        /* \"contracts/lib/Sigmoid.sol\":1973:1989  uk.pow2().add(c) */\n      tag_457\n        /* \"contracts/lib/Sigmoid.sol\":1987:1988  c */\n      dup6\n        /* \"contracts/lib/Sigmoid.sol\":1973:1982  uk.pow2() */\n      tag_458\n        /* \"contracts/lib/Sigmoid.sol\":1973:1975  uk */\n      dup6\n        /* \"contracts/lib/Sigmoid.sol\":1973:1980  uk.pow2 */\n      tag_459\n        /* \"contracts/lib/Sigmoid.sol\":1973:1982  uk.pow2() */\n      jump\t// in\n    tag_458:\n        /* \"contracts/lib/Sigmoid.sol\":1973:1986  uk.pow2().add */\n      tag_182\n      swap1\n        /* \"contracts/lib/Sigmoid.sol\":1973:1989  uk.pow2().add(c) */\n      swap2\n      swap1\n      0xffffffff\n      and\n      jump\t// in\n    tag_457:\n        /* \"contracts/lib/Sigmoid.sol\":1973:1994  uk.pow2().add(c).sqrt */\n      tag_460\n        /* \"contracts/lib/Sigmoid.sol\":1973:1996  uk.pow2().add(c).sqrt() */\n      jump\t// in\n    tag_456:\n        /* \"contracts/lib/Sigmoid.sol\":1959:1968  a.mul(uk) */\n      tag_461\n        /* \"contracts/lib/Sigmoid.sol\":1965:1967  uk */\n      dup4\n        /* \"contracts/lib/Sigmoid.sol\":1959:1960  a */\n      dup9\n        /* \"contracts/lib/Sigmoid.sol\":1959:1964  a.mul */\n      tag_231\n      swap1\n        /* \"contracts/lib/Sigmoid.sol\":1959:1968  a.mul(uk) */\n      swap2\n      swap1\n      0xffffffff\n      and\n      jump\t// in\n    tag_461:\n        /* \"contracts/lib/Sigmoid.sol\":1959:1972  a.mul(uk).div */\n      tag_201\n      swap1\n        /* \"contracts/lib/Sigmoid.sol\":1959:1997  a.mul(uk).div(uk.pow2().add(c).sqrt()) */\n      swap2\n      swap1\n      0xffffffff\n      and\n      jump\t// in\n    tag_455:\n        /* \"contracts/lib/Sigmoid.sol\":1952:1997  return a.mul(uk).div(uk.pow2().add(c).sqrt()) */\n      swap6\n      pop\n      pop\n      pop\n      pop\n      pop\n      pop\n        /* \"contracts/lib/Sigmoid.sol\":1707:2004  function calculate(State storage self, int256 _x) internal view returns (uint256) {... */\n    tag_452:\n      swap3\n      swap2\n      pop\n      pop\n      jump\t// out\n        /* \"@openzeppelin/contracts-ethereum-package/contracts/math/SafeMath.sol\":2159:2618  function mul(uint256 a, uint256 b) internal pure returns (uint256) {... */\n    tag_231:\n        /* \"@openzeppelin/contracts-ethereum-package/contracts/math/SafeMath.sol\":2217:2224  uint256 */\n      0x00\n        /* \"@openzeppelin/contracts-ethereum-package/contracts/math/SafeMath.sol\":2463:2464  0 */\n      dup1\n        /* \"@openzeppelin/contracts-ethereum-package/contracts/math/SafeMath.sol\":2458:2459  a */\n      dup4\n        /* \"@openzeppelin/contracts-ethereum-package/contracts/math/SafeMath.sol\":2458:2464  a == 0 */\n      eq\n        /* \"@openzeppelin/contracts-ethereum-package/contracts/math/SafeMath.sol\":2454:2499  if (a == 0) {... */\n      iszero\n      tag_463\n      jumpi\n        /* \"@openzeppelin/contracts-ethereum-package/contracts/math/SafeMath.sol\":2487:2488  0 */\n      0x00\n        /* \"@openzeppelin/contracts-ethereum-package/contracts/math/SafeMath.sol\":2480:2488  return 0 */\n      swap1\n      pop\n      jump(tag_462)\n        /* \"@openzeppelin/contracts-ethereum-package/contracts/math/SafeMath.sol\":2454:2499  if (a == 0) {... */\n    tag_463:\n        /* \"@openzeppelin/contracts-ethereum-package/contracts/math/SafeMath.sol\":2509:2518  uint256 c */\n      0x00\n        /* \"@openzeppelin/contracts-ethereum-package/contracts/math/SafeMath.sol\":2525:2526  b */\n      dup3\n        /* \"@openzeppelin/contracts-ethereum-package/contracts/math/SafeMath.sol\":2521:2522  a */\n      dup5\n        /* \"@openzeppelin/contracts-ethereum-package/contracts/math/SafeMath.sol\":2521:2526  a * b */\n      mul\n        /* \"@openzeppelin/contracts-ethereum-package/contracts/math/SafeMath.sol\":2509:2526  uint256 c = a * b */\n      swap1\n      pop\n        /* \"@openzeppelin/contracts-ethereum-package/contracts/math/SafeMath.sol\":2553:2554  b */\n      dup3\n        /* \"@openzeppelin/contracts-ethereum-package/contracts/math/SafeMath.sol\":2548:2549  a */\n      dup5\n        /* \"@openzeppelin/contracts-ethereum-package/contracts/math/SafeMath.sol\":2544:2545  c */\n      dup3\n        /* \"@openzeppelin/contracts-ethereum-package/contracts/math/SafeMath.sol\":2544:2549  c / a */\n      dup2\n      tag_464\n      jumpi\n      invalid\n    tag_464:\n      div\n        /* \"@openzeppelin/contracts-ethereum-package/contracts/math/SafeMath.sol\":2544:2554  c / a == b */\n      eq\n        /* \"@openzeppelin/contracts-ethereum-package/contracts/math/SafeMath.sol\":2536:2592  require(c / a == b, \"SafeMath: multiplication overflow\") */\n      tag_465\n      jumpi\n      mload(0x40)\n      0x08c379a000000000000000000000000000000000000000000000000000000000\n      dup2\n      mstore\n      0x04\n      add\n      dup1\n      dup1\n      0x20\n      add\n      dup3\n      dup2\n      sub\n      dup3\n      mstore\n      0x21\n      dup2\n      mstore\n      0x20\n      add\n      dup1\n      data_9113bb53c2876a3805b2c9242029423fc540a728243ce887ab24c82cf119fba3\n      0x21\n      swap2\n      codecopy\n      0x40\n      add\n      swap2\n      pop\n      pop\n      mload(0x40)\n      dup1\n      swap2\n      sub\n      swap1\n      revert\n    tag_465:\n        /* \"@openzeppelin/contracts-ethereum-package/contracts/math/SafeMath.sol\":2610:2611  c */\n      dup1\n        /* \"@openzeppelin/contracts-ethereum-package/contracts/math/SafeMath.sol\":2603:2611  return c */\n      swap2\n      pop\n      pop\n        /* \"@openzeppelin/contracts-ethereum-package/contracts/math/SafeMath.sol\":2159:2618  function mul(uint256 a, uint256 b) internal pure returns (uint256) {... */\n    tag_462:\n      swap3\n      swap2\n      pop\n      pop\n      jump\t// out\n        /* \"contracts/lib/Sigmoid.sol\":1287:1624  function getParameters(State storage self) internal view returns (uint256, int256, uint256) {... */\n    tag_251:\n        /* \"contracts/lib/Sigmoid.sol\":1353:1360  uint256 */\n      0x00\n        /* \"contracts/lib/Sigmoid.sol\":1362:1368  int256 */\n      dup1\n        /* \"contracts/lib/Sigmoid.sol\":1370:1377  uint256 */\n      0x00\n        /* \"contracts/lib/Sigmoid.sol\":1389:1403  bool isUpdated */\n      dup1\n        /* \"contracts/lib/Sigmoid.sol\":1415:1453  self.timestamp.add(PARAM_UPDATE_DELAY) */\n      tag_467\n        /* \"contracts/lib/Sigmoid.sol\":338:344  7 days */\n      0x093a80\n        /* \"contracts/lib/Sigmoid.sol\":1415:1419  self */\n      dup7\n        /* \"contracts/lib/Sigmoid.sol\":1415:1429  self.timestamp */\n      0x06\n      add\n      sload\n        /* \"contracts/lib/Sigmoid.sol\":1415:1433  self.timestamp.add */\n      tag_182\n      swap1\n        /* \"contracts/lib/Sigmoid.sol\":1415:1453  self.timestamp.add(PARAM_UPDATE_DELAY) */\n      swap2\n      swap1\n      0xffffffff\n      and\n      jump\t// in\n    tag_467:\n        /* \"contracts/lib/Sigmoid.sol\":1406:1412  _now() */\n      tag_468\n        /* \"contracts/lib/Sigmoid.sol\":1406:1410  _now */\n      tag_443\n        /* \"contracts/lib/Sigmoid.sol\":1406:1412  _now() */\n      jump\t// in\n    tag_468:\n        /* \"contracts/lib/Sigmoid.sol\":1406:1453  _now() > self.timestamp.add(PARAM_UPDATE_DELAY) */\n      gt\n        /* \"contracts/lib/Sigmoid.sol\":1389:1453  bool isUpdated = _now() > self.timestamp.add(PARAM_UPDATE_DELAY) */\n      swap1\n      pop\n        /* \"contracts/lib/Sigmoid.sol\":1470:1479  isUpdated */\n      dup1\n        /* \"contracts/lib/Sigmoid.sol\":1470:1617  isUpdated ?... */\n      tag_469\n      jumpi\n        /* \"contracts/lib/Sigmoid.sol\":1564:1568  self */\n      dup5\n        /* \"contracts/lib/Sigmoid.sol\":1564:1578  self.oldParams */\n      0x00\n      add\n        /* \"contracts/lib/Sigmoid.sol\":1564:1580  self.oldParams.a */\n      0x00\n      add\n      sload\n        /* \"contracts/lib/Sigmoid.sol\":1582:1586  self */\n      dup6\n        /* \"contracts/lib/Sigmoid.sol\":1582:1596  self.oldParams */\n      0x00\n      add\n        /* \"contracts/lib/Sigmoid.sol\":1582:1598  self.oldParams.b */\n      0x01\n      add\n      sload\n        /* \"contracts/lib/Sigmoid.sol\":1600:1604  self */\n      dup7\n        /* \"contracts/lib/Sigmoid.sol\":1600:1614  self.oldParams */\n      0x00\n      add\n        /* \"contracts/lib/Sigmoid.sol\":1600:1616  self.oldParams.c */\n      0x02\n      add\n      sload\n        /* \"contracts/lib/Sigmoid.sol\":1470:1617  isUpdated ?... */\n      jump(tag_470)\n    tag_469:\n        /* \"contracts/lib/Sigmoid.sol\":1495:1499  self */\n      dup5\n        /* \"contracts/lib/Sigmoid.sol\":1495:1509  self.newParams */\n      0x03\n      add\n        /* \"contracts/lib/Sigmoid.sol\":1495:1511  self.newParams.a */\n      0x00\n      add\n      sload\n        /* \"contracts/lib/Sigmoid.sol\":1513:1517  self */\n      dup6\n        /* \"contracts/lib/Sigmoid.sol\":1513:1527  self.newParams */\n      0x03\n      add\n        /* \"contracts/lib/Sigmoid.sol\":1513:1529  self.newParams.b */\n      0x01\n      add\n      sload\n        /* \"contracts/lib/Sigmoid.sol\":1531:1535  self */\n      dup7\n        /* \"contracts/lib/Sigmoid.sol\":1531:1545  self.newParams */\n      0x03\n      add\n        /* \"contracts/lib/Sigmoid.sol\":1531:1547  self.newParams.c */\n      0x02\n      add\n      sload\n        /* \"contracts/lib/Sigmoid.sol\":1470:1617  isUpdated ?... */\n    tag_470:\n        /* \"contracts/lib/Sigmoid.sol\":1463:1617  return isUpdated ?... */\n      swap4\n      pop\n      swap4\n      pop\n      swap4\n      pop\n      pop\n        /* \"contracts/lib/Sigmoid.sol\":1287:1624  function getParameters(State storage self) internal view returns (uint256, int256, uint256) {... */\n      swap2\n      swap4\n      swap1\n      swap3\n      pop\n      jump\t// out\n        /* \"@openzeppelin/upgrades/contracts/Initializable.sol\":1409:1907  function isConstructor() private view returns (bool) {... */\n    tag_255:\n        /* \"@openzeppelin/upgrades/contracts/Initializable.sol\":1456:1460  bool */\n      0x00\n        /* \"@openzeppelin/upgrades/contracts/Initializable.sol\":1797:1809  address self */\n      dup1\n        /* \"@openzeppelin/upgrades/contracts/Initializable.sol\":1820:1824  this */\n      address\n        /* \"@openzeppelin/upgrades/contracts/Initializable.sol\":1797:1825  address self = address(this) */\n      swap1\n      pop\n        /* \"@openzeppelin/upgrades/contracts/Initializable.sol\":1831:1841  uint256 cs */\n      0x00\n        /* \"@openzeppelin/upgrades/contracts/Initializable.sol\":1876:1880  self */\n      dup2\n        /* \"@openzeppelin/upgrades/contracts/Initializable.sol\":1864:1881  extcodesize(self) */\n      extcodesize\n        /* \"@openzeppelin/upgrades/contracts/Initializable.sol\":1858:1881  cs := extcodesize(self) */\n      swap1\n      pop\n        /* \"@openzeppelin/upgrades/contracts/Initializable.sol\":1901:1902  0 */\n      0x00\n        /* \"@openzeppelin/upgrades/contracts/Initializable.sol\":1895:1897  cs */\n      dup2\n        /* \"@openzeppelin/upgrades/contracts/Initializable.sol\":1895:1902  cs == 0 */\n      eq\n        /* \"@openzeppelin/upgrades/contracts/Initializable.sol\":1888:1902  return cs == 0 */\n      swap3\n      pop\n      pop\n      pop\n        /* \"@openzeppelin/upgrades/contracts/Initializable.sol\":1409:1907  function isConstructor() private view returns (bool) {... */\n      swap1\n      jump\t// out\n        /* \"@openzeppelin/contracts-ethereum-package/contracts/GSN/Context.sol\":867:963  function _msgSender() internal view returns (address payable) {... */\n    tag_284:\n        /* \"@openzeppelin/contracts-ethereum-package/contracts/GSN/Context.sol\":912:927  address payable */\n      0x00\n        /* \"@openzeppelin/contracts-ethereum-package/contracts/GSN/Context.sol\":946:956  msg.sender */\n      caller\n        /* \"@openzeppelin/contracts-ethereum-package/contracts/GSN/Context.sol\":939:956  return msg.sender */\n      swap1\n      pop\n        /* \"@openzeppelin/contracts-ethereum-package/contracts/GSN/Context.sol\":867:963  function _msgSender() internal view returns (address payable) {... */\n      swap1\n      jump\t// out\n        /* \"@openzeppelin/contracts-ethereum-package/contracts/token/ERC20/SafeERC20.sol\":662:836  function safeTransfer(IERC20 token, address to, uint256 value) internal {... */\n    tag_318:\n        /* \"@openzeppelin/contracts-ethereum-package/contracts/token/ERC20/SafeERC20.sol\":744:829  callOptionalReturn(token, abi.encodeWithSelector(token.transfer.selector, to, value)) */\n      tag_474\n        /* \"@openzeppelin/contracts-ethereum-package/contracts/token/ERC20/SafeERC20.sol\":763:768  token */\n      dup4\n        /* \"@openzeppelin/contracts-ethereum-package/contracts/token/ERC20/SafeERC20.sol\":793:798  token */\n      dup5\n        /* \"@openzeppelin/contracts-ethereum-package/contracts/token/ERC20/SafeERC20.sol\":793:807  token.transfer */\n      0xffffffffffffffffffffffffffffffffffffffff\n      and\n      0xa9059cbb\n        /* \"@openzeppelin/contracts-ethereum-package/contracts/token/ERC20/SafeERC20.sol\":793:816  token.transfer.selector */\n      swap1\n      pop\n      0xe0\n      shl\n        /* \"@openzeppelin/contracts-ethereum-package/contracts/token/ERC20/SafeERC20.sol\":818:820  to */\n      dup5\n        /* \"@openzeppelin/contracts-ethereum-package/contracts/token/ERC20/SafeERC20.sol\":822:827  value */\n      dup5\n        /* \"@openzeppelin/contracts-ethereum-package/contracts/token/ERC20/SafeERC20.sol\":770:828  abi.encodeWithSelector(token.transfer.selector, to, value) */\n      add(0x24, mload(0x40))\n      dup1\n      dup4\n      0xffffffffffffffffffffffffffffffffffffffff\n      and\n      0xffffffffffffffffffffffffffffffffffffffff\n      and\n      dup2\n      mstore\n      0x20\n      add\n      dup3\n      dup2\n      mstore\n      0x20\n      add\n      swap3\n      pop\n      pop\n      pop\n      mload(0x40)\n        /* \"--CODEGEN--\":49:53   */\n      0x20\n        /* \"--CODEGEN--\":39:46   */\n      dup2\n        /* \"--CODEGEN--\":30:37   */\n      dup4\n        /* \"--CODEGEN--\":26:47   */\n      sub\n        /* \"--CODEGEN--\":22:54   */\n      sub\n        /* \"--CODEGEN--\":13:20   */\n      dup2\n        /* \"--CODEGEN--\":6:55   */\n      mstore\n        /* \"@openzeppelin/contracts-ethereum-package/contracts/token/ERC20/SafeERC20.sol\":770:828  abi.encodeWithSelector(token.transfer.selector, to, value) */\n      swap1\n      0x40\n      mstore\n      swap1\n      not(0xffffffffffffffffffffffffffffffffffffffffffffffffffffffff)\n      and\n        /* \"--CODEGEN--\":38:42   */\n      0x20\n        /* \"--CODEGEN--\":29:36   */\n      dup3\n        /* \"--CODEGEN--\":25:43   */\n      add\n        /* \"--CODEGEN--\":67:77   */\n      dup1\n        /* \"--CODEGEN--\":61:78   */\n      mload\n        /* \"--CODEGEN--\":96:154   */\n      0xffffffffffffffffffffffffffffffffffffffffffffffffffffffff\n        /* \"--CODEGEN--\":199:207   */\n      dup4\n        /* \"--CODEGEN--\":192:196   */\n      dup2\n        /* \"--CODEGEN--\":186:190   */\n      dup4\n        /* \"--CODEGEN--\":182:197   */\n      and\n        /* \"--CODEGEN--\":179:208   */\n      or\n        /* \"--CODEGEN--\":167:177   */\n      dup4\n        /* \"--CODEGEN--\":160:209   */\n      mstore\n        /* \"--CODEGEN--\":0:215   */\n      pop\n      pop\n      pop\n        /* \"@openzeppelin/contracts-ethereum-package/contracts/token/ERC20/SafeERC20.sol\":770:828  abi.encodeWithSelector(token.transfer.selector, to, value) */\n      pop\n        /* \"@openzeppelin/contracts-ethereum-package/contracts/token/ERC20/SafeERC20.sol\":744:762  callOptionalReturn */\n      tag_475\n        /* \"@openzeppelin/contracts-ethereum-package/contracts/token/ERC20/SafeERC20.sol\":744:829  callOptionalReturn(token, abi.encodeWithSelector(token.transfer.selector, to, value)) */\n      jump\t// in\n    tag_474:\n        /* \"@openzeppelin/contracts-ethereum-package/contracts/token/ERC20/SafeERC20.sol\":662:836  function safeTransfer(IERC20 token, address to, uint256 value) internal {... */\n      pop\n      pop\n      pop\n      jump\t// out\n        /* \"contracts/EasyStaking.sol\":20923:21595  function _deposit(address _sender, uint256 _id, uint256 _amount) internal nonReentrant {... */\n    tag_323:\n        /* \"@openzeppelin/contracts-ethereum-package/contracts/utils/ReentrancyGuard.sol\":1409:1410  1 */\n      0x01\n        /* \"@openzeppelin/contracts-ethereum-package/contracts/utils/ReentrancyGuard.sol\":1392:1405  _guardCounter */\n      0x66\n      0x00\n        /* \"@openzeppelin/contracts-ethereum-package/contracts/utils/ReentrancyGuard.sol\":1392:1410  _guardCounter += 1 */\n      dup3\n      dup3\n      sload\n      add\n      swap3\n      pop\n      pop\n      dup2\n      swap1\n      sstore\n      pop\n        /* \"@openzeppelin/contracts-ethereum-package/contracts/utils/ReentrancyGuard.sol\":1420:1440  uint256 localCounter */\n      0x00\n        /* \"@openzeppelin/contracts-ethereum-package/contracts/utils/ReentrancyGuard.sol\":1443:1456  _guardCounter */\n      sload(0x66)\n        /* \"@openzeppelin/contracts-ethereum-package/contracts/utils/ReentrancyGuard.sol\":1420:1456  uint256 localCounter = _guardCounter */\n      swap1\n      pop\n        /* \"contracts/EasyStaking.sol\":21038:21039  0 */\n      0x00\n        /* \"contracts/EasyStaking.sol\":21028:21035  _amount */\n      dup3\n        /* \"contracts/EasyStaking.sol\":21028:21039  _amount > 0 */\n      gt\n        /* \"contracts/EasyStaking.sol\":21020:21080  require(_amount > 0, \"deposit amount should be more than 0\") */\n      tag_478\n      jumpi\n      mload(0x40)\n      0x08c379a000000000000000000000000000000000000000000000000000000000\n      dup2\n      mstore\n      0x04\n      add\n      dup1\n      dup1\n      0x20\n      add\n      dup3\n      dup2\n      sub\n      dup3\n      mstore\n      0x24\n      dup2\n      mstore\n      0x20\n      add\n      dup1\n      data_335651f95752b5b2f9e6f772a51ea21ec319e6d88b710d1d6b6aed8232257902\n      0x24\n      swap2\n      codecopy\n      0x40\n      add\n      swap2\n      pop\n      pop\n      mload(0x40)\n      dup1\n      swap2\n      sub\n      swap1\n      revert\n    tag_478:\n        /* \"contracts/EasyStaking.sol\":21091:21112  uint256 sigmoidParamA */\n      0x00\n        /* \"contracts/EasyStaking.sol\":21118:21140  getSigmoidParameters() */\n      tag_479\n        /* \"contracts/EasyStaking.sol\":21118:21138  getSigmoidParameters */\n      tag_98\n        /* \"contracts/EasyStaking.sol\":21118:21140  getSigmoidParameters() */\n      jump\t// in\n    tag_479:\n        /* \"contracts/EasyStaking.sol\":21090:21140  (uint256 sigmoidParamA,,) = getSigmoidParameters() */\n      pop\n      pop\n      swap1\n      pop\n        /* \"contracts/EasyStaking.sol\":21171:21172  0 */\n      0x00\n        /* \"contracts/EasyStaking.sol\":21154:21167  sigmoidParamA */\n      dup2\n        /* \"contracts/EasyStaking.sol\":21154:21172  sigmoidParamA == 0 */\n      eq\n        /* \"contracts/EasyStaking.sol\":21154:21200  sigmoidParamA == 0 && totalSupplyFactor() == 0 */\n      dup1\n      iszero\n      tag_480\n      jumpi\n      pop\n        /* \"contracts/EasyStaking.sol\":21199:21200  0 */\n      0x00\n        /* \"contracts/EasyStaking.sol\":21176:21195  totalSupplyFactor() */\n      tag_481\n        /* \"contracts/EasyStaking.sol\":21176:21193  totalSupplyFactor */\n      tag_81\n        /* \"contracts/EasyStaking.sol\":21176:21195  totalSupplyFactor() */\n      jump\t// in\n    tag_481:\n        /* \"contracts/EasyStaking.sol\":21176:21200  totalSupplyFactor() == 0 */\n      eq\n        /* \"contracts/EasyStaking.sol\":21154:21200  sigmoidParamA == 0 && totalSupplyFactor() == 0 */\n    tag_480:\n        /* \"contracts/EasyStaking.sol\":21150:21228  if (sigmoidParamA == 0 && totalSupplyFactor() == 0) revert(\"emission stopped\") */\n      iszero\n      tag_482\n      jumpi\n        /* \"contracts/EasyStaking.sol\":21202:21228  revert(\"emission stopped\") */\n      mload(0x40)\n      0x08c379a000000000000000000000000000000000000000000000000000000000\n      dup2\n      mstore\n      0x04\n      add\n      dup1\n      dup1\n      0x20\n      add\n      dup3\n      dup2\n      sub\n      dup3\n      mstore\n      0x10\n      dup2\n      mstore\n      0x20\n      add\n      dup1\n      0x656d697373696f6e2073746f7070656400000000000000000000000000000000\n      dup2\n      mstore\n      pop\n      0x20\n      add\n      swap2\n      pop\n      pop\n      mload(0x40)\n      dup1\n      swap2\n      sub\n      swap1\n      revert\n        /* \"contracts/EasyStaking.sol\":21150:21228  if (sigmoidParamA == 0 && totalSupplyFactor() == 0) revert(\"emission stopped\") */\n    tag_482:\n        /* \"contracts/EasyStaking.sol\":21239:21256  uint256 userShare */\n      0x00\n        /* \"contracts/EasyStaking.sol\":21258:21276  uint256 timePassed */\n      dup1\n        /* \"contracts/EasyStaking.sol\":21280:21302  _mint(_sender, _id, 0) */\n      tag_483\n        /* \"contracts/EasyStaking.sol\":21286:21293  _sender */\n      dup8\n        /* \"contracts/EasyStaking.sol\":21295:21298  _id */\n      dup8\n        /* \"contracts/EasyStaking.sol\":21300:21301  0 */\n      0x00\n        /* \"contracts/EasyStaking.sol\":21280:21285  _mint */\n      tag_409\n        /* \"contracts/EasyStaking.sol\":21280:21302  _mint(_sender, _id, 0) */\n      jump\t// in\n    tag_483:\n        /* \"contracts/EasyStaking.sol\":21238:21302  (uint256 userShare, uint256 timePassed) = _mint(_sender, _id, 0) */\n      swap2\n      pop\n      swap2\n      pop\n        /* \"contracts/EasyStaking.sol\":21312:21330  uint256 newBalance */\n      0x00\n        /* \"contracts/EasyStaking.sol\":21333:21368  balances[_sender][_id].add(_amount) */\n      tag_484\n        /* \"contracts/EasyStaking.sol\":21360:21367  _amount */\n      dup7\n        /* \"contracts/EasyStaking.sol\":21333:21341  balances */\n      0xac\n        /* \"contracts/EasyStaking.sol\":21333:21350  balances[_sender] */\n      0x00\n        /* \"contracts/EasyStaking.sol\":21342:21349  _sender */\n      dup12\n        /* \"contracts/EasyStaking.sol\":21333:21350  balances[_sender] */\n      0xffffffffffffffffffffffffffffffffffffffff\n      and\n      0xffffffffffffffffffffffffffffffffffffffff\n      and\n      dup2\n      mstore\n      0x20\n      add\n      swap1\n      dup2\n      mstore\n      0x20\n      add\n      0x00\n      keccak256\n        /* \"contracts/EasyStaking.sol\":21333:21355  balances[_sender][_id] */\n      0x00\n        /* \"contracts/EasyStaking.sol\":21351:21354  _id */\n      dup11\n        /* \"contracts/EasyStaking.sol\":21333:21355  balances[_sender][_id] */\n      dup2\n      mstore\n      0x20\n      add\n      swap1\n      dup2\n      mstore\n      0x20\n      add\n      0x00\n      keccak256\n      sload\n        /* \"contracts/EasyStaking.sol\":21333:21359  balances[_sender][_id].add */\n      tag_182\n      swap1\n        /* \"contracts/EasyStaking.sol\":21333:21368  balances[_sender][_id].add(_amount) */\n      swap2\n      swap1\n      0xffffffff\n      and\n      jump\t// in\n    tag_484:\n        /* \"contracts/EasyStaking.sol\":21312:21368  uint256 newBalance = balances[_sender][_id].add(_amount) */\n      swap1\n      pop\n        /* \"contracts/EasyStaking.sol\":21403:21413  newBalance */\n      dup1\n        /* \"contracts/EasyStaking.sol\":21378:21386  balances */\n      0xac\n        /* \"contracts/EasyStaking.sol\":21378:21395  balances[_sender] */\n      0x00\n        /* \"contracts/EasyStaking.sol\":21387:21394  _sender */\n      dup11\n        /* \"contracts/EasyStaking.sol\":21378:21395  balances[_sender] */\n      0xffffffffffffffffffffffffffffffffffffffff\n      and\n      0xffffffffffffffffffffffffffffffffffffffff\n      and\n      dup2\n      mstore\n      0x20\n      add\n      swap1\n      dup2\n      mstore\n      0x20\n      add\n      0x00\n      keccak256\n        /* \"contracts/EasyStaking.sol\":21378:21400  balances[_sender][_id] */\n      0x00\n        /* \"contracts/EasyStaking.sol\":21396:21399  _id */\n      dup10\n        /* \"contracts/EasyStaking.sol\":21378:21400  balances[_sender][_id] */\n      dup2\n      mstore\n      0x20\n      add\n      swap1\n      dup2\n      mstore\n      0x20\n      add\n      0x00\n      keccak256\n        /* \"contracts/EasyStaking.sol\":21378:21413  balances[_sender][_id] = newBalance */\n      dup2\n      swap1\n      sstore\n      pop\n        /* \"contracts/EasyStaking.sol\":21437:21461  totalStaked.add(_amount) */\n      tag_485\n        /* \"contracts/EasyStaking.sol\":21453:21460  _amount */\n      dup7\n        /* \"contracts/EasyStaking.sol\":21437:21448  totalStaked */\n      sload(0xb0)\n        /* \"contracts/EasyStaking.sol\":21437:21452  totalStaked.add */\n      tag_182\n      swap1\n        /* \"contracts/EasyStaking.sol\":21437:21461  totalStaked.add(_amount) */\n      swap2\n      swap1\n      0xffffffff\n      and\n      jump\t// in\n    tag_485:\n        /* \"contracts/EasyStaking.sol\":21423:21434  totalStaked */\n      0xb0\n        /* \"contracts/EasyStaking.sol\":21423:21461  totalStaked = totalStaked.add(_amount) */\n      dup2\n      swap1\n      sstore\n      pop\n        /* \"contracts/EasyStaking.sol\":21500:21506  _now() */\n      tag_486\n        /* \"contracts/EasyStaking.sol\":21500:21504  _now */\n      tag_174\n        /* \"contracts/EasyStaking.sol\":21500:21506  _now() */\n      jump\t// in\n    tag_486:\n        /* \"contracts/EasyStaking.sol\":21471:21483  depositDates */\n      0xad\n        /* \"contracts/EasyStaking.sol\":21471:21492  depositDates[_sender] */\n      0x00\n        /* \"contracts/EasyStaking.sol\":21484:21491  _sender */\n      dup11\n        /* \"contracts/EasyStaking.sol\":21471:21492  depositDates[_sender] */\n      0xffffffffffffffffffffffffffffffffffffffff\n      and\n      0xffffffffffffffffffffffffffffffffffffffff\n      and\n      dup2\n      mstore\n      0x20\n      add\n      swap1\n      dup2\n      mstore\n      0x20\n      add\n      0x00\n      keccak256\n        /* \"contracts/EasyStaking.sol\":21471:21497  depositDates[_sender][_id] */\n      0x00\n        /* \"contracts/EasyStaking.sol\":21493:21496  _id */\n      dup10\n        /* \"contracts/EasyStaking.sol\":21471:21497  depositDates[_sender][_id] */\n      dup2\n      mstore\n      0x20\n      add\n      swap1\n      dup2\n      mstore\n      0x20\n      add\n      0x00\n      keccak256\n        /* \"contracts/EasyStaking.sol\":21471:21506  depositDates[_sender][_id] = _now() */\n      dup2\n      swap1\n      sstore\n      pop\n        /* \"contracts/EasyStaking.sol\":21540:21543  _id */\n      dup7\n        /* \"contracts/EasyStaking.sol\":21531:21538  _sender */\n      dup9\n        /* \"contracts/EasyStaking.sol\":21521:21588  Deposited(_sender, _id, _amount, newBalance, userShare, timePassed) */\n      0xffffffffffffffffffffffffffffffffffffffff\n      and\n      0x0a5c854539f6e93fcd4a8397bfae8bdb751b4e819840f1c8681e6ad7ff19c5b5\n        /* \"contracts/EasyStaking.sol\":21545:21552  _amount */\n      dup9\n        /* \"contracts/EasyStaking.sol\":21554:21564  newBalance */\n      dup5\n        /* \"contracts/EasyStaking.sol\":21566:21575  userShare */\n      dup8\n        /* \"contracts/EasyStaking.sol\":21577:21587  timePassed */\n      dup8\n        /* \"contracts/EasyStaking.sol\":21521:21588  Deposited(_sender, _id, _amount, newBalance, userShare, timePassed) */\n      mload(0x40)\n      dup1\n      dup6\n      dup2\n      mstore\n      0x20\n      add\n      dup5\n      dup2\n      mstore\n      0x20\n      add\n      dup4\n      dup2\n      mstore\n      0x20\n      add\n      dup3\n      dup2\n      mstore\n      0x20\n      add\n      swap5\n      pop\n      pop\n      pop\n      pop\n      pop\n      mload(0x40)\n      dup1\n      swap2\n      sub\n      swap1\n      log3\n        /* \"@openzeppelin/contracts-ethereum-package/contracts/utils/ReentrancyGuard.sol\":1466:1467  _ */\n      pop\n      pop\n      pop\n      pop\n        /* \"@openzeppelin/contracts-ethereum-package/contracts/utils/ReentrancyGuard.sol\":1501:1514  _guardCounter */\n      sload(0x66)\n        /* \"@openzeppelin/contracts-ethereum-package/contracts/utils/ReentrancyGuard.sol\":1485:1497  localCounter */\n      dup2\n        /* \"@openzeppelin/contracts-ethereum-package/contracts/utils/ReentrancyGuard.sol\":1485:1514  localCounter == _guardCounter */\n      eq\n        /* \"@openzeppelin/contracts-ethereum-package/contracts/utils/ReentrancyGuard.sol\":1477:1550  require(localCounter == _guardCounter, \"ReentrancyGuard: reentrant call\") */\n      tag_487\n      jumpi\n      mload(0x40)\n      0x08c379a000000000000000000000000000000000000000000000000000000000\n      dup2\n      mstore\n      0x04\n      add\n      dup1\n      dup1\n      0x20\n      add\n      dup3\n      dup2\n      sub\n      dup3\n      mstore\n      0x1f\n      dup2\n      mstore\n      0x20\n      add\n      dup1\n      0x5265656e7472616e637947756172643a207265656e7472616e742063616c6c00\n      dup2\n      mstore\n      pop\n      0x20\n      add\n      swap2\n      pop\n      pop\n      mload(0x40)\n      dup1\n      swap2\n      sub\n      swap1\n      revert\n    tag_487:\n        /* \"contracts/EasyStaking.sol\":20923:21595  function _deposit(address _sender, uint256 _id, uint256 _amount) internal nonReentrant {... */\n      pop\n      pop\n      pop\n      pop\n      jump\t// out\n        /* \"contracts/EasyStaking.sol\":24990:25150  function _paramUpdateDelayElapsed(uint256 _paramTimestamp) internal view returns (bool) {... */\n    tag_338:\n        /* \"contracts/EasyStaking.sol\":25072:25076  bool */\n      0x00\n        /* \"contracts/EasyStaking.sol\":25104:25143  _paramTimestamp.add(PARAM_UPDATE_DELAY) */\n      tag_489\n        /* \"contracts/EasyStaking.sol\":4629:4635  7 days */\n      0x093a80\n        /* \"contracts/EasyStaking.sol\":25104:25119  _paramTimestamp */\n      dup4\n        /* \"contracts/EasyStaking.sol\":25104:25123  _paramTimestamp.add */\n      tag_182\n      swap1\n        /* \"contracts/EasyStaking.sol\":25104:25143  _paramTimestamp.add(PARAM_UPDATE_DELAY) */\n      swap2\n      swap1\n      0xffffffff\n      and\n      jump\t// in\n    tag_489:\n        /* \"contracts/EasyStaking.sol\":25095:25101  _now() */\n      tag_490\n        /* \"contracts/EasyStaking.sol\":25095:25099  _now */\n      tag_174\n        /* \"contracts/EasyStaking.sol\":25095:25101  _now() */\n      jump\t// in\n    tag_490:\n        /* \"contracts/EasyStaking.sol\":25095:25143  _now() > _paramTimestamp.add(PARAM_UPDATE_DELAY) */\n      gt\n        /* \"contracts/EasyStaking.sol\":25088:25143  return _now() > _paramTimestamp.add(PARAM_UPDATE_DELAY) */\n      swap1\n      pop\n        /* \"contracts/EasyStaking.sol\":24990:25150  function _paramUpdateDelayElapsed(uint256 _paramTimestamp) internal view returns (bool) {... */\n      swap2\n      swap1\n      pop\n      jump\t// out\n        /* \"@openzeppelin/contracts-ethereum-package/contracts/utils/Address.sol\":686:1296  function isContract(address account) internal view returns (bool) {... */\n    tag_350:\n        /* \"@openzeppelin/contracts-ethereum-package/contracts/utils/Address.sol\":746:750  bool */\n      0x00\n        /* \"@openzeppelin/contracts-ethereum-package/contracts/utils/Address.sol\":1004:1020  bytes32 codehash */\n      dup1\n        /* \"@openzeppelin/contracts-ethereum-package/contracts/utils/Address.sol\":1030:1049  bytes32 accountHash */\n      0x00\n        /* \"@openzeppelin/contracts-ethereum-package/contracts/utils/Address.sol\":1052:1118  0xc5d2460186f7233c927e7db2dcc703c0e500b653ca82273b7bfad8045d85a470 */\n      0xc5d2460186f7233c927e7db2dcc703c0e500b653ca82273b7bfad8045d85a470\n        /* \"@openzeppelin/contracts-ethereum-package/contracts/utils/Address.sol\":1030:1118  bytes32 accountHash = 0xc5d2460186f7233c927e7db2dcc703c0e500b653ca82273b7bfad8045d85a470 */\n      0x00\n      shl\n      swap1\n      pop\n        /* \"@openzeppelin/contracts-ethereum-package/contracts/utils/Address.sol\":1219:1226  account */\n      dup4\n        /* \"@openzeppelin/contracts-ethereum-package/contracts/utils/Address.sol\":1207:1227  extcodehash(account) */\n      extcodehash\n        /* \"@openzeppelin/contracts-ethereum-package/contracts/utils/Address.sol\":1195:1227  codehash := extcodehash(account) */\n      swap2\n      pop\n        /* \"@openzeppelin/contracts-ethereum-package/contracts/utils/Address.sol\":1258:1269  accountHash */\n      dup1\n        /* \"@openzeppelin/contracts-ethereum-package/contracts/utils/Address.sol\":1246:1254  codehash */\n      dup3\n        /* \"@openzeppelin/contracts-ethereum-package/contracts/utils/Address.sol\":1246:1269  codehash != accountHash */\n      eq\n      iszero\n        /* \"@openzeppelin/contracts-ethereum-package/contracts/utils/Address.sol\":1246:1288  codehash != accountHash && codehash != 0x0 */\n      dup1\n      iszero\n      tag_492\n      jumpi\n      pop\n        /* \"@openzeppelin/contracts-ethereum-package/contracts/utils/Address.sol\":1285:1288  0x0 */\n      0x00\n        /* \"@openzeppelin/contracts-ethereum-package/contracts/utils/Address.sol\":1273:1288  codehash != 0x0 */\n      dup1\n      shl\n        /* \"@openzeppelin/contracts-ethereum-package/contracts/utils/Address.sol\":1273:1281  codehash */\n      dup3\n        /* \"@openzeppelin/contracts-ethereum-package/contracts/utils/Address.sol\":1273:1288  codehash != 0x0 */\n      eq\n      iszero\n        /* \"@openzeppelin/contracts-ethereum-package/contracts/utils/Address.sol\":1246:1288  codehash != accountHash && codehash != 0x0 */\n    tag_492:\n        /* \"@openzeppelin/contracts-ethereum-package/contracts/utils/Address.sol\":1238:1289  return (codehash != accountHash && codehash != 0x0) */\n      swap3\n      pop\n      pop\n      pop\n        /* \"@openzeppelin/contracts-ethereum-package/contracts/utils/Address.sol\":686:1296  function isContract(address account) internal view returns (bool) {... */\n      swap2\n      swap1\n      pop\n      jump\t// out\n        /* \"contracts/EasyStaking.sol\":25217:25293  function _setLocked(bool _locked) internal {... */\n    tag_382:\n        /* \"contracts/EasyStaking.sol\":25279:25286  _locked */\n      dup1\n        /* \"contracts/EasyStaking.sol\":25270:25276  locked */\n      0xb1\n      0x00\n        /* \"contracts/EasyStaking.sol\":25270:25286  locked = _locked */\n      0x0100\n      exp\n      dup2\n      sload\n      dup2\n      0xff\n      mul\n      not\n      and\n      swap1\n      dup4\n      iszero\n      iszero\n      mul\n      or\n      swap1\n      sstore\n      pop\n        /* \"contracts/EasyStaking.sol\":25217:25293  function _setLocked(bool _locked) internal {... */\n      pop\n      jump\t// out\n        /* \"@openzeppelin/contracts-ethereum-package/contracts/ownership/Ownable.sol\":2240:2465  function _transferOwnership(address newOwner) internal {... */\n    tag_393:\n        /* \"@openzeppelin/contracts-ethereum-package/contracts/ownership/Ownable.sol\":2333:2334  0 */\n      0x00\n        /* \"@openzeppelin/contracts-ethereum-package/contracts/ownership/Ownable.sol\":2313:2335  newOwner != address(0) */\n      0xffffffffffffffffffffffffffffffffffffffff\n      and\n        /* \"@openzeppelin/contracts-ethereum-package/contracts/ownership/Ownable.sol\":2313:2321  newOwner */\n      dup2\n        /* \"@openzeppelin/contracts-ethereum-package/contracts/ownership/Ownable.sol\":2313:2335  newOwner != address(0) */\n      0xffffffffffffffffffffffffffffffffffffffff\n      and\n      eq\n      iszero\n        /* \"@openzeppelin/contracts-ethereum-package/contracts/ownership/Ownable.sol\":2305:2378  require(newOwner != address(0), \"Ownable: new owner is the zero address\") */\n      tag_495\n      jumpi\n      mload(0x40)\n      0x08c379a000000000000000000000000000000000000000000000000000000000\n      dup2\n      mstore\n      0x04\n      add\n      dup1\n      dup1\n      0x20\n      add\n      dup3\n      dup2\n      sub\n      dup3\n      mstore\n      0x26\n      dup2\n      mstore\n      0x20\n      add\n      dup1\n      data_245f15ff17f551913a7a18385165551503906a406f905ac1c2437281a7cd0cfe\n      0x26\n      swap2\n      codecopy\n      0x40\n      add\n      swap2\n      pop\n      pop\n      mload(0x40)\n      dup1\n      swap2\n      sub\n      swap1\n      revert\n    tag_495:\n        /* \"@openzeppelin/contracts-ethereum-package/contracts/ownership/Ownable.sol\":2422:2430  newOwner */\n      dup1\n        /* \"@openzeppelin/contracts-ethereum-package/contracts/ownership/Ownable.sol\":2393:2431  OwnershipTransferred(_owner, newOwner) */\n      0xffffffffffffffffffffffffffffffffffffffff\n      and\n        /* \"@openzeppelin/contracts-ethereum-package/contracts/ownership/Ownable.sol\":2414:2420  _owner */\n      0x33\n      0x00\n      swap1\n      sload\n      swap1\n      0x0100\n      exp\n      swap1\n      div\n      0xffffffffffffffffffffffffffffffffffffffff\n      and\n        /* \"@openzeppelin/contracts-ethereum-package/contracts/ownership/Ownable.sol\":2393:2431  OwnershipTransferred(_owner, newOwner) */\n      0xffffffffffffffffffffffffffffffffffffffff\n      and\n      0x8be0079c531659141344cd1fd0a4f28419497f9722a3daafe3b4186f6b6457e0\n      mload(0x40)\n      mload(0x40)\n      dup1\n      swap2\n      sub\n      swap1\n      log3\n        /* \"@openzeppelin/contracts-ethereum-package/contracts/ownership/Ownable.sol\":2450:2458  newOwner */\n      dup1\n        /* \"@openzeppelin/contracts-ethereum-package/contracts/ownership/Ownable.sol\":2441:2447  _owner */\n      0x33\n      0x00\n        /* \"@openzeppelin/contracts-ethereum-package/contracts/ownership/Ownable.sol\":2441:2458  _owner = newOwner */\n      0x0100\n      exp\n      dup2\n      sload\n      dup2\n      0xffffffffffffffffffffffffffffffffffffffff\n      mul\n      not\n      and\n      swap1\n      dup4\n      0xffffffffffffffffffffffffffffffffffffffff\n      and\n      mul\n      or\n      swap1\n      sstore\n      pop\n        /* \"@openzeppelin/contracts-ethereum-package/contracts/ownership/Ownable.sol\":2240:2465  function _transferOwnership(address newOwner) internal {... */\n      pop\n      jump\t// out\n        /* \"@openzeppelin/contracts-ethereum-package/contracts/math/SafeMath.sol\":1732:1919  function sub(uint256 a, uint256 b, string memory errorMessage) internal pure returns (uint256) {... */\n    tag_397:\n        /* \"@openzeppelin/contracts-ethereum-package/contracts/math/SafeMath.sol\":1818:1825  uint256 */\n      0x00\n        /* \"@openzeppelin/contracts-ethereum-package/contracts/math/SafeMath.sol\":1850:1851  a */\n      dup4\n        /* \"@openzeppelin/contracts-ethereum-package/contracts/math/SafeMath.sol\":1845:1846  b */\n      dup4\n        /* \"@openzeppelin/contracts-ethereum-package/contracts/math/SafeMath.sol\":1845:1851  b <= a */\n      gt\n      iszero\n        /* \"@openzeppelin/contracts-ethereum-package/contracts/math/SafeMath.sol\":1853:1865  errorMessage */\n      dup3\n        /* \"@openzeppelin/contracts-ethereum-package/contracts/math/SafeMath.sol\":1837:1866  require(b <= a, errorMessage) */\n      swap1\n      tag_497\n      jumpi\n      mload(0x40)\n      0x08c379a000000000000000000000000000000000000000000000000000000000\n      dup2\n      mstore\n      0x04\n      add\n      dup1\n      dup1\n      0x20\n      add\n      dup3\n      dup2\n      sub\n      dup3\n      mstore\n      dup4\n      dup2\n      dup2\n      mload\n      dup2\n      mstore\n      0x20\n      add\n      swap2\n      pop\n      dup1\n      mload\n      swap1\n      0x20\n      add\n      swap1\n      dup1\n      dup4\n      dup4\n        /* \"--CODEGEN--\":23:24   */\n      0x00\n        /* \"--CODEGEN--\":8:108   */\n    tag_498:\n        /* \"--CODEGEN--\":33:36   */\n      dup4\n        /* \"--CODEGEN--\":30:31   */\n      dup2\n        /* \"--CODEGEN--\":27:37   */\n      lt\n        /* \"--CODEGEN--\":8:108   */\n      iszero\n      tag_500\n      jumpi\n        /* \"--CODEGEN--\":99:100   */\n      dup1\n        /* \"--CODEGEN--\":94:97   */\n      dup3\n        /* \"--CODEGEN--\":90:101   */\n      add\n        /* \"--CODEGEN--\":84:102   */\n      mload\n        /* \"--CODEGEN--\":80:81   */\n      dup2\n        /* \"--CODEGEN--\":75:78   */\n      dup5\n        /* \"--CODEGEN--\":71:82   */\n      add\n        /* \"--CODEGEN--\":64:103   */\n      mstore\n        /* \"--CODEGEN--\":52:54   */\n      0x20\n        /* \"--CODEGEN--\":49:50   */\n      dup2\n        /* \"--CODEGEN--\":45:55   */\n      add\n        /* \"--CODEGEN--\":40:55   */\n      swap1\n      pop\n        /* \"--CODEGEN--\":8:108   */\n      jump(tag_498)\n    tag_500:\n        /* \"--CODEGEN--\":12:26   */\n      pop\n        /* \"@openzeppelin/contracts-ethereum-package/contracts/math/SafeMath.sol\":1837:1866  require(b <= a, errorMessage) */\n      pop\n      pop\n      pop\n      swap1\n      pop\n      swap1\n      dup2\n      add\n      swap1\n      0x1f\n      and\n      dup1\n      iszero\n      tag_501\n      jumpi\n      dup1\n      dup3\n      sub\n      dup1\n      mload\n      0x01\n      dup4\n      0x20\n      sub\n      0x0100\n      exp\n      sub\n      not\n      and\n      dup2\n      mstore\n      0x20\n      add\n      swap2\n      pop\n    tag_501:\n      pop\n      swap3\n      pop\n      pop\n      pop\n      mload(0x40)\n      dup1\n      swap2\n      sub\n      swap1\n      revert\n    tag_497:\n      pop\n        /* \"@openzeppelin/contracts-ethereum-package/contracts/math/SafeMath.sol\":1876:1885  uint256 c */\n      0x00\n        /* \"@openzeppelin/contracts-ethereum-package/contracts/math/SafeMath.sol\":1892:1893  b */\n      dup4\n        /* \"@openzeppelin/contracts-ethereum-package/contracts/math/SafeMath.sol\":1888:1889  a */\n      dup6\n        /* \"@openzeppelin/contracts-ethereum-package/contracts/math/SafeMath.sol\":1888:1893  a - b */\n      sub\n        /* \"@openzeppelin/contracts-ethereum-package/contracts/math/SafeMath.sol\":1876:1893  uint256 c = a - b */\n      swap1\n      pop\n        /* \"@openzeppelin/contracts-ethereum-package/contracts/math/SafeMath.sol\":1911:1912  c */\n      dup1\n        /* \"@openzeppelin/contracts-ethereum-package/contracts/math/SafeMath.sol\":1904:1912  return c */\n      swap2\n      pop\n      pop\n        /* \"@openzeppelin/contracts-ethereum-package/contracts/math/SafeMath.sol\":1732:1919  function sub(uint256 a, uint256 b, string memory errorMessage) internal pure returns (uint256) {... */\n      swap4\n      swap3\n      pop\n      pop\n      pop\n      jump\t// out\n        /* \"contracts/EasyStaking.sol\":23525:24176  function _mint(address _user, uint256 _id, uint256 _amount) internal returns (uint256, uint256) {... */\n    tag_409:\n        /* \"contracts/EasyStaking.sol\":23603:23610  uint256 */\n      0x00\n        /* \"contracts/EasyStaking.sol\":23612:23619  uint256 */\n      dup1\n        /* \"contracts/EasyStaking.sol\":23631:23653  uint256 currentBalance */\n      0x00\n        /* \"contracts/EasyStaking.sol\":23656:23664  balances */\n      0xac\n        /* \"contracts/EasyStaking.sol\":23656:23671  balances[_user] */\n      0x00\n        /* \"contracts/EasyStaking.sol\":23665:23670  _user */\n      dup8\n        /* \"contracts/EasyStaking.sol\":23656:23671  balances[_user] */\n      0xffffffffffffffffffffffffffffffffffffffff\n      and\n      0xffffffffffffffffffffffffffffffffffffffff\n      and\n      dup2\n      mstore\n      0x20\n      add\n      swap1\n      dup2\n      mstore\n      0x20\n      add\n      0x00\n      keccak256\n        /* \"contracts/EasyStaking.sol\":23656:23676  balances[_user][_id] */\n      0x00\n        /* \"contracts/EasyStaking.sol\":23672:23675  _id */\n      dup7\n        /* \"contracts/EasyStaking.sol\":23656:23676  balances[_user][_id] */\n      dup2\n      mstore\n      0x20\n      add\n      swap1\n      dup2\n      mstore\n      0x20\n      add\n      0x00\n      keccak256\n      sload\n        /* \"contracts/EasyStaking.sol\":23631:23676  uint256 currentBalance = balances[_user][_id] */\n      swap1\n      pop\n        /* \"contracts/EasyStaking.sol\":23686:23700  uint256 amount */\n      0x00\n        /* \"contracts/EasyStaking.sol\":23714:23715  0 */\n      dup1\n        /* \"contracts/EasyStaking.sol\":23703:23710  _amount */\n      dup6\n        /* \"contracts/EasyStaking.sol\":23703:23715  _amount == 0 */\n      eq\n        /* \"contracts/EasyStaking.sol\":23703:23742  _amount == 0 ? currentBalance : _amount */\n      tag_503\n      jumpi\n        /* \"contracts/EasyStaking.sol\":23735:23742  _amount */\n      dup5\n        /* \"contracts/EasyStaking.sol\":23703:23742  _amount == 0 ? currentBalance : _amount */\n      jump(tag_504)\n    tag_503:\n        /* \"contracts/EasyStaking.sol\":23718:23732  currentBalance */\n      dup2\n        /* \"contracts/EasyStaking.sol\":23703:23742  _amount == 0 ? currentBalance : _amount */\n    tag_504:\n        /* \"contracts/EasyStaking.sol\":23686:23742  uint256 amount = _amount == 0 ? currentBalance : _amount */\n      swap1\n      pop\n        /* \"contracts/EasyStaking.sol\":23753:23766  uint256 total */\n      0x00\n        /* \"contracts/EasyStaking.sol\":23768:23785  uint256 userShare */\n      dup1\n        /* \"contracts/EasyStaking.sol\":23787:23805  uint256 timePassed */\n      0x00\n        /* \"contracts/EasyStaking.sol\":23809:23861  getAccruedEmission(depositDates[_user][_id], amount) */\n      tag_505\n        /* \"contracts/EasyStaking.sol\":23828:23840  depositDates */\n      0xad\n        /* \"contracts/EasyStaking.sol\":23828:23847  depositDates[_user] */\n      0x00\n        /* \"contracts/EasyStaking.sol\":23841:23846  _user */\n      dup13\n        /* \"contracts/EasyStaking.sol\":23828:23847  depositDates[_user] */\n      0xffffffffffffffffffffffffffffffffffffffff\n      and\n      0xffffffffffffffffffffffffffffffffffffffff\n      and\n      dup2\n      mstore\n      0x20\n      add\n      swap1\n      dup2\n      mstore\n      0x20\n      add\n      0x00\n      keccak256\n        /* \"contracts/EasyStaking.sol\":23828:23852  depositDates[_user][_id] */\n      0x00\n        /* \"contracts/EasyStaking.sol\":23848:23851  _id */\n      dup12\n        /* \"contracts/EasyStaking.sol\":23828:23852  depositDates[_user][_id] */\n      dup2\n      mstore\n      0x20\n      add\n      swap1\n      dup2\n      mstore\n      0x20\n      add\n      0x00\n      keccak256\n      sload\n        /* \"contracts/EasyStaking.sol\":23854:23860  amount */\n      dup6\n        /* \"contracts/EasyStaking.sol\":23809:23827  getAccruedEmission */\n      tag_88\n        /* \"contracts/EasyStaking.sol\":23809:23861  getAccruedEmission(depositDates[_user][_id], amount) */\n      jump\t// in\n    tag_505:\n        /* \"contracts/EasyStaking.sol\":23752:23861  (uint256 total, uint256 userShare, uint256 timePassed) = getAccruedEmission(depositDates[_user][_id], amount) */\n      swap3\n      pop\n      swap3\n      pop\n      swap3\n      pop\n        /* \"contracts/EasyStaking.sol\":23883:23884  0 */\n      0x00\n        /* \"contracts/EasyStaking.sol\":23875:23880  total */\n      dup4\n        /* \"contracts/EasyStaking.sol\":23875:23884  total > 0 */\n      gt\n        /* \"contracts/EasyStaking.sol\":23871:24130  if (total > 0) {... */\n      iszero\n      tag_506\n      jumpi\n        /* \"contracts/EasyStaking.sol\":23923:23952  currentBalance.add(userShare) */\n      tag_507\n        /* \"contracts/EasyStaking.sol\":23942:23951  userShare */\n      dup3\n        /* \"contracts/EasyStaking.sol\":23923:23937  currentBalance */\n      dup7\n        /* \"contracts/EasyStaking.sol\":23923:23941  currentBalance.add */\n      tag_182\n      swap1\n        /* \"contracts/EasyStaking.sol\":23923:23952  currentBalance.add(userShare) */\n      swap2\n      swap1\n      0xffffffff\n      and\n      jump\t// in\n    tag_507:\n        /* \"contracts/EasyStaking.sol\":23900:23908  balances */\n      0xac\n        /* \"contracts/EasyStaking.sol\":23900:23915  balances[_user] */\n      0x00\n        /* \"contracts/EasyStaking.sol\":23909:23914  _user */\n      dup13\n        /* \"contracts/EasyStaking.sol\":23900:23915  balances[_user] */\n      0xffffffffffffffffffffffffffffffffffffffff\n      and\n      0xffffffffffffffffffffffffffffffffffffffff\n      and\n      dup2\n      mstore\n      0x20\n      add\n      swap1\n      dup2\n      mstore\n      0x20\n      add\n      0x00\n      keccak256\n        /* \"contracts/EasyStaking.sol\":23900:23920  balances[_user][_id] */\n      0x00\n        /* \"contracts/EasyStaking.sol\":23916:23919  _id */\n      dup12\n        /* \"contracts/EasyStaking.sol\":23900:23920  balances[_user][_id] */\n      dup2\n      mstore\n      0x20\n      add\n      swap1\n      dup2\n      mstore\n      0x20\n      add\n      0x00\n      keccak256\n        /* \"contracts/EasyStaking.sol\":23900:23952  balances[_user][_id] = currentBalance.add(userShare) */\n      dup2\n      swap1\n      sstore\n      pop\n        /* \"contracts/EasyStaking.sol\":23980:24006  totalStaked.add(userShare) */\n      tag_508\n        /* \"contracts/EasyStaking.sol\":23996:24005  userShare */\n      dup3\n        /* \"contracts/EasyStaking.sol\":23980:23991  totalStaked */\n      sload(0xb0)\n        /* \"contracts/EasyStaking.sol\":23980:23995  totalStaked.add */\n      tag_182\n      swap1\n        /* \"contracts/EasyStaking.sol\":23980:24006  totalStaked.add(userShare) */\n      swap2\n      swap1\n      0xffffffff\n      and\n      jump\t// in\n    tag_508:\n        /* \"contracts/EasyStaking.sol\":23966:23977  totalStaked */\n      0xb0\n        /* \"contracts/EasyStaking.sol\":23966:24006  totalStaked = totalStaked.add(userShare) */\n      dup2\n      swap1\n      sstore\n      pop\n        /* \"contracts/EasyStaking.sol\":24028:24033  token */\n      0x99\n      0x00\n      swap1\n      sload\n      swap1\n      0x0100\n      exp\n      swap1\n      div\n      0xffffffffffffffffffffffffffffffffffffffff\n      and\n        /* \"contracts/EasyStaking.sol\":24028:24042  token.transfer */\n      0xffffffffffffffffffffffffffffffffffffffff\n      and\n      0xa9059cbb\n        /* \"contracts/EasyStaking.sol\":24043:24076  liquidityProvidersRewardAddress() */\n      tag_509\n        /* \"contracts/EasyStaking.sol\":24043:24074  liquidityProvidersRewardAddress */\n      tag_146\n        /* \"contracts/EasyStaking.sol\":24043:24076  liquidityProvidersRewardAddress() */\n      jump\t// in\n    tag_509:\n        /* \"contracts/EasyStaking.sol\":24078:24098  total.sub(userShare) */\n      tag_510\n        /* \"contracts/EasyStaking.sol\":24088:24097  userShare */\n      dup6\n        /* \"contracts/EasyStaking.sol\":24078:24083  total */\n      dup8\n        /* \"contracts/EasyStaking.sol\":24078:24087  total.sub */\n      tag_175\n      swap1\n        /* \"contracts/EasyStaking.sol\":24078:24098  total.sub(userShare) */\n      swap2\n      swap1\n      0xffffffff\n      and\n      jump\t// in\n    tag_510:\n        /* \"contracts/EasyStaking.sol\":24028:24099  token.transfer(liquidityProvidersRewardAddress(), total.sub(userShare)) */\n      mload(0x40)\n      dup4\n      0xffffffff\n      and\n      0xe0\n      shl\n      dup2\n      mstore\n      0x04\n      add\n      dup1\n      dup4\n      0xffffffffffffffffffffffffffffffffffffffff\n      and\n      0xffffffffffffffffffffffffffffffffffffffff\n      and\n      dup2\n      mstore\n      0x20\n      add\n      dup3\n      dup2\n      mstore\n      0x20\n      add\n      swap3\n      pop\n      pop\n      pop\n      0x20\n      mload(0x40)\n      dup1\n      dup4\n      sub\n      dup2\n      0x00\n      dup8\n      dup1\n      extcodesize\n      iszero\n        /* \"--CODEGEN--\":8:17   */\n      dup1\n        /* \"--CODEGEN--\":5:7   */\n      iszero\n      tag_511\n      jumpi\n        /* \"--CODEGEN--\":30:31   */\n      0x00\n        /* \"--CODEGEN--\":27:28   */\n      dup1\n        /* \"--CODEGEN--\":20:32   */\n      revert\n        /* \"--CODEGEN--\":5:7   */\n    tag_511:\n        /* \"contracts/EasyStaking.sol\":24028:24099  token.transfer(liquidityProvidersRewardAddress(), total.sub(userShare)) */\n      pop\n      gas\n      call\n      iszero\n        /* \"--CODEGEN--\":8:17   */\n      dup1\n        /* \"--CODEGEN--\":5:7   */\n      iszero\n      tag_512\n      jumpi\n        /* \"--CODEGEN--\":45:61   */\n      returndatasize\n        /* \"--CODEGEN--\":42:43   */\n      0x00\n        /* \"--CODEGEN--\":39:40   */\n      dup1\n        /* \"--CODEGEN--\":24:62   */\n      returndatacopy\n        /* \"--CODEGEN--\":77:93   */\n      returndatasize\n        /* \"--CODEGEN--\":74:75   */\n      0x00\n        /* \"--CODEGEN--\":67:94   */\n      revert\n        /* \"--CODEGEN--\":5:7   */\n    tag_512:\n        /* \"contracts/EasyStaking.sol\":24028:24099  token.transfer(liquidityProvidersRewardAddress(), total.sub(userShare)) */\n      pop\n      pop\n      pop\n      pop\n      mload(0x40)\n      returndatasize\n        /* \"--CODEGEN--\":13:15   */\n      0x20\n        /* \"--CODEGEN--\":8:11   */\n      dup2\n        /* \"--CODEGEN--\":5:16   */\n      lt\n        /* \"--CODEGEN--\":2:4   */\n      iszero\n      tag_513\n      jumpi\n        /* \"--CODEGEN--\":29:30   */\n      0x00\n        /* \"--CODEGEN--\":26:27   */\n      dup1\n        /* \"--CODEGEN--\":19:31   */\n      revert\n        /* \"--CODEGEN--\":2:4   */\n    tag_513:\n        /* \"contracts/EasyStaking.sol\":24028:24099  token.transfer(liquidityProvidersRewardAddress(), total.sub(userShare)) */\n      dup2\n      add\n      swap1\n      dup1\n      dup1\n      mload\n      swap1\n      0x20\n      add\n      swap1\n      swap3\n      swap2\n      swap1\n      pop\n      pop\n      pop\n        /* \"contracts/EasyStaking.sol\":24020:24119  require(token.transfer(liquidityProvidersRewardAddress(), total.sub(userShare)), \"transfer failed\") */\n      tag_514\n      jumpi\n      mload(0x40)\n      0x08c379a000000000000000000000000000000000000000000000000000000000\n      dup2\n      mstore\n      0x04\n      add\n      dup1\n      dup1\n      0x20\n      add\n      dup3\n      dup2\n      sub\n      dup3\n      mstore\n      0x0f\n      dup2\n      mstore\n      0x20\n      add\n      dup1\n      0x7472616e73666572206661696c65640000000000000000000000000000000000\n      dup2\n      mstore\n      pop\n      0x20\n      add\n      swap2\n      pop\n      pop\n      mload(0x40)\n      dup1\n      swap2\n      sub\n      swap1\n      revert\n    tag_514:\n        /* \"contracts/EasyStaking.sol\":23871:24130  if (total > 0) {... */\n    tag_506:\n        /* \"contracts/EasyStaking.sol\":24147:24156  userShare */\n      dup2\n        /* \"contracts/EasyStaking.sol\":24158:24168  timePassed */\n      dup2\n        /* \"contracts/EasyStaking.sol\":24139:24169  return (userShare, timePassed) */\n      swap7\n      pop\n      swap7\n      pop\n      pop\n      pop\n      pop\n      pop\n      pop\n        /* \"contracts/EasyStaking.sol\":23525:24176  function _mint(address _user, uint256 _id, uint256 _amount) internal returns (uint256, uint256) {... */\n      swap4\n      pop\n      swap4\n      swap2\n      pop\n      pop\n      jump\t// out\n        /* \"@openzeppelin/contracts-ethereum-package/contracts/math/SafeMath.sol\":3718:4056  function div(uint256 a, uint256 b, string memory errorMessage) internal pure returns (uint256) {... */\n    tag_439:\n        /* \"@openzeppelin/contracts-ethereum-package/contracts/math/SafeMath.sol\":3804:3811  uint256 */\n      0x00\n        /* \"@openzeppelin/contracts-ethereum-package/contracts/math/SafeMath.sol\":3901:3902  0 */\n      dup1\n        /* \"@openzeppelin/contracts-ethereum-package/contracts/math/SafeMath.sol\":3897:3898  b */\n      dup4\n        /* \"@openzeppelin/contracts-ethereum-package/contracts/math/SafeMath.sol\":3897:3902  b > 0 */\n      gt\n        /* \"@openzeppelin/contracts-ethereum-package/contracts/math/SafeMath.sol\":3904:3916  errorMessage */\n      dup3\n        /* \"@openzeppelin/contracts-ethereum-package/contracts/math/SafeMath.sol\":3889:3917  require(b > 0, errorMessage) */\n      swap1\n      tag_516\n      jumpi\n      mload(0x40)\n      0x08c379a000000000000000000000000000000000000000000000000000000000\n      dup2\n      mstore\n      0x04\n      add\n      dup1\n      dup1\n      0x20\n      add\n      dup3\n      dup2\n      sub\n      dup3\n      mstore\n      dup4\n      dup2\n      dup2\n      mload\n      dup2\n      mstore\n      0x20\n      add\n      swap2\n      pop\n      dup1\n      mload\n      swap1\n      0x20\n      add\n      swap1\n      dup1\n      dup4\n      dup4\n        /* \"--CODEGEN--\":23:24   */\n      0x00\n        /* \"--CODEGEN--\":8:108   */\n    tag_517:\n        /* \"--CODEGEN--\":33:36   */\n      dup4\n        /* \"--CODEGEN--\":30:31   */\n      dup2\n        /* \"--CODEGEN--\":27:37   */\n      lt\n        /* \"--CODEGEN--\":8:108   */\n      iszero\n      tag_519\n      jumpi\n        /* \"--CODEGEN--\":99:100   */\n      dup1\n        /* \"--CODEGEN--\":94:97   */\n      dup3\n        /* \"--CODEGEN--\":90:101   */\n      add\n        /* \"--CODEGEN--\":84:102   */\n      mload\n        /* \"--CODEGEN--\":80:81   */\n      dup2\n        /* \"--CODEGEN--\":75:78   */\n      dup5\n        /* \"--CODEGEN--\":71:82   */\n      add\n        /* \"--CODEGEN--\":64:103   */\n      mstore\n        /* \"--CODEGEN--\":52:54   */\n      0x20\n        /* \"--CODEGEN--\":49:50   */\n      dup2\n        /* \"--CODEGEN--\":45:55   */\n      add\n        /* \"--CODEGEN--\":40:55   */\n      swap1\n      pop\n        /* \"--CODEGEN--\":8:108   */\n      jump(tag_517)\n    tag_519:\n        /* \"--CODEGEN--\":12:26   */\n      pop\n        /* \"@openzeppelin/contracts-ethereum-package/contracts/math/SafeMath.sol\":3889:3917  require(b > 0, errorMessage) */\n      pop\n      pop\n      pop\n      swap1\n      pop\n      swap1\n      dup2\n      add\n      swap1\n      0x1f\n      and\n      dup1\n      iszero\n      tag_520\n      jumpi\n      dup1\n      dup3\n      sub\n      dup1\n      mload\n      0x01\n      dup4\n      0x20\n      sub\n      0x0100\n      exp\n      sub\n      not\n      and\n      dup2\n      mstore\n      0x20\n      add\n      swap2\n      pop\n    tag_520:\n      pop\n      swap3\n      pop\n      pop\n      pop\n      mload(0x40)\n      dup1\n      swap2\n      sub\n      swap1\n      revert\n    tag_516:\n      pop\n        /* \"@openzeppelin/contracts-ethereum-package/contracts/math/SafeMath.sol\":3927:3936  uint256 c */\n      0x00\n        /* \"@openzeppelin/contracts-ethereum-package/contracts/math/SafeMath.sol\":3943:3944  b */\n      dup4\n        /* \"@openzeppelin/contracts-ethereum-package/contracts/math/SafeMath.sol\":3939:3940  a */\n      dup6\n        /* \"@openzeppelin/contracts-ethereum-package/contracts/math/SafeMath.sol\":3939:3944  a / b */\n      dup2\n      tag_521\n      jumpi\n      invalid\n    tag_521:\n      div\n        /* \"@openzeppelin/contracts-ethereum-package/contracts/math/SafeMath.sol\":3927:3944  uint256 c = a / b */\n      swap1\n      pop\n        /* \"@openzeppelin/contracts-ethereum-package/contracts/math/SafeMath.sol\":4048:4049  c */\n      dup1\n        /* \"@openzeppelin/contracts-ethereum-package/contracts/math/SafeMath.sol\":4041:4049  return c */\n      swap2\n      pop\n      pop\n        /* \"@openzeppelin/contracts-ethereum-package/contracts/math/SafeMath.sol\":3718:4056  function div(uint256 a, uint256 b, string memory errorMessage) internal pure returns (uint256) {... */\n      swap4\n      swap3\n      pop\n      pop\n      pop\n      jump\t// out\n        /* \"contracts/lib/Sigmoid.sol\":2068:2368  function _now() internal view returns (uint256) {... */\n    tag_443:\n        /* \"contracts/lib/Sigmoid.sol\":2107:2114  uint256 */\n      0x00\n        /* \"contracts/lib/Sigmoid.sol\":2309:2312  now */\n      timestamp\n        /* \"contracts/lib/Sigmoid.sol\":2302:2312  return now */\n      swap1\n      pop\n        /* \"contracts/lib/Sigmoid.sol\":2068:2368  function _now() internal view returns (uint256) {... */\n      swap1\n      jump\t// out\n        /* \"contracts/lib/ExtendedMath.sol\":125:352  function pow2(uint256 a) internal pure returns (uint256) {... */\n    tag_459:\n        /* \"contracts/lib/ExtendedMath.sol\":173:180  uint256 */\n      0x00\n        /* \"contracts/lib/ExtendedMath.sol\":201:202  0 */\n      dup1\n        /* \"contracts/lib/ExtendedMath.sol\":196:197  a */\n      dup3\n        /* \"contracts/lib/ExtendedMath.sol\":196:202  a == 0 */\n      eq\n        /* \"contracts/lib/ExtendedMath.sol\":192:237  if (a == 0) {... */\n      iszero\n      tag_524\n      jumpi\n        /* \"contracts/lib/ExtendedMath.sol\":225:226  0 */\n      0x00\n        /* \"contracts/lib/ExtendedMath.sol\":218:226  return 0 */\n      swap1\n      pop\n      jump(tag_523)\n        /* \"contracts/lib/ExtendedMath.sol\":192:237  if (a == 0) {... */\n    tag_524:\n        /* \"contracts/lib/ExtendedMath.sol\":246:255  uint256 c */\n      0x00\n        /* \"contracts/lib/ExtendedMath.sol\":262:263  a */\n      dup3\n        /* \"contracts/lib/ExtendedMath.sol\":258:259  a */\n      dup4\n        /* \"contracts/lib/ExtendedMath.sol\":258:263  a * a */\n      mul\n        /* \"contracts/lib/ExtendedMath.sol\":246:263  uint256 c = a * a */\n      swap1\n      pop\n        /* \"contracts/lib/ExtendedMath.sol\":290:291  a */\n      dup3\n        /* \"contracts/lib/ExtendedMath.sol\":285:286  a */\n      dup4\n        /* \"contracts/lib/ExtendedMath.sol\":281:282  c */\n      dup3\n        /* \"contracts/lib/ExtendedMath.sol\":281:286  c / a */\n      dup2\n      tag_525\n      jumpi\n      invalid\n    tag_525:\n      div\n        /* \"contracts/lib/ExtendedMath.sol\":281:291  c / a == a */\n      eq\n        /* \"contracts/lib/ExtendedMath.sol\":273:327  require(c / a == a, \"ExtendedMath: squaring overflow\") */\n      tag_526\n      jumpi\n      mload(0x40)\n      0x08c379a000000000000000000000000000000000000000000000000000000000\n      dup2\n      mstore\n      0x04\n      add\n      dup1\n      dup1\n      0x20\n      add\n      dup3\n      dup2\n      sub\n      dup3\n      mstore\n      0x1f\n      dup2\n      mstore\n      0x20\n      add\n      dup1\n      0x457874656e6465644d6174683a207371756172696e67206f766572666c6f7700\n      dup2\n      mstore\n      pop\n      0x20\n      add\n      swap2\n      pop\n      pop\n      mload(0x40)\n      dup1\n      swap2\n      sub\n      swap1\n      revert\n    tag_526:\n        /* \"contracts/lib/ExtendedMath.sol\":344:345  c */\n      dup1\n        /* \"contracts/lib/ExtendedMath.sol\":337:345  return c */\n      swap2\n      pop\n      pop\n        /* \"contracts/lib/ExtendedMath.sol\":125:352  function pow2(uint256 a) internal pure returns (uint256) {... */\n    tag_523:\n      swap2\n      swap1\n      pop\n      jump\t// out\n        /* \"contracts/lib/ExtendedMath.sol\":425:717  function sqrt(uint y) internal pure returns (uint z) {... */\n    tag_460:\n        /* \"contracts/lib/ExtendedMath.sol\":470:476  uint z */\n      0x00\n        /* \"contracts/lib/ExtendedMath.sol\":496:497  3 */\n      0x03\n        /* \"contracts/lib/ExtendedMath.sol\":492:493  y */\n      dup3\n        /* \"contracts/lib/ExtendedMath.sol\":492:497  y > 3 */\n      gt\n        /* \"contracts/lib/ExtendedMath.sol\":488:711  if (y > 3) {... */\n      iszero\n      tag_528\n      jumpi\n        /* \"contracts/lib/ExtendedMath.sol\":517:518  y */\n      dup2\n        /* \"contracts/lib/ExtendedMath.sol\":513:518  z = y */\n      swap1\n      pop\n        /* \"contracts/lib/ExtendedMath.sol\":532:538  uint x */\n      0x00\n        /* \"contracts/lib/ExtendedMath.sol\":549:550  1 */\n      0x01\n        /* \"contracts/lib/ExtendedMath.sol\":545:546  2 */\n      0x02\n        /* \"contracts/lib/ExtendedMath.sol\":541:542  y */\n      dup5\n        /* \"contracts/lib/ExtendedMath.sol\":541:546  y / 2 */\n      dup2\n      tag_529\n      jumpi\n      invalid\n    tag_529:\n      div\n        /* \"contracts/lib/ExtendedMath.sol\":541:550  y / 2 + 1 */\n      add\n        /* \"contracts/lib/ExtendedMath.sol\":532:550  uint x = y / 2 + 1 */\n      swap1\n      pop\n        /* \"contracts/lib/ExtendedMath.sol\":564:653  while (x < z) {... */\n    tag_530:\n        /* \"contracts/lib/ExtendedMath.sol\":575:576  z */\n      dup2\n        /* \"contracts/lib/ExtendedMath.sol\":571:572  x */\n      dup2\n        /* \"contracts/lib/ExtendedMath.sol\":571:576  x < z */\n      lt\n        /* \"contracts/lib/ExtendedMath.sol\":564:653  while (x < z) {... */\n      iszero\n      tag_531\n      jumpi\n        /* \"contracts/lib/ExtendedMath.sol\":600:601  x */\n      dup1\n        /* \"contracts/lib/ExtendedMath.sol\":596:601  z = x */\n      swap2\n      pop\n        /* \"contracts/lib/ExtendedMath.sol\":637:638  2 */\n      0x02\n        /* \"contracts/lib/ExtendedMath.sol\":632:633  x */\n      dup2\n        /* \"contracts/lib/ExtendedMath.sol\":628:629  x */\n      dup3\n        /* \"contracts/lib/ExtendedMath.sol\":624:625  y */\n      dup6\n        /* \"contracts/lib/ExtendedMath.sol\":624:629  y / x */\n      dup2\n      tag_532\n      jumpi\n      invalid\n    tag_532:\n      div\n        /* \"contracts/lib/ExtendedMath.sol\":624:633  y / x + x */\n      add\n        /* \"contracts/lib/ExtendedMath.sol\":623:638  (y / x + x) / 2 */\n      dup2\n      tag_533\n      jumpi\n      invalid\n    tag_533:\n      div\n        /* \"contracts/lib/ExtendedMath.sol\":619:638  x = (y / x + x) / 2 */\n      swap1\n      pop\n        /* \"contracts/lib/ExtendedMath.sol\":564:653  while (x < z) {... */\n      jump(tag_530)\n    tag_531:\n        /* \"contracts/lib/ExtendedMath.sol\":488:711  if (y > 3) {... */\n      pop\n      jump(tag_534)\n    tag_528:\n        /* \"contracts/lib/ExtendedMath.sol\":678:679  0 */\n      0x00\n        /* \"contracts/lib/ExtendedMath.sol\":673:674  y */\n      dup3\n        /* \"contracts/lib/ExtendedMath.sol\":673:679  y != 0 */\n      eq\n        /* \"contracts/lib/ExtendedMath.sol\":669:711  if (y != 0) {... */\n      tag_535\n      jumpi\n        /* \"contracts/lib/ExtendedMath.sol\":699:700  1 */\n      0x01\n        /* \"contracts/lib/ExtendedMath.sol\":695:700  z = 1 */\n      swap1\n      pop\n        /* \"contracts/lib/ExtendedMath.sol\":669:711  if (y != 0) {... */\n    tag_535:\n        /* \"contracts/lib/ExtendedMath.sol\":488:711  if (y > 3) {... */\n    tag_534:\n        /* \"contracts/lib/ExtendedMath.sol\":425:717  function sqrt(uint y) internal pure returns (uint z) {... */\n      swap2\n      swap1\n      pop\n      jump\t// out\n        /* \"@openzeppelin/contracts-ethereum-package/contracts/token/ERC20/SafeERC20.sol\":2666:3761  function callOptionalReturn(IERC20 token, bytes memory data) private {... */\n    tag_475:\n        /* \"@openzeppelin/contracts-ethereum-package/contracts/token/ERC20/SafeERC20.sol\":3261:3288  address(token).isContract() */\n      tag_537\n        /* \"@openzeppelin/contracts-ethereum-package/contracts/token/ERC20/SafeERC20.sol\":3269:3274  token */\n      dup3\n        /* \"@openzeppelin/contracts-ethereum-package/contracts/token/ERC20/SafeERC20.sol\":3261:3286  address(token).isContract */\n      0xffffffffffffffffffffffffffffffffffffffff\n      and\n      tag_350\n        /* \"@openzeppelin/contracts-ethereum-package/contracts/token/ERC20/SafeERC20.sol\":3261:3288  address(token).isContract() */\n      jump\t// in\n    tag_537:\n        /* \"@openzeppelin/contracts-ethereum-package/contracts/token/ERC20/SafeERC20.sol\":3253:3324  require(address(token).isContract(), \"SafeERC20: call to non-contract\") */\n      tag_538\n      jumpi\n      mload(0x40)\n      0x08c379a000000000000000000000000000000000000000000000000000000000\n      dup2\n      mstore\n      0x04\n      add\n      dup1\n      dup1\n      0x20\n      add\n      dup3\n      dup2\n      sub\n      dup3\n      mstore\n      0x1f\n      dup2\n      mstore\n      0x20\n      add\n      dup1\n      0x5361666545524332303a2063616c6c20746f206e6f6e2d636f6e747261637400\n      dup2\n      mstore\n      pop\n      0x20\n      add\n      swap2\n      pop\n      pop\n      mload(0x40)\n      dup1\n      swap2\n      sub\n      swap1\n      revert\n    tag_538:\n        /* \"@openzeppelin/contracts-ethereum-package/contracts/token/ERC20/SafeERC20.sol\":3395:3407  bool success */\n      0x00\n        /* \"@openzeppelin/contracts-ethereum-package/contracts/token/ERC20/SafeERC20.sol\":3409:3432  bytes memory returndata */\n      0x60\n        /* \"@openzeppelin/contracts-ethereum-package/contracts/token/ERC20/SafeERC20.sol\":3444:3449  token */\n      dup4\n        /* \"@openzeppelin/contracts-ethereum-package/contracts/token/ERC20/SafeERC20.sol\":3436:3455  address(token).call */\n      0xffffffffffffffffffffffffffffffffffffffff\n      and\n        /* \"@openzeppelin/contracts-ethereum-package/contracts/token/ERC20/SafeERC20.sol\":3456:3460  data */\n      dup4\n        /* \"@openzeppelin/contracts-ethereum-package/contracts/token/ERC20/SafeERC20.sol\":3436:3461  address(token).call(data) */\n      mload(0x40)\n      dup1\n      dup3\n      dup1\n      mload\n      swap1\n      0x20\n      add\n      swap1\n      dup1\n      dup4\n      dup4\n        /* \"--CODEGEN--\":36:189   */\n    tag_539:\n        /* \"--CODEGEN--\":66:68   */\n      0x20\n        /* \"--CODEGEN--\":61:64   */\n      dup4\n        /* \"--CODEGEN--\":58:69   */\n      lt\n        /* \"--CODEGEN--\":36:189   */\n      tag_541\n      jumpi\n        /* \"--CODEGEN--\":182:185   */\n      dup1\n        /* \"--CODEGEN--\":176:186   */\n      mload\n        /* \"--CODEGEN--\":171:174   */\n      dup3\n        /* \"--CODEGEN--\":164:187   */\n      mstore\n        /* \"--CODEGEN--\":98:100   */\n      0x20\n        /* \"--CODEGEN--\":93:96   */\n      dup3\n        /* \"--CODEGEN--\":89:101   */\n      add\n        /* \"--CODEGEN--\":82:101   */\n      swap2\n      pop\n        /* \"--CODEGEN--\":123:125   */\n      0x20\n        /* \"--CODEGEN--\":118:121   */\n      dup2\n        /* \"--CODEGEN--\":114:126   */\n      add\n        /* \"--CODEGEN--\":107:126   */\n      swap1\n      pop\n        /* \"--CODEGEN--\":148:150   */\n      0x20\n        /* \"--CODEGEN--\":143:146   */\n      dup4\n        /* \"--CODEGEN--\":139:151   */\n      sub\n        /* \"--CODEGEN--\":132:151   */\n      swap3\n      pop\n        /* \"--CODEGEN--\":36:189   */\n      jump(tag_539)\n    tag_541:\n        /* \"--CODEGEN--\":274:275   */\n      0x01\n        /* \"--CODEGEN--\":267:270   */\n      dup4\n        /* \"--CODEGEN--\":263:265   */\n      0x20\n        /* \"--CODEGEN--\":259:271   */\n      sub\n        /* \"--CODEGEN--\":254:257   */\n      0x0100\n        /* \"--CODEGEN--\":250:272   */\n      exp\n        /* \"--CODEGEN--\":246:276   */\n      sub\n        /* \"--CODEGEN--\":315:319   */\n      dup1\n        /* \"--CODEGEN--\":311:320   */\n      not\n        /* \"--CODEGEN--\":305:308   */\n      dup3\n        /* \"--CODEGEN--\":299:309   */\n      mload\n        /* \"--CODEGEN--\":295:321   */\n      and\n        /* \"--CODEGEN--\":356:360   */\n      dup2\n        /* \"--CODEGEN--\":350:353   */\n      dup5\n        /* \"--CODEGEN--\":344:354   */\n      mload\n        /* \"--CODEGEN--\":340:361   */\n      and\n        /* \"--CODEGEN--\":389:396   */\n      dup1\n        /* \"--CODEGEN--\":380:387   */\n      dup3\n        /* \"--CODEGEN--\":377:397   */\n      or\n        /* \"--CODEGEN--\":372:375   */\n      dup6\n        /* \"--CODEGEN--\":365:398   */\n      mstore\n        /* \"--CODEGEN--\":3:402   */\n      pop\n      pop\n      pop\n        /* \"@openzeppelin/contracts-ethereum-package/contracts/token/ERC20/SafeERC20.sol\":3436:3461  address(token).call(data) */\n      pop\n      pop\n      pop\n      swap1\n      pop\n      add\n      swap2\n      pop\n      pop\n      0x00\n      mload(0x40)\n      dup1\n      dup4\n      sub\n      dup2\n      0x00\n      dup7\n      gas\n      call\n      swap2\n      pop\n      pop\n      returndatasize\n        /* \"--CODEGEN--\":14:15   */\n      dup1\n        /* \"--CODEGEN--\":21:22   */\n      0x00\n        /* \"--CODEGEN--\":16:47   */\n      dup2\n      eq\n      tag_543\n      jumpi\n        /* \"--CODEGEN--\":75:79   */\n      0x40\n        /* \"--CODEGEN--\":69:80   */\n      mload\n        /* \"--CODEGEN--\":64:80   */\n      swap2\n      pop\n        /* \"--CODEGEN--\":144:148   */\n      0x1f\n        /* \"--CODEGEN--\":140:149   */\n      not\n        /* \"--CODEGEN--\":133:137   */\n      0x3f\n        /* \"--CODEGEN--\":115:131   */\n      returndatasize\n        /* \"--CODEGEN--\":111:138   */\n      add\n        /* \"--CODEGEN--\":107:150   */\n      and\n        /* \"--CODEGEN--\":104:105   */\n      dup3\n        /* \"--CODEGEN--\":100:151   */\n      add\n        /* \"--CODEGEN--\":94:98   */\n      0x40\n        /* \"--CODEGEN--\":87:152   */\n      mstore\n        /* \"--CODEGEN--\":169:185   */\n      returndatasize\n        /* \"--CODEGEN--\":166:167   */\n      dup3\n        /* \"--CODEGEN--\":159:186   */\n      mstore\n        /* \"--CODEGEN--\":225:241   */\n      returndatasize\n        /* \"--CODEGEN--\":222:223   */\n      0x00\n        /* \"--CODEGEN--\":215:219   */\n      0x20\n        /* \"--CODEGEN--\":212:213   */\n      dup5\n        /* \"--CODEGEN--\":208:220   */\n      add\n        /* \"--CODEGEN--\":193:242   */\n      returndatacopy\n        /* \"--CODEGEN--\":7:249   */\n      jump(tag_542)\n        /* \"--CODEGEN--\":16:47   */\n    tag_543:\n        /* \"--CODEGEN--\":36:40   */\n      0x60\n        /* \"--CODEGEN--\":31:40   */\n      swap2\n      pop\n        /* \"--CODEGEN--\":7:249   */\n    tag_542:\n      pop\n        /* \"@openzeppelin/contracts-ethereum-package/contracts/token/ERC20/SafeERC20.sol\":3394:3461  (bool success, bytes memory returndata) = address(token).call(data) */\n      swap2\n      pop\n      swap2\n      pop\n        /* \"@openzeppelin/contracts-ethereum-package/contracts/token/ERC20/SafeERC20.sol\":3479:3486  success */\n      dup2\n        /* \"@openzeppelin/contracts-ethereum-package/contracts/token/ERC20/SafeERC20.sol\":3471:3523  require(success, \"SafeERC20: low-level call failed\") */\n      tag_544\n      jumpi\n      mload(0x40)\n      0x08c379a000000000000000000000000000000000000000000000000000000000\n      dup2\n      mstore\n      0x04\n      add\n      dup1\n      dup1\n      0x20\n      add\n      dup3\n      dup2\n      sub\n      dup3\n      mstore\n      0x20\n      dup2\n      mstore\n      0x20\n      add\n      dup1\n      0x5361666545524332303a206c6f772d6c6576656c2063616c6c206661696c6564\n      dup2\n      mstore\n      pop\n      0x20\n      add\n      swap2\n      pop\n      pop\n      mload(0x40)\n      dup1\n      swap2\n      sub\n      swap1\n      revert\n    tag_544:\n        /* \"@openzeppelin/contracts-ethereum-package/contracts/token/ERC20/SafeERC20.sol\":3558:3559  0 */\n      0x00\n        /* \"@openzeppelin/contracts-ethereum-package/contracts/token/ERC20/SafeERC20.sol\":3538:3548  returndata */\n      dup2\n        /* \"@openzeppelin/contracts-ethereum-package/contracts/token/ERC20/SafeERC20.sol\":3538:3555  returndata.length */\n      mload\n        /* \"@openzeppelin/contracts-ethereum-package/contracts/token/ERC20/SafeERC20.sol\":3538:3559  returndata.length > 0 */\n      gt\n        /* \"@openzeppelin/contracts-ethereum-package/contracts/token/ERC20/SafeERC20.sol\":3534:3755  if (returndata.length > 0) { // Return data is optional... */\n      iszero\n      tag_545\n      jumpi\n        /* \"@openzeppelin/contracts-ethereum-package/contracts/token/ERC20/SafeERC20.sol\":3678:3688  returndata */\n      dup1\n        /* \"@openzeppelin/contracts-ethereum-package/contracts/token/ERC20/SafeERC20.sol\":3667:3697  abi.decode(returndata, (bool)) */\n      dup1\n      0x20\n      add\n      swap1\n      mload\n        /* \"--CODEGEN--\":13:15   */\n      0x20\n        /* \"--CODEGEN--\":8:11   */\n      dup2\n        /* \"--CODEGEN--\":5:16   */\n      lt\n        /* \"--CODEGEN--\":2:4   */\n      iszero\n      tag_546\n      jumpi\n        /* \"--CODEGEN--\":29:30   */\n      0x00\n        /* \"--CODEGEN--\":26:27   */\n      dup1\n        /* \"--CODEGEN--\":19:31   */\n      revert\n        /* \"--CODEGEN--\":2:4   */\n    tag_546:\n        /* \"@openzeppelin/contracts-ethereum-package/contracts/token/ERC20/SafeERC20.sol\":3667:3697  abi.decode(returndata, (bool)) */\n      dup2\n      add\n      swap1\n      dup1\n      dup1\n      mload\n      swap1\n      0x20\n      add\n      swap1\n      swap3\n      swap2\n      swap1\n      pop\n      pop\n      pop\n        /* \"@openzeppelin/contracts-ethereum-package/contracts/token/ERC20/SafeERC20.sol\":3659:3744  require(abi.decode(returndata, (bool)), \"SafeERC20: ERC20 operation did not succeed\") */\n      tag_547\n      jumpi\n      mload(0x40)\n      0x08c379a000000000000000000000000000000000000000000000000000000000\n      dup2\n      mstore\n      0x04\n      add\n      dup1\n      dup1\n      0x20\n      add\n      dup3\n      dup2\n      sub\n      dup3\n      mstore\n      0x2a\n      dup2\n      mstore\n      0x20\n      add\n      dup1\n      data_e11ad79d1e4a7f2e5f376964cb99e8e8f7904e3fc16a109f7a7ecb9aa7956dcd\n      0x2a\n      swap2\n      codecopy\n      0x40\n      add\n      swap2\n      pop\n      pop\n      mload(0x40)\n      dup1\n      swap2\n      sub\n      swap1\n      revert\n    tag_547:\n        /* \"@openzeppelin/contracts-ethereum-package/contracts/token/ERC20/SafeERC20.sol\":3534:3755  if (returndata.length > 0) { // Return data is optional... */\n    tag_545:\n        /* \"@openzeppelin/contracts-ethereum-package/contracts/token/ERC20/SafeERC20.sol\":2666:3761  function callOptionalReturn(IERC20 token, bytes memory data) private {... */\n      pop\n      pop\n      pop\n      pop\n      jump\t// out\n        /* \"contracts/EasyStaking.sol\":722:25659  contract EasyStaking is Ownable, ReentrancyGuard {... */\n    tag_303:\n      dataSize(sub_0)\n      dup1\n      dataOffset(sub_0)\n      dup4\n      codecopy\n      add\n      swap1\n      jump\t// out\n    tag_336:\n      mload(0x40)\n      dup1\n      0x60\n      add\n      0x40\n      mstore\n      dup1\n      and(0xffffffffffffffffffffffffffffffffffffffff, 0x00)\n      dup2\n      mstore\n      0x20\n      add\n      and(0xffffffffffffffffffffffffffffffffffffffff, 0x00)\n      dup2\n      mstore\n      0x20\n      add\n      0x00\n      dup2\n      mstore\n      pop\n      swap1\n      jump\t// out\n    stop\n    data_245f15ff17f551913a7a18385165551503906a406f905ac1c2437281a7cd0cfe 4f776e61626c653a206e6577206f776e657220697320746865207a65726f2061646472657373\n    data_335651f95752b5b2f9e6f772a51ea21ec319e6d88b710d1d6b6aed8232257902 6465706f73697420616d6f756e742073686f756c64206265206d6f7265207468616e2030\n    data_4998dfccf9aebf799608e8abb3a4403d6d01bdd7d35c16885304d7b267aa9576 73686f756c64206265206c657373207468616e206f7220657175616c20746f20612068616c66206f6620746865206d6178696d756d20656d697373696f6e2072617465\n    data_9113bb53c2876a3805b2c9242029423fc540a728243ce887ab24c82cf119fba3 536166654d6174683a206d756c7469706c69636174696f6e206f766572666c6f77\n    data_9fbba6c4dcac9134893b633b9564f36435b3f927c1d5fa152c5c14b20cecb1a4 436f6e747261637420696e7374616e63652068617320616c7265616479206265656e20696e697469616c697a6564\n    data_a232e1f8b28a085f31f602663a0343288b51e95e524fa8082d77230266997c5c 63616e206e6f7420776974686472617720647572696e6720696e697469616c206c6f636b20706572696f64\n    data_df908f90cdd1684dfaa27aae3563b8fc031d301853c805a295067181cd132d8d 73686f756c64206265206c657373207468616e206f7220657175616c20746f2031206574686572\n    data_e11ad79d1e4a7f2e5f376964cb99e8e8f7904e3fc16a109f7a7ecb9aa7956dcd 5361666545524332303a204552433230206f7065726174696f6e20646964206e6f742073756363656564\n    data_efcc4c1bf2d1d2579b900a9df600f3c0d822d0a6e5ef236f035bfce4f914ebf5 73686f756c646e27742062652067726561746572207468616e2033302064617973\n\n    sub_0: assembly {\n            /* \"contracts/Sacrifice.sol\":25:148  contract Sacrifice {... */\n          mstore(0x40, 0x80)\n            /* \"contracts/Sacrifice.sol\":50:146  constructor(address payable _recipient) public payable {... */\n          mload(0x40)\n          sub(codesize, bytecodeSize)\n          dup1\n          bytecodeSize\n          dup4\n          codecopy\n          dup2\n          dup2\n          add\n          0x40\n          mstore\n            /* \"--CODEGEN--\":13:15   */\n          0x20\n            /* \"--CODEGEN--\":8:11   */\n          dup2\n            /* \"--CODEGEN--\":5:16   */\n          lt\n            /* \"--CODEGEN--\":2:4   */\n          iszero\n          tag_1\n          jumpi\n            /* \"--CODEGEN--\":29:30   */\n          0x00\n            /* \"--CODEGEN--\":26:27   */\n          dup1\n            /* \"--CODEGEN--\":19:31   */\n          revert\n            /* \"--CODEGEN--\":2:4   */\n        tag_1:\n            /* \"contracts/Sacrifice.sol\":50:146  constructor(address payable _recipient) public payable {... */\n          dup2\n          add\n          swap1\n          dup1\n          dup1\n          mload\n          swap1\n          0x20\n          add\n          swap1\n          swap3\n          swap2\n          swap1\n          pop\n          pop\n          pop\n            /* \"contracts/Sacrifice.sol\":128:138  _recipient */\n          dup1\n            /* \"contracts/Sacrifice.sol\":115:139  selfdestruct(_recipient) */\n          0xffffffffffffffffffffffffffffffffffffffff\n          and\n          selfdestruct\n        stop\n\n        sub_0: assembly {\n                /* \"contracts/Sacrifice.sol\":25:148  contract Sacrifice {... */\n              mstore(0x40, 0x80)\n              0x00\n              dup1\n              revert\n\n            auxdata: 0xa265627a7a72315820fa7381e6703ef56b704590ce5a7a747a56f52dd2b8bfc55043a9a06f8744231c64736f6c63430005100032\n        }\n    }\n\n    auxdata: 0xa265627a7a72315820f91215af907485e3a0a3bccd5f88ab05bcdf2f37f223fe0c77be10eae8e294f364736f6c63430005100032\n}\n",
				"bytecode": {
					"linkReferences": {},
					"object": "60806040526153b5806100136000396000f3fe608060405234801561001057600080fd5b506004361061027f5760003560e01c80638b53ccb31161015c578063c3bd8fd0116100ce578063db51ef9211610087578063db51ef9214610c02578063ddca3f4314610c20578063e0648a2814610c3e578063e2bbb15814610ca0578063f2fde38b14610cd8578063fc0c546a14610d1c5761027f565b8063c3bd8fd0146109a1578063c4d66de8146109f9578063c5401ce314610a3d578063ca75899314610a87578063cbf1304d14610b5c578063d646315114610bbe5761027f565b806397559cdc1161012057806397559cdc146107d25780639ee679e8146107f05780639fc314c81461081e578063a4c0ed361461088c578063b4a86c4814610947578063b6b55f25146109735761027f565b80638b53ccb3146106ae5780638da5cb5b146107105780638df676801461075a5780638f32d59b1461077857806394967fa11461079a5761027f565b80635e9e230d116101f557806374949b6d116101b957806374949b6d146105e057806375fa901b1461060e5780638129fc1c1461063a578063817b1cd2146106445780638235c37814610662578063868867b5146106805761027f565b80635e9e230d1461050457806360c251c11461053057806360d4ffb01461054e57806369fe0e2d146105a8578063715018a6146105d65761027f565b8063294a5b0411610247578063294a5b04146104005780632c3144da14610442578063416829901461046e578063436cc3d61461049c57806347e318de146104ba578063522ea5e2146104e65761027f565b806303d6d343146102845780630e559215146102b0578063181943591461031657806318cca7a61461039a578063224313fa146103d2575b600080fd5b61028c610d66565b60405180848152602001838152602001828152602001935050505060405180910390f35b6102fc600480360360408110156102c657600080fd5b81019080803573ffffffffffffffffffffffffffffffffffffffff16906020019092919080359060200190929190505050610d7e565b604051808215151515815260200191505060405180910390f35b61031e610e01565b604051808473ffffffffffffffffffffffffffffffffffffffff1673ffffffffffffffffffffffffffffffffffffffff1681526020018373ffffffffffffffffffffffffffffffffffffffff1673ffffffffffffffffffffffffffffffffffffffff168152602001828152602001935050505060405180910390f35b6103d0600480360360408110156103b057600080fd5b810190808035906020019092919080359060200190929190505050610e59565b005b6103fe600480360360208110156103e857600080fd5b81019080803590602001909291905050506110bc565b005b6104406004803603606081101561041657600080fd5b8101908080359060200190929190803590602001909291908035906020019092919050505061120b565b005b61044a611391565b60405180848152602001838152602001828152602001935050505060405180910390f35b61049a6004803603602081101561048457600080fd5b81019080803590602001909291905050506113a9565b005b6104a46114fd565b6040518082815260200191505060405180910390f35b6104c2611509565b60405180848152602001838152602001828152602001935050505060405180910390f35b6104ee611521565b6040518082815260200191505060405180910390f35b61050c61155b565b60405180848152602001838152602001828152602001935050505060405180910390f35b610538611573565b6040518082815260200191505060405180910390f35b6105846004803603604081101561056457600080fd5b8101908080359060200190929190803590602001909291905050506115ad565b60405180848152602001838152602001828152602001935050505060405180910390f35b6105d4600480360360208110156105be57600080fd5b8101908080359060200190929190505050611720565b005b6105de611813565b005b61060c600480360360208110156105f657600080fd5b810190808035906020019092919050505061194e565b005b610616611a41565b60405180848152602001838152602001828152602001935050505060405180910390f35b610642611a5b565b005b61064c611b62565b6040518082815260200191505060405180910390f35b61066a611b68565b6040518082815260200191505060405180910390f35b6106ac6004803603602081101561069657600080fd5b8101908080359060200190929190505050611cc7565b005b6106fa600480360360408110156106c457600080fd5b81019080803573ffffffffffffffffffffffffffffffffffffffff16906020019092919080359060200190929190505050611e32565b6040518082815260200191505060405180910390f35b610718611e57565b604051808273ffffffffffffffffffffffffffffffffffffffff1673ffffffffffffffffffffffffffffffffffffffff16815260200191505060405180910390f35b610762611e81565b6040518082815260200191505060405180910390f35b610780611ebb565b604051808215151515815260200191505060405180910390f35b6107d0600480360360408110156107b057600080fd5b810190808035906020019092919080359060200190929190505050611f1a565b005b6107da611f2b565b6040518082815260200191505060405180910390f35b61081c6004803603602081101561080657600080fd5b8101908080359060200190929190505050611f65565b005b61088a6004803603606081101561083457600080fd5b81019080803573ffffffffffffffffffffffffffffffffffffffff169060200190929190803573ffffffffffffffffffffffffffffffffffffffff169060200190929190803590602001909291905050506120c9565b005b61092d600480360360608110156108a257600080fd5b81019080803573ffffffffffffffffffffffffffffffffffffffff16906020019092919080359060200190929190803590602001906401000000008111156108e957600080fd5b8201836020820111156108fb57600080fd5b8035906020019184600183028401116401000000008311171561091d57600080fd5b90919293919293905050506126bd565b604051808215151515815260200191505060405180910390f35b61094f6127f9565b60405180848152602001838152602001828152602001935050505060405180910390f35b61099f6004803603602081101561098957600080fd5b8101908080359060200190929190505050612811565b005b6109e3600480360360208110156109b757600080fd5b81019080803573ffffffffffffffffffffffffffffffffffffffff169060200190929190505050612869565b6040518082815260200191505060405180910390f35b610a3b60048036036020811015610a0f57600080fd5b81019080803573ffffffffffffffffffffffffffffffffffffffff169060200190929190505050612881565b005b610a45612a3f565b604051808273ffffffffffffffffffffffffffffffffffffffff1673ffffffffffffffffffffffffffffffffffffffff16815260200191505060405180910390f35b610b5a6004803603610160811015610a9e57600080fd5b81019080803573ffffffffffffffffffffffffffffffffffffffff169060200190929190803573ffffffffffffffffffffffffffffffffffffffff169060200190929190803573ffffffffffffffffffffffffffffffffffffffff1690602001909291908035906020019092919080359060200190929190803590602001909291908035906020019092919080359060200190929190803590602001909291908035906020019092919080359060200190929190505050612b35565b005b610ba860048036036040811015610b7257600080fd5b81019080803573ffffffffffffffffffffffffffffffffffffffff16906020019092919080359060200190929190505050612e0f565b6040518082815260200191505060405180910390f35b610c0060048036036020811015610bd457600080fd5b81019080803573ffffffffffffffffffffffffffffffffffffffff169060200190929190505050612e34565b005b610c0a6132dc565b6040518082815260200191505060405180910390f35b610c286132e3565b6040518082815260200191505060405180910390f35b610c8a60048036036040811015610c5457600080fd5b81019080803573ffffffffffffffffffffffffffffffffffffffff1690602001909291908035906020019092919050505061331d565b6040518082815260200191505060405180910390f35b610cd660048036036040811015610cb657600080fd5b810190808035906020019092919080359060200190929190505050613342565b005b610d1a60048036036020811015610cee57600080fd5b81019080803573ffffffffffffffffffffffffffffffffffffffff1690602001909291905050506135b0565b005b610d24613636565b604051808273ffffffffffffffffffffffffffffffffffffffff1673ffffffffffffffffffffffffffffffffffffffff16815260200191505060405180910390f35b60a68060000154908060010154908060020154905083565b600080610deb60ad60008673ffffffffffffffffffffffffffffffffffffffff1673ffffffffffffffffffffffffffffffffffffffff168152602001908152602001600020600085815260200190815260200160002054610ddd61365c565b61366490919063ffffffff16565b9050610df5611f2b565b81101591505092915050565b609a8060000160009054906101000a900473ffffffffffffffffffffffffffffffffffffffff16908060010160009054906101000a900473ffffffffffffffffffffffffffffffffffffffff16908060020154905083565b600060ae60003373ffffffffffffffffffffffffffffffffffffffff1673ffffffffffffffffffffffffffffffffffffffff168152602001908152602001600020600084815260200190815260200160002054905060008111610f24576040517f08c379a000000000000000000000000000000000000000000000000000000000815260040180806020018281038252601b8152602001807f7769746864726177616c207761736e277420726571756573746564000000000081525060200191505060405180910390fd5b6000610f2e61365c565b90506000610f4c610f3d611573565b846136ae90919063ffffffff16565b905080821015610fc4576040517f08c379a00000000000000000000000000000000000000000000000000000000081526004018080602001828103825260098152602001807f746f6f206561726c79000000000000000000000000000000000000000000000081525060200191505060405180910390fd5b610fde610fcf611e81565b826136ae90919063ffffffff16565b8210611052576040517f08c379a00000000000000000000000000000000000000000000000000000000081526004018080602001828103825260088152602001807f746f6f206c61746500000000000000000000000000000000000000000000000081525060200191505060405180910390fd5b600060ae60003373ffffffffffffffffffffffffffffffffffffffff1673ffffffffffffffffffffffffffffffffffffffff1681526020019081526020016000206000878152602001908152602001600020819055506110b53386866000613736565b5050505050565b6110c4611ebb565b611136576040517f08c379a00000000000000000000000000000000000000000000000000000000081526004018080602001828103825260208152602001807f4f776e61626c653a2063616c6c6572206973206e6f7420746865206f776e657281525060200191505060405180910390fd5b62278d00811115611192576040517f08c379a00000000000000000000000000000000000000000000000000000000081526004018080602001828103825260218152602001806153606021913960400191505060405180910390fd5b61119d60a082613fe4565b7fb1effbb8dc5cfa97751137110a061198891986f1567677e11ec9449743180f748133604051808381526020018273ffffffffffffffffffffffffffffffffffffffff1673ffffffffffffffffffffffffffffffffffffffff1681526020019250505060405180910390a150565b611213611ebb565b611285576040517f08c379a00000000000000000000000000000000000000000000000000000000081526004018080602001828103825260208152602001807f4f776e61626c653a2063616c6c6572206973206e6f7420746865206f776e657281525060200191505060405180910390fd5b6112a16002670214e8348c4f000061403d90919063ffffffff16565b8311156112f9576040517f08c379a00000000000000000000000000000000000000000000000000000000081526004018080602001828103825260438152602001806152526043913960600191505060405180910390fd5b61131183838360b2614087909392919063ffffffff16565b7fddf30262673035378258d8aab83a68d6d8b8e45e5510d3b295fcc7cd65c6378a83838333604051808581526020018481526020018381526020018273ffffffffffffffffffffffffffffffffffffffff1673ffffffffffffffffffffffffffffffffffffffff16815260200194505050505060405180910390a1505050565b60a08060000154908060010154908060020154905083565b6113b1611ebb565b611423576040517f08c379a00000000000000000000000000000000000000000000000000000000081526004018080602001828103825260208152602001807f4f776e61626c653a2063616c6c6572206973206e6f7420746865206f776e657281525060200191505060405180910390fd5b670de0b6b3a7640000811115611484576040517f08c379a000000000000000000000000000000000000000000000000000000000815260040180806020018281038252602781526020018061530f6027913960400191505060405180910390fd5b61148f60a982613fe4565b7fb7b23f70fe41cd9debaaa54902f2492c79f94d7582d587844dc12fdc8fc42a2b8133604051808381526020018273ffffffffffffffffffffffffffffffffffffffff1673ffffffffffffffffffffffffffffffffffffffff1681526020019250505060405180910390a150565b670214e8348c4f000081565b609d8060000154908060010154908060020154905083565b600061155660a960405180606001604052908160008201548152602001600182015481526020016002820154815250506141f8565b905090565b60a38060000154908060010154908060020154905083565b60006115a860a060405180606001604052908160008201548152602001600182015481526020016002820154815250506141f8565b905090565b6000806000808414806115c05750600085145b156115de576000806000829250819150809050925092509250611719565b6115f8856115ea61365c565b61366490919063ffffffff16565b9050600081141561161c576000806000829250819150809050925092509250611719565b60006116328260b261422290919063ffffffff16565b905061164e61163f611b68565b826136ae90919063ffffffff16565b9050600081141561166f576000808382925081915093509350935050611719565b670214e8348c4f000081111561168157fe5b6116ce670de0b6b3a76400006301e13380026116c0846116b2670214e8348c4f00008a6142ae90919063ffffffff16565b6142ae90919063ffffffff16565b61403d90919063ffffffff16565b9350611715670de0b6b3a76400006301e1338002611707846116f9858a6142ae90919063ffffffff16565b6142ae90919063ffffffff16565b61403d90919063ffffffff16565b9250505b9250925092565b611728611ebb565b61179a576040517f08c379a00000000000000000000000000000000000000000000000000000000081526004018080602001828103825260208152602001807f4f776e61626c653a2063616c6c6572206973206e6f7420746865206f776e657281525060200191505060405180910390fd5b6117a5609d82613fe4565b7fc8242dc5446855370b781abbfc5d882af1d1a3cc29143216aba3558feb0ce9258133604051808381526020018273ffffffffffffffffffffffffffffffffffffffff1673ffffffffffffffffffffffffffffffffffffffff1681526020019250505060405180910390a150565b61181b611ebb565b61188d576040517f08c379a00000000000000000000000000000000000000000000000000000000081526004018080602001828103825260208152602001807f4f776e61626c653a2063616c6c6572206973206e6f7420746865206f776e657281525060200191505060405180910390fd5b600073ffffffffffffffffffffffffffffffffffffffff16603360009054906101000a900473ffffffffffffffffffffffffffffffffffffffff1673ffffffffffffffffffffffffffffffffffffffff167f8be0079c531659141344cd1fd0a4f28419497f9722a3daafe3b4186f6b6457e060405160405180910390a36000603360006101000a81548173ffffffffffffffffffffffffffffffffffffffff021916908373ffffffffffffffffffffffffffffffffffffffff160217905550565b611956611ebb565b6119c8576040517f08c379a00000000000000000000000000000000000000000000000000000000081526004018080602001828103825260208152602001807f4f776e61626c653a2063616c6c6572206973206e6f7420746865206f776e657281525060200191505060405180910390fd5b6119d360a682613fe4565b7f597b9881536f6a87f60171072e2a2d56c53e5e2c1d72270259008ad4932e61ed8133604051808381526020018273ffffffffffffffffffffffffffffffffffffffff1673ffffffffffffffffffffffffffffffffffffffff1681526020019250505060405180910390a150565b6000806000611a5060b2614334565b925092509250909192565b600060019054906101000a900460ff1680611a7a5750611a796143a8565b5b80611a9157506000809054906101000a900460ff16155b611ae6576040517f08c379a000000000000000000000000000000000000000000000000000000000815260040180806020018281038252602e8152602001806152b6602e913960400191505060405180910390fd5b60008060019054906101000a900460ff161590508015611b36576001600060016101000a81548160ff02191690831515021790555060016000806101000a81548160ff0219169083151502179055505b60016066819055508015611b5f5760008060016101000a81548160ff0219169083151502179055505b50565b60b05481565b600080609960009054906101000a900473ffffffffffffffffffffffffffffffffffffffff1673ffffffffffffffffffffffffffffffffffffffff166318160ddd6040518163ffffffff1660e01b815260040160206040518083038186803b158015611bd357600080fd5b505afa158015611be7573d6000803e3d6000fd5b505050506040513d6020811015611bfd57600080fd5b810190808051906020019092919050505090506000611c1a611521565b90506000811415611c3057600092505050611cc4565b6000611c5f670de0b6b3a7640000611c5184866142ae90919063ffffffff16565b61403d90919063ffffffff16565b90506000611c7f6002670214e8348c4f000061403d90919063ffffffff16565b90508160b05410611c965780945050505050611cc4565b611cbd82611caf60b054846142ae90919063ffffffff16565b61403d90919063ffffffff16565b9450505050505b90565b611ccf611ebb565b611d41576040517f08c379a00000000000000000000000000000000000000000000000000000000081526004018080602001828103825260208152602001807f4f776e61626c653a2063616c6c6572206973206e6f7420746865206f776e657281525060200191505060405180910390fd5b610e10811015611db9576040517f08c379a000000000000000000000000000000000000000000000000000000000815260040180806020018281038252601d8152602001807f73686f756c646e2774206265206c657373207468616e203120686f757200000081525060200191505060405180910390fd5b611dc460a382613fe4565b7f3a963fa1d1d0da205f1ae9869aa14bf4ff7a4585efa819b0c94326b4a3e1e2288133604051808381526020018273ffffffffffffffffffffffffffffffffffffffff1673ffffffffffffffffffffffffffffffffffffffff1681526020019250505060405180910390a150565b60ad602052816000526040600020602052806000526040600020600091509150505481565b6000603360009054906101000a900473ffffffffffffffffffffffffffffffffffffffff16905090565b6000611eb660a360405180606001604052908160008201548152602001600182015481526020016002820154815250506141f8565b905090565b6000603360009054906101000a900473ffffffffffffffffffffffffffffffffffffffff1673ffffffffffffffffffffffffffffffffffffffff16611efe6143bf565b73ffffffffffffffffffffffffffffffffffffffff1614905090565b611f273383836001613736565b5050565b6000611f6060a660405180606001604052908160008201548152602001600182015481526020016002820154815250506141f8565b905090565b600081118015611fb4575060af60003373ffffffffffffffffffffffffffffffffffffffff1673ffffffffffffffffffffffffffffffffffffffff168152602001908152602001600020548111155b612026576040517f08c379a00000000000000000000000000000000000000000000000000000000081526004018080602001828103825260108152602001807f77726f6e67206465706f7369742069640000000000000000000000000000000081525060200191505060405180910390fd5b61202e61365c565b60ae60003373ffffffffffffffffffffffffffffffffffffffff1673ffffffffffffffffffffffffffffffffffffffff168152602001908152602001600020600083815260200190815260200160002081905550803373ffffffffffffffffffffffffffffffffffffffff167fe670e4e82118d22a1f9ee18920455ebc958bae26a90a05d31d3378788b1b0e4460405160405180910390a350565b6120d1611ebb565b612143576040517f08c379a00000000000000000000000000000000000000000000000000000000081526004018080602001828103825260208152602001807f4f776e61626c653a2063616c6c6572206973206e6f7420746865206f776e657281525060200191505060405180910390fd5b600073ffffffffffffffffffffffffffffffffffffffff168273ffffffffffffffffffffffffffffffffffffffff16141580156121ac57503073ffffffffffffffffffffffffffffffffffffffff168273ffffffffffffffffffffffffffffffffffffffff1614155b61221e576040517f08c379a00000000000000000000000000000000000000000000000000000000081526004018080602001828103825260158152602001807f6e6f7420612076616c696420726563697069656e74000000000000000000000081525060200191505060405180910390fd5b60008111612294576040517f08c379a000000000000000000000000000000000000000000000000000000000815260040180806020018281038252601f8152602001807f616d6f756e742073686f756c642062652067726561746572207468616e20300081525060200191505060405180910390fd5b600073ffffffffffffffffffffffffffffffffffffffff168373ffffffffffffffffffffffffffffffffffffffff16141561236b578173ffffffffffffffffffffffffffffffffffffffff166108fc829081150290604051600060405180830381858888f1935050505061236657808260405161231090615160565b808273ffffffffffffffffffffffffffffffffffffffff1673ffffffffffffffffffffffffffffffffffffffff1681526020019150506040518091039082f080158015612361573d6000803e3d6000fd5b509050505b6126b8565b609960009054906101000a900473ffffffffffffffffffffffffffffffffffffffff1673ffffffffffffffffffffffffffffffffffffffff168373ffffffffffffffffffffffffffffffffffffffff1614156126855760006124b160b054609960009054906101000a900473ffffffffffffffffffffffffffffffffffffffff1673ffffffffffffffffffffffffffffffffffffffff166370a08231306040518263ffffffff1660e01b8152600401808273ffffffffffffffffffffffffffffffffffffffff1673ffffffffffffffffffffffffffffffffffffffff16815260200191505060206040518083038186803b15801561246857600080fd5b505afa15801561247c573d6000803e3d6000fd5b505050506040513d602081101561249257600080fd5b810190808051906020019092919050505061366490919063ffffffff16565b905081811015612529576040517f08c379a00000000000000000000000000000000000000000000000000000000081526004018080602001828103825260128152602001807f696e73756666696369656e742066756e6473000000000000000000000000000081525060200191505060405180910390fd5b609960009054906101000a900473ffffffffffffffffffffffffffffffffffffffff1673ffffffffffffffffffffffffffffffffffffffff1663a9059cbb84846040518363ffffffff1660e01b8152600401808373ffffffffffffffffffffffffffffffffffffffff1673ffffffffffffffffffffffffffffffffffffffff16815260200182815260200192505050602060405180830381600087803b1580156125d257600080fd5b505af11580156125e6573d6000803e3d6000fd5b505050506040513d60208110156125fc57600080fd5b810190808051906020019092919050505061267f576040517f08c379a000000000000000000000000000000000000000000000000000000000815260040180806020018281038252600f8152602001807f7472616e73666572206661696c6564000000000000000000000000000000000081525060200191505060405180910390fd5b506126b7565b60008390506126b583838373ffffffffffffffffffffffffffffffffffffffff166143c79092919063ffffffff16565b505b5b505050565b6000609960009054906101000a900473ffffffffffffffffffffffffffffffffffffffff1673ffffffffffffffffffffffffffffffffffffffff163373ffffffffffffffffffffffffffffffffffffffff1614612782576040517f08c379a000000000000000000000000000000000000000000000000000000000815260040180806020018281038252601e8152602001807f6f6e6c7920746f6b656e20636f6e747261637420697320616c6c6f776564000081525060200191505060405180910390fd5b60b160009054906101000a900460ff166127ed576127ec8560af60008873ffffffffffffffffffffffffffffffffffffffff1673ffffffffffffffffffffffffffffffffffffffff1681526020019081526020016000206000815460010191905081905586614498565b5b60019050949350505050565b60a98060000154908060010154908060020154905083565b61286660af60003373ffffffffffffffffffffffffffffffffffffffff1673ffffffffffffffffffffffffffffffffffffffff1681526020019081526020016000206000815460010191905081905582613342565b50565b60af6020528060005260406000206000915090505481565b600060019054906101000a900460ff16806128a0575061289f6143a8565b5b806128b757506000809054906101000a900460ff16155b61290c576040517f08c379a000000000000000000000000000000000000000000000000000000000815260040180806020018281038252602e8152602001806152b6602e913960400191505060405180910390fd5b60008060019054906101000a900460ff16159050801561295c576001600060016101000a81548160ff02191690831515021790555060016000806101000a81548160ff0219169083151502179055505b81603360006101000a81548173ffffffffffffffffffffffffffffffffffffffff021916908373ffffffffffffffffffffffffffffffffffffffff160217905550603360009054906101000a900473ffffffffffffffffffffffffffffffffffffffff1673ffffffffffffffffffffffffffffffffffffffff16600073ffffffffffffffffffffffffffffffffffffffff167f8be0079c531659141344cd1fd0a4f28419497f9722a3daafe3b4186f6b6457e060405160405180910390a38015612a3b5760008060016101000a81548160ff0219169083151502179055505b5050565b6000612a4961516c565b609a6040518060600160405290816000820160009054906101000a900473ffffffffffffffffffffffffffffffffffffffff1673ffffffffffffffffffffffffffffffffffffffff1673ffffffffffffffffffffffffffffffffffffffff1681526020016001820160009054906101000a900473ffffffffffffffffffffffffffffffffffffffff1673ffffffffffffffffffffffffffffffffffffffff1673ffffffffffffffffffffffffffffffffffffffff1681526020016002820154815250509050612b1b81604001516147cf565b612b29578060000151612b2f565b80602001515b91505090565b600060019054906101000a900460ff1680612b545750612b536143a8565b5b80612b6b57506000809054906101000a900460ff16155b612bc0576040517f08c379a000000000000000000000000000000000000000000000000000000000815260040180806020018281038252602e8152602001806152b6602e913960400191505060405180910390fd5b60008060019054906101000a900460ff161590508015612c10576001600060016101000a81548160ff02191690831515021790555060016000806101000a81548160ff0219169083151502179055505b600073ffffffffffffffffffffffffffffffffffffffff168c73ffffffffffffffffffffffffffffffffffffffff161415612cb3576040517f08c379a000000000000000000000000000000000000000000000000000000000815260040180806020018281038252600c8152602001807f7a65726f2061646472657373000000000000000000000000000000000000000081525060200191505060405180910390fd5b612cd28b73ffffffffffffffffffffffffffffffffffffffff166147f7565b612d44576040517f08c379a00000000000000000000000000000000000000000000000000000000081526004018080602001828103825260168152602001807f6e6f74206120636f6e747261637420616464726573730000000000000000000081525060200191505060405180910390fd5b612d4d33612881565b612d55611a5b565b8a609960006101000a81548173ffffffffffffffffffffffffffffffffffffffff021916908373ffffffffffffffffffffffffffffffffffffffff160217905550612d9f89611720565b612da8886110bc565b612db187611cc7565b612dba8661194e565b612dc3856113a9565b612dce84848461120b565b612dd78a612e34565b612de08c6135b0565b8015612e015760008060016101000a81548160ff0219169083151502179055505b505050505050505050505050565b60ac602052816000526040600020602052806000526040600020600091509150505481565b612e3c611ebb565b612eae576040517f08c379a00000000000000000000000000000000000000000000000000000000081526004018080602001828103825260208152602001807f4f776e61626c653a2063616c6c6572206973206e6f7420746865206f776e657281525060200191505060405180910390fd5b600073ffffffffffffffffffffffffffffffffffffffff168173ffffffffffffffffffffffffffffffffffffffff161415612f51576040517f08c379a000000000000000000000000000000000000000000000000000000000815260040180806020018281038252600c8152602001807f7a65726f2061646472657373000000000000000000000000000000000000000081525060200191505060405180910390fd5b3073ffffffffffffffffffffffffffffffffffffffff168173ffffffffffffffffffffffffffffffffffffffff161415612ff3576040517f08c379a000000000000000000000000000000000000000000000000000000000815260040180806020018281038252600d8152602001807f77726f6e6720616464726573730000000000000000000000000000000000000081525060200191505060405180910390fd5b612ffb61516c565b609a6040518060600160405290816000820160009054906101000a900473ffffffffffffffffffffffffffffffffffffffff1673ffffffffffffffffffffffffffffffffffffffff1673ffffffffffffffffffffffffffffffffffffffff1681526020016001820160009054906101000a900473ffffffffffffffffffffffffffffffffffffffff1673ffffffffffffffffffffffffffffffffffffffff1673ffffffffffffffffffffffffffffffffffffffff168152602001600282015481525050905060008160400151141561310a5781816000019073ffffffffffffffffffffffffffffffffffffffff16908173ffffffffffffffffffffffffffffffffffffffff168152505061315a565b61311781604001516147cf565b15613159578060200151816000019073ffffffffffffffffffffffffffffffffffffffff16908173ffffffffffffffffffffffffffffffffffffffff16815250505b5b81816020019073ffffffffffffffffffffffffffffffffffffffff16908173ffffffffffffffffffffffffffffffffffffffff168152505061319a61365c565b81604001818152505080609a60008201518160000160006101000a81548173ffffffffffffffffffffffffffffffffffffffff021916908373ffffffffffffffffffffffffffffffffffffffff16021790555060208201518160010160006101000a81548173ffffffffffffffffffffffffffffffffffffffff021916908373ffffffffffffffffffffffffffffffffffffffff160217905550604082015181600201559050507f26a68c9d9649fb5e7a060a37b211ffd1d9a4fe6eb068bfb33decba647d4ed5398233604051808373ffffffffffffffffffffffffffffffffffffffff1673ffffffffffffffffffffffffffffffffffffffff1681526020018273ffffffffffffffffffffffffffffffffffffffff1673ffffffffffffffffffffffffffffffffffffffff1681526020019250505060405180910390a15050565b62093a8081565b6000613318609d60405180606001604052908160008201548152602001600182015481526020016002820154815250506141f8565b905090565b60ae602052816000526040600020602052806000526040600020600091509150505481565b600082118015613391575060af60003373ffffffffffffffffffffffffffffffffffffffff1673ffffffffffffffffffffffffffffffffffffffff168152602001908152602001600020548211155b613403576040517f08c379a00000000000000000000000000000000000000000000000000000000081526004018080602001828103825260108152602001807f77726f6e67206465706f7369742069640000000000000000000000000000000081525060200191505060405180910390fd5b61340e338383614498565b6134186001614842565b609960009054906101000a900473ffffffffffffffffffffffffffffffffffffffff1673ffffffffffffffffffffffffffffffffffffffff166323b872dd3330846040518463ffffffff1660e01b8152600401808473ffffffffffffffffffffffffffffffffffffffff1673ffffffffffffffffffffffffffffffffffffffff1681526020018373ffffffffffffffffffffffffffffffffffffffff1673ffffffffffffffffffffffffffffffffffffffff1681526020018281526020019350505050602060405180830381600087803b1580156134f557600080fd5b505af1158015613509573d6000803e3d6000fd5b505050506040513d602081101561351f57600080fd5b81019080805190602001909291905050506135a2576040517f08c379a000000000000000000000000000000000000000000000000000000000815260040180806020018281038252600f8152602001807f7472616e73666572206661696c6564000000000000000000000000000000000081525060200191505060405180910390fd5b6135ac6000614842565b5050565b6135b8611ebb565b61362a576040517f08c379a00000000000000000000000000000000000000000000000000000000081526004018080602001828103825260208152602001807f4f776e61626c653a2063616c6c6572206973206e6f7420746865206f776e657281525060200191505060405180910390fd5b6136338161485f565b50565b609960009054906101000a900473ffffffffffffffffffffffffffffffffffffffff1681565b600042905090565b60006136a683836040518060400160405280601e81526020017f536166654d6174683a207375627472616374696f6e206f766572666c6f7700008152506149a5565b905092915050565b60008082840190508381101561372c576040517f08c379a000000000000000000000000000000000000000000000000000000000815260040180806020018281038252601b8152602001807f536166654d6174683a206164646974696f6e206f766572666c6f77000000000081525060200191505060405180910390fd5b8091505092915050565b60016066600082825401925050819055506000606654905060008411801561379d575060af60008673ffffffffffffffffffffffffffffffffffffffff1673ffffffffffffffffffffffffffffffffffffffff168152602001908152602001600020548411155b61380f576040517f08c379a00000000000000000000000000000000000000000000000000000000081526004018080602001828103825260108152602001807f77726f6e67206465706f7369742069640000000000000000000000000000000081525060200191505060405180910390fd5b600060ac60008773ffffffffffffffffffffffffffffffffffffffff1673ffffffffffffffffffffffffffffffffffffffff1681526020019081526020016000206000868152602001908152602001600020541180156138bf57508260ac60008773ffffffffffffffffffffffffffffffffffffffff1673ffffffffffffffffffffffffffffffffffffffff16815260200190815260200160002060008681526020019081526020016000205410155b613931576040517f08c379a00000000000000000000000000000000000000000000000000000000081526004018080602001828103825260128152602001807f696e73756666696369656e742066756e6473000000000000000000000000000081525060200191505060405180910390fd5b61393b8585610d7e565b613990576040517f08c379a000000000000000000000000000000000000000000000000000000000815260040180806020018281038252602b8152602001806152e4602b913960400191505060405180910390fd5b60008061399e878787614a65565b9150915060008086146139c3576139be83876136ae90919063ffffffff16565b613a15565b60ac60008973ffffffffffffffffffffffffffffffffffffffff1673ffffffffffffffffffffffffffffffffffffffff1681526020019081526020016000206000888152602001908152602001600020545b9050613a7a8160ac60008b73ffffffffffffffffffffffffffffffffffffffff1673ffffffffffffffffffffffffffffffffffffffff16815260200190815260200160002060008a81526020019081526020016000205461366490919063ffffffff16565b60ac60008a73ffffffffffffffffffffffffffffffffffffffff1673ffffffffffffffffffffffffffffffffffffffff168152602001908152602001600020600089815260200190815260200160002081905550613ae38160b05461366490919063ffffffff16565b60b081905550600060ac60008a73ffffffffffffffffffffffffffffffffffffffff1673ffffffffffffffffffffffffffffffffffffffff1681526020019081526020016000206000898152602001908152602001600020541415613b9957600060ad60008a73ffffffffffffffffffffffffffffffffffffffff1673ffffffffffffffffffffffffffffffffffffffff1681526020019081526020016000206000898152602001908152602001600020819055505b60008090508515613d4d57613bd8670de0b6b3a7640000613bca613bbb6132e3565b856142ae90919063ffffffff16565b61403d90919063ffffffff16565b9050613bed818361366490919063ffffffff16565b9150609960009054906101000a900473ffffffffffffffffffffffffffffffffffffffff1673ffffffffffffffffffffffffffffffffffffffff1663a9059cbb613c35612a3f565b836040518363ffffffff1660e01b8152600401808373ffffffffffffffffffffffffffffffffffffffff1673ffffffffffffffffffffffffffffffffffffffff16815260200182815260200192505050602060405180830381600087803b158015613c9f57600080fd5b505af1158015613cb3573d6000803e3d6000fd5b505050506040513d6020811015613cc957600080fd5b8101908080519060200190929190505050613d4c576040517f08c379a000000000000000000000000000000000000000000000000000000000815260040180806020018281038252600f8152602001807f7472616e73666572206661696c6564000000000000000000000000000000000081525060200191505060405180910390fd5b5b609960009054906101000a900473ffffffffffffffffffffffffffffffffffffffff1673ffffffffffffffffffffffffffffffffffffffff1663a9059cbb8a846040518363ffffffff1660e01b8152600401808373ffffffffffffffffffffffffffffffffffffffff1673ffffffffffffffffffffffffffffffffffffffff16815260200182815260200192505050602060405180830381600087803b158015613df657600080fd5b505af1158015613e0a573d6000803e3d6000fd5b505050506040513d6020811015613e2057600080fd5b8101908080519060200190929190505050613ea3576040517f08c379a000000000000000000000000000000000000000000000000000000000815260040180806020018281038252600f8152602001807f7472616e73666572206661696c6564000000000000000000000000000000000081525060200191505060405180910390fd5b878973ffffffffffffffffffffffffffffffffffffffff167f6b4651e8f4162f82274a25e57a29f7ed9156d17078e76dd4d05f04ba08831aa4848460ac60008f73ffffffffffffffffffffffffffffffffffffffff1673ffffffffffffffffffffffffffffffffffffffff16815260200190815260200160002060008e8152602001908152602001600020548989604051808681526020018581526020018481526020018381526020018281526020019550505050505060405180910390a3505050506066548114613fdd576040517f08c379a000000000000000000000000000000000000000000000000000000000815260040180806020018281038252601f8152602001807f5265656e7472616e637947756172643a207265656e7472616e742063616c6c0081525060200191505060405180910390fd5b5050505050565b600082600201541415613fff57808260000181905550614020565b61400c82600201546147cf565b1561401f57816001015482600001819055505b5b80826001018190555061403161365c565b82600201819055505050565b600061407f83836040518060400160405280601a81526020017f536166654d6174683a206469766973696f6e206279207a65726f000000000000815250614d43565b905092915050565b60008114156140fe576040517f08c379a00000000000000000000000000000000000000000000000000000000081526004018080602001828103825260188152602001807f73686f756c642062652067726561746572207468616e2030000000000000000081525060200191505060405180910390fd5b6000614108614e09565b905060008560060154141561415c57604051806060016040528085815260200184815260200183815250856000016000820151816000015560208201518160010155604082015181600201559050506141a8565b61417662093a8086600601546136ae90919063ffffffff16565b8111156141a75784600301856000016000820154816000015560018201548160010155600282015481600201559050505b5b604051806060016040528085815260200184815260200183815250856003016000820151816000015560208201518160010155604082015181600201559050508085600601819055505050505050565b600061420782604001516147cf565b61421557816000015161421b565b81602001515b9050919050565b60008060008061423186614334565b9250925092506000828603905060008112156142545760009450505050506142a8565b60008190506142a061427f61427a8561426c85614e11565b6136ae90919063ffffffff16565b614eb3565b61429283886142ae90919063ffffffff16565b61403d90919063ffffffff16565b955050505050505b92915050565b6000808314156142c1576000905061432e565b60008284029050828482816142d257fe5b0414614329576040517f08c379a00000000000000000000000000000000000000000000000000000000081526004018080602001828103825260218152602001806152956021913960400191505060405180910390fd5b809150505b92915050565b60008060008061435462093a8086600601546136ae90919063ffffffff16565b61435c614e09565b119050806143815784600001600001548560000160010154866000016002015461439a565b8460030160000154856003016001015486600301600201545b935093509350509193909250565b6000803090506000813b9050600081149250505090565b600033905090565b614493838473ffffffffffffffffffffffffffffffffffffffff1663a9059cbb905060e01b8484604051602401808373ffffffffffffffffffffffffffffffffffffffff1673ffffffffffffffffffffffffffffffffffffffff16815260200182815260200192505050604051602081830303815290604052907bffffffffffffffffffffffffffffffffffffffffffffffffffffffff19166020820180517bffffffffffffffffffffffffffffffffffffffffffffffffffffffff8381831617835250505050614f15565b505050565b60016066600082825401925050819055506000606654905060008211614509576040517f08c379a000000000000000000000000000000000000000000000000000000000815260040180806020018281038252602481526020018061522e6024913960400191505060405180910390fd5b6000614513611a41565b5050905060008114801561452e5750600061452c611521565b145b156145a1576040517f08c379a00000000000000000000000000000000000000000000000000000000081526004018080602001828103825260108152602001807f656d697373696f6e2073746f707065640000000000000000000000000000000081525060200191505060405180910390fd5b6000806145b087876000614a65565b9150915060006146198660ac60008b73ffffffffffffffffffffffffffffffffffffffff1673ffffffffffffffffffffffffffffffffffffffff16815260200190815260200160002060008a8152602001908152602001600020546136ae90919063ffffffff16565b90508060ac60008a73ffffffffffffffffffffffffffffffffffffffff1673ffffffffffffffffffffffffffffffffffffffff1681526020019081526020016000206000898152602001908152602001600020819055506146858660b0546136ae90919063ffffffff16565b60b08190555061469361365c565b60ad60008a73ffffffffffffffffffffffffffffffffffffffff1673ffffffffffffffffffffffffffffffffffffffff168152602001908152602001600020600089815260200190815260200160002081905550868873ffffffffffffffffffffffffffffffffffffffff167f0a5c854539f6e93fcd4a8397bfae8bdb751b4e819840f1c8681e6ad7ff19c5b5888487876040518085815260200184815260200183815260200182815260200194505050505060405180910390a35050505060665481146147c9576040517f08c379a000000000000000000000000000000000000000000000000000000000815260040180806020018281038252601f8152602001807f5265656e7472616e637947756172643a207265656e7472616e742063616c6c0081525060200191505060405180910390fd5b50505050565b60006147e762093a80836136ae90919063ffffffff16565b6147ef61365c565b119050919050565b60008060007fc5d2460186f7233c927e7db2dcc703c0e500b653ca82273b7bfad8045d85a47060001b9050833f915080821415801561483957506000801b8214155b92505050919050565b8060b160006101000a81548160ff02191690831515021790555050565b600073ffffffffffffffffffffffffffffffffffffffff168173ffffffffffffffffffffffffffffffffffffffff1614156148e5576040517f08c379a00000000000000000000000000000000000000000000000000000000081526004018080602001828103825260268152602001806152086026913960400191505060405180910390fd5b8073ffffffffffffffffffffffffffffffffffffffff16603360009054906101000a900473ffffffffffffffffffffffffffffffffffffffff1673ffffffffffffffffffffffffffffffffffffffff167f8be0079c531659141344cd1fd0a4f28419497f9722a3daafe3b4186f6b6457e060405160405180910390a380603360006101000a81548173ffffffffffffffffffffffffffffffffffffffff021916908373ffffffffffffffffffffffffffffffffffffffff16021790555050565b6000838311158290614a52576040517f08c379a00000000000000000000000000000000000000000000000000000000081526004018080602001828103825283818151815260200191508051906020019080838360005b83811015614a175780820151818401526020810190506149fc565b50505050905090810190601f168015614a445780820380516001836020036101000a031916815260200191505b509250505060405180910390fd5b5060008385039050809150509392505050565b600080600060ac60008773ffffffffffffffffffffffffffffffffffffffff1673ffffffffffffffffffffffffffffffffffffffff16815260200190815260200160002060008681526020019081526020016000205490506000808514614acc5784614ace565b815b90506000806000614b2f60ad60008c73ffffffffffffffffffffffffffffffffffffffff1673ffffffffffffffffffffffffffffffffffffffff16815260200190815260200160002060008b815260200190815260200160002054856115ad565b9250925092506000831115614d3057614b5182866136ae90919063ffffffff16565b60ac60008c73ffffffffffffffffffffffffffffffffffffffff1673ffffffffffffffffffffffffffffffffffffffff16815260200190815260200160002060008b815260200190815260200160002081905550614bba8260b0546136ae90919063ffffffff16565b60b081905550609960009054906101000a900473ffffffffffffffffffffffffffffffffffffffff1673ffffffffffffffffffffffffffffffffffffffff1663a9059cbb614c06612a3f565b614c19858761366490919063ffffffff16565b6040518363ffffffff1660e01b8152600401808373ffffffffffffffffffffffffffffffffffffffff1673ffffffffffffffffffffffffffffffffffffffff16815260200182815260200192505050602060405180830381600087803b158015614c8257600080fd5b505af1158015614c96573d6000803e3d6000fd5b505050506040513d6020811015614cac57600080fd5b8101908080519060200190929190505050614d2f576040517f08c379a000000000000000000000000000000000000000000000000000000000815260040180806020018281038252600f8152602001807f7472616e73666572206661696c6564000000000000000000000000000000000081525060200191505060405180910390fd5b5b8181965096505050505050935093915050565b60008083118290614def576040517f08c379a00000000000000000000000000000000000000000000000000000000081526004018080602001828103825283818151815260200191508051906020019080838360005b83811015614db4578082015181840152602081019050614d99565b50505050905090810190601f168015614de15780820380516001836020036101000a031916815260200191505b509250505060405180910390fd5b506000838581614dfb57fe5b049050809150509392505050565b600042905090565b600080821415614e245760009050614eae565b6000828302905082838281614e3557fe5b0414614ea9576040517f08c379a000000000000000000000000000000000000000000000000000000000815260040180806020018281038252601f8152602001807f457874656e6465644d6174683a207371756172696e67206f766572666c6f770081525060200191505060405180910390fd5b809150505b919050565b60006003821115614f02578190506000600160028481614ecf57fe5b040190505b81811015614efc57809150600281828581614eeb57fe5b040181614ef457fe5b049050614ed4565b50614f10565b60008214614f0f57600190505b5b919050565b614f348273ffffffffffffffffffffffffffffffffffffffff166147f7565b614fa6576040517f08c379a000000000000000000000000000000000000000000000000000000000815260040180806020018281038252601f8152602001807f5361666545524332303a2063616c6c20746f206e6f6e2d636f6e74726163740081525060200191505060405180910390fd5b600060608373ffffffffffffffffffffffffffffffffffffffff16836040518082805190602001908083835b60208310614ff55780518252602082019150602081019050602083039250614fd2565b6001836020036101000a0380198251168184511680821785525050505050509050019150506000604051808303816000865af19150503d8060008114615057576040519150601f19603f3d011682016040523d82523d6000602084013e61505c565b606091505b5091509150816150d4576040517f08c379a00000000000000000000000000000000000000000000000000000000081526004018080602001828103825260208152602001807f5361666545524332303a206c6f772d6c6576656c2063616c6c206661696c656481525060200191505060405180910390fd5b60008151111561515a578080602001905160208110156150f357600080fd5b8101908080519060200190929190505050615159576040517f08c379a000000000000000000000000000000000000000000000000000000000815260040180806020018281038252602a815260200180615336602a913960400191505060405180910390fd5b5b50505050565b604e806151ba83390190565b6040518060600160405280600073ffffffffffffffffffffffffffffffffffffffff168152602001600073ffffffffffffffffffffffffffffffffffffffff16815260200160008152509056fe6080604052604051604e380380604e83398181016040526020811015602357600080fd5b81019080805190602001909291905050508073ffffffffffffffffffffffffffffffffffffffff16fffe4f776e61626c653a206e6577206f776e657220697320746865207a65726f20616464726573736465706f73697420616d6f756e742073686f756c64206265206d6f7265207468616e203073686f756c64206265206c657373207468616e206f7220657175616c20746f20612068616c66206f6620746865206d6178696d756d20656d697373696f6e2072617465536166654d6174683a206d756c7469706c69636174696f6e206f766572666c6f77436f6e747261637420696e7374616e63652068617320616c7265616479206265656e20696e697469616c697a656463616e206e6f7420776974686472617720647572696e6720696e697469616c206c6f636b20706572696f6473686f756c64206265206c657373207468616e206f7220657175616c20746f20312065746865725361666545524332303a204552433230206f7065726174696f6e20646964206e6f74207375636365656473686f756c646e27742062652067726561746572207468616e2033302064617973a265627a7a72315820f91215af907485e3a0a3bccd5f88ab05bcdf2f37f223fe0c77be10eae8e294f364736f6c63430005100032",
					"opcodes": "PUSH1 0x80 PUSH1 0x40 MSTORE PUSH2 0x53B5 DUP1 PUSH2 0x13 PUSH1 0x0 CODECOPY PUSH1 0x0 RETURN INVALID PUSH1 0x80 PUSH1 0x40 MSTORE CALLVALUE DUP1 ISZERO PUSH2 0x10 JUMPI PUSH1 0x0 DUP1 REVERT JUMPDEST POP PUSH1 0x4 CALLDATASIZE LT PUSH2 0x27F JUMPI PUSH1 0x0 CALLDATALOAD PUSH1 0xE0 SHR DUP1 PUSH4 0x8B53CCB3 GT PUSH2 0x15C JUMPI DUP1 PUSH4 0xC3BD8FD0 GT PUSH2 0xCE JUMPI DUP1 PUSH4 0xDB51EF92 GT PUSH2 0x87 JUMPI DUP1 PUSH4 0xDB51EF92 EQ PUSH2 0xC02 JUMPI DUP1 PUSH4 0xDDCA3F43 EQ PUSH2 0xC20 JUMPI DUP1 PUSH4 0xE0648A28 EQ PUSH2 0xC3E JUMPI DUP1 PUSH4 0xE2BBB158 EQ PUSH2 0xCA0 JUMPI DUP1 PUSH4 0xF2FDE38B EQ PUSH2 0xCD8 JUMPI DUP1 PUSH4 0xFC0C546A EQ PUSH2 0xD1C JUMPI PUSH2 0x27F JUMP JUMPDEST DUP1 PUSH4 0xC3BD8FD0 EQ PUSH2 0x9A1 JUMPI DUP1 PUSH4 0xC4D66DE8 EQ PUSH2 0x9F9 JUMPI DUP1 PUSH4 0xC5401CE3 EQ PUSH2 0xA3D JUMPI DUP1 PUSH4 0xCA758993 EQ PUSH2 0xA87 JUMPI DUP1 PUSH4 0xCBF1304D EQ PUSH2 0xB5C JUMPI DUP1 PUSH4 0xD6463151 EQ PUSH2 0xBBE JUMPI PUSH2 0x27F JUMP JUMPDEST DUP1 PUSH4 0x97559CDC GT PUSH2 0x120 JUMPI DUP1 PUSH4 0x97559CDC EQ PUSH2 0x7D2 JUMPI DUP1 PUSH4 0x9EE679E8 EQ PUSH2 0x7F0 JUMPI DUP1 PUSH4 0x9FC314C8 EQ PUSH2 0x81E JUMPI DUP1 PUSH4 0xA4C0ED36 EQ PUSH2 0x88C JUMPI DUP1 PUSH4 0xB4A86C48 EQ PUSH2 0x947 JUMPI DUP1 PUSH4 0xB6B55F25 EQ PUSH2 0x973 JUMPI PUSH2 0x27F JUMP JUMPDEST DUP1 PUSH4 0x8B53CCB3 EQ PUSH2 0x6AE JUMPI DUP1 PUSH4 0x8DA5CB5B EQ PUSH2 0x710 JUMPI DUP1 PUSH4 0x8DF67680 EQ PUSH2 0x75A JUMPI DUP1 PUSH4 0x8F32D59B EQ PUSH2 0x778 JUMPI DUP1 PUSH4 0x94967FA1 EQ PUSH2 0x79A JUMPI PUSH2 0x27F JUMP JUMPDEST DUP1 PUSH4 0x5E9E230D GT PUSH2 0x1F5 JUMPI DUP1 PUSH4 0x74949B6D GT PUSH2 0x1B9 JUMPI DUP1 PUSH4 0x74949B6D EQ PUSH2 0x5E0 JUMPI DUP1 PUSH4 0x75FA901B EQ PUSH2 0x60E JUMPI DUP1 PUSH4 0x8129FC1C EQ PUSH2 0x63A JUMPI DUP1 PUSH4 0x817B1CD2 EQ PUSH2 0x644 JUMPI DUP1 PUSH4 0x8235C378 EQ PUSH2 0x662 JUMPI DUP1 PUSH4 0x868867B5 EQ PUSH2 0x680 JUMPI PUSH2 0x27F JUMP JUMPDEST DUP1 PUSH4 0x5E9E230D EQ PUSH2 0x504 JUMPI DUP1 PUSH4 0x60C251C1 EQ PUSH2 0x530 JUMPI DUP1 PUSH4 0x60D4FFB0 EQ PUSH2 0x54E JUMPI DUP1 PUSH4 0x69FE0E2D EQ PUSH2 0x5A8 JUMPI DUP1 PUSH4 0x715018A6 EQ PUSH2 0x5D6 JUMPI PUSH2 0x27F JUMP JUMPDEST DUP1 PUSH4 0x294A5B04 GT PUSH2 0x247 JUMPI DUP1 PUSH4 0x294A5B04 EQ PUSH2 0x400 JUMPI DUP1 PUSH4 0x2C3144DA EQ PUSH2 0x442 JUMPI DUP1 PUSH4 0x41682990 EQ PUSH2 0x46E JUMPI DUP1 PUSH4 0x436CC3D6 EQ PUSH2 0x49C JUMPI DUP1 PUSH4 0x47E318DE EQ PUSH2 0x4BA JUMPI DUP1 PUSH4 0x522EA5E2 EQ PUSH2 0x4E6 JUMPI PUSH2 0x27F JUMP JUMPDEST DUP1 PUSH4 0x3D6D343 EQ PUSH2 0x284 JUMPI DUP1 PUSH4 0xE559215 EQ PUSH2 0x2B0 JUMPI DUP1 PUSH4 0x18194359 EQ PUSH2 0x316 JUMPI DUP1 PUSH4 0x18CCA7A6 EQ PUSH2 0x39A JUMPI DUP1 PUSH4 0x224313FA EQ PUSH2 0x3D2 JUMPI JUMPDEST PUSH1 0x0 DUP1 REVERT JUMPDEST PUSH2 0x28C PUSH2 0xD66 JUMP JUMPDEST PUSH1 0x40 MLOAD DUP1 DUP5 DUP2 MSTORE PUSH1 0x20 ADD DUP4 DUP2 MSTORE PUSH1 0x20 ADD DUP3 DUP2 MSTORE PUSH1 0x20 ADD SWAP4 POP POP POP POP PUSH1 0x40 MLOAD DUP1 SWAP2 SUB SWAP1 RETURN JUMPDEST PUSH2 0x2FC PUSH1 0x4 DUP1 CALLDATASIZE SUB PUSH1 0x40 DUP2 LT ISZERO PUSH2 0x2C6 JUMPI PUSH1 0x0 DUP1 REVERT JUMPDEST DUP2 ADD SWAP1 DUP1 DUP1 CALLDATALOAD PUSH20 0xFFFFFFFFFFFFFFFFFFFFFFFFFFFFFFFFFFFFFFFF AND SWAP1 PUSH1 0x20 ADD SWAP1 SWAP3 SWAP2 SWAP1 DUP1 CALLDATALOAD SWAP1 PUSH1 0x20 ADD SWAP1 SWAP3 SWAP2 SWAP1 POP POP POP PUSH2 0xD7E JUMP JUMPDEST PUSH1 0x40 MLOAD DUP1 DUP3 ISZERO ISZERO ISZERO ISZERO DUP2 MSTORE PUSH1 0x20 ADD SWAP2 POP POP PUSH1 0x40 MLOAD DUP1 SWAP2 SUB SWAP1 RETURN JUMPDEST PUSH2 0x31E PUSH2 0xE01 JUMP JUMPDEST PUSH1 0x40 MLOAD DUP1 DUP5 PUSH20 0xFFFFFFFFFFFFFFFFFFFFFFFFFFFFFFFFFFFFFFFF AND PUSH20 0xFFFFFFFFFFFFFFFFFFFFFFFFFFFFFFFFFFFFFFFF AND DUP2 MSTORE PUSH1 0x20 ADD DUP4 PUSH20 0xFFFFFFFFFFFFFFFFFFFFFFFFFFFFFFFFFFFFFFFF AND PUSH20 0xFFFFFFFFFFFFFFFFFFFFFFFFFFFFFFFFFFFFFFFF AND DUP2 MSTORE PUSH1 0x20 ADD DUP3 DUP2 MSTORE PUSH1 0x20 ADD SWAP4 POP POP POP POP PUSH1 0x40 MLOAD DUP1 SWAP2 SUB SWAP1 RETURN JUMPDEST PUSH2 0x3D0 PUSH1 0x4 DUP1 CALLDATASIZE SUB PUSH1 0x40 DUP2 LT ISZERO PUSH2 0x3B0 JUMPI PUSH1 0x0 DUP1 REVERT JUMPDEST DUP2 ADD SWAP1 DUP1 DUP1 CALLDATALOAD SWAP1 PUSH1 0x20 ADD SWAP1 SWAP3 SWAP2 SWAP1 DUP1 CALLDATALOAD SWAP1 PUSH1 0x20 ADD SWAP1 SWAP3 SWAP2 SWAP1 POP POP POP PUSH2 0xE59 JUMP JUMPDEST STOP JUMPDEST PUSH2 0x3FE PUSH1 0x4 DUP1 CALLDATASIZE SUB PUSH1 0x20 DUP2 LT ISZERO PUSH2 0x3E8 JUMPI PUSH1 0x0 DUP1 REVERT JUMPDEST DUP2 ADD SWAP1 DUP1 DUP1 CALLDATALOAD SWAP1 PUSH1 0x20 ADD SWAP1 SWAP3 SWAP2 SWAP1 POP POP POP PUSH2 0x10BC JUMP JUMPDEST STOP JUMPDEST PUSH2 0x440 PUSH1 0x4 DUP1 CALLDATASIZE SUB PUSH1 0x60 DUP2 LT ISZERO PUSH2 0x416 JUMPI PUSH1 0x0 DUP1 REVERT JUMPDEST DUP2 ADD SWAP1 DUP1 DUP1 CALLDATALOAD SWAP1 PUSH1 0x20 ADD SWAP1 SWAP3 SWAP2 SWAP1 DUP1 CALLDATALOAD SWAP1 PUSH1 0x20 ADD SWAP1 SWAP3 SWAP2 SWAP1 DUP1 CALLDATALOAD SWAP1 PUSH1 0x20 ADD SWAP1 SWAP3 SWAP2 SWAP1 POP POP POP PUSH2 0x120B JUMP JUMPDEST STOP JUMPDEST PUSH2 0x44A PUSH2 0x1391 JUMP JUMPDEST PUSH1 0x40 MLOAD DUP1 DUP5 DUP2 MSTORE PUSH1 0x20 ADD DUP4 DUP2 MSTORE PUSH1 0x20 ADD DUP3 DUP2 MSTORE PUSH1 0x20 ADD SWAP4 POP POP POP POP PUSH1 0x40 MLOAD DUP1 SWAP2 SUB SWAP1 RETURN JUMPDEST PUSH2 0x49A PUSH1 0x4 DUP1 CALLDATASIZE SUB PUSH1 0x20 DUP2 LT ISZERO PUSH2 0x484 JUMPI PUSH1 0x0 DUP1 REVERT JUMPDEST DUP2 ADD SWAP1 DUP1 DUP1 CALLDATALOAD SWAP1 PUSH1 0x20 ADD SWAP1 SWAP3 SWAP2 SWAP1 POP POP POP PUSH2 0x13A9 JUMP JUMPDEST STOP JUMPDEST PUSH2 0x4A4 PUSH2 0x14FD JUMP JUMPDEST PUSH1 0x40 MLOAD DUP1 DUP3 DUP2 MSTORE PUSH1 0x20 ADD SWAP2 POP POP PUSH1 0x40 MLOAD DUP1 SWAP2 SUB SWAP1 RETURN JUMPDEST PUSH2 0x4C2 PUSH2 0x1509 JUMP JUMPDEST PUSH1 0x40 MLOAD DUP1 DUP5 DUP2 MSTORE PUSH1 0x20 ADD DUP4 DUP2 MSTORE PUSH1 0x20 ADD DUP3 DUP2 MSTORE PUSH1 0x20 ADD SWAP4 POP POP POP POP PUSH1 0x40 MLOAD DUP1 SWAP2 SUB SWAP1 RETURN JUMPDEST PUSH2 0x4EE PUSH2 0x1521 JUMP JUMPDEST PUSH1 0x40 MLOAD DUP1 DUP3 DUP2 MSTORE PUSH1 0x20 ADD SWAP2 POP POP PUSH1 0x40 MLOAD DUP1 SWAP2 SUB SWAP1 RETURN JUMPDEST PUSH2 0x50C PUSH2 0x155B JUMP JUMPDEST PUSH1 0x40 MLOAD DUP1 DUP5 DUP2 MSTORE PUSH1 0x20 ADD DUP4 DUP2 MSTORE PUSH1 0x20 ADD DUP3 DUP2 MSTORE PUSH1 0x20 ADD SWAP4 POP POP POP POP PUSH1 0x40 MLOAD DUP1 SWAP2 SUB SWAP1 RETURN JUMPDEST PUSH2 0x538 PUSH2 0x1573 JUMP JUMPDEST PUSH1 0x40 MLOAD DUP1 DUP3 DUP2 MSTORE PUSH1 0x20 ADD SWAP2 POP POP PUSH1 0x40 MLOAD DUP1 SWAP2 SUB SWAP1 RETURN JUMPDEST PUSH2 0x584 PUSH1 0x4 DUP1 CALLDATASIZE SUB PUSH1 0x40 DUP2 LT ISZERO PUSH2 0x564 JUMPI PUSH1 0x0 DUP1 REVERT JUMPDEST DUP2 ADD SWAP1 DUP1 DUP1 CALLDATALOAD SWAP1 PUSH1 0x20 ADD SWAP1 SWAP3 SWAP2 SWAP1 DUP1 CALLDATALOAD SWAP1 PUSH1 0x20 ADD SWAP1 SWAP3 SWAP2 SWAP1 POP POP POP PUSH2 0x15AD JUMP JUMPDEST PUSH1 0x40 MLOAD DUP1 DUP5 DUP2 MSTORE PUSH1 0x20 ADD DUP4 DUP2 MSTORE PUSH1 0x20 ADD DUP3 DUP2 MSTORE PUSH1 0x20 ADD SWAP4 POP POP POP POP PUSH1 0x40 MLOAD DUP1 SWAP2 SUB SWAP1 RETURN JUMPDEST PUSH2 0x5D4 PUSH1 0x4 DUP1 CALLDATASIZE SUB PUSH1 0x20 DUP2 LT ISZERO PUSH2 0x5BE JUMPI PUSH1 0x0 DUP1 REVERT JUMPDEST DUP2 ADD SWAP1 DUP1 DUP1 CALLDATALOAD SWAP1 PUSH1 0x20 ADD SWAP1 SWAP3 SWAP2 SWAP1 POP POP POP PUSH2 0x1720 JUMP JUMPDEST STOP JUMPDEST PUSH2 0x5DE PUSH2 0x1813 JUMP JUMPDEST STOP JUMPDEST PUSH2 0x60C PUSH1 0x4 DUP1 CALLDATASIZE SUB PUSH1 0x20 DUP2 LT ISZERO PUSH2 0x5F6 JUMPI PUSH1 0x0 DUP1 REVERT JUMPDEST DUP2 ADD SWAP1 DUP1 DUP1 CALLDATALOAD SWAP1 PUSH1 0x20 ADD SWAP1 SWAP3 SWAP2 SWAP1 POP POP POP PUSH2 0x194E JUMP JUMPDEST STOP JUMPDEST PUSH2 0x616 PUSH2 0x1A41 JUMP JUMPDEST PUSH1 0x40 MLOAD DUP1 DUP5 DUP2 MSTORE PUSH1 0x20 ADD DUP4 DUP2 MSTORE PUSH1 0x20 ADD DUP3 DUP2 MSTORE PUSH1 0x20 ADD SWAP4 POP POP POP POP PUSH1 0x40 MLOAD DUP1 SWAP2 SUB SWAP1 RETURN JUMPDEST PUSH2 0x642 PUSH2 0x1A5B JUMP JUMPDEST STOP JUMPDEST PUSH2 0x64C PUSH2 0x1B62 JUMP JUMPDEST PUSH1 0x40 MLOAD DUP1 DUP3 DUP2 MSTORE PUSH1 0x20 ADD SWAP2 POP POP PUSH1 0x40 MLOAD DUP1 SWAP2 SUB SWAP1 RETURN JUMPDEST PUSH2 0x66A PUSH2 0x1B68 JUMP JUMPDEST PUSH1 0x40 MLOAD DUP1 DUP3 DUP2 MSTORE PUSH1 0x20 ADD SWAP2 POP POP PUSH1 0x40 MLOAD DUP1 SWAP2 SUB SWAP1 RETURN JUMPDEST PUSH2 0x6AC PUSH1 0x4 DUP1 CALLDATASIZE SUB PUSH1 0x20 DUP2 LT ISZERO PUSH2 0x696 JUMPI PUSH1 0x0 DUP1 REVERT JUMPDEST DUP2 ADD SWAP1 DUP1 DUP1 CALLDATALOAD SWAP1 PUSH1 0x20 ADD SWAP1 SWAP3 SWAP2 SWAP1 POP POP POP PUSH2 0x1CC7 JUMP JUMPDEST STOP JUMPDEST PUSH2 0x6FA PUSH1 0x4 DUP1 CALLDATASIZE SUB PUSH1 0x40 DUP2 LT ISZERO PUSH2 0x6C4 JUMPI PUSH1 0x0 DUP1 REVERT JUMPDEST DUP2 ADD SWAP1 DUP1 DUP1 CALLDATALOAD PUSH20 0xFFFFFFFFFFFFFFFFFFFFFFFFFFFFFFFFFFFFFFFF AND SWAP1 PUSH1 0x20 ADD SWAP1 SWAP3 SWAP2 SWAP1 DUP1 CALLDATALOAD SWAP1 PUSH1 0x20 ADD SWAP1 SWAP3 SWAP2 SWAP1 POP POP POP PUSH2 0x1E32 JUMP JUMPDEST PUSH1 0x40 MLOAD DUP1 DUP3 DUP2 MSTORE PUSH1 0x20 ADD SWAP2 POP POP PUSH1 0x40 MLOAD DUP1 SWAP2 SUB SWAP1 RETURN JUMPDEST PUSH2 0x718 PUSH2 0x1E57 JUMP JUMPDEST PUSH1 0x40 MLOAD DUP1 DUP3 PUSH20 0xFFFFFFFFFFFFFFFFFFFFFFFFFFFFFFFFFFFFFFFF AND PUSH20 0xFFFFFFFFFFFFFFFFFFFFFFFFFFFFFFFFFFFFFFFF AND DUP2 MSTORE PUSH1 0x20 ADD SWAP2 POP POP PUSH1 0x40 MLOAD DUP1 SWAP2 SUB SWAP1 RETURN JUMPDEST PUSH2 0x762 PUSH2 0x1E81 JUMP JUMPDEST PUSH1 0x40 MLOAD DUP1 DUP3 DUP2 MSTORE PUSH1 0x20 ADD SWAP2 POP POP PUSH1 0x40 MLOAD DUP1 SWAP2 SUB SWAP1 RETURN JUMPDEST PUSH2 0x780 PUSH2 0x1EBB JUMP JUMPDEST PUSH1 0x40 MLOAD DUP1 DUP3 ISZERO ISZERO ISZERO ISZERO DUP2 MSTORE PUSH1 0x20 ADD SWAP2 POP POP PUSH1 0x40 MLOAD DUP1 SWAP2 SUB SWAP1 RETURN JUMPDEST PUSH2 0x7D0 PUSH1 0x4 DUP1 CALLDATASIZE SUB PUSH1 0x40 DUP2 LT ISZERO PUSH2 0x7B0 JUMPI PUSH1 0x0 DUP1 REVERT JUMPDEST DUP2 ADD SWAP1 DUP1 DUP1 CALLDATALOAD SWAP1 PUSH1 0x20 ADD SWAP1 SWAP3 SWAP2 SWAP1 DUP1 CALLDATALOAD SWAP1 PUSH1 0x20 ADD SWAP1 SWAP3 SWAP2 SWAP1 POP POP POP PUSH2 0x1F1A JUMP JUMPDEST STOP JUMPDEST PUSH2 0x7DA PUSH2 0x1F2B JUMP JUMPDEST PUSH1 0x40 MLOAD DUP1 DUP3 DUP2 MSTORE PUSH1 0x20 ADD SWAP2 POP POP PUSH1 0x40 MLOAD DUP1 SWAP2 SUB SWAP1 RETURN JUMPDEST PUSH2 0x81C PUSH1 0x4 DUP1 CALLDATASIZE SUB PUSH1 0x20 DUP2 LT ISZERO PUSH2 0x806 JUMPI PUSH1 0x0 DUP1 REVERT JUMPDEST DUP2 ADD SWAP1 DUP1 DUP1 CALLDATALOAD SWAP1 PUSH1 0x20 ADD SWAP1 SWAP3 SWAP2 SWAP1 POP POP POP PUSH2 0x1F65 JUMP JUMPDEST STOP JUMPDEST PUSH2 0x88A PUSH1 0x4 DUP1 CALLDATASIZE SUB PUSH1 0x60 DUP2 LT ISZERO PUSH2 0x834 JUMPI PUSH1 0x0 DUP1 REVERT JUMPDEST DUP2 ADD SWAP1 DUP1 DUP1 CALLDATALOAD PUSH20 0xFFFFFFFFFFFFFFFFFFFFFFFFFFFFFFFFFFFFFFFF AND SWAP1 PUSH1 0x20 ADD SWAP1 SWAP3 SWAP2 SWAP1 DUP1 CALLDATALOAD PUSH20 0xFFFFFFFFFFFFFFFFFFFFFFFFFFFFFFFFFFFFFFFF AND SWAP1 PUSH1 0x20 ADD SWAP1 SWAP3 SWAP2 SWAP1 DUP1 CALLDATALOAD SWAP1 PUSH1 0x20 ADD SWAP1 SWAP3 SWAP2 SWAP1 POP POP POP PUSH2 0x20C9 JUMP JUMPDEST STOP JUMPDEST PUSH2 0x92D PUSH1 0x4 DUP1 CALLDATASIZE SUB PUSH1 0x60 DUP2 LT ISZERO PUSH2 0x8A2 JUMPI PUSH1 0x0 DUP1 REVERT JUMPDEST DUP2 ADD SWAP1 DUP1 DUP1 CALLDATALOAD PUSH20 0xFFFFFFFFFFFFFFFFFFFFFFFFFFFFFFFFFFFFFFFF AND SWAP1 PUSH1 0x20 ADD SWAP1 SWAP3 SWAP2 SWAP1 DUP1 CALLDATALOAD SWAP1 PUSH1 0x20 ADD SWAP1 SWAP3 SWAP2 SWAP1 DUP1 CALLDATALOAD SWAP1 PUSH1 0x20 ADD SWAP1 PUSH5 0x100000000 DUP2 GT ISZERO PUSH2 0x8E9 JUMPI PUSH1 0x0 DUP1 REVERT JUMPDEST DUP3 ADD DUP4 PUSH1 0x20 DUP3 ADD GT ISZERO PUSH2 0x8FB JUMPI PUSH1 0x0 DUP1 REVERT JUMPDEST DUP1 CALLDATALOAD SWAP1 PUSH1 0x20 ADD SWAP2 DUP5 PUSH1 0x1 DUP4 MUL DUP5 ADD GT PUSH5 0x100000000 DUP4 GT OR ISZERO PUSH2 0x91D JUMPI PUSH1 0x0 DUP1 REVERT JUMPDEST SWAP1 SWAP2 SWAP3 SWAP4 SWAP2 SWAP3 SWAP4 SWAP1 POP POP POP PUSH2 0x26BD JUMP JUMPDEST PUSH1 0x40 MLOAD DUP1 DUP3 ISZERO ISZERO ISZERO ISZERO DUP2 MSTORE PUSH1 0x20 ADD SWAP2 POP POP PUSH1 0x40 MLOAD DUP1 SWAP2 SUB SWAP1 RETURN JUMPDEST PUSH2 0x94F PUSH2 0x27F9 JUMP JUMPDEST PUSH1 0x40 MLOAD DUP1 DUP5 DUP2 MSTORE PUSH1 0x20 ADD DUP4 DUP2 MSTORE PUSH1 0x20 ADD DUP3 DUP2 MSTORE PUSH1 0x20 ADD SWAP4 POP POP POP POP PUSH1 0x40 MLOAD DUP1 SWAP2 SUB SWAP1 RETURN JUMPDEST PUSH2 0x99F PUSH1 0x4 DUP1 CALLDATASIZE SUB PUSH1 0x20 DUP2 LT ISZERO PUSH2 0x989 JUMPI PUSH1 0x0 DUP1 REVERT JUMPDEST DUP2 ADD SWAP1 DUP1 DUP1 CALLDATALOAD SWAP1 PUSH1 0x20 ADD SWAP1 SWAP3 SWAP2 SWAP1 POP POP POP PUSH2 0x2811 JUMP JUMPDEST STOP JUMPDEST PUSH2 0x9E3 PUSH1 0x4 DUP1 CALLDATASIZE SUB PUSH1 0x20 DUP2 LT ISZERO PUSH2 0x9B7 JUMPI PUSH1 0x0 DUP1 REVERT JUMPDEST DUP2 ADD SWAP1 DUP1 DUP1 CALLDATALOAD PUSH20 0xFFFFFFFFFFFFFFFFFFFFFFFFFFFFFFFFFFFFFFFF AND SWAP1 PUSH1 0x20 ADD SWAP1 SWAP3 SWAP2 SWAP1 POP POP POP PUSH2 0x2869 JUMP JUMPDEST PUSH1 0x40 MLOAD DUP1 DUP3 DUP2 MSTORE PUSH1 0x20 ADD SWAP2 POP POP PUSH1 0x40 MLOAD DUP1 SWAP2 SUB SWAP1 RETURN JUMPDEST PUSH2 0xA3B PUSH1 0x4 DUP1 CALLDATASIZE SUB PUSH1 0x20 DUP2 LT ISZERO PUSH2 0xA0F JUMPI PUSH1 0x0 DUP1 REVERT JUMPDEST DUP2 ADD SWAP1 DUP1 DUP1 CALLDATALOAD PUSH20 0xFFFFFFFFFFFFFFFFFFFFFFFFFFFFFFFFFFFFFFFF AND SWAP1 PUSH1 0x20 ADD SWAP1 SWAP3 SWAP2 SWAP1 POP POP POP PUSH2 0x2881 JUMP JUMPDEST STOP JUMPDEST PUSH2 0xA45 PUSH2 0x2A3F JUMP JUMPDEST PUSH1 0x40 MLOAD DUP1 DUP3 PUSH20 0xFFFFFFFFFFFFFFFFFFFFFFFFFFFFFFFFFFFFFFFF AND PUSH20 0xFFFFFFFFFFFFFFFFFFFFFFFFFFFFFFFFFFFFFFFF AND DUP2 MSTORE PUSH1 0x20 ADD SWAP2 POP POP PUSH1 0x40 MLOAD DUP1 SWAP2 SUB SWAP1 RETURN JUMPDEST PUSH2 0xB5A PUSH1 0x4 DUP1 CALLDATASIZE SUB PUSH2 0x160 DUP2 LT ISZERO PUSH2 0xA9E JUMPI PUSH1 0x0 DUP1 REVERT JUMPDEST DUP2 ADD SWAP1 DUP1 DUP1 CALLDATALOAD PUSH20 0xFFFFFFFFFFFFFFFFFFFFFFFFFFFFFFFFFFFFFFFF AND SWAP1 PUSH1 0x20 ADD SWAP1 SWAP3 SWAP2 SWAP1 DUP1 CALLDATALOAD PUSH20 0xFFFFFFFFFFFFFFFFFFFFFFFFFFFFFFFFFFFFFFFF AND SWAP1 PUSH1 0x20 ADD SWAP1 SWAP3 SWAP2 SWAP1 DUP1 CALLDATALOAD PUSH20 0xFFFFFFFFFFFFFFFFFFFFFFFFFFFFFFFFFFFFFFFF AND SWAP1 PUSH1 0x20 ADD SWAP1 SWAP3 SWAP2 SWAP1 DUP1 CALLDATALOAD SWAP1 PUSH1 0x20 ADD SWAP1 SWAP3 SWAP2 SWAP1 DUP1 CALLDATALOAD SWAP1 PUSH1 0x20 ADD SWAP1 SWAP3 SWAP2 SWAP1 DUP1 CALLDATALOAD SWAP1 PUSH1 0x20 ADD SWAP1 SWAP3 SWAP2 SWAP1 DUP1 CALLDATALOAD SWAP1 PUSH1 0x20 ADD SWAP1 SWAP3 SWAP2 SWAP1 DUP1 CALLDATALOAD SWAP1 PUSH1 0x20 ADD SWAP1 SWAP3 SWAP2 SWAP1 DUP1 CALLDATALOAD SWAP1 PUSH1 0x20 ADD SWAP1 SWAP3 SWAP2 SWAP1 DUP1 CALLDATALOAD SWAP1 PUSH1 0x20 ADD SWAP1 SWAP3 SWAP2 SWAP1 DUP1 CALLDATALOAD SWAP1 PUSH1 0x20 ADD SWAP1 SWAP3 SWAP2 SWAP1 POP POP POP PUSH2 0x2B35 JUMP JUMPDEST STOP JUMPDEST PUSH2 0xBA8 PUSH1 0x4 DUP1 CALLDATASIZE SUB PUSH1 0x40 DUP2 LT ISZERO PUSH2 0xB72 JUMPI PUSH1 0x0 DUP1 REVERT JUMPDEST DUP2 ADD SWAP1 DUP1 DUP1 CALLDATALOAD PUSH20 0xFFFFFFFFFFFFFFFFFFFFFFFFFFFFFFFFFFFFFFFF AND SWAP1 PUSH1 0x20 ADD SWAP1 SWAP3 SWAP2 SWAP1 DUP1 CALLDATALOAD SWAP1 PUSH1 0x20 ADD SWAP1 SWAP3 SWAP2 SWAP1 POP POP POP PUSH2 0x2E0F JUMP JUMPDEST PUSH1 0x40 MLOAD DUP1 DUP3 DUP2 MSTORE PUSH1 0x20 ADD SWAP2 POP POP PUSH1 0x40 MLOAD DUP1 SWAP2 SUB SWAP1 RETURN JUMPDEST PUSH2 0xC00 PUSH1 0x4 DUP1 CALLDATASIZE SUB PUSH1 0x20 DUP2 LT ISZERO PUSH2 0xBD4 JUMPI PUSH1 0x0 DUP1 REVERT JUMPDEST DUP2 ADD SWAP1 DUP1 DUP1 CALLDATALOAD PUSH20 0xFFFFFFFFFFFFFFFFFFFFFFFFFFFFFFFFFFFFFFFF AND SWAP1 PUSH1 0x20 ADD SWAP1 SWAP3 SWAP2 SWAP1 POP POP POP PUSH2 0x2E34 JUMP JUMPDEST STOP JUMPDEST PUSH2 0xC0A PUSH2 0x32DC JUMP JUMPDEST PUSH1 0x40 MLOAD DUP1 DUP3 DUP2 MSTORE PUSH1 0x20 ADD SWAP2 POP POP PUSH1 0x40 MLOAD DUP1 SWAP2 SUB SWAP1 RETURN JUMPDEST PUSH2 0xC28 PUSH2 0x32E3 JUMP JUMPDEST PUSH1 0x40 MLOAD DUP1 DUP3 DUP2 MSTORE PUSH1 0x20 ADD SWAP2 POP POP PUSH1 0x40 MLOAD DUP1 SWAP2 SUB SWAP1 RETURN JUMPDEST PUSH2 0xC8A PUSH1 0x4 DUP1 CALLDATASIZE SUB PUSH1 0x40 DUP2 LT ISZERO PUSH2 0xC54 JUMPI PUSH1 0x0 DUP1 REVERT JUMPDEST DUP2 ADD SWAP1 DUP1 DUP1 CALLDATALOAD PUSH20 0xFFFFFFFFFFFFFFFFFFFFFFFFFFFFFFFFFFFFFFFF AND SWAP1 PUSH1 0x20 ADD SWAP1 SWAP3 SWAP2 SWAP1 DUP1 CALLDATALOAD SWAP1 PUSH1 0x20 ADD SWAP1 SWAP3 SWAP2 SWAP1 POP POP POP PUSH2 0x331D JUMP JUMPDEST PUSH1 0x40 MLOAD DUP1 DUP3 DUP2 MSTORE PUSH1 0x20 ADD SWAP2 POP POP PUSH1 0x40 MLOAD DUP1 SWAP2 SUB SWAP1 RETURN JUMPDEST PUSH2 0xCD6 PUSH1 0x4 DUP1 CALLDATASIZE SUB PUSH1 0x40 DUP2 LT ISZERO PUSH2 0xCB6 JUMPI PUSH1 0x0 DUP1 REVERT JUMPDEST DUP2 ADD SWAP1 DUP1 DUP1 CALLDATALOAD SWAP1 PUSH1 0x20 ADD SWAP1 SWAP3 SWAP2 SWAP1 DUP1 CALLDATALOAD SWAP1 PUSH1 0x20 ADD SWAP1 SWAP3 SWAP2 SWAP1 POP POP POP PUSH2 0x3342 JUMP JUMPDEST STOP JUMPDEST PUSH2 0xD1A PUSH1 0x4 DUP1 CALLDATASIZE SUB PUSH1 0x20 DUP2 LT ISZERO PUSH2 0xCEE JUMPI PUSH1 0x0 DUP1 REVERT JUMPDEST DUP2 ADD SWAP1 DUP1 DUP1 CALLDATALOAD PUSH20 0xFFFFFFFFFFFFFFFFFFFFFFFFFFFFFFFFFFFFFFFF AND SWAP1 PUSH1 0x20 ADD SWAP1 SWAP3 SWAP2 SWAP1 POP POP POP PUSH2 0x35B0 JUMP JUMPDEST STOP JUMPDEST PUSH2 0xD24 PUSH2 0x3636 JUMP JUMPDEST PUSH1 0x40 MLOAD DUP1 DUP3 PUSH20 0xFFFFFFFFFFFFFFFFFFFFFFFFFFFFFFFFFFFFFFFF AND PUSH20 0xFFFFFFFFFFFFFFFFFFFFFFFFFFFFFFFFFFFFFFFF AND DUP2 MSTORE PUSH1 0x20 ADD SWAP2 POP POP PUSH1 0x40 MLOAD DUP1 SWAP2 SUB SWAP1 RETURN JUMPDEST PUSH1 0xA6 DUP1 PUSH1 0x0 ADD SLOAD SWAP1 DUP1 PUSH1 0x1 ADD SLOAD SWAP1 DUP1 PUSH1 0x2 ADD SLOAD SWAP1 POP DUP4 JUMP JUMPDEST PUSH1 0x0 DUP1 PUSH2 0xDEB PUSH1 0xAD PUSH1 0x0 DUP7 PUSH20 0xFFFFFFFFFFFFFFFFFFFFFFFFFFFFFFFFFFFFFFFF AND PUSH20 0xFFFFFFFFFFFFFFFFFFFFFFFFFFFFFFFFFFFFFFFF AND DUP2 MSTORE PUSH1 0x20 ADD SWAP1 DUP2 MSTORE PUSH1 0x20 ADD PUSH1 0x0 KECCAK256 PUSH1 0x0 DUP6 DUP2 MSTORE PUSH1 0x20 ADD SWAP1 DUP2 MSTORE PUSH1 0x20 ADD PUSH1 0x0 KECCAK256 SLOAD PUSH2 0xDDD PUSH2 0x365C JUMP JUMPDEST PUSH2 0x3664 SWAP1 SWAP2 SWAP1 PUSH4 0xFFFFFFFF AND JUMP JUMPDEST SWAP1 POP PUSH2 0xDF5 PUSH2 0x1F2B JUMP JUMPDEST DUP2 LT ISZERO SWAP2 POP POP SWAP3 SWAP2 POP POP JUMP JUMPDEST PUSH1 0x9A DUP1 PUSH1 0x0 ADD PUSH1 0x0 SWAP1 SLOAD SWAP1 PUSH2 0x100 EXP SWAP1 DIV PUSH20 0xFFFFFFFFFFFFFFFFFFFFFFFFFFFFFFFFFFFFFFFF AND SWAP1 DUP1 PUSH1 0x1 ADD PUSH1 0x0 SWAP1 SLOAD SWAP1 PUSH2 0x100 EXP SWAP1 DIV PUSH20 0xFFFFFFFFFFFFFFFFFFFFFFFFFFFFFFFFFFFFFFFF AND SWAP1 DUP1 PUSH1 0x2 ADD SLOAD SWAP1 POP DUP4 JUMP JUMPDEST PUSH1 0x0 PUSH1 0xAE PUSH1 0x0 CALLER PUSH20 0xFFFFFFFFFFFFFFFFFFFFFFFFFFFFFFFFFFFFFFFF AND PUSH20 0xFFFFFFFFFFFFFFFFFFFFFFFFFFFFFFFFFFFFFFFF AND DUP2 MSTORE PUSH1 0x20 ADD SWAP1 DUP2 MSTORE PUSH1 0x20 ADD PUSH1 0x0 KECCAK256 PUSH1 0x0 DUP5 DUP2 MSTORE PUSH1 0x20 ADD SWAP1 DUP2 MSTORE PUSH1 0x20 ADD PUSH1 0x0 KECCAK256 SLOAD SWAP1 POP PUSH1 0x0 DUP2 GT PUSH2 0xF24 JUMPI PUSH1 0x40 MLOAD PUSH32 0x8C379A000000000000000000000000000000000000000000000000000000000 DUP2 MSTORE PUSH1 0x4 ADD DUP1 DUP1 PUSH1 0x20 ADD DUP3 DUP2 SUB DUP3 MSTORE PUSH1 0x1B DUP2 MSTORE PUSH1 0x20 ADD DUP1 PUSH32 0x7769746864726177616C207761736E2774207265717565737465640000000000 DUP2 MSTORE POP PUSH1 0x20 ADD SWAP2 POP POP PUSH1 0x40 MLOAD DUP1 SWAP2 SUB SWAP1 REVERT JUMPDEST PUSH1 0x0 PUSH2 0xF2E PUSH2 0x365C JUMP JUMPDEST SWAP1 POP PUSH1 0x0 PUSH2 0xF4C PUSH2 0xF3D PUSH2 0x1573 JUMP JUMPDEST DUP5 PUSH2 0x36AE SWAP1 SWAP2 SWAP1 PUSH4 0xFFFFFFFF AND JUMP JUMPDEST SWAP1 POP DUP1 DUP3 LT ISZERO PUSH2 0xFC4 JUMPI PUSH1 0x40 MLOAD PUSH32 0x8C379A000000000000000000000000000000000000000000000000000000000 DUP2 MSTORE PUSH1 0x4 ADD DUP1 DUP1 PUSH1 0x20 ADD DUP3 DUP2 SUB DUP3 MSTORE PUSH1 0x9 DUP2 MSTORE PUSH1 0x20 ADD DUP1 PUSH32 0x746F6F206561726C790000000000000000000000000000000000000000000000 DUP2 MSTORE POP PUSH1 0x20 ADD SWAP2 POP POP PUSH1 0x40 MLOAD DUP1 SWAP2 SUB SWAP1 REVERT JUMPDEST PUSH2 0xFDE PUSH2 0xFCF PUSH2 0x1E81 JUMP JUMPDEST DUP3 PUSH2 0x36AE SWAP1 SWAP2 SWAP1 PUSH4 0xFFFFFFFF AND JUMP JUMPDEST DUP3 LT PUSH2 0x1052 JUMPI PUSH1 0x40 MLOAD PUSH32 0x8C379A000000000000000000000000000000000000000000000000000000000 DUP2 MSTORE PUSH1 0x4 ADD DUP1 DUP1 PUSH1 0x20 ADD DUP3 DUP2 SUB DUP3 MSTORE PUSH1 0x8 DUP2 MSTORE PUSH1 0x20 ADD DUP1 PUSH32 0x746F6F206C617465000000000000000000000000000000000000000000000000 DUP2 MSTORE POP PUSH1 0x20 ADD SWAP2 POP POP PUSH1 0x40 MLOAD DUP1 SWAP2 SUB SWAP1 REVERT JUMPDEST PUSH1 0x0 PUSH1 0xAE PUSH1 0x0 CALLER PUSH20 0xFFFFFFFFFFFFFFFFFFFFFFFFFFFFFFFFFFFFFFFF AND PUSH20 0xFFFFFFFFFFFFFFFFFFFFFFFFFFFFFFFFFFFFFFFF AND DUP2 MSTORE PUSH1 0x20 ADD SWAP1 DUP2 MSTORE PUSH1 0x20 ADD PUSH1 0x0 KECCAK256 PUSH1 0x0 DUP8 DUP2 MSTORE PUSH1 0x20 ADD SWAP1 DUP2 MSTORE PUSH1 0x20 ADD PUSH1 0x0 KECCAK256 DUP2 SWAP1 SSTORE POP PUSH2 0x10B5 CALLER DUP7 DUP7 PUSH1 0x0 PUSH2 0x3736 JUMP JUMPDEST POP POP POP POP POP JUMP JUMPDEST PUSH2 0x10C4 PUSH2 0x1EBB JUMP JUMPDEST PUSH2 0x1136 JUMPI PUSH1 0x40 MLOAD PUSH32 0x8C379A000000000000000000000000000000000000000000000000000000000 DUP2 MSTORE PUSH1 0x4 ADD DUP1 DUP1 PUSH1 0x20 ADD DUP3 DUP2 SUB DUP3 MSTORE PUSH1 0x20 DUP2 MSTORE PUSH1 0x20 ADD DUP1 PUSH32 0x4F776E61626C653A2063616C6C6572206973206E6F7420746865206F776E6572 DUP2 MSTORE POP PUSH1 0x20 ADD SWAP2 POP POP PUSH1 0x40 MLOAD DUP1 SWAP2 SUB SWAP1 REVERT JUMPDEST PUSH3 0x278D00 DUP2 GT ISZERO PUSH2 0x1192 JUMPI PUSH1 0x40 MLOAD PUSH32 0x8C379A000000000000000000000000000000000000000000000000000000000 DUP2 MSTORE PUSH1 0x4 ADD DUP1 DUP1 PUSH1 0x20 ADD DUP3 DUP2 SUB DUP3 MSTORE PUSH1 0x21 DUP2 MSTORE PUSH1 0x20 ADD DUP1 PUSH2 0x5360 PUSH1 0x21 SWAP2 CODECOPY PUSH1 0x40 ADD SWAP2 POP POP PUSH1 0x40 MLOAD DUP1 SWAP2 SUB SWAP1 REVERT JUMPDEST PUSH2 0x119D PUSH1 0xA0 DUP3 PUSH2 0x3FE4 JUMP JUMPDEST PUSH32 0xB1EFFBB8DC5CFA97751137110A061198891986F1567677E11EC9449743180F74 DUP2 CALLER PUSH1 0x40 MLOAD DUP1 DUP4 DUP2 MSTORE PUSH1 0x20 ADD DUP3 PUSH20 0xFFFFFFFFFFFFFFFFFFFFFFFFFFFFFFFFFFFFFFFF AND PUSH20 0xFFFFFFFFFFFFFFFFFFFFFFFFFFFFFFFFFFFFFFFF AND DUP2 MSTORE PUSH1 0x20 ADD SWAP3 POP POP POP PUSH1 0x40 MLOAD DUP1 SWAP2 SUB SWAP1 LOG1 POP JUMP JUMPDEST PUSH2 0x1213 PUSH2 0x1EBB JUMP JUMPDEST PUSH2 0x1285 JUMPI PUSH1 0x40 MLOAD PUSH32 0x8C379A000000000000000000000000000000000000000000000000000000000 DUP2 MSTORE PUSH1 0x4 ADD DUP1 DUP1 PUSH1 0x20 ADD DUP3 DUP2 SUB DUP3 MSTORE PUSH1 0x20 DUP2 MSTORE PUSH1 0x20 ADD DUP1 PUSH32 0x4F776E61626C653A2063616C6C6572206973206E6F7420746865206F776E6572 DUP2 MSTORE POP PUSH1 0x20 ADD SWAP2 POP POP PUSH1 0x40 MLOAD DUP1 SWAP2 SUB SWAP1 REVERT JUMPDEST PUSH2 0x12A1 PUSH1 0x2 PUSH8 0x214E8348C4F0000 PUSH2 0x403D SWAP1 SWAP2 SWAP1 PUSH4 0xFFFFFFFF AND JUMP JUMPDEST DUP4 GT ISZERO PUSH2 0x12F9 JUMPI PUSH1 0x40 MLOAD PUSH32 0x8C379A000000000000000000000000000000000000000000000000000000000 DUP2 MSTORE PUSH1 0x4 ADD DUP1 DUP1 PUSH1 0x20 ADD DUP3 DUP2 SUB DUP3 MSTORE PUSH1 0x43 DUP2 MSTORE PUSH1 0x20 ADD DUP1 PUSH2 0x5252 PUSH1 0x43 SWAP2 CODECOPY PUSH1 0x60 ADD SWAP2 POP POP PUSH1 0x40 MLOAD DUP1 SWAP2 SUB SWAP1 REVERT JUMPDEST PUSH2 0x1311 DUP4 DUP4 DUP4 PUSH1 0xB2 PUSH2 0x4087 SWAP1 SWAP4 SWAP3 SWAP2 SWAP1 PUSH4 0xFFFFFFFF AND JUMP JUMPDEST PUSH32 0xDDF30262673035378258D8AAB83A68D6D8B8E45E5510D3B295FCC7CD65C6378A DUP4 DUP4 DUP4 CALLER PUSH1 0x40 MLOAD DUP1 DUP6 DUP2 MSTORE PUSH1 0x20 ADD DUP5 DUP2 MSTORE PUSH1 0x20 ADD DUP4 DUP2 MSTORE PUSH1 0x20 ADD DUP3 PUSH20 0xFFFFFFFFFFFFFFFFFFFFFFFFFFFFFFFFFFFFFFFF AND PUSH20 0xFFFFFFFFFFFFFFFFFFFFFFFFFFFFFFFFFFFFFFFF AND DUP2 MSTORE PUSH1 0x20 ADD SWAP5 POP POP POP POP POP PUSH1 0x40 MLOAD DUP1 SWAP2 SUB SWAP1 LOG1 POP POP POP JUMP JUMPDEST PUSH1 0xA0 DUP1 PUSH1 0x0 ADD SLOAD SWAP1 DUP1 PUSH1 0x1 ADD SLOAD SWAP1 DUP1 PUSH1 0x2 ADD SLOAD SWAP1 POP DUP4 JUMP JUMPDEST PUSH2 0x13B1 PUSH2 0x1EBB JUMP JUMPDEST PUSH2 0x1423 JUMPI PUSH1 0x40 MLOAD PUSH32 0x8C379A000000000000000000000000000000000000000000000000000000000 DUP2 MSTORE PUSH1 0x4 ADD DUP1 DUP1 PUSH1 0x20 ADD DUP3 DUP2 SUB DUP3 MSTORE PUSH1 0x20 DUP2 MSTORE PUSH1 0x20 ADD DUP1 PUSH32 0x4F776E61626C653A2063616C6C6572206973206E6F7420746865206F776E6572 DUP2 MSTORE POP PUSH1 0x20 ADD SWAP2 POP POP PUSH1 0x40 MLOAD DUP1 SWAP2 SUB SWAP1 REVERT JUMPDEST PUSH8 0xDE0B6B3A7640000 DUP2 GT ISZERO PUSH2 0x1484 JUMPI PUSH1 0x40 MLOAD PUSH32 0x8C379A000000000000000000000000000000000000000000000000000000000 DUP2 MSTORE PUSH1 0x4 ADD DUP1 DUP1 PUSH1 0x20 ADD DUP3 DUP2 SUB DUP3 MSTORE PUSH1 0x27 DUP2 MSTORE PUSH1 0x20 ADD DUP1 PUSH2 0x530F PUSH1 0x27 SWAP2 CODECOPY PUSH1 0x40 ADD SWAP2 POP POP PUSH1 0x40 MLOAD DUP1 SWAP2 SUB SWAP1 REVERT JUMPDEST PUSH2 0x148F PUSH1 0xA9 DUP3 PUSH2 0x3FE4 JUMP JUMPDEST PUSH32 0xB7B23F70FE41CD9DEBAAA54902F2492C79F94D7582D587844DC12FDC8FC42A2B DUP2 CALLER PUSH1 0x40 MLOAD DUP1 DUP4 DUP2 MSTORE PUSH1 0x20 ADD DUP3 PUSH20 0xFFFFFFFFFFFFFFFFFFFFFFFFFFFFFFFFFFFFFFFF AND PUSH20 0xFFFFFFFFFFFFFFFFFFFFFFFFFFFFFFFFFFFFFFFF AND DUP2 MSTORE PUSH1 0x20 ADD SWAP3 POP POP POP PUSH1 0x40 MLOAD DUP1 SWAP2 SUB SWAP1 LOG1 POP JUMP JUMPDEST PUSH8 0x214E8348C4F0000 DUP2 JUMP JUMPDEST PUSH1 0x9D DUP1 PUSH1 0x0 ADD SLOAD SWAP1 DUP1 PUSH1 0x1 ADD SLOAD SWAP1 DUP1 PUSH1 0x2 ADD SLOAD SWAP1 POP DUP4 JUMP JUMPDEST PUSH1 0x0 PUSH2 0x1556 PUSH1 0xA9 PUSH1 0x40 MLOAD DUP1 PUSH1 0x60 ADD PUSH1 0x40 MSTORE SWAP1 DUP2 PUSH1 0x0 DUP3 ADD SLOAD DUP2 MSTORE PUSH1 0x20 ADD PUSH1 0x1 DUP3 ADD SLOAD DUP2 MSTORE PUSH1 0x20 ADD PUSH1 0x2 DUP3 ADD SLOAD DUP2 MSTORE POP POP PUSH2 0x41F8 JUMP JUMPDEST SWAP1 POP SWAP1 JUMP JUMPDEST PUSH1 0xA3 DUP1 PUSH1 0x0 ADD SLOAD SWAP1 DUP1 PUSH1 0x1 ADD SLOAD SWAP1 DUP1 PUSH1 0x2 ADD SLOAD SWAP1 POP DUP4 JUMP JUMPDEST PUSH1 0x0 PUSH2 0x15A8 PUSH1 0xA0 PUSH1 0x40 MLOAD DUP1 PUSH1 0x60 ADD PUSH1 0x40 MSTORE SWAP1 DUP2 PUSH1 0x0 DUP3 ADD SLOAD DUP2 MSTORE PUSH1 0x20 ADD PUSH1 0x1 DUP3 ADD SLOAD DUP2 MSTORE PUSH1 0x20 ADD PUSH1 0x2 DUP3 ADD SLOAD DUP2 MSTORE POP POP PUSH2 0x41F8 JUMP JUMPDEST SWAP1 POP SWAP1 JUMP JUMPDEST PUSH1 0x0 DUP1 PUSH1 0x0 DUP1 DUP5 EQ DUP1 PUSH2 0x15C0 JUMPI POP PUSH1 0x0 DUP6 EQ JUMPDEST ISZERO PUSH2 0x15DE JUMPI PUSH1 0x0 DUP1 PUSH1 0x0 DUP3 SWAP3 POP DUP2 SWAP2 POP DUP1 SWAP1 POP SWAP3 POP SWAP3 POP SWAP3 POP PUSH2 0x1719 JUMP JUMPDEST PUSH2 0x15F8 DUP6 PUSH2 0x15EA PUSH2 0x365C JUMP JUMPDEST PUSH2 0x3664 SWAP1 SWAP2 SWAP1 PUSH4 0xFFFFFFFF AND JUMP JUMPDEST SWAP1 POP PUSH1 0x0 DUP2 EQ ISZERO PUSH2 0x161C JUMPI PUSH1 0x0 DUP1 PUSH1 0x0 DUP3 SWAP3 POP DUP2 SWAP2 POP DUP1 SWAP1 POP SWAP3 POP SWAP3 POP SWAP3 POP PUSH2 0x1719 JUMP JUMPDEST PUSH1 0x0 PUSH2 0x1632 DUP3 PUSH1 0xB2 PUSH2 0x4222 SWAP1 SWAP2 SWAP1 PUSH4 0xFFFFFFFF AND JUMP JUMPDEST SWAP1 POP PUSH2 0x164E PUSH2 0x163F PUSH2 0x1B68 JUMP JUMPDEST DUP3 PUSH2 0x36AE SWAP1 SWAP2 SWAP1 PUSH4 0xFFFFFFFF AND JUMP JUMPDEST SWAP1 POP PUSH1 0x0 DUP2 EQ ISZERO PUSH2 0x166F JUMPI PUSH1 0x0 DUP1 DUP4 DUP3 SWAP3 POP DUP2 SWAP2 POP SWAP4 POP SWAP4 POP SWAP4 POP POP PUSH2 0x1719 JUMP JUMPDEST PUSH8 0x214E8348C4F0000 DUP2 GT ISZERO PUSH2 0x1681 JUMPI INVALID JUMPDEST PUSH2 0x16CE PUSH8 0xDE0B6B3A7640000 PUSH4 0x1E13380 MUL PUSH2 0x16C0 DUP5 PUSH2 0x16B2 PUSH8 0x214E8348C4F0000 DUP11 PUSH2 0x42AE SWAP1 SWAP2 SWAP1 PUSH4 0xFFFFFFFF AND JUMP JUMPDEST PUSH2 0x42AE SWAP1 SWAP2 SWAP1 PUSH4 0xFFFFFFFF AND JUMP JUMPDEST PUSH2 0x403D SWAP1 SWAP2 SWAP1 PUSH4 0xFFFFFFFF AND JUMP JUMPDEST SWAP4 POP PUSH2 0x1715 PUSH8 0xDE0B6B3A7640000 PUSH4 0x1E13380 MUL PUSH2 0x1707 DUP5 PUSH2 0x16F9 DUP6 DUP11 PUSH2 0x42AE SWAP1 SWAP2 SWAP1 PUSH4 0xFFFFFFFF AND JUMP JUMPDEST PUSH2 0x42AE SWAP1 SWAP2 SWAP1 PUSH4 0xFFFFFFFF AND JUMP JUMPDEST PUSH2 0x403D SWAP1 SWAP2 SWAP1 PUSH4 0xFFFFFFFF AND JUMP JUMPDEST SWAP3 POP POP JUMPDEST SWAP3 POP SWAP3 POP SWAP3 JUMP JUMPDEST PUSH2 0x1728 PUSH2 0x1EBB JUMP JUMPDEST PUSH2 0x179A JUMPI PUSH1 0x40 MLOAD PUSH32 0x8C379A000000000000000000000000000000000000000000000000000000000 DUP2 MSTORE PUSH1 0x4 ADD DUP1 DUP1 PUSH1 0x20 ADD DUP3 DUP2 SUB DUP3 MSTORE PUSH1 0x20 DUP2 MSTORE PUSH1 0x20 ADD DUP1 PUSH32 0x4F776E61626C653A2063616C6C6572206973206E6F7420746865206F776E6572 DUP2 MSTORE POP PUSH1 0x20 ADD SWAP2 POP POP PUSH1 0x40 MLOAD DUP1 SWAP2 SUB SWAP1 REVERT JUMPDEST PUSH2 0x17A5 PUSH1 0x9D DUP3 PUSH2 0x3FE4 JUMP JUMPDEST PUSH32 0xC8242DC5446855370B781ABBFC5D882AF1D1A3CC29143216ABA3558FEB0CE925 DUP2 CALLER PUSH1 0x40 MLOAD DUP1 DUP4 DUP2 MSTORE PUSH1 0x20 ADD DUP3 PUSH20 0xFFFFFFFFFFFFFFFFFFFFFFFFFFFFFFFFFFFFFFFF AND PUSH20 0xFFFFFFFFFFFFFFFFFFFFFFFFFFFFFFFFFFFFFFFF AND DUP2 MSTORE PUSH1 0x20 ADD SWAP3 POP POP POP PUSH1 0x40 MLOAD DUP1 SWAP2 SUB SWAP1 LOG1 POP JUMP JUMPDEST PUSH2 0x181B PUSH2 0x1EBB JUMP JUMPDEST PUSH2 0x188D JUMPI PUSH1 0x40 MLOAD PUSH32 0x8C379A000000000000000000000000000000000000000000000000000000000 DUP2 MSTORE PUSH1 0x4 ADD DUP1 DUP1 PUSH1 0x20 ADD DUP3 DUP2 SUB DUP3 MSTORE PUSH1 0x20 DUP2 MSTORE PUSH1 0x20 ADD DUP1 PUSH32 0x4F776E61626C653A2063616C6C6572206973206E6F7420746865206F776E6572 DUP2 MSTORE POP PUSH1 0x20 ADD SWAP2 POP POP PUSH1 0x40 MLOAD DUP1 SWAP2 SUB SWAP1 REVERT JUMPDEST PUSH1 0x0 PUSH20 0xFFFFFFFFFFFFFFFFFFFFFFFFFFFFFFFFFFFFFFFF AND PUSH1 0x33 PUSH1 0x0 SWAP1 SLOAD SWAP1 PUSH2 0x100 EXP SWAP1 DIV PUSH20 0xFFFFFFFFFFFFFFFFFFFFFFFFFFFFFFFFFFFFFFFF AND PUSH20 0xFFFFFFFFFFFFFFFFFFFFFFFFFFFFFFFFFFFFFFFF AND PUSH32 0x8BE0079C531659141344CD1FD0A4F28419497F9722A3DAAFE3B4186F6B6457E0 PUSH1 0x40 MLOAD PUSH1 0x40 MLOAD DUP1 SWAP2 SUB SWAP1 LOG3 PUSH1 0x0 PUSH1 0x33 PUSH1 0x0 PUSH2 0x100 EXP DUP2 SLOAD DUP2 PUSH20 0xFFFFFFFFFFFFFFFFFFFFFFFFFFFFFFFFFFFFFFFF MUL NOT AND SWAP1 DUP4 PUSH20 0xFFFFFFFFFFFFFFFFFFFFFFFFFFFFFFFFFFFFFFFF AND MUL OR SWAP1 SSTORE POP JUMP JUMPDEST PUSH2 0x1956 PUSH2 0x1EBB JUMP JUMPDEST PUSH2 0x19C8 JUMPI PUSH1 0x40 MLOAD PUSH32 0x8C379A000000000000000000000000000000000000000000000000000000000 DUP2 MSTORE PUSH1 0x4 ADD DUP1 DUP1 PUSH1 0x20 ADD DUP3 DUP2 SUB DUP3 MSTORE PUSH1 0x20 DUP2 MSTORE PUSH1 0x20 ADD DUP1 PUSH32 0x4F776E61626C653A2063616C6C6572206973206E6F7420746865206F776E6572 DUP2 MSTORE POP PUSH1 0x20 ADD SWAP2 POP POP PUSH1 0x40 MLOAD DUP1 SWAP2 SUB SWAP1 REVERT JUMPDEST PUSH2 0x19D3 PUSH1 0xA6 DUP3 PUSH2 0x3FE4 JUMP JUMPDEST PUSH32 0x597B9881536F6A87F60171072E2A2D56C53E5E2C1D72270259008AD4932E61ED DUP2 CALLER PUSH1 0x40 MLOAD DUP1 DUP4 DUP2 MSTORE PUSH1 0x20 ADD DUP3 PUSH20 0xFFFFFFFFFFFFFFFFFFFFFFFFFFFFFFFFFFFFFFFF AND PUSH20 0xFFFFFFFFFFFFFFFFFFFFFFFFFFFFFFFFFFFFFFFF AND DUP2 MSTORE PUSH1 0x20 ADD SWAP3 POP POP POP PUSH1 0x40 MLOAD DUP1 SWAP2 SUB SWAP1 LOG1 POP JUMP JUMPDEST PUSH1 0x0 DUP1 PUSH1 0x0 PUSH2 0x1A50 PUSH1 0xB2 PUSH2 0x4334 JUMP JUMPDEST SWAP3 POP SWAP3 POP SWAP3 POP SWAP1 SWAP2 SWAP3 JUMP JUMPDEST PUSH1 0x0 PUSH1 0x1 SWAP1 SLOAD SWAP1 PUSH2 0x100 EXP SWAP1 DIV PUSH1 0xFF AND DUP1 PUSH2 0x1A7A JUMPI POP PUSH2 0x1A79 PUSH2 0x43A8 JUMP JUMPDEST JUMPDEST DUP1 PUSH2 0x1A91 JUMPI POP PUSH1 0x0 DUP1 SWAP1 SLOAD SWAP1 PUSH2 0x100 EXP SWAP1 DIV PUSH1 0xFF AND ISZERO JUMPDEST PUSH2 0x1AE6 JUMPI PUSH1 0x40 MLOAD PUSH32 0x8C379A000000000000000000000000000000000000000000000000000000000 DUP2 MSTORE PUSH1 0x4 ADD DUP1 DUP1 PUSH1 0x20 ADD DUP3 DUP2 SUB DUP3 MSTORE PUSH1 0x2E DUP2 MSTORE PUSH1 0x20 ADD DUP1 PUSH2 0x52B6 PUSH1 0x2E SWAP2 CODECOPY PUSH1 0x40 ADD SWAP2 POP POP PUSH1 0x40 MLOAD DUP1 SWAP2 SUB SWAP1 REVERT JUMPDEST PUSH1 0x0 DUP1 PUSH1 0x1 SWAP1 SLOAD SWAP1 PUSH2 0x100 EXP SWAP1 DIV PUSH1 0xFF AND ISZERO SWAP1 POP DUP1 ISZERO PUSH2 0x1B36 JUMPI PUSH1 0x1 PUSH1 0x0 PUSH1 0x1 PUSH2 0x100 EXP DUP2 SLOAD DUP2 PUSH1 0xFF MUL NOT AND SWAP1 DUP4 ISZERO ISZERO MUL OR SWAP1 SSTORE POP PUSH1 0x1 PUSH1 0x0 DUP1 PUSH2 0x100 EXP DUP2 SLOAD DUP2 PUSH1 0xFF MUL NOT AND SWAP1 DUP4 ISZERO ISZERO MUL OR SWAP1 SSTORE POP JUMPDEST PUSH1 0x1 PUSH1 0x66 DUP2 SWAP1 SSTORE POP DUP1 ISZERO PUSH2 0x1B5F JUMPI PUSH1 0x0 DUP1 PUSH1 0x1 PUSH2 0x100 EXP DUP2 SLOAD DUP2 PUSH1 0xFF MUL NOT AND SWAP1 DUP4 ISZERO ISZERO MUL OR SWAP1 SSTORE POP JUMPDEST POP JUMP JUMPDEST PUSH1 0xB0 SLOAD DUP2 JUMP JUMPDEST PUSH1 0x0 DUP1 PUSH1 0x99 PUSH1 0x0 SWAP1 SLOAD SWAP1 PUSH2 0x100 EXP SWAP1 DIV PUSH20 0xFFFFFFFFFFFFFFFFFFFFFFFFFFFFFFFFFFFFFFFF AND PUSH20 0xFFFFFFFFFFFFFFFFFFFFFFFFFFFFFFFFFFFFFFFF AND PUSH4 0x18160DDD PUSH1 0x40 MLOAD DUP2 PUSH4 0xFFFFFFFF AND PUSH1 0xE0 SHL DUP2 MSTORE PUSH1 0x4 ADD PUSH1 0x20 PUSH1 0x40 MLOAD DUP1 DUP4 SUB DUP2 DUP7 DUP1 EXTCODESIZE ISZERO DUP1 ISZERO PUSH2 0x1BD3 JUMPI PUSH1 0x0 DUP1 REVERT JUMPDEST POP GAS STATICCALL ISZERO DUP1 ISZERO PUSH2 0x1BE7 JUMPI RETURNDATASIZE PUSH1 0x0 DUP1 RETURNDATACOPY RETURNDATASIZE PUSH1 0x0 REVERT JUMPDEST POP POP POP POP PUSH1 0x40 MLOAD RETURNDATASIZE PUSH1 0x20 DUP2 LT ISZERO PUSH2 0x1BFD JUMPI PUSH1 0x0 DUP1 REVERT JUMPDEST DUP2 ADD SWAP1 DUP1 DUP1 MLOAD SWAP1 PUSH1 0x20 ADD SWAP1 SWAP3 SWAP2 SWAP1 POP POP POP SWAP1 POP PUSH1 0x0 PUSH2 0x1C1A PUSH2 0x1521 JUMP JUMPDEST SWAP1 POP PUSH1 0x0 DUP2 EQ ISZERO PUSH2 0x1C30 JUMPI PUSH1 0x0 SWAP3 POP POP POP PUSH2 0x1CC4 JUMP JUMPDEST PUSH1 0x0 PUSH2 0x1C5F PUSH8 0xDE0B6B3A7640000 PUSH2 0x1C51 DUP5 DUP7 PUSH2 0x42AE SWAP1 SWAP2 SWAP1 PUSH4 0xFFFFFFFF AND JUMP JUMPDEST PUSH2 0x403D SWAP1 SWAP2 SWAP1 PUSH4 0xFFFFFFFF AND JUMP JUMPDEST SWAP1 POP PUSH1 0x0 PUSH2 0x1C7F PUSH1 0x2 PUSH8 0x214E8348C4F0000 PUSH2 0x403D SWAP1 SWAP2 SWAP1 PUSH4 0xFFFFFFFF AND JUMP JUMPDEST SWAP1 POP DUP2 PUSH1 0xB0 SLOAD LT PUSH2 0x1C96 JUMPI DUP1 SWAP5 POP POP POP POP POP PUSH2 0x1CC4 JUMP JUMPDEST PUSH2 0x1CBD DUP3 PUSH2 0x1CAF PUSH1 0xB0 SLOAD DUP5 PUSH2 0x42AE SWAP1 SWAP2 SWAP1 PUSH4 0xFFFFFFFF AND JUMP JUMPDEST PUSH2 0x403D SWAP1 SWAP2 SWAP1 PUSH4 0xFFFFFFFF AND JUMP JUMPDEST SWAP5 POP POP POP POP POP JUMPDEST SWAP1 JUMP JUMPDEST PUSH2 0x1CCF PUSH2 0x1EBB JUMP JUMPDEST PUSH2 0x1D41 JUMPI PUSH1 0x40 MLOAD PUSH32 0x8C379A000000000000000000000000000000000000000000000000000000000 DUP2 MSTORE PUSH1 0x4 ADD DUP1 DUP1 PUSH1 0x20 ADD DUP3 DUP2 SUB DUP3 MSTORE PUSH1 0x20 DUP2 MSTORE PUSH1 0x20 ADD DUP1 PUSH32 0x4F776E61626C653A2063616C6C6572206973206E6F7420746865206F776E6572 DUP2 MSTORE POP PUSH1 0x20 ADD SWAP2 POP POP PUSH1 0x40 MLOAD DUP1 SWAP2 SUB SWAP1 REVERT JUMPDEST PUSH2 0xE10 DUP2 LT ISZERO PUSH2 0x1DB9 JUMPI PUSH1 0x40 MLOAD PUSH32 0x8C379A000000000000000000000000000000000000000000000000000000000 DUP2 MSTORE PUSH1 0x4 ADD DUP1 DUP1 PUSH1 0x20 ADD DUP3 DUP2 SUB DUP3 MSTORE PUSH1 0x1D DUP2 MSTORE PUSH1 0x20 ADD DUP1 PUSH32 0x73686F756C646E2774206265206C657373207468616E203120686F7572000000 DUP2 MSTORE POP PUSH1 0x20 ADD SWAP2 POP POP PUSH1 0x40 MLOAD DUP1 SWAP2 SUB SWAP1 REVERT JUMPDEST PUSH2 0x1DC4 PUSH1 0xA3 DUP3 PUSH2 0x3FE4 JUMP JUMPDEST PUSH32 0x3A963FA1D1D0DA205F1AE9869AA14BF4FF7A4585EFA819B0C94326B4A3E1E228 DUP2 CALLER PUSH1 0x40 MLOAD DUP1 DUP4 DUP2 MSTORE PUSH1 0x20 ADD DUP3 PUSH20 0xFFFFFFFFFFFFFFFFFFFFFFFFFFFFFFFFFFFFFFFF AND PUSH20 0xFFFFFFFFFFFFFFFFFFFFFFFFFFFFFFFFFFFFFFFF AND DUP2 MSTORE PUSH1 0x20 ADD SWAP3 POP POP POP PUSH1 0x40 MLOAD DUP1 SWAP2 SUB SWAP1 LOG1 POP JUMP JUMPDEST PUSH1 0xAD PUSH1 0x20 MSTORE DUP2 PUSH1 0x0 MSTORE PUSH1 0x40 PUSH1 0x0 KECCAK256 PUSH1 0x20 MSTORE DUP1 PUSH1 0x0 MSTORE PUSH1 0x40 PUSH1 0x0 KECCAK256 PUSH1 0x0 SWAP2 POP SWAP2 POP POP SLOAD DUP2 JUMP JUMPDEST PUSH1 0x0 PUSH1 0x33 PUSH1 0x0 SWAP1 SLOAD SWAP1 PUSH2 0x100 EXP SWAP1 DIV PUSH20 0xFFFFFFFFFFFFFFFFFFFFFFFFFFFFFFFFFFFFFFFF AND SWAP1 POP SWAP1 JUMP JUMPDEST PUSH1 0x0 PUSH2 0x1EB6 PUSH1 0xA3 PUSH1 0x40 MLOAD DUP1 PUSH1 0x60 ADD PUSH1 0x40 MSTORE SWAP1 DUP2 PUSH1 0x0 DUP3 ADD SLOAD DUP2 MSTORE PUSH1 0x20 ADD PUSH1 0x1 DUP3 ADD SLOAD DUP2 MSTORE PUSH1 0x20 ADD PUSH1 0x2 DUP3 ADD SLOAD DUP2 MSTORE POP POP PUSH2 0x41F8 JUMP JUMPDEST SWAP1 POP SWAP1 JUMP JUMPDEST PUSH1 0x0 PUSH1 0x33 PUSH1 0x0 SWAP1 SLOAD SWAP1 PUSH2 0x100 EXP SWAP1 DIV PUSH20 0xFFFFFFFFFFFFFFFFFFFFFFFFFFFFFFFFFFFFFFFF AND PUSH20 0xFFFFFFFFFFFFFFFFFFFFFFFFFFFFFFFFFFFFFFFF AND PUSH2 0x1EFE PUSH2 0x43BF JUMP JUMPDEST PUSH20 0xFFFFFFFFFFFFFFFFFFFFFFFFFFFFFFFFFFFFFFFF AND EQ SWAP1 POP SWAP1 JUMP JUMPDEST PUSH2 0x1F27 CALLER DUP4 DUP4 PUSH1 0x1 PUSH2 0x3736 JUMP JUMPDEST POP POP JUMP JUMPDEST PUSH1 0x0 PUSH2 0x1F60 PUSH1 0xA6 PUSH1 0x40 MLOAD DUP1 PUSH1 0x60 ADD PUSH1 0x40 MSTORE SWAP1 DUP2 PUSH1 0x0 DUP3 ADD SLOAD DUP2 MSTORE PUSH1 0x20 ADD PUSH1 0x1 DUP3 ADD SLOAD DUP2 MSTORE PUSH1 0x20 ADD PUSH1 0x2 DUP3 ADD SLOAD DUP2 MSTORE POP POP PUSH2 0x41F8 JUMP JUMPDEST SWAP1 POP SWAP1 JUMP JUMPDEST PUSH1 0x0 DUP2 GT DUP1 ISZERO PUSH2 0x1FB4 JUMPI POP PUSH1 0xAF PUSH1 0x0 CALLER PUSH20 0xFFFFFFFFFFFFFFFFFFFFFFFFFFFFFFFFFFFFFFFF AND PUSH20 0xFFFFFFFFFFFFFFFFFFFFFFFFFFFFFFFFFFFFFFFF AND DUP2 MSTORE PUSH1 0x20 ADD SWAP1 DUP2 MSTORE PUSH1 0x20 ADD PUSH1 0x0 KECCAK256 SLOAD DUP2 GT ISZERO JUMPDEST PUSH2 0x2026 JUMPI PUSH1 0x40 MLOAD PUSH32 0x8C379A000000000000000000000000000000000000000000000000000000000 DUP2 MSTORE PUSH1 0x4 ADD DUP1 DUP1 PUSH1 0x20 ADD DUP3 DUP2 SUB DUP3 MSTORE PUSH1 0x10 DUP2 MSTORE PUSH1 0x20 ADD DUP1 PUSH32 0x77726F6E67206465706F73697420696400000000000000000000000000000000 DUP2 MSTORE POP PUSH1 0x20 ADD SWAP2 POP POP PUSH1 0x40 MLOAD DUP1 SWAP2 SUB SWAP1 REVERT JUMPDEST PUSH2 0x202E PUSH2 0x365C JUMP JUMPDEST PUSH1 0xAE PUSH1 0x0 CALLER PUSH20 0xFFFFFFFFFFFFFFFFFFFFFFFFFFFFFFFFFFFFFFFF AND PUSH20 0xFFFFFFFFFFFFFFFFFFFFFFFFFFFFFFFFFFFFFFFF AND DUP2 MSTORE PUSH1 0x20 ADD SWAP1 DUP2 MSTORE PUSH1 0x20 ADD PUSH1 0x0 KECCAK256 PUSH1 0x0 DUP4 DUP2 MSTORE PUSH1 0x20 ADD SWAP1 DUP2 MSTORE PUSH1 0x20 ADD PUSH1 0x0 KECCAK256 DUP2 SWAP1 SSTORE POP DUP1 CALLER PUSH20 0xFFFFFFFFFFFFFFFFFFFFFFFFFFFFFFFFFFFFFFFF AND PUSH32 0xE670E4E82118D22A1F9EE18920455EBC958BAE26A90A05D31D3378788B1B0E44 PUSH1 0x40 MLOAD PUSH1 0x40 MLOAD DUP1 SWAP2 SUB SWAP1 LOG3 POP JUMP JUMPDEST PUSH2 0x20D1 PUSH2 0x1EBB JUMP JUMPDEST PUSH2 0x2143 JUMPI PUSH1 0x40 MLOAD PUSH32 0x8C379A000000000000000000000000000000000000000000000000000000000 DUP2 MSTORE PUSH1 0x4 ADD DUP1 DUP1 PUSH1 0x20 ADD DUP3 DUP2 SUB DUP3 MSTORE PUSH1 0x20 DUP2 MSTORE PUSH1 0x20 ADD DUP1 PUSH32 0x4F776E61626C653A2063616C6C6572206973206E6F7420746865206F776E6572 DUP2 MSTORE POP PUSH1 0x20 ADD SWAP2 POP POP PUSH1 0x40 MLOAD DUP1 SWAP2 SUB SWAP1 REVERT JUMPDEST PUSH1 0x0 PUSH20 0xFFFFFFFFFFFFFFFFFFFFFFFFFFFFFFFFFFFFFFFF AND DUP3 PUSH20 0xFFFFFFFFFFFFFFFFFFFFFFFFFFFFFFFFFFFFFFFF AND EQ ISZERO DUP1 ISZERO PUSH2 0x21AC JUMPI POP ADDRESS PUSH20 0xFFFFFFFFFFFFFFFFFFFFFFFFFFFFFFFFFFFFFFFF AND DUP3 PUSH20 0xFFFFFFFFFFFFFFFFFFFFFFFFFFFFFFFFFFFFFFFF AND EQ ISZERO JUMPDEST PUSH2 0x221E JUMPI PUSH1 0x40 MLOAD PUSH32 0x8C379A000000000000000000000000000000000000000000000000000000000 DUP2 MSTORE PUSH1 0x4 ADD DUP1 DUP1 PUSH1 0x20 ADD DUP3 DUP2 SUB DUP3 MSTORE PUSH1 0x15 DUP2 MSTORE PUSH1 0x20 ADD DUP1 PUSH32 0x6E6F7420612076616C696420726563697069656E740000000000000000000000 DUP2 MSTORE POP PUSH1 0x20 ADD SWAP2 POP POP PUSH1 0x40 MLOAD DUP1 SWAP2 SUB SWAP1 REVERT JUMPDEST PUSH1 0x0 DUP2 GT PUSH2 0x2294 JUMPI PUSH1 0x40 MLOAD PUSH32 0x8C379A000000000000000000000000000000000000000000000000000000000 DUP2 MSTORE PUSH1 0x4 ADD DUP1 DUP1 PUSH1 0x20 ADD DUP3 DUP2 SUB DUP3 MSTORE PUSH1 0x1F DUP2 MSTORE PUSH1 0x20 ADD DUP1 PUSH32 0x616D6F756E742073686F756C642062652067726561746572207468616E203000 DUP2 MSTORE POP PUSH1 0x20 ADD SWAP2 POP POP PUSH1 0x40 MLOAD DUP1 SWAP2 SUB SWAP1 REVERT JUMPDEST PUSH1 0x0 PUSH20 0xFFFFFFFFFFFFFFFFFFFFFFFFFFFFFFFFFFFFFFFF AND DUP4 PUSH20 0xFFFFFFFFFFFFFFFFFFFFFFFFFFFFFFFFFFFFFFFF AND EQ ISZERO PUSH2 0x236B JUMPI DUP2 PUSH20 0xFFFFFFFFFFFFFFFFFFFFFFFFFFFFFFFFFFFFFFFF AND PUSH2 0x8FC DUP3 SWAP1 DUP2 ISZERO MUL SWAP1 PUSH1 0x40 MLOAD PUSH1 0x0 PUSH1 0x40 MLOAD DUP1 DUP4 SUB DUP2 DUP6 DUP9 DUP9 CALL SWAP4 POP POP POP POP PUSH2 0x2366 JUMPI DUP1 DUP3 PUSH1 0x40 MLOAD PUSH2 0x2310 SWAP1 PUSH2 0x5160 JUMP JUMPDEST DUP1 DUP3 PUSH20 0xFFFFFFFFFFFFFFFFFFFFFFFFFFFFFFFFFFFFFFFF AND PUSH20 0xFFFFFFFFFFFFFFFFFFFFFFFFFFFFFFFFFFFFFFFF AND DUP2 MSTORE PUSH1 0x20 ADD SWAP2 POP POP PUSH1 0x40 MLOAD DUP1 SWAP2 SUB SWAP1 DUP3 CREATE DUP1 ISZERO DUP1 ISZERO PUSH2 0x2361 JUMPI RETURNDATASIZE PUSH1 0x0 DUP1 RETURNDATACOPY RETURNDATASIZE PUSH1 0x0 REVERT JUMPDEST POP SWAP1 POP POP JUMPDEST PUSH2 0x26B8 JUMP JUMPDEST PUSH1 0x99 PUSH1 0x0 SWAP1 SLOAD SWAP1 PUSH2 0x100 EXP SWAP1 DIV PUSH20 0xFFFFFFFFFFFFFFFFFFFFFFFFFFFFFFFFFFFFFFFF AND PUSH20 0xFFFFFFFFFFFFFFFFFFFFFFFFFFFFFFFFFFFFFFFF AND DUP4 PUSH20 0xFFFFFFFFFFFFFFFFFFFFFFFFFFFFFFFFFFFFFFFF AND EQ ISZERO PUSH2 0x2685 JUMPI PUSH1 0x0 PUSH2 0x24B1 PUSH1 0xB0 SLOAD PUSH1 0x99 PUSH1 0x0 SWAP1 SLOAD SWAP1 PUSH2 0x100 EXP SWAP1 DIV PUSH20 0xFFFFFFFFFFFFFFFFFFFFFFFFFFFFFFFFFFFFFFFF AND PUSH20 0xFFFFFFFFFFFFFFFFFFFFFFFFFFFFFFFFFFFFFFFF AND PUSH4 0x70A08231 ADDRESS PUSH1 0x40 MLOAD DUP3 PUSH4 0xFFFFFFFF AND PUSH1 0xE0 SHL DUP2 MSTORE PUSH1 0x4 ADD DUP1 DUP3 PUSH20 0xFFFFFFFFFFFFFFFFFFFFFFFFFFFFFFFFFFFFFFFF AND PUSH20 0xFFFFFFFFFFFFFFFFFFFFFFFFFFFFFFFFFFFFFFFF AND DUP2 MSTORE PUSH1 0x20 ADD SWAP2 POP POP PUSH1 0x20 PUSH1 0x40 MLOAD DUP1 DUP4 SUB DUP2 DUP7 DUP1 EXTCODESIZE ISZERO DUP1 ISZERO PUSH2 0x2468 JUMPI PUSH1 0x0 DUP1 REVERT JUMPDEST POP GAS STATICCALL ISZERO DUP1 ISZERO PUSH2 0x247C JUMPI RETURNDATASIZE PUSH1 0x0 DUP1 RETURNDATACOPY RETURNDATASIZE PUSH1 0x0 REVERT JUMPDEST POP POP POP POP PUSH1 0x40 MLOAD RETURNDATASIZE PUSH1 0x20 DUP2 LT ISZERO PUSH2 0x2492 JUMPI PUSH1 0x0 DUP1 REVERT JUMPDEST DUP2 ADD SWAP1 DUP1 DUP1 MLOAD SWAP1 PUSH1 0x20 ADD SWAP1 SWAP3 SWAP2 SWAP1 POP POP POP PUSH2 0x3664 SWAP1 SWAP2 SWAP1 PUSH4 0xFFFFFFFF AND JUMP JUMPDEST SWAP1 POP DUP2 DUP2 LT ISZERO PUSH2 0x2529 JUMPI PUSH1 0x40 MLOAD PUSH32 0x8C379A000000000000000000000000000000000000000000000000000000000 DUP2 MSTORE PUSH1 0x4 ADD DUP1 DUP1 PUSH1 0x20 ADD DUP3 DUP2 SUB DUP3 MSTORE PUSH1 0x12 DUP2 MSTORE PUSH1 0x20 ADD DUP1 PUSH32 0x696E73756666696369656E742066756E64730000000000000000000000000000 DUP2 MSTORE POP PUSH1 0x20 ADD SWAP2 POP POP PUSH1 0x40 MLOAD DUP1 SWAP2 SUB SWAP1 REVERT JUMPDEST PUSH1 0x99 PUSH1 0x0 SWAP1 SLOAD SWAP1 PUSH2 0x100 EXP SWAP1 DIV PUSH20 0xFFFFFFFFFFFFFFFFFFFFFFFFFFFFFFFFFFFFFFFF AND PUSH20 0xFFFFFFFFFFFFFFFFFFFFFFFFFFFFFFFFFFFFFFFF AND PUSH4 0xA9059CBB DUP5 DUP5 PUSH1 0x40 MLOAD DUP4 PUSH4 0xFFFFFFFF AND PUSH1 0xE0 SHL DUP2 MSTORE PUSH1 0x4 ADD DUP1 DUP4 PUSH20 0xFFFFFFFFFFFFFFFFFFFFFFFFFFFFFFFFFFFFFFFF AND PUSH20 0xFFFFFFFFFFFFFFFFFFFFFFFFFFFFFFFFFFFFFFFF AND DUP2 MSTORE PUSH1 0x20 ADD DUP3 DUP2 MSTORE PUSH1 0x20 ADD SWAP3 POP POP POP PUSH1 0x20 PUSH1 0x40 MLOAD DUP1 DUP4 SUB DUP2 PUSH1 0x0 DUP8 DUP1 EXTCODESIZE ISZERO DUP1 ISZERO PUSH2 0x25D2 JUMPI PUSH1 0x0 DUP1 REVERT JUMPDEST POP GAS CALL ISZERO DUP1 ISZERO PUSH2 0x25E6 JUMPI RETURNDATASIZE PUSH1 0x0 DUP1 RETURNDATACOPY RETURNDATASIZE PUSH1 0x0 REVERT JUMPDEST POP POP POP POP PUSH1 0x40 MLOAD RETURNDATASIZE PUSH1 0x20 DUP2 LT ISZERO PUSH2 0x25FC JUMPI PUSH1 0x0 DUP1 REVERT JUMPDEST DUP2 ADD SWAP1 DUP1 DUP1 MLOAD SWAP1 PUSH1 0x20 ADD SWAP1 SWAP3 SWAP2 SWAP1 POP POP POP PUSH2 0x267F JUMPI PUSH1 0x40 MLOAD PUSH32 0x8C379A000000000000000000000000000000000000000000000000000000000 DUP2 MSTORE PUSH1 0x4 ADD DUP1 DUP1 PUSH1 0x20 ADD DUP3 DUP2 SUB DUP3 MSTORE PUSH1 0xF DUP2 MSTORE PUSH1 0x20 ADD DUP1 PUSH32 0x7472616E73666572206661696C65640000000000000000000000000000000000 DUP2 MSTORE POP PUSH1 0x20 ADD SWAP2 POP POP PUSH1 0x40 MLOAD DUP1 SWAP2 SUB SWAP1 REVERT JUMPDEST POP PUSH2 0x26B7 JUMP JUMPDEST PUSH1 0x0 DUP4 SWAP1 POP PUSH2 0x26B5 DUP4 DUP4 DUP4 PUSH20 0xFFFFFFFFFFFFFFFFFFFFFFFFFFFFFFFFFFFFFFFF AND PUSH2 0x43C7 SWAP1 SWAP3 SWAP2 SWAP1 PUSH4 0xFFFFFFFF AND JUMP JUMPDEST POP JUMPDEST JUMPDEST POP POP POP JUMP JUMPDEST PUSH1 0x0 PUSH1 0x99 PUSH1 0x0 SWAP1 SLOAD SWAP1 PUSH2 0x100 EXP SWAP1 DIV PUSH20 0xFFFFFFFFFFFFFFFFFFFFFFFFFFFFFFFFFFFFFFFF AND PUSH20 0xFFFFFFFFFFFFFFFFFFFFFFFFFFFFFFFFFFFFFFFF AND CALLER PUSH20 0xFFFFFFFFFFFFFFFFFFFFFFFFFFFFFFFFFFFFFFFF AND EQ PUSH2 0x2782 JUMPI PUSH1 0x40 MLOAD PUSH32 0x8C379A000000000000000000000000000000000000000000000000000000000 DUP2 MSTORE PUSH1 0x4 ADD DUP1 DUP1 PUSH1 0x20 ADD DUP3 DUP2 SUB DUP3 MSTORE PUSH1 0x1E DUP2 MSTORE PUSH1 0x20 ADD DUP1 PUSH32 0x6F6E6C7920746F6B656E20636F6E747261637420697320616C6C6F7765640000 DUP2 MSTORE POP PUSH1 0x20 ADD SWAP2 POP POP PUSH1 0x40 MLOAD DUP1 SWAP2 SUB SWAP1 REVERT JUMPDEST PUSH1 0xB1 PUSH1 0x0 SWAP1 SLOAD SWAP1 PUSH2 0x100 EXP SWAP1 DIV PUSH1 0xFF AND PUSH2 0x27ED JUMPI PUSH2 0x27EC DUP6 PUSH1 0xAF PUSH1 0x0 DUP9 PUSH20 0xFFFFFFFFFFFFFFFFFFFFFFFFFFFFFFFFFFFFFFFF AND PUSH20 0xFFFFFFFFFFFFFFFFFFFFFFFFFFFFFFFFFFFFFFFF AND DUP2 MSTORE PUSH1 0x20 ADD SWAP1 DUP2 MSTORE PUSH1 0x20 ADD PUSH1 0x0 KECCAK256 PUSH1 0x0 DUP2 SLOAD PUSH1 0x1 ADD SWAP2 SWAP1 POP DUP2 SWAP1 SSTORE DUP7 PUSH2 0x4498 JUMP JUMPDEST JUMPDEST PUSH1 0x1 SWAP1 POP SWAP5 SWAP4 POP POP POP POP JUMP JUMPDEST PUSH1 0xA9 DUP1 PUSH1 0x0 ADD SLOAD SWAP1 DUP1 PUSH1 0x1 ADD SLOAD SWAP1 DUP1 PUSH1 0x2 ADD SLOAD SWAP1 POP DUP4 JUMP JUMPDEST PUSH2 0x2866 PUSH1 0xAF PUSH1 0x0 CALLER PUSH20 0xFFFFFFFFFFFFFFFFFFFFFFFFFFFFFFFFFFFFFFFF AND PUSH20 0xFFFFFFFFFFFFFFFFFFFFFFFFFFFFFFFFFFFFFFFF AND DUP2 MSTORE PUSH1 0x20 ADD SWAP1 DUP2 MSTORE PUSH1 0x20 ADD PUSH1 0x0 KECCAK256 PUSH1 0x0 DUP2 SLOAD PUSH1 0x1 ADD SWAP2 SWAP1 POP DUP2 SWAP1 SSTORE DUP3 PUSH2 0x3342 JUMP JUMPDEST POP JUMP JUMPDEST PUSH1 0xAF PUSH1 0x20 MSTORE DUP1 PUSH1 0x0 MSTORE PUSH1 0x40 PUSH1 0x0 KECCAK256 PUSH1 0x0 SWAP2 POP SWAP1 POP SLOAD DUP2 JUMP JUMPDEST PUSH1 0x0 PUSH1 0x1 SWAP1 SLOAD SWAP1 PUSH2 0x100 EXP SWAP1 DIV PUSH1 0xFF AND DUP1 PUSH2 0x28A0 JUMPI POP PUSH2 0x289F PUSH2 0x43A8 JUMP JUMPDEST JUMPDEST DUP1 PUSH2 0x28B7 JUMPI POP PUSH1 0x0 DUP1 SWAP1 SLOAD SWAP1 PUSH2 0x100 EXP SWAP1 DIV PUSH1 0xFF AND ISZERO JUMPDEST PUSH2 0x290C JUMPI PUSH1 0x40 MLOAD PUSH32 0x8C379A000000000000000000000000000000000000000000000000000000000 DUP2 MSTORE PUSH1 0x4 ADD DUP1 DUP1 PUSH1 0x20 ADD DUP3 DUP2 SUB DUP3 MSTORE PUSH1 0x2E DUP2 MSTORE PUSH1 0x20 ADD DUP1 PUSH2 0x52B6 PUSH1 0x2E SWAP2 CODECOPY PUSH1 0x40 ADD SWAP2 POP POP PUSH1 0x40 MLOAD DUP1 SWAP2 SUB SWAP1 REVERT JUMPDEST PUSH1 0x0 DUP1 PUSH1 0x1 SWAP1 SLOAD SWAP1 PUSH2 0x100 EXP SWAP1 DIV PUSH1 0xFF AND ISZERO SWAP1 POP DUP1 ISZERO PUSH2 0x295C JUMPI PUSH1 0x1 PUSH1 0x0 PUSH1 0x1 PUSH2 0x100 EXP DUP2 SLOAD DUP2 PUSH1 0xFF MUL NOT AND SWAP1 DUP4 ISZERO ISZERO MUL OR SWAP1 SSTORE POP PUSH1 0x1 PUSH1 0x0 DUP1 PUSH2 0x100 EXP DUP2 SLOAD DUP2 PUSH1 0xFF MUL NOT AND SWAP1 DUP4 ISZERO ISZERO MUL OR SWAP1 SSTORE POP JUMPDEST DUP2 PUSH1 0x33 PUSH1 0x0 PUSH2 0x100 EXP DUP2 SLOAD DUP2 PUSH20 0xFFFFFFFFFFFFFFFFFFFFFFFFFFFFFFFFFFFFFFFF MUL NOT AND SWAP1 DUP4 PUSH20 0xFFFFFFFFFFFFFFFFFFFFFFFFFFFFFFFFFFFFFFFF AND MUL OR SWAP1 SSTORE POP PUSH1 0x33 PUSH1 0x0 SWAP1 SLOAD SWAP1 PUSH2 0x100 EXP SWAP1 DIV PUSH20 0xFFFFFFFFFFFFFFFFFFFFFFFFFFFFFFFFFFFFFFFF AND PUSH20 0xFFFFFFFFFFFFFFFFFFFFFFFFFFFFFFFFFFFFFFFF AND PUSH1 0x0 PUSH20 0xFFFFFFFFFFFFFFFFFFFFFFFFFFFFFFFFFFFFFFFF AND PUSH32 0x8BE0079C531659141344CD1FD0A4F28419497F9722A3DAAFE3B4186F6B6457E0 PUSH1 0x40 MLOAD PUSH1 0x40 MLOAD DUP1 SWAP2 SUB SWAP1 LOG3 DUP1 ISZERO PUSH2 0x2A3B JUMPI PUSH1 0x0 DUP1 PUSH1 0x1 PUSH2 0x100 EXP DUP2 SLOAD DUP2 PUSH1 0xFF MUL NOT AND SWAP1 DUP4 ISZERO ISZERO MUL OR SWAP1 SSTORE POP JUMPDEST POP POP JUMP JUMPDEST PUSH1 0x0 PUSH2 0x2A49 PUSH2 0x516C JUMP JUMPDEST PUSH1 0x9A PUSH1 0x40 MLOAD DUP1 PUSH1 0x60 ADD PUSH1 0x40 MSTORE SWAP1 DUP2 PUSH1 0x0 DUP3 ADD PUSH1 0x0 SWAP1 SLOAD SWAP1 PUSH2 0x100 EXP SWAP1 DIV PUSH20 0xFFFFFFFFFFFFFFFFFFFFFFFFFFFFFFFFFFFFFFFF AND PUSH20 0xFFFFFFFFFFFFFFFFFFFFFFFFFFFFFFFFFFFFFFFF AND PUSH20 0xFFFFFFFFFFFFFFFFFFFFFFFFFFFFFFFFFFFFFFFF AND DUP2 MSTORE PUSH1 0x20 ADD PUSH1 0x1 DUP3 ADD PUSH1 0x0 SWAP1 SLOAD SWAP1 PUSH2 0x100 EXP SWAP1 DIV PUSH20 0xFFFFFFFFFFFFFFFFFFFFFFFFFFFFFFFFFFFFFFFF AND PUSH20 0xFFFFFFFFFFFFFFFFFFFFFFFFFFFFFFFFFFFFFFFF AND PUSH20 0xFFFFFFFFFFFFFFFFFFFFFFFFFFFFFFFFFFFFFFFF AND DUP2 MSTORE PUSH1 0x20 ADD PUSH1 0x2 DUP3 ADD SLOAD DUP2 MSTORE POP POP SWAP1 POP PUSH2 0x2B1B DUP2 PUSH1 0x40 ADD MLOAD PUSH2 0x47CF JUMP JUMPDEST PUSH2 0x2B29 JUMPI DUP1 PUSH1 0x0 ADD MLOAD PUSH2 0x2B2F JUMP JUMPDEST DUP1 PUSH1 0x20 ADD MLOAD JUMPDEST SWAP2 POP POP SWAP1 JUMP JUMPDEST PUSH1 0x0 PUSH1 0x1 SWAP1 SLOAD SWAP1 PUSH2 0x100 EXP SWAP1 DIV PUSH1 0xFF AND DUP1 PUSH2 0x2B54 JUMPI POP PUSH2 0x2B53 PUSH2 0x43A8 JUMP JUMPDEST JUMPDEST DUP1 PUSH2 0x2B6B JUMPI POP PUSH1 0x0 DUP1 SWAP1 SLOAD SWAP1 PUSH2 0x100 EXP SWAP1 DIV PUSH1 0xFF AND ISZERO JUMPDEST PUSH2 0x2BC0 JUMPI PUSH1 0x40 MLOAD PUSH32 0x8C379A000000000000000000000000000000000000000000000000000000000 DUP2 MSTORE PUSH1 0x4 ADD DUP1 DUP1 PUSH1 0x20 ADD DUP3 DUP2 SUB DUP3 MSTORE PUSH1 0x2E DUP2 MSTORE PUSH1 0x20 ADD DUP1 PUSH2 0x52B6 PUSH1 0x2E SWAP2 CODECOPY PUSH1 0x40 ADD SWAP2 POP POP PUSH1 0x40 MLOAD DUP1 SWAP2 SUB SWAP1 REVERT JUMPDEST PUSH1 0x0 DUP1 PUSH1 0x1 SWAP1 SLOAD SWAP1 PUSH2 0x100 EXP SWAP1 DIV PUSH1 0xFF AND ISZERO SWAP1 POP DUP1 ISZERO PUSH2 0x2C10 JUMPI PUSH1 0x1 PUSH1 0x0 PUSH1 0x1 PUSH2 0x100 EXP DUP2 SLOAD DUP2 PUSH1 0xFF MUL NOT AND SWAP1 DUP4 ISZERO ISZERO MUL OR SWAP1 SSTORE POP PUSH1 0x1 PUSH1 0x0 DUP1 PUSH2 0x100 EXP DUP2 SLOAD DUP2 PUSH1 0xFF MUL NOT AND SWAP1 DUP4 ISZERO ISZERO MUL OR SWAP1 SSTORE POP JUMPDEST PUSH1 0x0 PUSH20 0xFFFFFFFFFFFFFFFFFFFFFFFFFFFFFFFFFFFFFFFF AND DUP13 PUSH20 0xFFFFFFFFFFFFFFFFFFFFFFFFFFFFFFFFFFFFFFFF AND EQ ISZERO PUSH2 0x2CB3 JUMPI PUSH1 0x40 MLOAD PUSH32 0x8C379A000000000000000000000000000000000000000000000000000000000 DUP2 MSTORE PUSH1 0x4 ADD DUP1 DUP1 PUSH1 0x20 ADD DUP3 DUP2 SUB DUP3 MSTORE PUSH1 0xC DUP2 MSTORE PUSH1 0x20 ADD DUP1 PUSH32 0x7A65726F20616464726573730000000000000000000000000000000000000000 DUP2 MSTORE POP PUSH1 0x20 ADD SWAP2 POP POP PUSH1 0x40 MLOAD DUP1 SWAP2 SUB SWAP1 REVERT JUMPDEST PUSH2 0x2CD2 DUP12 PUSH20 0xFFFFFFFFFFFFFFFFFFFFFFFFFFFFFFFFFFFFFFFF AND PUSH2 0x47F7 JUMP JUMPDEST PUSH2 0x2D44 JUMPI PUSH1 0x40 MLOAD PUSH32 0x8C379A000000000000000000000000000000000000000000000000000000000 DUP2 MSTORE PUSH1 0x4 ADD DUP1 DUP1 PUSH1 0x20 ADD DUP3 DUP2 SUB DUP3 MSTORE PUSH1 0x16 DUP2 MSTORE PUSH1 0x20 ADD DUP1 PUSH32 0x6E6F74206120636F6E7472616374206164647265737300000000000000000000 DUP2 MSTORE POP PUSH1 0x20 ADD SWAP2 POP POP PUSH1 0x40 MLOAD DUP1 SWAP2 SUB SWAP1 REVERT JUMPDEST PUSH2 0x2D4D CALLER PUSH2 0x2881 JUMP JUMPDEST PUSH2 0x2D55 PUSH2 0x1A5B JUMP JUMPDEST DUP11 PUSH1 0x99 PUSH1 0x0 PUSH2 0x100 EXP DUP2 SLOAD DUP2 PUSH20 0xFFFFFFFFFFFFFFFFFFFFFFFFFFFFFFFFFFFFFFFF MUL NOT AND SWAP1 DUP4 PUSH20 0xFFFFFFFFFFFFFFFFFFFFFFFFFFFFFFFFFFFFFFFF AND MUL OR SWAP1 SSTORE POP PUSH2 0x2D9F DUP10 PUSH2 0x1720 JUMP JUMPDEST PUSH2 0x2DA8 DUP9 PUSH2 0x10BC JUMP JUMPDEST PUSH2 0x2DB1 DUP8 PUSH2 0x1CC7 JUMP JUMPDEST PUSH2 0x2DBA DUP7 PUSH2 0x194E JUMP JUMPDEST PUSH2 0x2DC3 DUP6 PUSH2 0x13A9 JUMP JUMPDEST PUSH2 0x2DCE DUP5 DUP5 DUP5 PUSH2 0x120B JUMP JUMPDEST PUSH2 0x2DD7 DUP11 PUSH2 0x2E34 JUMP JUMPDEST PUSH2 0x2DE0 DUP13 PUSH2 0x35B0 JUMP JUMPDEST DUP1 ISZERO PUSH2 0x2E01 JUMPI PUSH1 0x0 DUP1 PUSH1 0x1 PUSH2 0x100 EXP DUP2 SLOAD DUP2 PUSH1 0xFF MUL NOT AND SWAP1 DUP4 ISZERO ISZERO MUL OR SWAP1 SSTORE POP JUMPDEST POP POP POP POP POP POP POP POP POP POP POP POP JUMP JUMPDEST PUSH1 0xAC PUSH1 0x20 MSTORE DUP2 PUSH1 0x0 MSTORE PUSH1 0x40 PUSH1 0x0 KECCAK256 PUSH1 0x20 MSTORE DUP1 PUSH1 0x0 MSTORE PUSH1 0x40 PUSH1 0x0 KECCAK256 PUSH1 0x0 SWAP2 POP SWAP2 POP POP SLOAD DUP2 JUMP JUMPDEST PUSH2 0x2E3C PUSH2 0x1EBB JUMP JUMPDEST PUSH2 0x2EAE JUMPI PUSH1 0x40 MLOAD PUSH32 0x8C379A000000000000000000000000000000000000000000000000000000000 DUP2 MSTORE PUSH1 0x4 ADD DUP1 DUP1 PUSH1 0x20 ADD DUP3 DUP2 SUB DUP3 MSTORE PUSH1 0x20 DUP2 MSTORE PUSH1 0x20 ADD DUP1 PUSH32 0x4F776E61626C653A2063616C6C6572206973206E6F7420746865206F776E6572 DUP2 MSTORE POP PUSH1 0x20 ADD SWAP2 POP POP PUSH1 0x40 MLOAD DUP1 SWAP2 SUB SWAP1 REVERT JUMPDEST PUSH1 0x0 PUSH20 0xFFFFFFFFFFFFFFFFFFFFFFFFFFFFFFFFFFFFFFFF AND DUP2 PUSH20 0xFFFFFFFFFFFFFFFFFFFFFFFFFFFFFFFFFFFFFFFF AND EQ ISZERO PUSH2 0x2F51 JUMPI PUSH1 0x40 MLOAD PUSH32 0x8C379A000000000000000000000000000000000000000000000000000000000 DUP2 MSTORE PUSH1 0x4 ADD DUP1 DUP1 PUSH1 0x20 ADD DUP3 DUP2 SUB DUP3 MSTORE PUSH1 0xC DUP2 MSTORE PUSH1 0x20 ADD DUP1 PUSH32 0x7A65726F20616464726573730000000000000000000000000000000000000000 DUP2 MSTORE POP PUSH1 0x20 ADD SWAP2 POP POP PUSH1 0x40 MLOAD DUP1 SWAP2 SUB SWAP1 REVERT JUMPDEST ADDRESS PUSH20 0xFFFFFFFFFFFFFFFFFFFFFFFFFFFFFFFFFFFFFFFF AND DUP2 PUSH20 0xFFFFFFFFFFFFFFFFFFFFFFFFFFFFFFFFFFFFFFFF AND EQ ISZERO PUSH2 0x2FF3 JUMPI PUSH1 0x40 MLOAD PUSH32 0x8C379A000000000000000000000000000000000000000000000000000000000 DUP2 MSTORE PUSH1 0x4 ADD DUP1 DUP1 PUSH1 0x20 ADD DUP3 DUP2 SUB DUP3 MSTORE PUSH1 0xD DUP2 MSTORE PUSH1 0x20 ADD DUP1 PUSH32 0x77726F6E67206164647265737300000000000000000000000000000000000000 DUP2 MSTORE POP PUSH1 0x20 ADD SWAP2 POP POP PUSH1 0x40 MLOAD DUP1 SWAP2 SUB SWAP1 REVERT JUMPDEST PUSH2 0x2FFB PUSH2 0x516C JUMP JUMPDEST PUSH1 0x9A PUSH1 0x40 MLOAD DUP1 PUSH1 0x60 ADD PUSH1 0x40 MSTORE SWAP1 DUP2 PUSH1 0x0 DUP3 ADD PUSH1 0x0 SWAP1 SLOAD SWAP1 PUSH2 0x100 EXP SWAP1 DIV PUSH20 0xFFFFFFFFFFFFFFFFFFFFFFFFFFFFFFFFFFFFFFFF AND PUSH20 0xFFFFFFFFFFFFFFFFFFFFFFFFFFFFFFFFFFFFFFFF AND PUSH20 0xFFFFFFFFFFFFFFFFFFFFFFFFFFFFFFFFFFFFFFFF AND DUP2 MSTORE PUSH1 0x20 ADD PUSH1 0x1 DUP3 ADD PUSH1 0x0 SWAP1 SLOAD SWAP1 PUSH2 0x100 EXP SWAP1 DIV PUSH20 0xFFFFFFFFFFFFFFFFFFFFFFFFFFFFFFFFFFFFFFFF AND PUSH20 0xFFFFFFFFFFFFFFFFFFFFFFFFFFFFFFFFFFFFFFFF AND PUSH20 0xFFFFFFFFFFFFFFFFFFFFFFFFFFFFFFFFFFFFFFFF AND DUP2 MSTORE PUSH1 0x20 ADD PUSH1 0x2 DUP3 ADD SLOAD DUP2 MSTORE POP POP SWAP1 POP PUSH1 0x0 DUP2 PUSH1 0x40 ADD MLOAD EQ ISZERO PUSH2 0x310A JUMPI DUP2 DUP2 PUSH1 0x0 ADD SWAP1 PUSH20 0xFFFFFFFFFFFFFFFFFFFFFFFFFFFFFFFFFFFFFFFF AND SWAP1 DUP2 PUSH20 0xFFFFFFFFFFFFFFFFFFFFFFFFFFFFFFFFFFFFFFFF AND DUP2 MSTORE POP POP PUSH2 0x315A JUMP JUMPDEST PUSH2 0x3117 DUP2 PUSH1 0x40 ADD MLOAD PUSH2 0x47CF JUMP JUMPDEST ISZERO PUSH2 0x3159 JUMPI DUP1 PUSH1 0x20 ADD MLOAD DUP2 PUSH1 0x0 ADD SWAP1 PUSH20 0xFFFFFFFFFFFFFFFFFFFFFFFFFFFFFFFFFFFFFFFF AND SWAP1 DUP2 PUSH20 0xFFFFFFFFFFFFFFFFFFFFFFFFFFFFFFFFFFFFFFFF AND DUP2 MSTORE POP POP JUMPDEST JUMPDEST DUP2 DUP2 PUSH1 0x20 ADD SWAP1 PUSH20 0xFFFFFFFFFFFFFFFFFFFFFFFFFFFFFFFFFFFFFFFF AND SWAP1 DUP2 PUSH20 0xFFFFFFFFFFFFFFFFFFFFFFFFFFFFFFFFFFFFFFFF AND DUP2 MSTORE POP POP PUSH2 0x319A PUSH2 0x365C JUMP JUMPDEST DUP2 PUSH1 0x40 ADD DUP2 DUP2 MSTORE POP POP DUP1 PUSH1 0x9A PUSH1 0x0 DUP3 ADD MLOAD DUP2 PUSH1 0x0 ADD PUSH1 0x0 PUSH2 0x100 EXP DUP2 SLOAD DUP2 PUSH20 0xFFFFFFFFFFFFFFFFFFFFFFFFFFFFFFFFFFFFFFFF MUL NOT AND SWAP1 DUP4 PUSH20 0xFFFFFFFFFFFFFFFFFFFFFFFFFFFFFFFFFFFFFFFF AND MUL OR SWAP1 SSTORE POP PUSH1 0x20 DUP3 ADD MLOAD DUP2 PUSH1 0x1 ADD PUSH1 0x0 PUSH2 0x100 EXP DUP2 SLOAD DUP2 PUSH20 0xFFFFFFFFFFFFFFFFFFFFFFFFFFFFFFFFFFFFFFFF MUL NOT AND SWAP1 DUP4 PUSH20 0xFFFFFFFFFFFFFFFFFFFFFFFFFFFFFFFFFFFFFFFF AND MUL OR SWAP1 SSTORE POP PUSH1 0x40 DUP3 ADD MLOAD DUP2 PUSH1 0x2 ADD SSTORE SWAP1 POP POP PUSH32 0x26A68C9D9649FB5E7A060A37B211FFD1D9A4FE6EB068BFB33DECBA647D4ED539 DUP3 CALLER PUSH1 0x40 MLOAD DUP1 DUP4 PUSH20 0xFFFFFFFFFFFFFFFFFFFFFFFFFFFFFFFFFFFFFFFF AND PUSH20 0xFFFFFFFFFFFFFFFFFFFFFFFFFFFFFFFFFFFFFFFF AND DUP2 MSTORE PUSH1 0x20 ADD DUP3 PUSH20 0xFFFFFFFFFFFFFFFFFFFFFFFFFFFFFFFFFFFFFFFF AND PUSH20 0xFFFFFFFFFFFFFFFFFFFFFFFFFFFFFFFFFFFFFFFF AND DUP2 MSTORE PUSH1 0x20 ADD SWAP3 POP POP POP PUSH1 0x40 MLOAD DUP1 SWAP2 SUB SWAP1 LOG1 POP POP JUMP JUMPDEST PUSH3 0x93A80 DUP2 JUMP JUMPDEST PUSH1 0x0 PUSH2 0x3318 PUSH1 0x9D PUSH1 0x40 MLOAD DUP1 PUSH1 0x60 ADD PUSH1 0x40 MSTORE SWAP1 DUP2 PUSH1 0x0 DUP3 ADD SLOAD DUP2 MSTORE PUSH1 0x20 ADD PUSH1 0x1 DUP3 ADD SLOAD DUP2 MSTORE PUSH1 0x20 ADD PUSH1 0x2 DUP3 ADD SLOAD DUP2 MSTORE POP POP PUSH2 0x41F8 JUMP JUMPDEST SWAP1 POP SWAP1 JUMP JUMPDEST PUSH1 0xAE PUSH1 0x20 MSTORE DUP2 PUSH1 0x0 MSTORE PUSH1 0x40 PUSH1 0x0 KECCAK256 PUSH1 0x20 MSTORE DUP1 PUSH1 0x0 MSTORE PUSH1 0x40 PUSH1 0x0 KECCAK256 PUSH1 0x0 SWAP2 POP SWAP2 POP POP SLOAD DUP2 JUMP JUMPDEST PUSH1 0x0 DUP3 GT DUP1 ISZERO PUSH2 0x3391 JUMPI POP PUSH1 0xAF PUSH1 0x0 CALLER PUSH20 0xFFFFFFFFFFFFFFFFFFFFFFFFFFFFFFFFFFFFFFFF AND PUSH20 0xFFFFFFFFFFFFFFFFFFFFFFFFFFFFFFFFFFFFFFFF AND DUP2 MSTORE PUSH1 0x20 ADD SWAP1 DUP2 MSTORE PUSH1 0x20 ADD PUSH1 0x0 KECCAK256 SLOAD DUP3 GT ISZERO JUMPDEST PUSH2 0x3403 JUMPI PUSH1 0x40 MLOAD PUSH32 0x8C379A000000000000000000000000000000000000000000000000000000000 DUP2 MSTORE PUSH1 0x4 ADD DUP1 DUP1 PUSH1 0x20 ADD DUP3 DUP2 SUB DUP3 MSTORE PUSH1 0x10 DUP2 MSTORE PUSH1 0x20 ADD DUP1 PUSH32 0x77726F6E67206465706F73697420696400000000000000000000000000000000 DUP2 MSTORE POP PUSH1 0x20 ADD SWAP2 POP POP PUSH1 0x40 MLOAD DUP1 SWAP2 SUB SWAP1 REVERT JUMPDEST PUSH2 0x340E CALLER DUP4 DUP4 PUSH2 0x4498 JUMP JUMPDEST PUSH2 0x3418 PUSH1 0x1 PUSH2 0x4842 JUMP JUMPDEST PUSH1 0x99 PUSH1 0x0 SWAP1 SLOAD SWAP1 PUSH2 0x100 EXP SWAP1 DIV PUSH20 0xFFFFFFFFFFFFFFFFFFFFFFFFFFFFFFFFFFFFFFFF AND PUSH20 0xFFFFFFFFFFFFFFFFFFFFFFFFFFFFFFFFFFFFFFFF AND PUSH4 0x23B872DD CALLER ADDRESS DUP5 PUSH1 0x40 MLOAD DUP5 PUSH4 0xFFFFFFFF AND PUSH1 0xE0 SHL DUP2 MSTORE PUSH1 0x4 ADD DUP1 DUP5 PUSH20 0xFFFFFFFFFFFFFFFFFFFFFFFFFFFFFFFFFFFFFFFF AND PUSH20 0xFFFFFFFFFFFFFFFFFFFFFFFFFFFFFFFFFFFFFFFF AND DUP2 MSTORE PUSH1 0x20 ADD DUP4 PUSH20 0xFFFFFFFFFFFFFFFFFFFFFFFFFFFFFFFFFFFFFFFF AND PUSH20 0xFFFFFFFFFFFFFFFFFFFFFFFFFFFFFFFFFFFFFFFF AND DUP2 MSTORE PUSH1 0x20 ADD DUP3 DUP2 MSTORE PUSH1 0x20 ADD SWAP4 POP POP POP POP PUSH1 0x20 PUSH1 0x40 MLOAD DUP1 DUP4 SUB DUP2 PUSH1 0x0 DUP8 DUP1 EXTCODESIZE ISZERO DUP1 ISZERO PUSH2 0x34F5 JUMPI PUSH1 0x0 DUP1 REVERT JUMPDEST POP GAS CALL ISZERO DUP1 ISZERO PUSH2 0x3509 JUMPI RETURNDATASIZE PUSH1 0x0 DUP1 RETURNDATACOPY RETURNDATASIZE PUSH1 0x0 REVERT JUMPDEST POP POP POP POP PUSH1 0x40 MLOAD RETURNDATASIZE PUSH1 0x20 DUP2 LT ISZERO PUSH2 0x351F JUMPI PUSH1 0x0 DUP1 REVERT JUMPDEST DUP2 ADD SWAP1 DUP1 DUP1 MLOAD SWAP1 PUSH1 0x20 ADD SWAP1 SWAP3 SWAP2 SWAP1 POP POP POP PUSH2 0x35A2 JUMPI PUSH1 0x40 MLOAD PUSH32 0x8C379A000000000000000000000000000000000000000000000000000000000 DUP2 MSTORE PUSH1 0x4 ADD DUP1 DUP1 PUSH1 0x20 ADD DUP3 DUP2 SUB DUP3 MSTORE PUSH1 0xF DUP2 MSTORE PUSH1 0x20 ADD DUP1 PUSH32 0x7472616E73666572206661696C65640000000000000000000000000000000000 DUP2 MSTORE POP PUSH1 0x20 ADD SWAP2 POP POP PUSH1 0x40 MLOAD DUP1 SWAP2 SUB SWAP1 REVERT JUMPDEST PUSH2 0x35AC PUSH1 0x0 PUSH2 0x4842 JUMP JUMPDEST POP POP JUMP JUMPDEST PUSH2 0x35B8 PUSH2 0x1EBB JUMP JUMPDEST PUSH2 0x362A JUMPI PUSH1 0x40 MLOAD PUSH32 0x8C379A000000000000000000000000000000000000000000000000000000000 DUP2 MSTORE PUSH1 0x4 ADD DUP1 DUP1 PUSH1 0x20 ADD DUP3 DUP2 SUB DUP3 MSTORE PUSH1 0x20 DUP2 MSTORE PUSH1 0x20 ADD DUP1 PUSH32 0x4F776E61626C653A2063616C6C6572206973206E6F7420746865206F776E6572 DUP2 MSTORE POP PUSH1 0x20 ADD SWAP2 POP POP PUSH1 0x40 MLOAD DUP1 SWAP2 SUB SWAP1 REVERT JUMPDEST PUSH2 0x3633 DUP2 PUSH2 0x485F JUMP JUMPDEST POP JUMP JUMPDEST PUSH1 0x99 PUSH1 0x0 SWAP1 SLOAD SWAP1 PUSH2 0x100 EXP SWAP1 DIV PUSH20 0xFFFFFFFFFFFFFFFFFFFFFFFFFFFFFFFFFFFFFFFF AND DUP2 JUMP JUMPDEST PUSH1 0x0 TIMESTAMP SWAP1 POP SWAP1 JUMP JUMPDEST PUSH1 0x0 PUSH2 0x36A6 DUP4 DUP4 PUSH1 0x40 MLOAD DUP1 PUSH1 0x40 ADD PUSH1 0x40 MSTORE DUP1 PUSH1 0x1E DUP2 MSTORE PUSH1 0x20 ADD PUSH32 0x536166654D6174683A207375627472616374696F6E206F766572666C6F770000 DUP2 MSTORE POP PUSH2 0x49A5 JUMP JUMPDEST SWAP1 POP SWAP3 SWAP2 POP POP JUMP JUMPDEST PUSH1 0x0 DUP1 DUP3 DUP5 ADD SWAP1 POP DUP4 DUP2 LT ISZERO PUSH2 0x372C JUMPI PUSH1 0x40 MLOAD PUSH32 0x8C379A000000000000000000000000000000000000000000000000000000000 DUP2 MSTORE PUSH1 0x4 ADD DUP1 DUP1 PUSH1 0x20 ADD DUP3 DUP2 SUB DUP3 MSTORE PUSH1 0x1B DUP2 MSTORE PUSH1 0x20 ADD DUP1 PUSH32 0x536166654D6174683A206164646974696F6E206F766572666C6F770000000000 DUP2 MSTORE POP PUSH1 0x20 ADD SWAP2 POP POP PUSH1 0x40 MLOAD DUP1 SWAP2 SUB SWAP1 REVERT JUMPDEST DUP1 SWAP2 POP POP SWAP3 SWAP2 POP POP JUMP JUMPDEST PUSH1 0x1 PUSH1 0x66 PUSH1 0x0 DUP3 DUP3 SLOAD ADD SWAP3 POP POP DUP2 SWAP1 SSTORE POP PUSH1 0x0 PUSH1 0x66 SLOAD SWAP1 POP PUSH1 0x0 DUP5 GT DUP1 ISZERO PUSH2 0x379D JUMPI POP PUSH1 0xAF PUSH1 0x0 DUP7 PUSH20 0xFFFFFFFFFFFFFFFFFFFFFFFFFFFFFFFFFFFFFFFF AND PUSH20 0xFFFFFFFFFFFFFFFFFFFFFFFFFFFFFFFFFFFFFFFF AND DUP2 MSTORE PUSH1 0x20 ADD SWAP1 DUP2 MSTORE PUSH1 0x20 ADD PUSH1 0x0 KECCAK256 SLOAD DUP5 GT ISZERO JUMPDEST PUSH2 0x380F JUMPI PUSH1 0x40 MLOAD PUSH32 0x8C379A000000000000000000000000000000000000000000000000000000000 DUP2 MSTORE PUSH1 0x4 ADD DUP1 DUP1 PUSH1 0x20 ADD DUP3 DUP2 SUB DUP3 MSTORE PUSH1 0x10 DUP2 MSTORE PUSH1 0x20 ADD DUP1 PUSH32 0x77726F6E67206465706F73697420696400000000000000000000000000000000 DUP2 MSTORE POP PUSH1 0x20 ADD SWAP2 POP POP PUSH1 0x40 MLOAD DUP1 SWAP2 SUB SWAP1 REVERT JUMPDEST PUSH1 0x0 PUSH1 0xAC PUSH1 0x0 DUP8 PUSH20 0xFFFFFFFFFFFFFFFFFFFFFFFFFFFFFFFFFFFFFFFF AND PUSH20 0xFFFFFFFFFFFFFFFFFFFFFFFFFFFFFFFFFFFFFFFF AND DUP2 MSTORE PUSH1 0x20 ADD SWAP1 DUP2 MSTORE PUSH1 0x20 ADD PUSH1 0x0 KECCAK256 PUSH1 0x0 DUP7 DUP2 MSTORE PUSH1 0x20 ADD SWAP1 DUP2 MSTORE PUSH1 0x20 ADD PUSH1 0x0 KECCAK256 SLOAD GT DUP1 ISZERO PUSH2 0x38BF JUMPI POP DUP3 PUSH1 0xAC PUSH1 0x0 DUP8 PUSH20 0xFFFFFFFFFFFFFFFFFFFFFFFFFFFFFFFFFFFFFFFF AND PUSH20 0xFFFFFFFFFFFFFFFFFFFFFFFFFFFFFFFFFFFFFFFF AND DUP2 MSTORE PUSH1 0x20 ADD SWAP1 DUP2 MSTORE PUSH1 0x20 ADD PUSH1 0x0 KECCAK256 PUSH1 0x0 DUP7 DUP2 MSTORE PUSH1 0x20 ADD SWAP1 DUP2 MSTORE PUSH1 0x20 ADD PUSH1 0x0 KECCAK256 SLOAD LT ISZERO JUMPDEST PUSH2 0x3931 JUMPI PUSH1 0x40 MLOAD PUSH32 0x8C379A000000000000000000000000000000000000000000000000000000000 DUP2 MSTORE PUSH1 0x4 ADD DUP1 DUP1 PUSH1 0x20 ADD DUP3 DUP2 SUB DUP3 MSTORE PUSH1 0x12 DUP2 MSTORE PUSH1 0x20 ADD DUP1 PUSH32 0x696E73756666696369656E742066756E64730000000000000000000000000000 DUP2 MSTORE POP PUSH1 0x20 ADD SWAP2 POP POP PUSH1 0x40 MLOAD DUP1 SWAP2 SUB SWAP1 REVERT JUMPDEST PUSH2 0x393B DUP6 DUP6 PUSH2 0xD7E JUMP JUMPDEST PUSH2 0x3990 JUMPI PUSH1 0x40 MLOAD PUSH32 0x8C379A000000000000000000000000000000000000000000000000000000000 DUP2 MSTORE PUSH1 0x4 ADD DUP1 DUP1 PUSH1 0x20 ADD DUP3 DUP2 SUB DUP3 MSTORE PUSH1 0x2B DUP2 MSTORE PUSH1 0x20 ADD DUP1 PUSH2 0x52E4 PUSH1 0x2B SWAP2 CODECOPY PUSH1 0x40 ADD SWAP2 POP POP PUSH1 0x40 MLOAD DUP1 SWAP2 SUB SWAP1 REVERT JUMPDEST PUSH1 0x0 DUP1 PUSH2 0x399E DUP8 DUP8 DUP8 PUSH2 0x4A65 JUMP JUMPDEST SWAP2 POP SWAP2 POP PUSH1 0x0 DUP1 DUP7 EQ PUSH2 0x39C3 JUMPI PUSH2 0x39BE DUP4 DUP8 PUSH2 0x36AE SWAP1 SWAP2 SWAP1 PUSH4 0xFFFFFFFF AND JUMP JUMPDEST PUSH2 0x3A15 JUMP JUMPDEST PUSH1 0xAC PUSH1 0x0 DUP10 PUSH20 0xFFFFFFFFFFFFFFFFFFFFFFFFFFFFFFFFFFFFFFFF AND PUSH20 0xFFFFFFFFFFFFFFFFFFFFFFFFFFFFFFFFFFFFFFFF AND DUP2 MSTORE PUSH1 0x20 ADD SWAP1 DUP2 MSTORE PUSH1 0x20 ADD PUSH1 0x0 KECCAK256 PUSH1 0x0 DUP9 DUP2 MSTORE PUSH1 0x20 ADD SWAP1 DUP2 MSTORE PUSH1 0x20 ADD PUSH1 0x0 KECCAK256 SLOAD JUMPDEST SWAP1 POP PUSH2 0x3A7A DUP2 PUSH1 0xAC PUSH1 0x0 DUP12 PUSH20 0xFFFFFFFFFFFFFFFFFFFFFFFFFFFFFFFFFFFFFFFF AND PUSH20 0xFFFFFFFFFFFFFFFFFFFFFFFFFFFFFFFFFFFFFFFF AND DUP2 MSTORE PUSH1 0x20 ADD SWAP1 DUP2 MSTORE PUSH1 0x20 ADD PUSH1 0x0 KECCAK256 PUSH1 0x0 DUP11 DUP2 MSTORE PUSH1 0x20 ADD SWAP1 DUP2 MSTORE PUSH1 0x20 ADD PUSH1 0x0 KECCAK256 SLOAD PUSH2 0x3664 SWAP1 SWAP2 SWAP1 PUSH4 0xFFFFFFFF AND JUMP JUMPDEST PUSH1 0xAC PUSH1 0x0 DUP11 PUSH20 0xFFFFFFFFFFFFFFFFFFFFFFFFFFFFFFFFFFFFFFFF AND PUSH20 0xFFFFFFFFFFFFFFFFFFFFFFFFFFFFFFFFFFFFFFFF AND DUP2 MSTORE PUSH1 0x20 ADD SWAP1 DUP2 MSTORE PUSH1 0x20 ADD PUSH1 0x0 KECCAK256 PUSH1 0x0 DUP10 DUP2 MSTORE PUSH1 0x20 ADD SWAP1 DUP2 MSTORE PUSH1 0x20 ADD PUSH1 0x0 KECCAK256 DUP2 SWAP1 SSTORE POP PUSH2 0x3AE3 DUP2 PUSH1 0xB0 SLOAD PUSH2 0x3664 SWAP1 SWAP2 SWAP1 PUSH4 0xFFFFFFFF AND JUMP JUMPDEST PUSH1 0xB0 DUP2 SWAP1 SSTORE POP PUSH1 0x0 PUSH1 0xAC PUSH1 0x0 DUP11 PUSH20 0xFFFFFFFFFFFFFFFFFFFFFFFFFFFFFFFFFFFFFFFF AND PUSH20 0xFFFFFFFFFFFFFFFFFFFFFFFFFFFFFFFFFFFFFFFF AND DUP2 MSTORE PUSH1 0x20 ADD SWAP1 DUP2 MSTORE PUSH1 0x20 ADD PUSH1 0x0 KECCAK256 PUSH1 0x0 DUP10 DUP2 MSTORE PUSH1 0x20 ADD SWAP1 DUP2 MSTORE PUSH1 0x20 ADD PUSH1 0x0 KECCAK256 SLOAD EQ ISZERO PUSH2 0x3B99 JUMPI PUSH1 0x0 PUSH1 0xAD PUSH1 0x0 DUP11 PUSH20 0xFFFFFFFFFFFFFFFFFFFFFFFFFFFFFFFFFFFFFFFF AND PUSH20 0xFFFFFFFFFFFFFFFFFFFFFFFFFFFFFFFFFFFFFFFF AND DUP2 MSTORE PUSH1 0x20 ADD SWAP1 DUP2 MSTORE PUSH1 0x20 ADD PUSH1 0x0 KECCAK256 PUSH1 0x0 DUP10 DUP2 MSTORE PUSH1 0x20 ADD SWAP1 DUP2 MSTORE PUSH1 0x20 ADD PUSH1 0x0 KECCAK256 DUP2 SWAP1 SSTORE POP JUMPDEST PUSH1 0x0 DUP1 SWAP1 POP DUP6 ISZERO PUSH2 0x3D4D JUMPI PUSH2 0x3BD8 PUSH8 0xDE0B6B3A7640000 PUSH2 0x3BCA PUSH2 0x3BBB PUSH2 0x32E3 JUMP JUMPDEST DUP6 PUSH2 0x42AE SWAP1 SWAP2 SWAP1 PUSH4 0xFFFFFFFF AND JUMP JUMPDEST PUSH2 0x403D SWAP1 SWAP2 SWAP1 PUSH4 0xFFFFFFFF AND JUMP JUMPDEST SWAP1 POP PUSH2 0x3BED DUP2 DUP4 PUSH2 0x3664 SWAP1 SWAP2 SWAP1 PUSH4 0xFFFFFFFF AND JUMP JUMPDEST SWAP2 POP PUSH1 0x99 PUSH1 0x0 SWAP1 SLOAD SWAP1 PUSH2 0x100 EXP SWAP1 DIV PUSH20 0xFFFFFFFFFFFFFFFFFFFFFFFFFFFFFFFFFFFFFFFF AND PUSH20 0xFFFFFFFFFFFFFFFFFFFFFFFFFFFFFFFFFFFFFFFF AND PUSH4 0xA9059CBB PUSH2 0x3C35 PUSH2 0x2A3F JUMP JUMPDEST DUP4 PUSH1 0x40 MLOAD DUP4 PUSH4 0xFFFFFFFF AND PUSH1 0xE0 SHL DUP2 MSTORE PUSH1 0x4 ADD DUP1 DUP4 PUSH20 0xFFFFFFFFFFFFFFFFFFFFFFFFFFFFFFFFFFFFFFFF AND PUSH20 0xFFFFFFFFFFFFFFFFFFFFFFFFFFFFFFFFFFFFFFFF AND DUP2 MSTORE PUSH1 0x20 ADD DUP3 DUP2 MSTORE PUSH1 0x20 ADD SWAP3 POP POP POP PUSH1 0x20 PUSH1 0x40 MLOAD DUP1 DUP4 SUB DUP2 PUSH1 0x0 DUP8 DUP1 EXTCODESIZE ISZERO DUP1 ISZERO PUSH2 0x3C9F JUMPI PUSH1 0x0 DUP1 REVERT JUMPDEST POP GAS CALL ISZERO DUP1 ISZERO PUSH2 0x3CB3 JUMPI RETURNDATASIZE PUSH1 0x0 DUP1 RETURNDATACOPY RETURNDATASIZE PUSH1 0x0 REVERT JUMPDEST POP POP POP POP PUSH1 0x40 MLOAD RETURNDATASIZE PUSH1 0x20 DUP2 LT ISZERO PUSH2 0x3CC9 JUMPI PUSH1 0x0 DUP1 REVERT JUMPDEST DUP2 ADD SWAP1 DUP1 DUP1 MLOAD SWAP1 PUSH1 0x20 ADD SWAP1 SWAP3 SWAP2 SWAP1 POP POP POP PUSH2 0x3D4C JUMPI PUSH1 0x40 MLOAD PUSH32 0x8C379A000000000000000000000000000000000000000000000000000000000 DUP2 MSTORE PUSH1 0x4 ADD DUP1 DUP1 PUSH1 0x20 ADD DUP3 DUP2 SUB DUP3 MSTORE PUSH1 0xF DUP2 MSTORE PUSH1 0x20 ADD DUP1 PUSH32 0x7472616E73666572206661696C65640000000000000000000000000000000000 DUP2 MSTORE POP PUSH1 0x20 ADD SWAP2 POP POP PUSH1 0x40 MLOAD DUP1 SWAP2 SUB SWAP1 REVERT JUMPDEST JUMPDEST PUSH1 0x99 PUSH1 0x0 SWAP1 SLOAD SWAP1 PUSH2 0x100 EXP SWAP1 DIV PUSH20 0xFFFFFFFFFFFFFFFFFFFFFFFFFFFFFFFFFFFFFFFF AND PUSH20 0xFFFFFFFFFFFFFFFFFFFFFFFFFFFFFFFFFFFFFFFF AND PUSH4 0xA9059CBB DUP11 DUP5 PUSH1 0x40 MLOAD DUP4 PUSH4 0xFFFFFFFF AND PUSH1 0xE0 SHL DUP2 MSTORE PUSH1 0x4 ADD DUP1 DUP4 PUSH20 0xFFFFFFFFFFFFFFFFFFFFFFFFFFFFFFFFFFFFFFFF AND PUSH20 0xFFFFFFFFFFFFFFFFFFFFFFFFFFFFFFFFFFFFFFFF AND DUP2 MSTORE PUSH1 0x20 ADD DUP3 DUP2 MSTORE PUSH1 0x20 ADD SWAP3 POP POP POP PUSH1 0x20 PUSH1 0x40 MLOAD DUP1 DUP4 SUB DUP2 PUSH1 0x0 DUP8 DUP1 EXTCODESIZE ISZERO DUP1 ISZERO PUSH2 0x3DF6 JUMPI PUSH1 0x0 DUP1 REVERT JUMPDEST POP GAS CALL ISZERO DUP1 ISZERO PUSH2 0x3E0A JUMPI RETURNDATASIZE PUSH1 0x0 DUP1 RETURNDATACOPY RETURNDATASIZE PUSH1 0x0 REVERT JUMPDEST POP POP POP POP PUSH1 0x40 MLOAD RETURNDATASIZE PUSH1 0x20 DUP2 LT ISZERO PUSH2 0x3E20 JUMPI PUSH1 0x0 DUP1 REVERT JUMPDEST DUP2 ADD SWAP1 DUP1 DUP1 MLOAD SWAP1 PUSH1 0x20 ADD SWAP1 SWAP3 SWAP2 SWAP1 POP POP POP PUSH2 0x3EA3 JUMPI PUSH1 0x40 MLOAD PUSH32 0x8C379A000000000000000000000000000000000000000000000000000000000 DUP2 MSTORE PUSH1 0x4 ADD DUP1 DUP1 PUSH1 0x20 ADD DUP3 DUP2 SUB DUP3 MSTORE PUSH1 0xF DUP2 MSTORE PUSH1 0x20 ADD DUP1 PUSH32 0x7472616E73666572206661696C65640000000000000000000000000000000000 DUP2 MSTORE POP PUSH1 0x20 ADD SWAP2 POP POP PUSH1 0x40 MLOAD DUP1 SWAP2 SUB SWAP1 REVERT JUMPDEST DUP8 DUP10 PUSH20 0xFFFFFFFFFFFFFFFFFFFFFFFFFFFFFFFFFFFFFFFF AND PUSH32 0x6B4651E8F4162F82274A25E57A29F7ED9156D17078E76DD4D05F04BA08831AA4 DUP5 DUP5 PUSH1 0xAC PUSH1 0x0 DUP16 PUSH20 0xFFFFFFFFFFFFFFFFFFFFFFFFFFFFFFFFFFFFFFFF AND PUSH20 0xFFFFFFFFFFFFFFFFFFFFFFFFFFFFFFFFFFFFFFFF AND DUP2 MSTORE PUSH1 0x20 ADD SWAP1 DUP2 MSTORE PUSH1 0x20 ADD PUSH1 0x0 KECCAK256 PUSH1 0x0 DUP15 DUP2 MSTORE PUSH1 0x20 ADD SWAP1 DUP2 MSTORE PUSH1 0x20 ADD PUSH1 0x0 KECCAK256 SLOAD DUP10 DUP10 PUSH1 0x40 MLOAD DUP1 DUP7 DUP2 MSTORE PUSH1 0x20 ADD DUP6 DUP2 MSTORE PUSH1 0x20 ADD DUP5 DUP2 MSTORE PUSH1 0x20 ADD DUP4 DUP2 MSTORE PUSH1 0x20 ADD DUP3 DUP2 MSTORE PUSH1 0x20 ADD SWAP6 POP POP POP POP POP POP PUSH1 0x40 MLOAD DUP1 SWAP2 SUB SWAP1 LOG3 POP POP POP POP PUSH1 0x66 SLOAD DUP2 EQ PUSH2 0x3FDD JUMPI PUSH1 0x40 MLOAD PUSH32 0x8C379A000000000000000000000000000000000000000000000000000000000 DUP2 MSTORE PUSH1 0x4 ADD DUP1 DUP1 PUSH1 0x20 ADD DUP3 DUP2 SUB DUP3 MSTORE PUSH1 0x1F DUP2 MSTORE PUSH1 0x20 ADD DUP1 PUSH32 0x5265656E7472616E637947756172643A207265656E7472616E742063616C6C00 DUP2 MSTORE POP PUSH1 0x20 ADD SWAP2 POP POP PUSH1 0x40 MLOAD DUP1 SWAP2 SUB SWAP1 REVERT JUMPDEST POP POP POP POP POP JUMP JUMPDEST PUSH1 0x0 DUP3 PUSH1 0x2 ADD SLOAD EQ ISZERO PUSH2 0x3FFF JUMPI DUP1 DUP3 PUSH1 0x0 ADD DUP2 SWAP1 SSTORE POP PUSH2 0x4020 JUMP JUMPDEST PUSH2 0x400C DUP3 PUSH1 0x2 ADD SLOAD PUSH2 0x47CF JUMP JUMPDEST ISZERO PUSH2 0x401F JUMPI DUP2 PUSH1 0x1 ADD SLOAD DUP3 PUSH1 0x0 ADD DUP2 SWAP1 SSTORE POP JUMPDEST JUMPDEST DUP1 DUP3 PUSH1 0x1 ADD DUP2 SWAP1 SSTORE POP PUSH2 0x4031 PUSH2 0x365C JUMP JUMPDEST DUP3 PUSH1 0x2 ADD DUP2 SWAP1 SSTORE POP POP POP JUMP JUMPDEST PUSH1 0x0 PUSH2 0x407F DUP4 DUP4 PUSH1 0x40 MLOAD DUP1 PUSH1 0x40 ADD PUSH1 0x40 MSTORE DUP1 PUSH1 0x1A DUP2 MSTORE PUSH1 0x20 ADD PUSH32 0x536166654D6174683A206469766973696F6E206279207A65726F000000000000 DUP2 MSTORE POP PUSH2 0x4D43 JUMP JUMPDEST SWAP1 POP SWAP3 SWAP2 POP POP JUMP JUMPDEST PUSH1 0x0 DUP2 EQ ISZERO PUSH2 0x40FE JUMPI PUSH1 0x40 MLOAD PUSH32 0x8C379A000000000000000000000000000000000000000000000000000000000 DUP2 MSTORE PUSH1 0x4 ADD DUP1 DUP1 PUSH1 0x20 ADD DUP3 DUP2 SUB DUP3 MSTORE PUSH1 0x18 DUP2 MSTORE PUSH1 0x20 ADD DUP1 PUSH32 0x73686F756C642062652067726561746572207468616E20300000000000000000 DUP2 MSTORE POP PUSH1 0x20 ADD SWAP2 POP POP PUSH1 0x40 MLOAD DUP1 SWAP2 SUB SWAP1 REVERT JUMPDEST PUSH1 0x0 PUSH2 0x4108 PUSH2 0x4E09 JUMP JUMPDEST SWAP1 POP PUSH1 0x0 DUP6 PUSH1 0x6 ADD SLOAD EQ ISZERO PUSH2 0x415C JUMPI PUSH1 0x40 MLOAD DUP1 PUSH1 0x60 ADD PUSH1 0x40 MSTORE DUP1 DUP6 DUP2 MSTORE PUSH1 0x20 ADD DUP5 DUP2 MSTORE PUSH1 0x20 ADD DUP4 DUP2 MSTORE POP DUP6 PUSH1 0x0 ADD PUSH1 0x0 DUP3 ADD MLOAD DUP2 PUSH1 0x0 ADD SSTORE PUSH1 0x20 DUP3 ADD MLOAD DUP2 PUSH1 0x1 ADD SSTORE PUSH1 0x40 DUP3 ADD MLOAD DUP2 PUSH1 0x2 ADD SSTORE SWAP1 POP POP PUSH2 0x41A8 JUMP JUMPDEST PUSH2 0x4176 PUSH3 0x93A80 DUP7 PUSH1 0x6 ADD SLOAD PUSH2 0x36AE SWAP1 SWAP2 SWAP1 PUSH4 0xFFFFFFFF AND JUMP JUMPDEST DUP2 GT ISZERO PUSH2 0x41A7 JUMPI DUP5 PUSH1 0x3 ADD DUP6 PUSH1 0x0 ADD PUSH1 0x0 DUP3 ADD SLOAD DUP2 PUSH1 0x0 ADD SSTORE PUSH1 0x1 DUP3 ADD SLOAD DUP2 PUSH1 0x1 ADD SSTORE PUSH1 0x2 DUP3 ADD SLOAD DUP2 PUSH1 0x2 ADD SSTORE SWAP1 POP POP JUMPDEST JUMPDEST PUSH1 0x40 MLOAD DUP1 PUSH1 0x60 ADD PUSH1 0x40 MSTORE DUP1 DUP6 DUP2 MSTORE PUSH1 0x20 ADD DUP5 DUP2 MSTORE PUSH1 0x20 ADD DUP4 DUP2 MSTORE POP DUP6 PUSH1 0x3 ADD PUSH1 0x0 DUP3 ADD MLOAD DUP2 PUSH1 0x0 ADD SSTORE PUSH1 0x20 DUP3 ADD MLOAD DUP2 PUSH1 0x1 ADD SSTORE PUSH1 0x40 DUP3 ADD MLOAD DUP2 PUSH1 0x2 ADD SSTORE SWAP1 POP POP DUP1 DUP6 PUSH1 0x6 ADD DUP2 SWAP1 SSTORE POP POP POP POP POP POP JUMP JUMPDEST PUSH1 0x0 PUSH2 0x4207 DUP3 PUSH1 0x40 ADD MLOAD PUSH2 0x47CF JUMP JUMPDEST PUSH2 0x4215 JUMPI DUP2 PUSH1 0x0 ADD MLOAD PUSH2 0x421B JUMP JUMPDEST DUP2 PUSH1 0x20 ADD MLOAD JUMPDEST SWAP1 POP SWAP2 SWAP1 POP JUMP JUMPDEST PUSH1 0x0 DUP1 PUSH1 0x0 DUP1 PUSH2 0x4231 DUP7 PUSH2 0x4334 JUMP JUMPDEST SWAP3 POP SWAP3 POP SWAP3 POP PUSH1 0x0 DUP3 DUP7 SUB SWAP1 POP PUSH1 0x0 DUP2 SLT ISZERO PUSH2 0x4254 JUMPI PUSH1 0x0 SWAP5 POP POP POP POP POP PUSH2 0x42A8 JUMP JUMPDEST PUSH1 0x0 DUP2 SWAP1 POP PUSH2 0x42A0 PUSH2 0x427F PUSH2 0x427A DUP6 PUSH2 0x426C DUP6 PUSH2 0x4E11 JUMP JUMPDEST PUSH2 0x36AE SWAP1 SWAP2 SWAP1 PUSH4 0xFFFFFFFF AND JUMP JUMPDEST PUSH2 0x4EB3 JUMP JUMPDEST PUSH2 0x4292 DUP4 DUP9 PUSH2 0x42AE SWAP1 SWAP2 SWAP1 PUSH4 0xFFFFFFFF AND JUMP JUMPDEST PUSH2 0x403D SWAP1 SWAP2 SWAP1 PUSH4 0xFFFFFFFF AND JUMP JUMPDEST SWAP6 POP POP POP POP POP POP JUMPDEST SWAP3 SWAP2 POP POP JUMP JUMPDEST PUSH1 0x0 DUP1 DUP4 EQ ISZERO PUSH2 0x42C1 JUMPI PUSH1 0x0 SWAP1 POP PUSH2 0x432E JUMP JUMPDEST PUSH1 0x0 DUP3 DUP5 MUL SWAP1 POP DUP3 DUP5 DUP3 DUP2 PUSH2 0x42D2 JUMPI INVALID JUMPDEST DIV EQ PUSH2 0x4329 JUMPI PUSH1 0x40 MLOAD PUSH32 0x8C379A000000000000000000000000000000000000000000000000000000000 DUP2 MSTORE PUSH1 0x4 ADD DUP1 DUP1 PUSH1 0x20 ADD DUP3 DUP2 SUB DUP3 MSTORE PUSH1 0x21 DUP2 MSTORE PUSH1 0x20 ADD DUP1 PUSH2 0x5295 PUSH1 0x21 SWAP2 CODECOPY PUSH1 0x40 ADD SWAP2 POP POP PUSH1 0x40 MLOAD DUP1 SWAP2 SUB SWAP1 REVERT JUMPDEST DUP1 SWAP2 POP POP JUMPDEST SWAP3 SWAP2 POP POP JUMP JUMPDEST PUSH1 0x0 DUP1 PUSH1 0x0 DUP1 PUSH2 0x4354 PUSH3 0x93A80 DUP7 PUSH1 0x6 ADD SLOAD PUSH2 0x36AE SWAP1 SWAP2 SWAP1 PUSH4 0xFFFFFFFF AND JUMP JUMPDEST PUSH2 0x435C PUSH2 0x4E09 JUMP JUMPDEST GT SWAP1 POP DUP1 PUSH2 0x4381 JUMPI DUP5 PUSH1 0x0 ADD PUSH1 0x0 ADD SLOAD DUP6 PUSH1 0x0 ADD PUSH1 0x1 ADD SLOAD DUP7 PUSH1 0x0 ADD PUSH1 0x2 ADD SLOAD PUSH2 0x439A JUMP JUMPDEST DUP5 PUSH1 0x3 ADD PUSH1 0x0 ADD SLOAD DUP6 PUSH1 0x3 ADD PUSH1 0x1 ADD SLOAD DUP7 PUSH1 0x3 ADD PUSH1 0x2 ADD SLOAD JUMPDEST SWAP4 POP SWAP4 POP SWAP4 POP POP SWAP2 SWAP4 SWAP1 SWAP3 POP JUMP JUMPDEST PUSH1 0x0 DUP1 ADDRESS SWAP1 POP PUSH1 0x0 DUP2 EXTCODESIZE SWAP1 POP PUSH1 0x0 DUP2 EQ SWAP3 POP POP POP SWAP1 JUMP JUMPDEST PUSH1 0x0 CALLER SWAP1 POP SWAP1 JUMP JUMPDEST PUSH2 0x4493 DUP4 DUP5 PUSH20 0xFFFFFFFFFFFFFFFFFFFFFFFFFFFFFFFFFFFFFFFF AND PUSH4 0xA9059CBB SWAP1 POP PUSH1 0xE0 SHL DUP5 DUP5 PUSH1 0x40 MLOAD PUSH1 0x24 ADD DUP1 DUP4 PUSH20 0xFFFFFFFFFFFFFFFFFFFFFFFFFFFFFFFFFFFFFFFF AND PUSH20 0xFFFFFFFFFFFFFFFFFFFFFFFFFFFFFFFFFFFFFFFF AND DUP2 MSTORE PUSH1 0x20 ADD DUP3 DUP2 MSTORE PUSH1 0x20 ADD SWAP3 POP POP POP PUSH1 0x40 MLOAD PUSH1 0x20 DUP2 DUP4 SUB SUB DUP2 MSTORE SWAP1 PUSH1 0x40 MSTORE SWAP1 PUSH28 0xFFFFFFFFFFFFFFFFFFFFFFFFFFFFFFFFFFFFFFFFFFFFFFFFFFFFFFFF NOT AND PUSH1 0x20 DUP3 ADD DUP1 MLOAD PUSH28 0xFFFFFFFFFFFFFFFFFFFFFFFFFFFFFFFFFFFFFFFFFFFFFFFFFFFFFFFF DUP4 DUP2 DUP4 AND OR DUP4 MSTORE POP POP POP POP PUSH2 0x4F15 JUMP JUMPDEST POP POP POP JUMP JUMPDEST PUSH1 0x1 PUSH1 0x66 PUSH1 0x0 DUP3 DUP3 SLOAD ADD SWAP3 POP POP DUP2 SWAP1 SSTORE POP PUSH1 0x0 PUSH1 0x66 SLOAD SWAP1 POP PUSH1 0x0 DUP3 GT PUSH2 0x4509 JUMPI PUSH1 0x40 MLOAD PUSH32 0x8C379A000000000000000000000000000000000000000000000000000000000 DUP2 MSTORE PUSH1 0x4 ADD DUP1 DUP1 PUSH1 0x20 ADD DUP3 DUP2 SUB DUP3 MSTORE PUSH1 0x24 DUP2 MSTORE PUSH1 0x20 ADD DUP1 PUSH2 0x522E PUSH1 0x24 SWAP2 CODECOPY PUSH1 0x40 ADD SWAP2 POP POP PUSH1 0x40 MLOAD DUP1 SWAP2 SUB SWAP1 REVERT JUMPDEST PUSH1 0x0 PUSH2 0x4513 PUSH2 0x1A41 JUMP JUMPDEST POP POP SWAP1 POP PUSH1 0x0 DUP2 EQ DUP1 ISZERO PUSH2 0x452E JUMPI POP PUSH1 0x0 PUSH2 0x452C PUSH2 0x1521 JUMP JUMPDEST EQ JUMPDEST ISZERO PUSH2 0x45A1 JUMPI PUSH1 0x40 MLOAD PUSH32 0x8C379A000000000000000000000000000000000000000000000000000000000 DUP2 MSTORE PUSH1 0x4 ADD DUP1 DUP1 PUSH1 0x20 ADD DUP3 DUP2 SUB DUP3 MSTORE PUSH1 0x10 DUP2 MSTORE PUSH1 0x20 ADD DUP1 PUSH32 0x656D697373696F6E2073746F7070656400000000000000000000000000000000 DUP2 MSTORE POP PUSH1 0x20 ADD SWAP2 POP POP PUSH1 0x40 MLOAD DUP1 SWAP2 SUB SWAP1 REVERT JUMPDEST PUSH1 0x0 DUP1 PUSH2 0x45B0 DUP8 DUP8 PUSH1 0x0 PUSH2 0x4A65 JUMP JUMPDEST SWAP2 POP SWAP2 POP PUSH1 0x0 PUSH2 0x4619 DUP7 PUSH1 0xAC PUSH1 0x0 DUP12 PUSH20 0xFFFFFFFFFFFFFFFFFFFFFFFFFFFFFFFFFFFFFFFF AND PUSH20 0xFFFFFFFFFFFFFFFFFFFFFFFFFFFFFFFFFFFFFFFF AND DUP2 MSTORE PUSH1 0x20 ADD SWAP1 DUP2 MSTORE PUSH1 0x20 ADD PUSH1 0x0 KECCAK256 PUSH1 0x0 DUP11 DUP2 MSTORE PUSH1 0x20 ADD SWAP1 DUP2 MSTORE PUSH1 0x20 ADD PUSH1 0x0 KECCAK256 SLOAD PUSH2 0x36AE SWAP1 SWAP2 SWAP1 PUSH4 0xFFFFFFFF AND JUMP JUMPDEST SWAP1 POP DUP1 PUSH1 0xAC PUSH1 0x0 DUP11 PUSH20 0xFFFFFFFFFFFFFFFFFFFFFFFFFFFFFFFFFFFFFFFF AND PUSH20 0xFFFFFFFFFFFFFFFFFFFFFFFFFFFFFFFFFFFFFFFF AND DUP2 MSTORE PUSH1 0x20 ADD SWAP1 DUP2 MSTORE PUSH1 0x20 ADD PUSH1 0x0 KECCAK256 PUSH1 0x0 DUP10 DUP2 MSTORE PUSH1 0x20 ADD SWAP1 DUP2 MSTORE PUSH1 0x20 ADD PUSH1 0x0 KECCAK256 DUP2 SWAP1 SSTORE POP PUSH2 0x4685 DUP7 PUSH1 0xB0 SLOAD PUSH2 0x36AE SWAP1 SWAP2 SWAP1 PUSH4 0xFFFFFFFF AND JUMP JUMPDEST PUSH1 0xB0 DUP2 SWAP1 SSTORE POP PUSH2 0x4693 PUSH2 0x365C JUMP JUMPDEST PUSH1 0xAD PUSH1 0x0 DUP11 PUSH20 0xFFFFFFFFFFFFFFFFFFFFFFFFFFFFFFFFFFFFFFFF AND PUSH20 0xFFFFFFFFFFFFFFFFFFFFFFFFFFFFFFFFFFFFFFFF AND DUP2 MSTORE PUSH1 0x20 ADD SWAP1 DUP2 MSTORE PUSH1 0x20 ADD PUSH1 0x0 KECCAK256 PUSH1 0x0 DUP10 DUP2 MSTORE PUSH1 0x20 ADD SWAP1 DUP2 MSTORE PUSH1 0x20 ADD PUSH1 0x0 KECCAK256 DUP2 SWAP1 SSTORE POP DUP7 DUP9 PUSH20 0xFFFFFFFFFFFFFFFFFFFFFFFFFFFFFFFFFFFFFFFF AND PUSH32 0xA5C854539F6E93FCD4A8397BFAE8BDB751B4E819840F1C8681E6AD7FF19C5B5 DUP9 DUP5 DUP8 DUP8 PUSH1 0x40 MLOAD DUP1 DUP6 DUP2 MSTORE PUSH1 0x20 ADD DUP5 DUP2 MSTORE PUSH1 0x20 ADD DUP4 DUP2 MSTORE PUSH1 0x20 ADD DUP3 DUP2 MSTORE PUSH1 0x20 ADD SWAP5 POP POP POP POP POP PUSH1 0x40 MLOAD DUP1 SWAP2 SUB SWAP1 LOG3 POP POP POP POP PUSH1 0x66 SLOAD DUP2 EQ PUSH2 0x47C9 JUMPI PUSH1 0x40 MLOAD PUSH32 0x8C379A000000000000000000000000000000000000000000000000000000000 DUP2 MSTORE PUSH1 0x4 ADD DUP1 DUP1 PUSH1 0x20 ADD DUP3 DUP2 SUB DUP3 MSTORE PUSH1 0x1F DUP2 MSTORE PUSH1 0x20 ADD DUP1 PUSH32 0x5265656E7472616E637947756172643A207265656E7472616E742063616C6C00 DUP2 MSTORE POP PUSH1 0x20 ADD SWAP2 POP POP PUSH1 0x40 MLOAD DUP1 SWAP2 SUB SWAP1 REVERT JUMPDEST POP POP POP POP JUMP JUMPDEST PUSH1 0x0 PUSH2 0x47E7 PUSH3 0x93A80 DUP4 PUSH2 0x36AE SWAP1 SWAP2 SWAP1 PUSH4 0xFFFFFFFF AND JUMP JUMPDEST PUSH2 0x47EF PUSH2 0x365C JUMP JUMPDEST GT SWAP1 POP SWAP2 SWAP1 POP JUMP JUMPDEST PUSH1 0x0 DUP1 PUSH1 0x0 PUSH32 0xC5D2460186F7233C927E7DB2DCC703C0E500B653CA82273B7BFAD8045D85A470 PUSH1 0x0 SHL SWAP1 POP DUP4 EXTCODEHASH SWAP2 POP DUP1 DUP3 EQ ISZERO DUP1 ISZERO PUSH2 0x4839 JUMPI POP PUSH1 0x0 DUP1 SHL DUP3 EQ ISZERO JUMPDEST SWAP3 POP POP POP SWAP2 SWAP1 POP JUMP JUMPDEST DUP1 PUSH1 0xB1 PUSH1 0x0 PUSH2 0x100 EXP DUP2 SLOAD DUP2 PUSH1 0xFF MUL NOT AND SWAP1 DUP4 ISZERO ISZERO MUL OR SWAP1 SSTORE POP POP JUMP JUMPDEST PUSH1 0x0 PUSH20 0xFFFFFFFFFFFFFFFFFFFFFFFFFFFFFFFFFFFFFFFF AND DUP2 PUSH20 0xFFFFFFFFFFFFFFFFFFFFFFFFFFFFFFFFFFFFFFFF AND EQ ISZERO PUSH2 0x48E5 JUMPI PUSH1 0x40 MLOAD PUSH32 0x8C379A000000000000000000000000000000000000000000000000000000000 DUP2 MSTORE PUSH1 0x4 ADD DUP1 DUP1 PUSH1 0x20 ADD DUP3 DUP2 SUB DUP3 MSTORE PUSH1 0x26 DUP2 MSTORE PUSH1 0x20 ADD DUP1 PUSH2 0x5208 PUSH1 0x26 SWAP2 CODECOPY PUSH1 0x40 ADD SWAP2 POP POP PUSH1 0x40 MLOAD DUP1 SWAP2 SUB SWAP1 REVERT JUMPDEST DUP1 PUSH20 0xFFFFFFFFFFFFFFFFFFFFFFFFFFFFFFFFFFFFFFFF AND PUSH1 0x33 PUSH1 0x0 SWAP1 SLOAD SWAP1 PUSH2 0x100 EXP SWAP1 DIV PUSH20 0xFFFFFFFFFFFFFFFFFFFFFFFFFFFFFFFFFFFFFFFF AND PUSH20 0xFFFFFFFFFFFFFFFFFFFFFFFFFFFFFFFFFFFFFFFF AND PUSH32 0x8BE0079C531659141344CD1FD0A4F28419497F9722A3DAAFE3B4186F6B6457E0 PUSH1 0x40 MLOAD PUSH1 0x40 MLOAD DUP1 SWAP2 SUB SWAP1 LOG3 DUP1 PUSH1 0x33 PUSH1 0x0 PUSH2 0x100 EXP DUP2 SLOAD DUP2 PUSH20 0xFFFFFFFFFFFFFFFFFFFFFFFFFFFFFFFFFFFFFFFF MUL NOT AND SWAP1 DUP4 PUSH20 0xFFFFFFFFFFFFFFFFFFFFFFFFFFFFFFFFFFFFFFFF AND MUL OR SWAP1 SSTORE POP POP JUMP JUMPDEST PUSH1 0x0 DUP4 DUP4 GT ISZERO DUP3 SWAP1 PUSH2 0x4A52 JUMPI PUSH1 0x40 MLOAD PUSH32 0x8C379A000000000000000000000000000000000000000000000000000000000 DUP2 MSTORE PUSH1 0x4 ADD DUP1 DUP1 PUSH1 0x20 ADD DUP3 DUP2 SUB DUP3 MSTORE DUP4 DUP2 DUP2 MLOAD DUP2 MSTORE PUSH1 0x20 ADD SWAP2 POP DUP1 MLOAD SWAP1 PUSH1 0x20 ADD SWAP1 DUP1 DUP4 DUP4 PUSH1 0x0 JUMPDEST DUP4 DUP2 LT ISZERO PUSH2 0x4A17 JUMPI DUP1 DUP3 ADD MLOAD DUP2 DUP5 ADD MSTORE PUSH1 0x20 DUP2 ADD SWAP1 POP PUSH2 0x49FC JUMP JUMPDEST POP POP POP POP SWAP1 POP SWAP1 DUP2 ADD SWAP1 PUSH1 0x1F AND DUP1 ISZERO PUSH2 0x4A44 JUMPI DUP1 DUP3 SUB DUP1 MLOAD PUSH1 0x1 DUP4 PUSH1 0x20 SUB PUSH2 0x100 EXP SUB NOT AND DUP2 MSTORE PUSH1 0x20 ADD SWAP2 POP JUMPDEST POP SWAP3 POP POP POP PUSH1 0x40 MLOAD DUP1 SWAP2 SUB SWAP1 REVERT JUMPDEST POP PUSH1 0x0 DUP4 DUP6 SUB SWAP1 POP DUP1 SWAP2 POP POP SWAP4 SWAP3 POP POP POP JUMP JUMPDEST PUSH1 0x0 DUP1 PUSH1 0x0 PUSH1 0xAC PUSH1 0x0 DUP8 PUSH20 0xFFFFFFFFFFFFFFFFFFFFFFFFFFFFFFFFFFFFFFFF AND PUSH20 0xFFFFFFFFFFFFFFFFFFFFFFFFFFFFFFFFFFFFFFFF AND DUP2 MSTORE PUSH1 0x20 ADD SWAP1 DUP2 MSTORE PUSH1 0x20 ADD PUSH1 0x0 KECCAK256 PUSH1 0x0 DUP7 DUP2 MSTORE PUSH1 0x20 ADD SWAP1 DUP2 MSTORE PUSH1 0x20 ADD PUSH1 0x0 KECCAK256 SLOAD SWAP1 POP PUSH1 0x0 DUP1 DUP6 EQ PUSH2 0x4ACC JUMPI DUP5 PUSH2 0x4ACE JUMP JUMPDEST DUP2 JUMPDEST SWAP1 POP PUSH1 0x0 DUP1 PUSH1 0x0 PUSH2 0x4B2F PUSH1 0xAD PUSH1 0x0 DUP13 PUSH20 0xFFFFFFFFFFFFFFFFFFFFFFFFFFFFFFFFFFFFFFFF AND PUSH20 0xFFFFFFFFFFFFFFFFFFFFFFFFFFFFFFFFFFFFFFFF AND DUP2 MSTORE PUSH1 0x20 ADD SWAP1 DUP2 MSTORE PUSH1 0x20 ADD PUSH1 0x0 KECCAK256 PUSH1 0x0 DUP12 DUP2 MSTORE PUSH1 0x20 ADD SWAP1 DUP2 MSTORE PUSH1 0x20 ADD PUSH1 0x0 KECCAK256 SLOAD DUP6 PUSH2 0x15AD JUMP JUMPDEST SWAP3 POP SWAP3 POP SWAP3 POP PUSH1 0x0 DUP4 GT ISZERO PUSH2 0x4D30 JUMPI PUSH2 0x4B51 DUP3 DUP7 PUSH2 0x36AE SWAP1 SWAP2 SWAP1 PUSH4 0xFFFFFFFF AND JUMP JUMPDEST PUSH1 0xAC PUSH1 0x0 DUP13 PUSH20 0xFFFFFFFFFFFFFFFFFFFFFFFFFFFFFFFFFFFFFFFF AND PUSH20 0xFFFFFFFFFFFFFFFFFFFFFFFFFFFFFFFFFFFFFFFF AND DUP2 MSTORE PUSH1 0x20 ADD SWAP1 DUP2 MSTORE PUSH1 0x20 ADD PUSH1 0x0 KECCAK256 PUSH1 0x0 DUP12 DUP2 MSTORE PUSH1 0x20 ADD SWAP1 DUP2 MSTORE PUSH1 0x20 ADD PUSH1 0x0 KECCAK256 DUP2 SWAP1 SSTORE POP PUSH2 0x4BBA DUP3 PUSH1 0xB0 SLOAD PUSH2 0x36AE SWAP1 SWAP2 SWAP1 PUSH4 0xFFFFFFFF AND JUMP JUMPDEST PUSH1 0xB0 DUP2 SWAP1 SSTORE POP PUSH1 0x99 PUSH1 0x0 SWAP1 SLOAD SWAP1 PUSH2 0x100 EXP SWAP1 DIV PUSH20 0xFFFFFFFFFFFFFFFFFFFFFFFFFFFFFFFFFFFFFFFF AND PUSH20 0xFFFFFFFFFFFFFFFFFFFFFFFFFFFFFFFFFFFFFFFF AND PUSH4 0xA9059CBB PUSH2 0x4C06 PUSH2 0x2A3F JUMP JUMPDEST PUSH2 0x4C19 DUP6 DUP8 PUSH2 0x3664 SWAP1 SWAP2 SWAP1 PUSH4 0xFFFFFFFF AND JUMP JUMPDEST PUSH1 0x40 MLOAD DUP4 PUSH4 0xFFFFFFFF AND PUSH1 0xE0 SHL DUP2 MSTORE PUSH1 0x4 ADD DUP1 DUP4 PUSH20 0xFFFFFFFFFFFFFFFFFFFFFFFFFFFFFFFFFFFFFFFF AND PUSH20 0xFFFFFFFFFFFFFFFFFFFFFFFFFFFFFFFFFFFFFFFF AND DUP2 MSTORE PUSH1 0x20 ADD DUP3 DUP2 MSTORE PUSH1 0x20 ADD SWAP3 POP POP POP PUSH1 0x20 PUSH1 0x40 MLOAD DUP1 DUP4 SUB DUP2 PUSH1 0x0 DUP8 DUP1 EXTCODESIZE ISZERO DUP1 ISZERO PUSH2 0x4C82 JUMPI PUSH1 0x0 DUP1 REVERT JUMPDEST POP GAS CALL ISZERO DUP1 ISZERO PUSH2 0x4C96 JUMPI RETURNDATASIZE PUSH1 0x0 DUP1 RETURNDATACOPY RETURNDATASIZE PUSH1 0x0 REVERT JUMPDEST POP POP POP POP PUSH1 0x40 MLOAD RETURNDATASIZE PUSH1 0x20 DUP2 LT ISZERO PUSH2 0x4CAC JUMPI PUSH1 0x0 DUP1 REVERT JUMPDEST DUP2 ADD SWAP1 DUP1 DUP1 MLOAD SWAP1 PUSH1 0x20 ADD SWAP1 SWAP3 SWAP2 SWAP1 POP POP POP PUSH2 0x4D2F JUMPI PUSH1 0x40 MLOAD PUSH32 0x8C379A000000000000000000000000000000000000000000000000000000000 DUP2 MSTORE PUSH1 0x4 ADD DUP1 DUP1 PUSH1 0x20 ADD DUP3 DUP2 SUB DUP3 MSTORE PUSH1 0xF DUP2 MSTORE PUSH1 0x20 ADD DUP1 PUSH32 0x7472616E73666572206661696C65640000000000000000000000000000000000 DUP2 MSTORE POP PUSH1 0x20 ADD SWAP2 POP POP PUSH1 0x40 MLOAD DUP1 SWAP2 SUB SWAP1 REVERT JUMPDEST JUMPDEST DUP2 DUP2 SWAP7 POP SWAP7 POP POP POP POP POP POP SWAP4 POP SWAP4 SWAP2 POP POP JUMP JUMPDEST PUSH1 0x0 DUP1 DUP4 GT DUP3 SWAP1 PUSH2 0x4DEF JUMPI PUSH1 0x40 MLOAD PUSH32 0x8C379A000000000000000000000000000000000000000000000000000000000 DUP2 MSTORE PUSH1 0x4 ADD DUP1 DUP1 PUSH1 0x20 ADD DUP3 DUP2 SUB DUP3 MSTORE DUP4 DUP2 DUP2 MLOAD DUP2 MSTORE PUSH1 0x20 ADD SWAP2 POP DUP1 MLOAD SWAP1 PUSH1 0x20 ADD SWAP1 DUP1 DUP4 DUP4 PUSH1 0x0 JUMPDEST DUP4 DUP2 LT ISZERO PUSH2 0x4DB4 JUMPI DUP1 DUP3 ADD MLOAD DUP2 DUP5 ADD MSTORE PUSH1 0x20 DUP2 ADD SWAP1 POP PUSH2 0x4D99 JUMP JUMPDEST POP POP POP POP SWAP1 POP SWAP1 DUP2 ADD SWAP1 PUSH1 0x1F AND DUP1 ISZERO PUSH2 0x4DE1 JUMPI DUP1 DUP3 SUB DUP1 MLOAD PUSH1 0x1 DUP4 PUSH1 0x20 SUB PUSH2 0x100 EXP SUB NOT AND DUP2 MSTORE PUSH1 0x20 ADD SWAP2 POP JUMPDEST POP SWAP3 POP POP POP PUSH1 0x40 MLOAD DUP1 SWAP2 SUB SWAP1 REVERT JUMPDEST POP PUSH1 0x0 DUP4 DUP6 DUP2 PUSH2 0x4DFB JUMPI INVALID JUMPDEST DIV SWAP1 POP DUP1 SWAP2 POP POP SWAP4 SWAP3 POP POP POP JUMP JUMPDEST PUSH1 0x0 TIMESTAMP SWAP1 POP SWAP1 JUMP JUMPDEST PUSH1 0x0 DUP1 DUP3 EQ ISZERO PUSH2 0x4E24 JUMPI PUSH1 0x0 SWAP1 POP PUSH2 0x4EAE JUMP JUMPDEST PUSH1 0x0 DUP3 DUP4 MUL SWAP1 POP DUP3 DUP4 DUP3 DUP2 PUSH2 0x4E35 JUMPI INVALID JUMPDEST DIV EQ PUSH2 0x4EA9 JUMPI PUSH1 0x40 MLOAD PUSH32 0x8C379A000000000000000000000000000000000000000000000000000000000 DUP2 MSTORE PUSH1 0x4 ADD DUP1 DUP1 PUSH1 0x20 ADD DUP3 DUP2 SUB DUP3 MSTORE PUSH1 0x1F DUP2 MSTORE PUSH1 0x20 ADD DUP1 PUSH32 0x457874656E6465644D6174683A207371756172696E67206F766572666C6F7700 DUP2 MSTORE POP PUSH1 0x20 ADD SWAP2 POP POP PUSH1 0x40 MLOAD DUP1 SWAP2 SUB SWAP1 REVERT JUMPDEST DUP1 SWAP2 POP POP JUMPDEST SWAP2 SWAP1 POP JUMP JUMPDEST PUSH1 0x0 PUSH1 0x3 DUP3 GT ISZERO PUSH2 0x4F02 JUMPI DUP2 SWAP1 POP PUSH1 0x0 PUSH1 0x1 PUSH1 0x2 DUP5 DUP2 PUSH2 0x4ECF JUMPI INVALID JUMPDEST DIV ADD SWAP1 POP JUMPDEST DUP2 DUP2 LT ISZERO PUSH2 0x4EFC JUMPI DUP1 SWAP2 POP PUSH1 0x2 DUP2 DUP3 DUP6 DUP2 PUSH2 0x4EEB JUMPI INVALID JUMPDEST DIV ADD DUP2 PUSH2 0x4EF4 JUMPI INVALID JUMPDEST DIV SWAP1 POP PUSH2 0x4ED4 JUMP JUMPDEST POP PUSH2 0x4F10 JUMP JUMPDEST PUSH1 0x0 DUP3 EQ PUSH2 0x4F0F JUMPI PUSH1 0x1 SWAP1 POP JUMPDEST JUMPDEST SWAP2 SWAP1 POP JUMP JUMPDEST PUSH2 0x4F34 DUP3 PUSH20 0xFFFFFFFFFFFFFFFFFFFFFFFFFFFFFFFFFFFFFFFF AND PUSH2 0x47F7 JUMP JUMPDEST PUSH2 0x4FA6 JUMPI PUSH1 0x40 MLOAD PUSH32 0x8C379A000000000000000000000000000000000000000000000000000000000 DUP2 MSTORE PUSH1 0x4 ADD DUP1 DUP1 PUSH1 0x20 ADD DUP3 DUP2 SUB DUP3 MSTORE PUSH1 0x1F DUP2 MSTORE PUSH1 0x20 ADD DUP1 PUSH32 0x5361666545524332303A2063616C6C20746F206E6F6E2D636F6E747261637400 DUP2 MSTORE POP PUSH1 0x20 ADD SWAP2 POP POP PUSH1 0x40 MLOAD DUP1 SWAP2 SUB SWAP1 REVERT JUMPDEST PUSH1 0x0 PUSH1 0x60 DUP4 PUSH20 0xFFFFFFFFFFFFFFFFFFFFFFFFFFFFFFFFFFFFFFFF AND DUP4 PUSH1 0x40 MLOAD DUP1 DUP3 DUP1 MLOAD SWAP1 PUSH1 0x20 ADD SWAP1 DUP1 DUP4 DUP4 JUMPDEST PUSH1 0x20 DUP4 LT PUSH2 0x4FF5 JUMPI DUP1 MLOAD DUP3 MSTORE PUSH1 0x20 DUP3 ADD SWAP2 POP PUSH1 0x20 DUP2 ADD SWAP1 POP PUSH1 0x20 DUP4 SUB SWAP3 POP PUSH2 0x4FD2 JUMP JUMPDEST PUSH1 0x1 DUP4 PUSH1 0x20 SUB PUSH2 0x100 EXP SUB DUP1 NOT DUP3 MLOAD AND DUP2 DUP5 MLOAD AND DUP1 DUP3 OR DUP6 MSTORE POP POP POP POP POP POP SWAP1 POP ADD SWAP2 POP POP PUSH1 0x0 PUSH1 0x40 MLOAD DUP1 DUP4 SUB DUP2 PUSH1 0x0 DUP7 GAS CALL SWAP2 POP POP RETURNDATASIZE DUP1 PUSH1 0x0 DUP2 EQ PUSH2 0x5057 JUMPI PUSH1 0x40 MLOAD SWAP2 POP PUSH1 0x1F NOT PUSH1 0x3F RETURNDATASIZE ADD AND DUP3 ADD PUSH1 0x40 MSTORE RETURNDATASIZE DUP3 MSTORE RETURNDATASIZE PUSH1 0x0 PUSH1 0x20 DUP5 ADD RETURNDATACOPY PUSH2 0x505C JUMP JUMPDEST PUSH1 0x60 SWAP2 POP JUMPDEST POP SWAP2 POP SWAP2 POP DUP2 PUSH2 0x50D4 JUMPI PUSH1 0x40 MLOAD PUSH32 0x8C379A000000000000000000000000000000000000000000000000000000000 DUP2 MSTORE PUSH1 0x4 ADD DUP1 DUP1 PUSH1 0x20 ADD DUP3 DUP2 SUB DUP3 MSTORE PUSH1 0x20 DUP2 MSTORE PUSH1 0x20 ADD DUP1 PUSH32 0x5361666545524332303A206C6F772D6C6576656C2063616C6C206661696C6564 DUP2 MSTORE POP PUSH1 0x20 ADD SWAP2 POP POP PUSH1 0x40 MLOAD DUP1 SWAP2 SUB SWAP1 REVERT JUMPDEST PUSH1 0x0 DUP2 MLOAD GT ISZERO PUSH2 0x515A JUMPI DUP1 DUP1 PUSH1 0x20 ADD SWAP1 MLOAD PUSH1 0x20 DUP2 LT ISZERO PUSH2 0x50F3 JUMPI PUSH1 0x0 DUP1 REVERT JUMPDEST DUP2 ADD SWAP1 DUP1 DUP1 MLOAD SWAP1 PUSH1 0x20 ADD SWAP1 SWAP3 SWAP2 SWAP1 POP POP POP PUSH2 0x5159 JUMPI PUSH1 0x40 MLOAD PUSH32 0x8C379A000000000000000000000000000000000000000000000000000000000 DUP2 MSTORE PUSH1 0x4 ADD DUP1 DUP1 PUSH1 0x20 ADD DUP3 DUP2 SUB DUP3 MSTORE PUSH1 0x2A DUP2 MSTORE PUSH1 0x20 ADD DUP1 PUSH2 0x5336 PUSH1 0x2A SWAP2 CODECOPY PUSH1 0x40 ADD SWAP2 POP POP PUSH1 0x40 MLOAD DUP1 SWAP2 SUB SWAP1 REVERT JUMPDEST JUMPDEST POP POP POP POP JUMP JUMPDEST PUSH1 0x4E DUP1 PUSH2 0x51BA DUP4 CODECOPY ADD SWAP1 JUMP JUMPDEST PUSH1 0x40 MLOAD DUP1 PUSH1 0x60 ADD PUSH1 0x40 MSTORE DUP1 PUSH1 0x0 PUSH20 0xFFFFFFFFFFFFFFFFFFFFFFFFFFFFFFFFFFFFFFFF AND DUP2 MSTORE PUSH1 0x20 ADD PUSH1 0x0 PUSH20 0xFFFFFFFFFFFFFFFFFFFFFFFFFFFFFFFFFFFFFFFF AND DUP2 MSTORE PUSH1 0x20 ADD PUSH1 0x0 DUP2 MSTORE POP SWAP1 JUMP INVALID PUSH1 0x80 PUSH1 0x40 MSTORE PUSH1 0x40 MLOAD PUSH1 0x4E CODESIZE SUB DUP1 PUSH1 0x4E DUP4 CODECOPY DUP2 DUP2 ADD PUSH1 0x40 MSTORE PUSH1 0x20 DUP2 LT ISZERO PUSH1 0x23 JUMPI PUSH1 0x0 DUP1 REVERT JUMPDEST DUP2 ADD SWAP1 DUP1 DUP1 MLOAD SWAP1 PUSH1 0x20 ADD SWAP1 SWAP3 SWAP2 SWAP1 POP POP POP DUP1 PUSH20 0xFFFFFFFFFFFFFFFFFFFFFFFFFFFFFFFFFFFFFFFF AND SELFDESTRUCT INVALID 0x4F PUSH24 0x6E61626C653A206E6577206F776E65722069732074686520 PUSH27 0x65726F20616464726573736465706F73697420616D6F756E742073 PUSH9 0x6F756C64206265206D PUSH16 0x7265207468616E203073686F756C6420 PUSH3 0x65206C PUSH6 0x737320746861 PUSH15 0x206F7220657175616C20746F206120 PUSH9 0x616C66206F66207468 PUSH6 0x206D6178696D PUSH22 0x6D20656D697373696F6E2072617465536166654D6174 PUSH9 0x3A206D756C7469706C PUSH10 0x636174696F6E206F7665 PUSH19 0x666C6F77436F6E747261637420696E7374616E PUSH4 0x65206861 PUSH20 0x20616C7265616479206265656E20696E69746961 PUSH13 0x697A656463616E206E6F742077 PUSH10 0x74686472617720647572 PUSH10 0x6E6720696E697469616C KECCAK256 PUSH13 0x6F636B20706572696F6473686F PUSH22 0x6C64206265206C657373207468616E206F7220657175 PUSH2 0x6C20 PUSH21 0x6F20312065746865725361666545524332303A2045 MSTORE NUMBER ORIGIN ADDRESS KECCAK256 PUSH16 0x7065726174696F6E20646964206E6F74 KECCAK256 PUSH20 0x75636365656473686F756C646E27742062652067 PUSH19 0x6561746572207468616E2033302064617973A2 PUSH6 0x627A7A723158 KECCAK256 0xF9 SLT ISZERO 0xAF SWAP1 PUSH21 0x85E3A0A3BCCD5F88AB05BCDF2F37F223FE0C77BE10 0xEA 0xE8 0xE2 SWAP5 RETURN PUSH5 0x736F6C6343 STOP SDIV LT STOP ORIGIN "
				},
				"gasEstimates": {
					"creation": {
						"codeDepositCost": "4285800",
						"executionCost": "4923",
						"totalCost": "4290723"
					},
					"external": {
						"MAX_EMISSION_RATE()": "317",
						"PARAM_UPDATE_DELAY()": "249",
						"balances(address,uint256)": "1394",
						"claimTokens(address,address,uint256)": "infinite",
						"deposit(uint256)": "infinite",
						"deposit(uint256,uint256)": "infinite",
						"depositDates(address,uint256)": "1307",
						"fee()": "infinite",
						"feeParam()": "2817",
						"getAccruedEmission(uint256,uint256)": "infinite",
						"getSigmoidParameters()": "infinite",
						"getSupplyBasedEmissionRate()": "infinite",
						"initialize()": "infinite",
						"initialize(address)": "infinite",
						"initialize(address,address,address,uint256,uint256,uint256,uint256,uint256,uint256,int256,uint256)": "infinite",
						"isOwner()": "1225",
						"lastDepositIds(address)": "1214",
						"liquidityProvidersRewardAddress()": "infinite",
						"liquidityProvidersRewardAddressParam()": "2870",
						"lockAfterStakeDuration()": "infinite",
						"lockAfterStakeDurationParam()": "2730",
						"lockAfterStakeDurationPassed(address,uint256)": "infinite",
						"makeForcedWithdrawal(uint256,uint256)": "infinite",
						"makeRequestedWithdrawal(uint256,uint256)": "infinite",
						"onTokenTransfer(address,uint256,bytes)": "infinite",
						"owner()": "1129",
						"renounceOwnership()": "24466",
						"requestWithdrawal(uint256)": "22994",
						"setFee(uint256)": "infinite",
						"setLiquidityProvidersRewardAddress(address)": "infinite",
						"setLockAfterStakeDuration(uint256)": "infinite",
						"setSigmoidParameters(uint256,int256,uint256)": "infinite",
						"setTotalSupplyFactor(uint256)": "infinite",
						"setWithdrawalLockDuration(uint256)": "infinite",
						"setWithdrawalUnlockDuration(uint256)": "infinite",
						"token()": "1207",
						"totalStaked()": "1116",
						"totalSupplyFactor()": "infinite",
						"totalSupplyFactorParam()": "2816",
						"transferOwnership(address)": "infinite",
						"withdrawalLockDuration()": "infinite",
						"withdrawalLockDurationParam()": "2751",
						"withdrawalRequestsDates(address,uint256)": "1349",
						"withdrawalUnlockDuration()": "infinite",
						"withdrawalUnlockDurationParam()": "2729"
					},
					"internal": {
						"_deposit(address,uint256,uint256)": "infinite",
						"_getUintParamValue(struct EasyStaking.UintParam memory)": "infinite",
						"_mint(address,uint256,uint256)": "infinite",
						"_now()": "22",
						"_paramUpdateDelayElapsed(uint256)": "infinite",
						"_setLocked(bool)": "20878",
						"_updateUintParam(struct EasyStaking.UintParam storage pointer,uint256)": "infinite",
						"_withdraw(address,uint256,uint256,bool)": "infinite"
					}
				},
				"methodIdentifiers": {
					"MAX_EMISSION_RATE()": "436cc3d6",
					"PARAM_UPDATE_DELAY()": "db51ef92",
					"balances(address,uint256)": "cbf1304d",
					"claimTokens(address,address,uint256)": "9fc314c8",
					"deposit(uint256)": "b6b55f25",
					"deposit(uint256,uint256)": "e2bbb158",
					"depositDates(address,uint256)": "8b53ccb3",
					"fee()": "ddca3f43",
					"feeParam()": "47e318de",
					"getAccruedEmission(uint256,uint256)": "60d4ffb0",
					"getSigmoidParameters()": "75fa901b",
					"getSupplyBasedEmissionRate()": "8235c378",
					"initialize()": "8129fc1c",
					"initialize(address)": "c4d66de8",
					"initialize(address,address,address,uint256,uint256,uint256,uint256,uint256,uint256,int256,uint256)": "ca758993",
					"isOwner()": "8f32d59b",
					"lastDepositIds(address)": "c3bd8fd0",
					"liquidityProvidersRewardAddress()": "c5401ce3",
					"liquidityProvidersRewardAddressParam()": "18194359",
					"lockAfterStakeDuration()": "97559cdc",
					"lockAfterStakeDurationParam()": "03d6d343",
					"lockAfterStakeDurationPassed(address,uint256)": "0e559215",
					"makeForcedWithdrawal(uint256,uint256)": "94967fa1",
					"makeRequestedWithdrawal(uint256,uint256)": "18cca7a6",
					"onTokenTransfer(address,uint256,bytes)": "a4c0ed36",
					"owner()": "8da5cb5b",
					"renounceOwnership()": "715018a6",
					"requestWithdrawal(uint256)": "9ee679e8",
					"setFee(uint256)": "69fe0e2d",
					"setLiquidityProvidersRewardAddress(address)": "d6463151",
					"setLockAfterStakeDuration(uint256)": "74949b6d",
					"setSigmoidParameters(uint256,int256,uint256)": "294a5b04",
					"setTotalSupplyFactor(uint256)": "41682990",
					"setWithdrawalLockDuration(uint256)": "224313fa",
					"setWithdrawalUnlockDuration(uint256)": "868867b5",
					"token()": "fc0c546a",
					"totalStaked()": "817b1cd2",
					"totalSupplyFactor()": "522ea5e2",
					"totalSupplyFactorParam()": "b4a86c48",
					"transferOwnership(address)": "f2fde38b",
					"withdrawalLockDuration()": "60c251c1",
					"withdrawalLockDurationParam()": "2c3144da",
					"withdrawalRequestsDates(address,uint256)": "e0648a28",
					"withdrawalUnlockDuration()": "8df67680",
					"withdrawalUnlockDurationParam()": "5e9e230d"
				}
			},
			"userdoc": {
				"methods": {}
			}
		}
	}
}