{
	"@openzeppelin/contracts-ethereum-package/contracts/ownership/Ownable.sol": {
		"Ownable": {
			"abi": [
				{
					"anonymous": false,
					"inputs": [
						{
							"indexed": true,
							"internalType": "address",
							"name": "previousOwner",
							"type": "address"
						},
						{
							"indexed": true,
							"internalType": "address",
							"name": "newOwner",
							"type": "address"
						}
					],
					"name": "OwnershipTransferred",
					"type": "event"
				},
				{
					"constant": false,
					"inputs": [
						{
							"internalType": "address",
							"name": "sender",
							"type": "address"
						}
					],
					"name": "initialize",
					"outputs": [],
					"payable": false,
					"stateMutability": "nonpayable",
					"type": "function"
				},
				{
					"constant": true,
					"inputs": [],
					"name": "isOwner",
					"outputs": [
						{
							"internalType": "bool",
							"name": "",
							"type": "bool"
						}
					],
					"payable": false,
					"stateMutability": "view",
					"type": "function"
				},
				{
					"constant": true,
					"inputs": [],
					"name": "owner",
					"outputs": [
						{
							"internalType": "address",
							"name": "",
							"type": "address"
						}
					],
					"payable": false,
					"stateMutability": "view",
					"type": "function"
				},
				{
					"constant": false,
					"inputs": [],
					"name": "renounceOwnership",
					"outputs": [],
					"payable": false,
					"stateMutability": "nonpayable",
					"type": "function"
				},
				{
					"constant": false,
					"inputs": [
						{
							"internalType": "address",
							"name": "newOwner",
							"type": "address"
						}
					],
					"name": "transferOwnership",
					"outputs": [],
					"payable": false,
					"stateMutability": "nonpayable",
					"type": "function"
				}
			],
			"devdoc": {
				"details": "Contract module which provides a basic access control mechanism, where there is an account (an owner) that can be granted exclusive access to specific functions. * This module is used through inheritance. It will make available the modifier `onlyOwner`, which can be aplied to your functions to restrict their use to the owner.",
				"methods": {
					"initialize(address)": {
						"details": "Initializes the contract setting the deployer as the initial owner."
					},
					"isOwner()": {
						"details": "Returns true if the caller is the current owner."
					},
					"owner()": {
						"details": "Returns the address of the current owner."
					},
					"renounceOwnership()": {
						"details": "Leaves the contract without owner. It will not be possible to call `onlyOwner` functions anymore. Can only be called by the current owner.     * > Note: Renouncing ownership will leave the contract without an owner, thereby removing any functionality that is only available to the owner."
					},
					"transferOwnership(address)": {
						"details": "Transfers ownership of the contract to a new account (`newOwner`). Can only be called by the current owner."
					}
				}
			},
			"evm": {
				"assembly": "    /* \"@openzeppelin/contracts-ethereum-package/contracts/ownership/Ownable.sol\":477:2503  contract Ownable is Initializable, Context {... */\n  mstore(0x40, 0x80)\n  dataSize(sub_0)\n  dup1\n  dataOffset(sub_0)\n  0x00\n  codecopy\n  0x00\n  return\nstop\n\nsub_0: assembly {\n        /* \"@openzeppelin/contracts-ethereum-package/contracts/ownership/Ownable.sol\":477:2503  contract Ownable is Initializable, Context {... */\n      mstore(0x40, 0x80)\n      callvalue\n        /* \"--CODEGEN--\":8:17   */\n      dup1\n        /* \"--CODEGEN--\":5:7   */\n      iszero\n      tag_1\n      jumpi\n        /* \"--CODEGEN--\":30:31   */\n      0x00\n        /* \"--CODEGEN--\":27:28   */\n      dup1\n        /* \"--CODEGEN--\":20:32   */\n      revert\n        /* \"--CODEGEN--\":5:7   */\n    tag_1:\n        /* \"@openzeppelin/contracts-ethereum-package/contracts/ownership/Ownable.sol\":477:2503  contract Ownable is Initializable, Context {... */\n      pop\n      jumpi(tag_2, lt(calldatasize, 0x04))\n      shr(0xe0, calldataload(0x00))\n      dup1\n      0x715018a6\n      eq\n      tag_3\n      jumpi\n      dup1\n      0x8da5cb5b\n      eq\n      tag_4\n      jumpi\n      dup1\n      0x8f32d59b\n      eq\n      tag_5\n      jumpi\n      dup1\n      0xc4d66de8\n      eq\n      tag_6\n      jumpi\n      dup1\n      0xf2fde38b\n      eq\n      tag_7\n      jumpi\n    tag_2:\n      0x00\n      dup1\n      revert\n        /* \"@openzeppelin/contracts-ethereum-package/contracts/ownership/Ownable.sol\":1746:1883  function renounceOwnership() public onlyOwner {... */\n    tag_3:\n      tag_8\n      tag_9\n      jump\t// in\n    tag_8:\n      stop\n        /* \"@openzeppelin/contracts-ethereum-package/contracts/ownership/Ownable.sol\":959:1036  function owner() public view returns (address) {... */\n    tag_4:\n      tag_10\n      tag_11\n      jump\t// in\n    tag_10:\n      mload(0x40)\n      dup1\n      dup3\n      0xffffffffffffffffffffffffffffffffffffffff\n      and\n      0xffffffffffffffffffffffffffffffffffffffff\n      and\n      dup2\n      mstore\n      0x20\n      add\n      swap2\n      pop\n      pop\n      mload(0x40)\n      dup1\n      swap2\n      sub\n      swap1\n      return\n        /* \"@openzeppelin/contracts-ethereum-package/contracts/ownership/Ownable.sol\":1310:1402  function isOwner() public view returns (bool) {... */\n    tag_5:\n      tag_12\n      tag_13\n      jump\t// in\n    tag_12:\n      mload(0x40)\n      dup1\n      dup3\n      iszero\n      iszero\n      iszero\n      iszero\n      dup2\n      mstore\n      0x20\n      add\n      swap2\n      pop\n      pop\n      mload(0x40)\n      dup1\n      swap2\n      sub\n      swap1\n      return\n        /* \"@openzeppelin/contracts-ethereum-package/contracts/ownership/Ownable.sol\":741:883  function initialize(address sender) public initializer {... */\n    tag_6:\n      tag_14\n      0x04\n      dup1\n      calldatasize\n      sub\n        /* \"--CODEGEN--\":13:15   */\n      0x20\n        /* \"--CODEGEN--\":8:11   */\n      dup2\n        /* \"--CODEGEN--\":5:16   */\n      lt\n        /* \"--CODEGEN--\":2:4   */\n      iszero\n      tag_15\n      jumpi\n        /* \"--CODEGEN--\":29:30   */\n      0x00\n        /* \"--CODEGEN--\":26:27   */\n      dup1\n        /* \"--CODEGEN--\":19:31   */\n      revert\n        /* \"--CODEGEN--\":2:4   */\n    tag_15:\n        /* \"@openzeppelin/contracts-ethereum-package/contracts/ownership/Ownable.sol\":741:883  function initialize(address sender) public initializer {... */\n      dup2\n      add\n      swap1\n      dup1\n      dup1\n      calldataload\n      0xffffffffffffffffffffffffffffffffffffffff\n      and\n      swap1\n      0x20\n      add\n      swap1\n      swap3\n      swap2\n      swap1\n      pop\n      pop\n      pop\n      tag_16\n      jump\t// in\n    tag_14:\n      stop\n        /* \"@openzeppelin/contracts-ethereum-package/contracts/ownership/Ownable.sol\":2032:2139  function transferOwnership(address newOwner) public onlyOwner {... */\n    tag_7:\n      tag_17\n      0x04\n      dup1\n      calldatasize\n      sub\n        /* \"--CODEGEN--\":13:15   */\n      0x20\n        /* \"--CODEGEN--\":8:11   */\n      dup2\n        /* \"--CODEGEN--\":5:16   */\n      lt\n        /* \"--CODEGEN--\":2:4   */\n      iszero\n      tag_18\n      jumpi\n        /* \"--CODEGEN--\":29:30   */\n      0x00\n        /* \"--CODEGEN--\":26:27   */\n      dup1\n        /* \"--CODEGEN--\":19:31   */\n      revert\n        /* \"--CODEGEN--\":2:4   */\n    tag_18:\n        /* \"@openzeppelin/contracts-ethereum-package/contracts/ownership/Ownable.sol\":2032:2139  function transferOwnership(address newOwner) public onlyOwner {... */\n      dup2\n      add\n      swap1\n      dup1\n      dup1\n      calldataload\n      0xffffffffffffffffffffffffffffffffffffffff\n      and\n      swap1\n      0x20\n      add\n      swap1\n      swap3\n      swap2\n      swap1\n      pop\n      pop\n      pop\n      tag_19\n      jump\t// in\n    tag_17:\n      stop\n        /* \"@openzeppelin/contracts-ethereum-package/contracts/ownership/Ownable.sol\":1746:1883  function renounceOwnership() public onlyOwner {... */\n    tag_9:\n        /* \"@openzeppelin/contracts-ethereum-package/contracts/ownership/Ownable.sol\":1163:1172  isOwner() */\n      tag_21\n        /* \"@openzeppelin/contracts-ethereum-package/contracts/ownership/Ownable.sol\":1163:1170  isOwner */\n      tag_13\n        /* \"@openzeppelin/contracts-ethereum-package/contracts/ownership/Ownable.sol\":1163:1172  isOwner() */\n      jump\t// in\n    tag_21:\n        /* \"@openzeppelin/contracts-ethereum-package/contracts/ownership/Ownable.sol\":1155:1209  require(isOwner(), \"Ownable: caller is not the owner\") */\n      tag_22\n      jumpi\n      mload(0x40)\n      0x08c379a000000000000000000000000000000000000000000000000000000000\n      dup2\n      mstore\n      0x04\n      add\n      dup1\n      dup1\n      0x20\n      add\n      dup3\n      dup2\n      sub\n      dup3\n      mstore\n      0x20\n      dup2\n      mstore\n      0x20\n      add\n      dup1\n      0x4f776e61626c653a2063616c6c6572206973206e6f7420746865206f776e6572\n      dup2\n      mstore\n      pop\n      0x20\n      add\n      swap2\n      pop\n      pop\n      mload(0x40)\n      dup1\n      swap2\n      sub\n      swap1\n      revert\n    tag_22:\n        /* \"@openzeppelin/contracts-ethereum-package/contracts/ownership/Ownable.sol\":1844:1845  0 */\n      0x00\n        /* \"@openzeppelin/contracts-ethereum-package/contracts/ownership/Ownable.sol\":1807:1847  OwnershipTransferred(_owner, address(0)) */\n      0xffffffffffffffffffffffffffffffffffffffff\n      and\n        /* \"@openzeppelin/contracts-ethereum-package/contracts/ownership/Ownable.sol\":1828:1834  _owner */\n      0x33\n      0x00\n      swap1\n      sload\n      swap1\n      0x0100\n      exp\n      swap1\n      div\n      0xffffffffffffffffffffffffffffffffffffffff\n      and\n        /* \"@openzeppelin/contracts-ethereum-package/contracts/ownership/Ownable.sol\":1807:1847  OwnershipTransferred(_owner, address(0)) */\n      0xffffffffffffffffffffffffffffffffffffffff\n      and\n      0x8be0079c531659141344cd1fd0a4f28419497f9722a3daafe3b4186f6b6457e0\n      mload(0x40)\n      mload(0x40)\n      dup1\n      swap2\n      sub\n      swap1\n      log3\n        /* \"@openzeppelin/contracts-ethereum-package/contracts/ownership/Ownable.sol\":1874:1875  0 */\n      0x00\n        /* \"@openzeppelin/contracts-ethereum-package/contracts/ownership/Ownable.sol\":1857:1863  _owner */\n      0x33\n      0x00\n        /* \"@openzeppelin/contracts-ethereum-package/contracts/ownership/Ownable.sol\":1857:1876  _owner = address(0) */\n      0x0100\n      exp\n      dup2\n      sload\n      dup2\n      0xffffffffffffffffffffffffffffffffffffffff\n      mul\n      not\n      and\n      swap1\n      dup4\n      0xffffffffffffffffffffffffffffffffffffffff\n      and\n      mul\n      or\n      swap1\n      sstore\n      pop\n        /* \"@openzeppelin/contracts-ethereum-package/contracts/ownership/Ownable.sol\":1746:1883  function renounceOwnership() public onlyOwner {... */\n      jump\t// out\n        /* \"@openzeppelin/contracts-ethereum-package/contracts/ownership/Ownable.sol\":959:1036  function owner() public view returns (address) {... */\n    tag_11:\n        /* \"@openzeppelin/contracts-ethereum-package/contracts/ownership/Ownable.sol\":997:1004  address */\n      0x00\n        /* \"@openzeppelin/contracts-ethereum-package/contracts/ownership/Ownable.sol\":1023:1029  _owner */\n      0x33\n      0x00\n      swap1\n      sload\n      swap1\n      0x0100\n      exp\n      swap1\n      div\n      0xffffffffffffffffffffffffffffffffffffffff\n      and\n        /* \"@openzeppelin/contracts-ethereum-package/contracts/ownership/Ownable.sol\":1016:1029  return _owner */\n      swap1\n      pop\n        /* \"@openzeppelin/contracts-ethereum-package/contracts/ownership/Ownable.sol\":959:1036  function owner() public view returns (address) {... */\n      swap1\n      jump\t// out\n        /* \"@openzeppelin/contracts-ethereum-package/contracts/ownership/Ownable.sol\":1310:1402  function isOwner() public view returns (bool) {... */\n    tag_13:\n        /* \"@openzeppelin/contracts-ethereum-package/contracts/ownership/Ownable.sol\":1350:1354  bool */\n      0x00\n        /* \"@openzeppelin/contracts-ethereum-package/contracts/ownership/Ownable.sol\":1389:1395  _owner */\n      0x33\n      0x00\n      swap1\n      sload\n      swap1\n      0x0100\n      exp\n      swap1\n      div\n      0xffffffffffffffffffffffffffffffffffffffff\n      and\n        /* \"@openzeppelin/contracts-ethereum-package/contracts/ownership/Ownable.sol\":1373:1395  _msgSender() == _owner */\n      0xffffffffffffffffffffffffffffffffffffffff\n      and\n        /* \"@openzeppelin/contracts-ethereum-package/contracts/ownership/Ownable.sol\":1373:1385  _msgSender() */\n      tag_26\n        /* \"@openzeppelin/contracts-ethereum-package/contracts/ownership/Ownable.sol\":1373:1383  _msgSender */\n      tag_27\n        /* \"@openzeppelin/contracts-ethereum-package/contracts/ownership/Ownable.sol\":1373:1385  _msgSender() */\n      jump\t// in\n    tag_26:\n        /* \"@openzeppelin/contracts-ethereum-package/contracts/ownership/Ownable.sol\":1373:1395  _msgSender() == _owner */\n      0xffffffffffffffffffffffffffffffffffffffff\n      and\n      eq\n        /* \"@openzeppelin/contracts-ethereum-package/contracts/ownership/Ownable.sol\":1366:1395  return _msgSender() == _owner */\n      swap1\n      pop\n        /* \"@openzeppelin/contracts-ethereum-package/contracts/ownership/Ownable.sol\":1310:1402  function isOwner() public view returns (bool) {... */\n      swap1\n      jump\t// out\n        /* \"@openzeppelin/contracts-ethereum-package/contracts/ownership/Ownable.sol\":741:883  function initialize(address sender) public initializer {... */\n    tag_16:\n        /* \"@openzeppelin/upgrades/contracts/Initializable.sol\":1024:1036  initializing */\n      0x00\n      0x01\n      swap1\n      sload\n      swap1\n      0x0100\n      exp\n      swap1\n      div\n      0xff\n      and\n        /* \"@openzeppelin/upgrades/contracts/Initializable.sol\":1024:1055  initializing || isConstructor() */\n      dup1\n      tag_29\n      jumpi\n      pop\n        /* \"@openzeppelin/upgrades/contracts/Initializable.sol\":1040:1055  isConstructor() */\n      tag_30\n        /* \"@openzeppelin/upgrades/contracts/Initializable.sol\":1040:1053  isConstructor */\n      tag_31\n        /* \"@openzeppelin/upgrades/contracts/Initializable.sol\":1040:1055  isConstructor() */\n      jump\t// in\n    tag_30:\n        /* \"@openzeppelin/upgrades/contracts/Initializable.sol\":1024:1055  initializing || isConstructor() */\n    tag_29:\n        /* \"@openzeppelin/upgrades/contracts/Initializable.sol\":1024:1071  initializing || isConstructor() || !initialized */\n      dup1\n      tag_32\n      jumpi\n      pop\n        /* \"@openzeppelin/upgrades/contracts/Initializable.sol\":1060:1071  initialized */\n      0x00\n      dup1\n      swap1\n      sload\n      swap1\n      0x0100\n      exp\n      swap1\n      div\n      0xff\n      and\n        /* \"@openzeppelin/upgrades/contracts/Initializable.sol\":1059:1071  !initialized */\n      iszero\n        /* \"@openzeppelin/upgrades/contracts/Initializable.sol\":1024:1071  initializing || isConstructor() || !initialized */\n    tag_32:\n        /* \"@openzeppelin/upgrades/contracts/Initializable.sol\":1016:1122  require(initializing || isConstructor() || !initialized, \"Contract instance has already been initialized\") */\n      tag_33\n      jumpi\n      mload(0x40)\n      0x08c379a000000000000000000000000000000000000000000000000000000000\n      dup2\n      mstore\n      0x04\n      add\n      dup1\n      dup1\n      0x20\n      add\n      dup3\n      dup2\n      sub\n      dup3\n      mstore\n      0x2e\n      dup2\n      mstore\n      0x20\n      add\n      dup1\n      data_9fbba6c4dcac9134893b633b9564f36435b3f927c1d5fa152c5c14b20cecb1a4\n      0x2e\n      swap2\n      codecopy\n      0x40\n      add\n      swap2\n      pop\n      pop\n      mload(0x40)\n      dup1\n      swap2\n      sub\n      swap1\n      revert\n    tag_33:\n        /* \"@openzeppelin/upgrades/contracts/Initializable.sol\":1129:1148  bool isTopLevelCall */\n      0x00\n        /* \"@openzeppelin/upgrades/contracts/Initializable.sol\":1152:1164  initializing */\n      dup1\n      0x01\n      swap1\n      sload\n      swap1\n      0x0100\n      exp\n      swap1\n      div\n      0xff\n      and\n        /* \"@openzeppelin/upgrades/contracts/Initializable.sol\":1151:1164  !initializing */\n      iszero\n        /* \"@openzeppelin/upgrades/contracts/Initializable.sol\":1129:1164  bool isTopLevelCall = !initializing */\n      swap1\n      pop\n        /* \"@openzeppelin/upgrades/contracts/Initializable.sol\":1174:1188  isTopLevelCall */\n      dup1\n        /* \"@openzeppelin/upgrades/contracts/Initializable.sol\":1170:1250  if (isTopLevelCall) {... */\n      iszero\n      tag_34\n      jumpi\n        /* \"@openzeppelin/upgrades/contracts/Initializable.sol\":1213:1217  true */\n      0x01\n        /* \"@openzeppelin/upgrades/contracts/Initializable.sol\":1198:1210  initializing */\n      0x00\n      0x01\n        /* \"@openzeppelin/upgrades/contracts/Initializable.sol\":1198:1217  initializing = true */\n      0x0100\n      exp\n      dup2\n      sload\n      dup2\n      0xff\n      mul\n      not\n      and\n      swap1\n      dup4\n      iszero\n      iszero\n      mul\n      or\n      swap1\n      sstore\n      pop\n        /* \"@openzeppelin/upgrades/contracts/Initializable.sol\":1239:1243  true */\n      0x01\n        /* \"@openzeppelin/upgrades/contracts/Initializable.sol\":1225:1236  initialized */\n      0x00\n      dup1\n        /* \"@openzeppelin/upgrades/contracts/Initializable.sol\":1225:1243  initialized = true */\n      0x0100\n      exp\n      dup2\n      sload\n      dup2\n      0xff\n      mul\n      not\n      and\n      swap1\n      dup4\n      iszero\n      iszero\n      mul\n      or\n      swap1\n      sstore\n      pop\n        /* \"@openzeppelin/upgrades/contracts/Initializable.sol\":1170:1250  if (isTopLevelCall) {... */\n    tag_34:\n        /* \"@openzeppelin/contracts-ethereum-package/contracts/ownership/Ownable.sol\":815:821  sender */\n      dup2\n        /* \"@openzeppelin/contracts-ethereum-package/contracts/ownership/Ownable.sol\":806:812  _owner */\n      0x33\n      0x00\n        /* \"@openzeppelin/contracts-ethereum-package/contracts/ownership/Ownable.sol\":806:821  _owner = sender */\n      0x0100\n      exp\n      dup2\n      sload\n      dup2\n      0xffffffffffffffffffffffffffffffffffffffff\n      mul\n      not\n      and\n      swap1\n      dup4\n      0xffffffffffffffffffffffffffffffffffffffff\n      and\n      mul\n      or\n      swap1\n      sstore\n      pop\n        /* \"@openzeppelin/contracts-ethereum-package/contracts/ownership/Ownable.sol\":869:875  _owner */\n      0x33\n      0x00\n      swap1\n      sload\n      swap1\n      0x0100\n      exp\n      swap1\n      div\n      0xffffffffffffffffffffffffffffffffffffffff\n      and\n        /* \"@openzeppelin/contracts-ethereum-package/contracts/ownership/Ownable.sol\":836:876  OwnershipTransferred(address(0), _owner) */\n      0xffffffffffffffffffffffffffffffffffffffff\n      and\n        /* \"@openzeppelin/contracts-ethereum-package/contracts/ownership/Ownable.sol\":865:866  0 */\n      0x00\n        /* \"@openzeppelin/contracts-ethereum-package/contracts/ownership/Ownable.sol\":836:876  OwnershipTransferred(address(0), _owner) */\n      0xffffffffffffffffffffffffffffffffffffffff\n      and\n      0x8be0079c531659141344cd1fd0a4f28419497f9722a3daafe3b4186f6b6457e0\n      mload(0x40)\n      mload(0x40)\n      dup1\n      swap2\n      sub\n      swap1\n      log3\n        /* \"@openzeppelin/upgrades/contracts/Initializable.sol\":1268:1282  isTopLevelCall */\n      dup1\n        /* \"@openzeppelin/upgrades/contracts/Initializable.sol\":1264:1319  if (isTopLevelCall) {... */\n      iszero\n      tag_36\n      jumpi\n        /* \"@openzeppelin/upgrades/contracts/Initializable.sol\":1307:1312  false */\n      0x00\n        /* \"@openzeppelin/upgrades/contracts/Initializable.sol\":1292:1304  initializing */\n      dup1\n      0x01\n        /* \"@openzeppelin/upgrades/contracts/Initializable.sol\":1292:1312  initializing = false */\n      0x0100\n      exp\n      dup2\n      sload\n      dup2\n      0xff\n      mul\n      not\n      and\n      swap1\n      dup4\n      iszero\n      iszero\n      mul\n      or\n      swap1\n      sstore\n      pop\n        /* \"@openzeppelin/upgrades/contracts/Initializable.sol\":1264:1319  if (isTopLevelCall) {... */\n    tag_36:\n        /* \"@openzeppelin/contracts-ethereum-package/contracts/ownership/Ownable.sol\":741:883  function initialize(address sender) public initializer {... */\n      pop\n      pop\n      jump\t// out\n        /* \"@openzeppelin/contracts-ethereum-package/contracts/ownership/Ownable.sol\":2032:2139  function transferOwnership(address newOwner) public onlyOwner {... */\n    tag_19:\n        /* \"@openzeppelin/contracts-ethereum-package/contracts/ownership/Ownable.sol\":1163:1172  isOwner() */\n      tag_38\n        /* \"@openzeppelin/contracts-ethereum-package/contracts/ownership/Ownable.sol\":1163:1170  isOwner */\n      tag_13\n        /* \"@openzeppelin/contracts-ethereum-package/contracts/ownership/Ownable.sol\":1163:1172  isOwner() */\n      jump\t// in\n    tag_38:\n        /* \"@openzeppelin/contracts-ethereum-package/contracts/ownership/Ownable.sol\":1155:1209  require(isOwner(), \"Ownable: caller is not the owner\") */\n      tag_39\n      jumpi\n      mload(0x40)\n      0x08c379a000000000000000000000000000000000000000000000000000000000\n      dup2\n      mstore\n      0x04\n      add\n      dup1\n      dup1\n      0x20\n      add\n      dup3\n      dup2\n      sub\n      dup3\n      mstore\n      0x20\n      dup2\n      mstore\n      0x20\n      add\n      dup1\n      0x4f776e61626c653a2063616c6c6572206973206e6f7420746865206f776e6572\n      dup2\n      mstore\n      pop\n      0x20\n      add\n      swap2\n      pop\n      pop\n      mload(0x40)\n      dup1\n      swap2\n      sub\n      swap1\n      revert\n    tag_39:\n        /* \"@openzeppelin/contracts-ethereum-package/contracts/ownership/Ownable.sol\":2104:2132  _transferOwnership(newOwner) */\n      tag_41\n        /* \"@openzeppelin/contracts-ethereum-package/contracts/ownership/Ownable.sol\":2123:2131  newOwner */\n      dup2\n        /* \"@openzeppelin/contracts-ethereum-package/contracts/ownership/Ownable.sol\":2104:2122  _transferOwnership */\n      tag_42\n        /* \"@openzeppelin/contracts-ethereum-package/contracts/ownership/Ownable.sol\":2104:2132  _transferOwnership(newOwner) */\n      jump\t// in\n    tag_41:\n        /* \"@openzeppelin/contracts-ethereum-package/contracts/ownership/Ownable.sol\":2032:2139  function transferOwnership(address newOwner) public onlyOwner {... */\n      pop\n      jump\t// out\n        /* \"@openzeppelin/contracts-ethereum-package/contracts/GSN/Context.sol\":867:963  function _msgSender() internal view returns (address payable) {... */\n    tag_27:\n        /* \"@openzeppelin/contracts-ethereum-package/contracts/GSN/Context.sol\":912:927  address payable */\n      0x00\n        /* \"@openzeppelin/contracts-ethereum-package/contracts/GSN/Context.sol\":946:956  msg.sender */\n      caller\n        /* \"@openzeppelin/contracts-ethereum-package/contracts/GSN/Context.sol\":939:956  return msg.sender */\n      swap1\n      pop\n        /* \"@openzeppelin/contracts-ethereum-package/contracts/GSN/Context.sol\":867:963  function _msgSender() internal view returns (address payable) {... */\n      swap1\n      jump\t// out\n        /* \"@openzeppelin/upgrades/contracts/Initializable.sol\":1409:1907  function isConstructor() private view returns (bool) {... */\n    tag_31:\n        /* \"@openzeppelin/upgrades/contracts/Initializable.sol\":1456:1460  bool */\n      0x00\n        /* \"@openzeppelin/upgrades/contracts/Initializable.sol\":1797:1809  address self */\n      dup1\n        /* \"@openzeppelin/upgrades/contracts/Initializable.sol\":1820:1824  this */\n      address\n        /* \"@openzeppelin/upgrades/contracts/Initializable.sol\":1797:1825  address self = address(this) */\n      swap1\n      pop\n        /* \"@openzeppelin/upgrades/contracts/Initializable.sol\":1831:1841  uint256 cs */\n      0x00\n        /* \"@openzeppelin/upgrades/contracts/Initializable.sol\":1876:1880  self */\n      dup2\n        /* \"@openzeppelin/upgrades/contracts/Initializable.sol\":1864:1881  extcodesize(self) */\n      extcodesize\n        /* \"@openzeppelin/upgrades/contracts/Initializable.sol\":1858:1881  cs := extcodesize(self) */\n      swap1\n      pop\n        /* \"@openzeppelin/upgrades/contracts/Initializable.sol\":1901:1902  0 */\n      0x00\n        /* \"@openzeppelin/upgrades/contracts/Initializable.sol\":1895:1897  cs */\n      dup2\n        /* \"@openzeppelin/upgrades/contracts/Initializable.sol\":1895:1902  cs == 0 */\n      eq\n        /* \"@openzeppelin/upgrades/contracts/Initializable.sol\":1888:1902  return cs == 0 */\n      swap3\n      pop\n      pop\n      pop\n        /* \"@openzeppelin/upgrades/contracts/Initializable.sol\":1409:1907  function isConstructor() private view returns (bool) {... */\n      swap1\n      jump\t// out\n        /* \"@openzeppelin/contracts-ethereum-package/contracts/ownership/Ownable.sol\":2240:2465  function _transferOwnership(address newOwner) internal {... */\n    tag_42:\n        /* \"@openzeppelin/contracts-ethereum-package/contracts/ownership/Ownable.sol\":2333:2334  0 */\n      0x00\n        /* \"@openzeppelin/contracts-ethereum-package/contracts/ownership/Ownable.sol\":2313:2335  newOwner != address(0) */\n      0xffffffffffffffffffffffffffffffffffffffff\n      and\n        /* \"@openzeppelin/contracts-ethereum-package/contracts/ownership/Ownable.sol\":2313:2321  newOwner */\n      dup2\n        /* \"@openzeppelin/contracts-ethereum-package/contracts/ownership/Ownable.sol\":2313:2335  newOwner != address(0) */\n      0xffffffffffffffffffffffffffffffffffffffff\n      and\n      eq\n      iszero\n        /* \"@openzeppelin/contracts-ethereum-package/contracts/ownership/Ownable.sol\":2305:2378  require(newOwner != address(0), \"Ownable: new owner is the zero address\") */\n      tag_46\n      jumpi\n      mload(0x40)\n      0x08c379a000000000000000000000000000000000000000000000000000000000\n      dup2\n      mstore\n      0x04\n      add\n      dup1\n      dup1\n      0x20\n      add\n      dup3\n      dup2\n      sub\n      dup3\n      mstore\n      0x26\n      dup2\n      mstore\n      0x20\n      add\n      dup1\n      data_245f15ff17f551913a7a18385165551503906a406f905ac1c2437281a7cd0cfe\n      0x26\n      swap2\n      codecopy\n      0x40\n      add\n      swap2\n      pop\n      pop\n      mload(0x40)\n      dup1\n      swap2\n      sub\n      swap1\n      revert\n    tag_46:\n        /* \"@openzeppelin/contracts-ethereum-package/contracts/ownership/Ownable.sol\":2422:2430  newOwner */\n      dup1\n        /* \"@openzeppelin/contracts-ethereum-package/contracts/ownership/Ownable.sol\":2393:2431  OwnershipTransferred(_owner, newOwner) */\n      0xffffffffffffffffffffffffffffffffffffffff\n      and\n        /* \"@openzeppelin/contracts-ethereum-package/contracts/ownership/Ownable.sol\":2414:2420  _owner */\n      0x33\n      0x00\n      swap1\n      sload\n      swap1\n      0x0100\n      exp\n      swap1\n      div\n      0xffffffffffffffffffffffffffffffffffffffff\n      and\n        /* \"@openzeppelin/contracts-ethereum-package/contracts/ownership/Ownable.sol\":2393:2431  OwnershipTransferred(_owner, newOwner) */\n      0xffffffffffffffffffffffffffffffffffffffff\n      and\n      0x8be0079c531659141344cd1fd0a4f28419497f9722a3daafe3b4186f6b6457e0\n      mload(0x40)\n      mload(0x40)\n      dup1\n      swap2\n      sub\n      swap1\n      log3\n        /* \"@openzeppelin/contracts-ethereum-package/contracts/ownership/Ownable.sol\":2450:2458  newOwner */\n      dup1\n        /* \"@openzeppelin/contracts-ethereum-package/contracts/ownership/Ownable.sol\":2441:2447  _owner */\n      0x33\n      0x00\n        /* \"@openzeppelin/contracts-ethereum-package/contracts/ownership/Ownable.sol\":2441:2458  _owner = newOwner */\n      0x0100\n      exp\n      dup2\n      sload\n      dup2\n      0xffffffffffffffffffffffffffffffffffffffff\n      mul\n      not\n      and\n      swap1\n      dup4\n      0xffffffffffffffffffffffffffffffffffffffff\n      and\n      mul\n      or\n      swap1\n      sstore\n      pop\n        /* \"@openzeppelin/contracts-ethereum-package/contracts/ownership/Ownable.sol\":2240:2465  function _transferOwnership(address newOwner) internal {... */\n      pop\n      jump\t// out\n    stop\n    data_245f15ff17f551913a7a18385165551503906a406f905ac1c2437281a7cd0cfe 4f776e61626c653a206e6577206f776e657220697320746865207a65726f2061646472657373\n    data_9fbba6c4dcac9134893b633b9564f36435b3f927c1d5fa152c5c14b20cecb1a4 436f6e747261637420696e7374616e63652068617320616c7265616479206265656e20696e697469616c697a6564\n\n    auxdata: 0xa265627a7a7231582078c731ace7e179e0afeac54da4061444113b0c6cef4c47c1745f945385ff19f764736f6c63430005100032\n}\n",
				"bytecode": {
					"linkReferences": {},
					"object": "6080604052610750806100136000396000f3fe608060405234801561001057600080fd5b50600436106100575760003560e01c8063715018a61461005c5780638da5cb5b146100665780638f32d59b146100b0578063c4d66de8146100d2578063f2fde38b14610116575b600080fd5b61006461015a565b005b61006e610295565b604051808273ffffffffffffffffffffffffffffffffffffffff1673ffffffffffffffffffffffffffffffffffffffff16815260200191505060405180910390f35b6100b86102bf565b604051808215151515815260200191505060405180910390f35b610114600480360360208110156100e857600080fd5b81019080803573ffffffffffffffffffffffffffffffffffffffff16906020019092919050505061031e565b005b6101586004803603602081101561012c57600080fd5b81019080803573ffffffffffffffffffffffffffffffffffffffff1690602001909291905050506104dc565b005b6101626102bf565b6101d4576040517f08c379a00000000000000000000000000000000000000000000000000000000081526004018080602001828103825260208152602001807f4f776e61626c653a2063616c6c6572206973206e6f7420746865206f776e657281525060200191505060405180910390fd5b600073ffffffffffffffffffffffffffffffffffffffff16603360009054906101000a900473ffffffffffffffffffffffffffffffffffffffff1673ffffffffffffffffffffffffffffffffffffffff167f8be0079c531659141344cd1fd0a4f28419497f9722a3daafe3b4186f6b6457e060405160405180910390a36000603360006101000a81548173ffffffffffffffffffffffffffffffffffffffff021916908373ffffffffffffffffffffffffffffffffffffffff160217905550565b6000603360009054906101000a900473ffffffffffffffffffffffffffffffffffffffff16905090565b6000603360009054906101000a900473ffffffffffffffffffffffffffffffffffffffff1673ffffffffffffffffffffffffffffffffffffffff16610302610562565b73ffffffffffffffffffffffffffffffffffffffff1614905090565b600060019054906101000a900460ff168061033d575061033c61056a565b5b8061035457506000809054906101000a900460ff16155b6103a9576040517f08c379a000000000000000000000000000000000000000000000000000000000815260040180806020018281038252602e8152602001806106ee602e913960400191505060405180910390fd5b60008060019054906101000a900460ff1615905080156103f9576001600060016101000a81548160ff02191690831515021790555060016000806101000a81548160ff0219169083151502179055505b81603360006101000a81548173ffffffffffffffffffffffffffffffffffffffff021916908373ffffffffffffffffffffffffffffffffffffffff160217905550603360009054906101000a900473ffffffffffffffffffffffffffffffffffffffff1673ffffffffffffffffffffffffffffffffffffffff16600073ffffffffffffffffffffffffffffffffffffffff167f8be0079c531659141344cd1fd0a4f28419497f9722a3daafe3b4186f6b6457e060405160405180910390a380156104d85760008060016101000a81548160ff0219169083151502179055505b5050565b6104e46102bf565b610556576040517f08c379a00000000000000000000000000000000000000000000000000000000081526004018080602001828103825260208152602001807f4f776e61626c653a2063616c6c6572206973206e6f7420746865206f776e657281525060200191505060405180910390fd5b61055f81610581565b50565b600033905090565b6000803090506000813b9050600081149250505090565b600073ffffffffffffffffffffffffffffffffffffffff168173ffffffffffffffffffffffffffffffffffffffff161415610607576040517f08c379a00000000000000000000000000000000000000000000000000000000081526004018080602001828103825260268152602001806106c86026913960400191505060405180910390fd5b8073ffffffffffffffffffffffffffffffffffffffff16603360009054906101000a900473ffffffffffffffffffffffffffffffffffffffff1673ffffffffffffffffffffffffffffffffffffffff167f8be0079c531659141344cd1fd0a4f28419497f9722a3daafe3b4186f6b6457e060405160405180910390a380603360006101000a81548173ffffffffffffffffffffffffffffffffffffffff021916908373ffffffffffffffffffffffffffffffffffffffff1602179055505056fe4f776e61626c653a206e6577206f776e657220697320746865207a65726f2061646472657373436f6e747261637420696e7374616e63652068617320616c7265616479206265656e20696e697469616c697a6564a265627a7a7231582078c731ace7e179e0afeac54da4061444113b0c6cef4c47c1745f945385ff19f764736f6c63430005100032",
					"opcodes": "PUSH1 0x80 PUSH1 0x40 MSTORE PUSH2 0x750 DUP1 PUSH2 0x13 PUSH1 0x0 CODECOPY PUSH1 0x0 RETURN INVALID PUSH1 0x80 PUSH1 0x40 MSTORE CALLVALUE DUP1 ISZERO PUSH2 0x10 JUMPI PUSH1 0x0 DUP1 REVERT JUMPDEST POP PUSH1 0x4 CALLDATASIZE LT PUSH2 0x57 JUMPI PUSH1 0x0 CALLDATALOAD PUSH1 0xE0 SHR DUP1 PUSH4 0x715018A6 EQ PUSH2 0x5C JUMPI DUP1 PUSH4 0x8DA5CB5B EQ PUSH2 0x66 JUMPI DUP1 PUSH4 0x8F32D59B EQ PUSH2 0xB0 JUMPI DUP1 PUSH4 0xC4D66DE8 EQ PUSH2 0xD2 JUMPI DUP1 PUSH4 0xF2FDE38B EQ PUSH2 0x116 JUMPI JUMPDEST PUSH1 0x0 DUP1 REVERT JUMPDEST PUSH2 0x64 PUSH2 0x15A JUMP JUMPDEST STOP JUMPDEST PUSH2 0x6E PUSH2 0x295 JUMP JUMPDEST PUSH1 0x40 MLOAD DUP1 DUP3 PUSH20 0xFFFFFFFFFFFFFFFFFFFFFFFFFFFFFFFFFFFFFFFF AND PUSH20 0xFFFFFFFFFFFFFFFFFFFFFFFFFFFFFFFFFFFFFFFF AND DUP2 MSTORE PUSH1 0x20 ADD SWAP2 POP POP PUSH1 0x40 MLOAD DUP1 SWAP2 SUB SWAP1 RETURN JUMPDEST PUSH2 0xB8 PUSH2 0x2BF JUMP JUMPDEST PUSH1 0x40 MLOAD DUP1 DUP3 ISZERO ISZERO ISZERO ISZERO DUP2 MSTORE PUSH1 0x20 ADD SWAP2 POP POP PUSH1 0x40 MLOAD DUP1 SWAP2 SUB SWAP1 RETURN JUMPDEST PUSH2 0x114 PUSH1 0x4 DUP1 CALLDATASIZE SUB PUSH1 0x20 DUP2 LT ISZERO PUSH2 0xE8 JUMPI PUSH1 0x0 DUP1 REVERT JUMPDEST DUP2 ADD SWAP1 DUP1 DUP1 CALLDATALOAD PUSH20 0xFFFFFFFFFFFFFFFFFFFFFFFFFFFFFFFFFFFFFFFF AND SWAP1 PUSH1 0x20 ADD SWAP1 SWAP3 SWAP2 SWAP1 POP POP POP PUSH2 0x31E JUMP JUMPDEST STOP JUMPDEST PUSH2 0x158 PUSH1 0x4 DUP1 CALLDATASIZE SUB PUSH1 0x20 DUP2 LT ISZERO PUSH2 0x12C JUMPI PUSH1 0x0 DUP1 REVERT JUMPDEST DUP2 ADD SWAP1 DUP1 DUP1 CALLDATALOAD PUSH20 0xFFFFFFFFFFFFFFFFFFFFFFFFFFFFFFFFFFFFFFFF AND SWAP1 PUSH1 0x20 ADD SWAP1 SWAP3 SWAP2 SWAP1 POP POP POP PUSH2 0x4DC JUMP JUMPDEST STOP JUMPDEST PUSH2 0x162 PUSH2 0x2BF JUMP JUMPDEST PUSH2 0x1D4 JUMPI PUSH1 0x40 MLOAD PUSH32 0x8C379A000000000000000000000000000000000000000000000000000000000 DUP2 MSTORE PUSH1 0x4 ADD DUP1 DUP1 PUSH1 0x20 ADD DUP3 DUP2 SUB DUP3 MSTORE PUSH1 0x20 DUP2 MSTORE PUSH1 0x20 ADD DUP1 PUSH32 0x4F776E61626C653A2063616C6C6572206973206E6F7420746865206F776E6572 DUP2 MSTORE POP PUSH1 0x20 ADD SWAP2 POP POP PUSH1 0x40 MLOAD DUP1 SWAP2 SUB SWAP1 REVERT JUMPDEST PUSH1 0x0 PUSH20 0xFFFFFFFFFFFFFFFFFFFFFFFFFFFFFFFFFFFFFFFF AND PUSH1 0x33 PUSH1 0x0 SWAP1 SLOAD SWAP1 PUSH2 0x100 EXP SWAP1 DIV PUSH20 0xFFFFFFFFFFFFFFFFFFFFFFFFFFFFFFFFFFFFFFFF AND PUSH20 0xFFFFFFFFFFFFFFFFFFFFFFFFFFFFFFFFFFFFFFFF AND PUSH32 0x8BE0079C531659141344CD1FD0A4F28419497F9722A3DAAFE3B4186F6B6457E0 PUSH1 0x40 MLOAD PUSH1 0x40 MLOAD DUP1 SWAP2 SUB SWAP1 LOG3 PUSH1 0x0 PUSH1 0x33 PUSH1 0x0 PUSH2 0x100 EXP DUP2 SLOAD DUP2 PUSH20 0xFFFFFFFFFFFFFFFFFFFFFFFFFFFFFFFFFFFFFFFF MUL NOT AND SWAP1 DUP4 PUSH20 0xFFFFFFFFFFFFFFFFFFFFFFFFFFFFFFFFFFFFFFFF AND MUL OR SWAP1 SSTORE POP JUMP JUMPDEST PUSH1 0x0 PUSH1 0x33 PUSH1 0x0 SWAP1 SLOAD SWAP1 PUSH2 0x100 EXP SWAP1 DIV PUSH20 0xFFFFFFFFFFFFFFFFFFFFFFFFFFFFFFFFFFFFFFFF AND SWAP1 POP SWAP1 JUMP JUMPDEST PUSH1 0x0 PUSH1 0x33 PUSH1 0x0 SWAP1 SLOAD SWAP1 PUSH2 0x100 EXP SWAP1 DIV PUSH20 0xFFFFFFFFFFFFFFFFFFFFFFFFFFFFFFFFFFFFFFFF AND PUSH20 0xFFFFFFFFFFFFFFFFFFFFFFFFFFFFFFFFFFFFFFFF AND PUSH2 0x302 PUSH2 0x562 JUMP JUMPDEST PUSH20 0xFFFFFFFFFFFFFFFFFFFFFFFFFFFFFFFFFFFFFFFF AND EQ SWAP1 POP SWAP1 JUMP JUMPDEST PUSH1 0x0 PUSH1 0x1 SWAP1 SLOAD SWAP1 PUSH2 0x100 EXP SWAP1 DIV PUSH1 0xFF AND DUP1 PUSH2 0x33D JUMPI POP PUSH2 0x33C PUSH2 0x56A JUMP JUMPDEST JUMPDEST DUP1 PUSH2 0x354 JUMPI POP PUSH1 0x0 DUP1 SWAP1 SLOAD SWAP1 PUSH2 0x100 EXP SWAP1 DIV PUSH1 0xFF AND ISZERO JUMPDEST PUSH2 0x3A9 JUMPI PUSH1 0x40 MLOAD PUSH32 0x8C379A000000000000000000000000000000000000000000000000000000000 DUP2 MSTORE PUSH1 0x4 ADD DUP1 DUP1 PUSH1 0x20 ADD DUP3 DUP2 SUB DUP3 MSTORE PUSH1 0x2E DUP2 MSTORE PUSH1 0x20 ADD DUP1 PUSH2 0x6EE PUSH1 0x2E SWAP2 CODECOPY PUSH1 0x40 ADD SWAP2 POP POP PUSH1 0x40 MLOAD DUP1 SWAP2 SUB SWAP1 REVERT JUMPDEST PUSH1 0x0 DUP1 PUSH1 0x1 SWAP1 SLOAD SWAP1 PUSH2 0x100 EXP SWAP1 DIV PUSH1 0xFF AND ISZERO SWAP1 POP DUP1 ISZERO PUSH2 0x3F9 JUMPI PUSH1 0x1 PUSH1 0x0 PUSH1 0x1 PUSH2 0x100 EXP DUP2 SLOAD DUP2 PUSH1 0xFF MUL NOT AND SWAP1 DUP4 ISZERO ISZERO MUL OR SWAP1 SSTORE POP PUSH1 0x1 PUSH1 0x0 DUP1 PUSH2 0x100 EXP DUP2 SLOAD DUP2 PUSH1 0xFF MUL NOT AND SWAP1 DUP4 ISZERO ISZERO MUL OR SWAP1 SSTORE POP JUMPDEST DUP2 PUSH1 0x33 PUSH1 0x0 PUSH2 0x100 EXP DUP2 SLOAD DUP2 PUSH20 0xFFFFFFFFFFFFFFFFFFFFFFFFFFFFFFFFFFFFFFFF MUL NOT AND SWAP1 DUP4 PUSH20 0xFFFFFFFFFFFFFFFFFFFFFFFFFFFFFFFFFFFFFFFF AND MUL OR SWAP1 SSTORE POP PUSH1 0x33 PUSH1 0x0 SWAP1 SLOAD SWAP1 PUSH2 0x100 EXP SWAP1 DIV PUSH20 0xFFFFFFFFFFFFFFFFFFFFFFFFFFFFFFFFFFFFFFFF AND PUSH20 0xFFFFFFFFFFFFFFFFFFFFFFFFFFFFFFFFFFFFFFFF AND PUSH1 0x0 PUSH20 0xFFFFFFFFFFFFFFFFFFFFFFFFFFFFFFFFFFFFFFFF AND PUSH32 0x8BE0079C531659141344CD1FD0A4F28419497F9722A3DAAFE3B4186F6B6457E0 PUSH1 0x40 MLOAD PUSH1 0x40 MLOAD DUP1 SWAP2 SUB SWAP1 LOG3 DUP1 ISZERO PUSH2 0x4D8 JUMPI PUSH1 0x0 DUP1 PUSH1 0x1 PUSH2 0x100 EXP DUP2 SLOAD DUP2 PUSH1 0xFF MUL NOT AND SWAP1 DUP4 ISZERO ISZERO MUL OR SWAP1 SSTORE POP JUMPDEST POP POP JUMP JUMPDEST PUSH2 0x4E4 PUSH2 0x2BF JUMP JUMPDEST PUSH2 0x556 JUMPI PUSH1 0x40 MLOAD PUSH32 0x8C379A000000000000000000000000000000000000000000000000000000000 DUP2 MSTORE PUSH1 0x4 ADD DUP1 DUP1 PUSH1 0x20 ADD DUP3 DUP2 SUB DUP3 MSTORE PUSH1 0x20 DUP2 MSTORE PUSH1 0x20 ADD DUP1 PUSH32 0x4F776E61626C653A2063616C6C6572206973206E6F7420746865206F776E6572 DUP2 MSTORE POP PUSH1 0x20 ADD SWAP2 POP POP PUSH1 0x40 MLOAD DUP1 SWAP2 SUB SWAP1 REVERT JUMPDEST PUSH2 0x55F DUP2 PUSH2 0x581 JUMP JUMPDEST POP JUMP JUMPDEST PUSH1 0x0 CALLER SWAP1 POP SWAP1 JUMP JUMPDEST PUSH1 0x0 DUP1 ADDRESS SWAP1 POP PUSH1 0x0 DUP2 EXTCODESIZE SWAP1 POP PUSH1 0x0 DUP2 EQ SWAP3 POP POP POP SWAP1 JUMP JUMPDEST PUSH1 0x0 PUSH20 0xFFFFFFFFFFFFFFFFFFFFFFFFFFFFFFFFFFFFFFFF AND DUP2 PUSH20 0xFFFFFFFFFFFFFFFFFFFFFFFFFFFFFFFFFFFFFFFF AND EQ ISZERO PUSH2 0x607 JUMPI PUSH1 0x40 MLOAD PUSH32 0x8C379A000000000000000000000000000000000000000000000000000000000 DUP2 MSTORE PUSH1 0x4 ADD DUP1 DUP1 PUSH1 0x20 ADD DUP3 DUP2 SUB DUP3 MSTORE PUSH1 0x26 DUP2 MSTORE PUSH1 0x20 ADD DUP1 PUSH2 0x6C8 PUSH1 0x26 SWAP2 CODECOPY PUSH1 0x40 ADD SWAP2 POP POP PUSH1 0x40 MLOAD DUP1 SWAP2 SUB SWAP1 REVERT JUMPDEST DUP1 PUSH20 0xFFFFFFFFFFFFFFFFFFFFFFFFFFFFFFFFFFFFFFFF AND PUSH1 0x33 PUSH1 0x0 SWAP1 SLOAD SWAP1 PUSH2 0x100 EXP SWAP1 DIV PUSH20 0xFFFFFFFFFFFFFFFFFFFFFFFFFFFFFFFFFFFFFFFF AND PUSH20 0xFFFFFFFFFFFFFFFFFFFFFFFFFFFFFFFFFFFFFFFF AND PUSH32 0x8BE0079C531659141344CD1FD0A4F28419497F9722A3DAAFE3B4186F6B6457E0 PUSH1 0x40 MLOAD PUSH1 0x40 MLOAD DUP1 SWAP2 SUB SWAP1 LOG3 DUP1 PUSH1 0x33 PUSH1 0x0 PUSH2 0x100 EXP DUP2 SLOAD DUP2 PUSH20 0xFFFFFFFFFFFFFFFFFFFFFFFFFFFFFFFFFFFFFFFF MUL NOT AND SWAP1 DUP4 PUSH20 0xFFFFFFFFFFFFFFFFFFFFFFFFFFFFFFFFFFFFFFFF AND MUL OR SWAP1 SSTORE POP POP JUMP INVALID 0x4F PUSH24 0x6E61626C653A206E6577206F776E65722069732074686520 PUSH27 0x65726F2061646472657373436F6E747261637420696E7374616E63 PUSH6 0x206861732061 PUSH13 0x7265616479206265656E20696E PUSH10 0x7469616C697A6564A265 PUSH3 0x7A7A72 BALANCE PC KECCAK256 PUSH25 0xC731ACE7E179E0AFEAC54DA4061444113B0C6CEF4C47C1745F SWAP5 MSTORE8 DUP6 SELFDESTRUCT NOT 0xF7 PUSH5 0x736F6C6343 STOP SDIV LT STOP ORIGIN "
				},
				"gasEstimates": {
					"creation": {
						"codeDepositCost": "374400",
						"executionCost": "387",
						"totalCost": "374787"
					},
					"external": {
						"initialize(address)": "infinite",
						"isOwner()": "1135",
						"owner()": "1061",
						"renounceOwnership()": "24310",
						"transferOwnership(address)": "infinite"
					},
					"internal": {
						"_transferOwnership(address)": "infinite"
					}
				},
				"methodIdentifiers": {
					"initialize(address)": "c4d66de8",
					"isOwner()": "8f32d59b",
					"owner()": "8da5cb5b",
					"renounceOwnership()": "715018a6",
					"transferOwnership(address)": "f2fde38b"
				}
			},
			"userdoc": {
				"methods": {}
			}
		}
	}
}