{
	"@openzeppelin/contracts-ethereum-package/contracts/utils/ReentrancyGuard.sol": {
		"ReentrancyGuard": {
			"abi": [
				{
					"constant": false,
					"inputs": [],
					"name": "initialize",
					"outputs": [],
					"payable": false,
					"stateMutability": "nonpayable",
					"type": "function"
				}
			],
			"devdoc": {
				"details": "Contract module that helps prevent reentrant calls to a function. * Inheriting from `ReentrancyGuard` will make the {nonReentrant} modifier available, which can be applied to functions to make sure there are no nested (reentrant) calls to them. * Note that because there is a single `nonReentrant` guard, functions marked as `nonReentrant` may not call one another. This can be worked around by making those functions `private`, and then adding `external` `nonReentrant` entry points to them.",
				"methods": {}
			},
			"evm": {
				"assembly": "    /* \"@openzeppelin/contracts-ethereum-package/contracts/utils/ReentrancyGuard.sol\":619:1595  contract ReentrancyGuard is Initializable {... */\n  mstore(0x40, 0x80)\n  callvalue\n    /* \"--CODEGEN--\":8:17   */\n  dup1\n    /* \"--CODEGEN--\":5:7   */\n  iszero\n  tag_1\n  jumpi\n    /* \"--CODEGEN--\":30:31   */\n  0x00\n    /* \"--CODEGEN--\":27:28   */\n  dup1\n    /* \"--CODEGEN--\":20:32   */\n  revert\n    /* \"--CODEGEN--\":5:7   */\ntag_1:\n    /* \"@openzeppelin/contracts-ethereum-package/contracts/utils/ReentrancyGuard.sol\":619:1595  contract ReentrancyGuard is Initializable {... */\n  pop\n  dataSize(sub_0)\n  dup1\n  dataOffset(sub_0)\n  0x00\n  codecopy\n  0x00\n  return\nstop\n\nsub_0: assembly {\n        /* \"@openzeppelin/contracts-ethereum-package/contracts/utils/ReentrancyGuard.sol\":619:1595  contract ReentrancyGuard is Initializable {... */\n      mstore(0x40, 0x80)\n      callvalue\n        /* \"--CODEGEN--\":8:17   */\n      dup1\n        /* \"--CODEGEN--\":5:7   */\n      iszero\n      tag_1\n      jumpi\n        /* \"--CODEGEN--\":30:31   */\n      0x00\n        /* \"--CODEGEN--\":27:28   */\n      dup1\n        /* \"--CODEGEN--\":20:32   */\n      revert\n        /* \"--CODEGEN--\":5:7   */\n    tag_1:\n        /* \"@openzeppelin/contracts-ethereum-package/contracts/utils/ReentrancyGuard.sol\":619:1595  contract ReentrancyGuard is Initializable {... */\n      pop\n      jumpi(tag_2, lt(calldatasize, 0x04))\n      shr(0xe0, calldataload(0x00))\n      dup1\n      0x8129fc1c\n      eq\n      tag_3\n      jumpi\n    tag_2:\n      0x00\n      dup1\n      revert\n        /* \"@openzeppelin/contracts-ethereum-package/contracts/utils/ReentrancyGuard.sol\":769:983  function initialize() public initializer {... */\n    tag_3:\n      tag_4\n      tag_5\n      jump\t// in\n    tag_4:\n      stop\n    tag_5:\n        /* \"@openzeppelin/upgrades/contracts/Initializable.sol\":1024:1036  initializing */\n      0x00\n      0x01\n      swap1\n      sload\n      swap1\n      0x0100\n      exp\n      swap1\n      div\n      0xff\n      and\n        /* \"@openzeppelin/upgrades/contracts/Initializable.sol\":1024:1055  initializing || isConstructor() */\n      dup1\n      tag_7\n      jumpi\n      pop\n        /* \"@openzeppelin/upgrades/contracts/Initializable.sol\":1040:1055  isConstructor() */\n      tag_8\n        /* \"@openzeppelin/upgrades/contracts/Initializable.sol\":1040:1053  isConstructor */\n      tag_9\n        /* \"@openzeppelin/upgrades/contracts/Initializable.sol\":1040:1055  isConstructor() */\n      jump\t// in\n    tag_8:\n        /* \"@openzeppelin/upgrades/contracts/Initializable.sol\":1024:1055  initializing || isConstructor() */\n    tag_7:\n        /* \"@openzeppelin/upgrades/contracts/Initializable.sol\":1024:1071  initializing || isConstructor() || !initialized */\n      dup1\n      tag_10\n      jumpi\n      pop\n        /* \"@openzeppelin/upgrades/contracts/Initializable.sol\":1060:1071  initialized */\n      0x00\n      dup1\n      swap1\n      sload\n      swap1\n      0x0100\n      exp\n      swap1\n      div\n      0xff\n      and\n        /* \"@openzeppelin/upgrades/contracts/Initializable.sol\":1059:1071  !initialized */\n      iszero\n        /* \"@openzeppelin/upgrades/contracts/Initializable.sol\":1024:1071  initializing || isConstructor() || !initialized */\n    tag_10:\n        /* \"@openzeppelin/upgrades/contracts/Initializable.sol\":1016:1122  require(initializing || isConstructor() || !initialized, \"Contract instance has already been initialized\") */\n      tag_11\n      jumpi\n      mload(0x40)\n      0x08c379a000000000000000000000000000000000000000000000000000000000\n      dup2\n      mstore\n      0x04\n      add\n      dup1\n      dup1\n      0x20\n      add\n      dup3\n      dup2\n      sub\n      dup3\n      mstore\n      0x2e\n      dup2\n      mstore\n      0x20\n      add\n      dup1\n      data_9fbba6c4dcac9134893b633b9564f36435b3f927c1d5fa152c5c14b20cecb1a4\n      0x2e\n      swap2\n      codecopy\n      0x40\n      add\n      swap2\n      pop\n      pop\n      mload(0x40)\n      dup1\n      swap2\n      sub\n      swap1\n      revert\n    tag_11:\n        /* \"@openzeppelin/upgrades/contracts/Initializable.sol\":1129:1148  bool isTopLevelCall */\n      0x00\n        /* \"@openzeppelin/upgrades/contracts/Initializable.sol\":1152:1164  initializing */\n      dup1\n      0x01\n      swap1\n      sload\n      swap1\n      0x0100\n      exp\n      swap1\n      div\n      0xff\n      and\n        /* \"@openzeppelin/upgrades/contracts/Initializable.sol\":1151:1164  !initializing */\n      iszero\n        /* \"@openzeppelin/upgrades/contracts/Initializable.sol\":1129:1164  bool isTopLevelCall = !initializing */\n      swap1\n      pop\n        /* \"@openzeppelin/upgrades/contracts/Initializable.sol\":1174:1188  isTopLevelCall */\n      dup1\n        /* \"@openzeppelin/upgrades/contracts/Initializable.sol\":1170:1250  if (isTopLevelCall) {... */\n      iszero\n      tag_12\n      jumpi\n        /* \"@openzeppelin/upgrades/contracts/Initializable.sol\":1213:1217  true */\n      0x01\n        /* \"@openzeppelin/upgrades/contracts/Initializable.sol\":1198:1210  initializing */\n      0x00\n      0x01\n        /* \"@openzeppelin/upgrades/contracts/Initializable.sol\":1198:1217  initializing = true */\n      0x0100\n      exp\n      dup2\n      sload\n      dup2\n      0xff\n      mul\n      not\n      and\n      swap1\n      dup4\n      iszero\n      iszero\n      mul\n      or\n      swap1\n      sstore\n      pop\n        /* \"@openzeppelin/upgrades/contracts/Initializable.sol\":1239:1243  true */\n      0x01\n        /* \"@openzeppelin/upgrades/contracts/Initializable.sol\":1225:1236  initialized */\n      0x00\n      dup1\n        /* \"@openzeppelin/upgrades/contracts/Initializable.sol\":1225:1243  initialized = true */\n      0x0100\n      exp\n      dup2\n      sload\n      dup2\n      0xff\n      mul\n      not\n      and\n      swap1\n      dup4\n      iszero\n      iszero\n      mul\n      or\n      swap1\n      sstore\n      pop\n        /* \"@openzeppelin/upgrades/contracts/Initializable.sol\":1170:1250  if (isTopLevelCall) {... */\n    tag_12:\n        /* \"@openzeppelin/contracts-ethereum-package/contracts/utils/ReentrancyGuard.sol\":975:976  1 */\n      0x01\n        /* \"@openzeppelin/contracts-ethereum-package/contracts/utils/ReentrancyGuard.sol\":959:972  _guardCounter */\n      0x33\n        /* \"@openzeppelin/contracts-ethereum-package/contracts/utils/ReentrancyGuard.sol\":959:976  _guardCounter = 1 */\n      dup2\n      swap1\n      sstore\n      pop\n        /* \"@openzeppelin/upgrades/contracts/Initializable.sol\":1268:1282  isTopLevelCall */\n      dup1\n        /* \"@openzeppelin/upgrades/contracts/Initializable.sol\":1264:1319  if (isTopLevelCall) {... */\n      iszero\n      tag_14\n      jumpi\n        /* \"@openzeppelin/upgrades/contracts/Initializable.sol\":1307:1312  false */\n      0x00\n        /* \"@openzeppelin/upgrades/contracts/Initializable.sol\":1292:1304  initializing */\n      dup1\n      0x01\n        /* \"@openzeppelin/upgrades/contracts/Initializable.sol\":1292:1312  initializing = false */\n      0x0100\n      exp\n      dup2\n      sload\n      dup2\n      0xff\n      mul\n      not\n      and\n      swap1\n      dup4\n      iszero\n      iszero\n      mul\n      or\n      swap1\n      sstore\n      pop\n        /* \"@openzeppelin/upgrades/contracts/Initializable.sol\":1264:1319  if (isTopLevelCall) {... */\n    tag_14:\n        /* \"@openzeppelin/contracts-ethereum-package/contracts/utils/ReentrancyGuard.sol\":769:983  function initialize() public initializer {... */\n      pop\n      jump\t// out\n        /* \"@openzeppelin/upgrades/contracts/Initializable.sol\":1409:1907  function isConstructor() private view returns (bool) {... */\n    tag_9:\n        /* \"@openzeppelin/upgrades/contracts/Initializable.sol\":1456:1460  bool */\n      0x00\n        /* \"@openzeppelin/upgrades/contracts/Initializable.sol\":1797:1809  address self */\n      dup1\n        /* \"@openzeppelin/upgrades/contracts/Initializable.sol\":1820:1824  this */\n      address\n        /* \"@openzeppelin/upgrades/contracts/Initializable.sol\":1797:1825  address self = address(this) */\n      swap1\n      pop\n        /* \"@openzeppelin/upgrades/contracts/Initializable.sol\":1831:1841  uint256 cs */\n      0x00\n        /* \"@openzeppelin/upgrades/contracts/Initializable.sol\":1876:1880  self */\n      dup2\n        /* \"@openzeppelin/upgrades/contracts/Initializable.sol\":1864:1881  extcodesize(self) */\n      extcodesize\n        /* \"@openzeppelin/upgrades/contracts/Initializable.sol\":1858:1881  cs := extcodesize(self) */\n      swap1\n      pop\n        /* \"@openzeppelin/upgrades/contracts/Initializable.sol\":1901:1902  0 */\n      0x00\n        /* \"@openzeppelin/upgrades/contracts/Initializable.sol\":1895:1897  cs */\n      dup2\n        /* \"@openzeppelin/upgrades/contracts/Initializable.sol\":1895:1902  cs == 0 */\n      eq\n        /* \"@openzeppelin/upgrades/contracts/Initializable.sol\":1888:1902  return cs == 0 */\n      swap3\n      pop\n      pop\n      pop\n        /* \"@openzeppelin/upgrades/contracts/Initializable.sol\":1409:1907  function isConstructor() private view returns (bool) {... */\n      swap1\n      jump\t// out\n    stop\n    data_9fbba6c4dcac9134893b633b9564f36435b3f927c1d5fa152c5c14b20cecb1a4 436f6e747261637420696e7374616e63652068617320616c7265616479206265656e20696e697469616c697a6564\n\n    auxdata: 0xa265627a7a72315820290673f8286a7308e9db3c0add6e418f10bec10ae59ae3922668afdd6901914b64736f6c63430005100032\n}\n",
				"bytecode": {
					"linkReferences": {},
					"object": "608060405234801561001057600080fd5b506101bb806100206000396000f3fe608060405234801561001057600080fd5b506004361061002b5760003560e01c80638129fc1c14610030575b600080fd5b61003861003a565b005b600060019054906101000a900460ff16806100595750610058610141565b5b8061007057506000809054906101000a900460ff16155b6100c5576040517f08c379a000000000000000000000000000000000000000000000000000000000815260040180806020018281038252602e815260200180610159602e913960400191505060405180910390fd5b60008060019054906101000a900460ff161590508015610115576001600060016101000a81548160ff02191690831515021790555060016000806101000a81548160ff0219169083151502179055505b6001603381905550801561013e5760008060016101000a81548160ff0219169083151502179055505b50565b6000803090506000813b905060008114925050509056fe436f6e747261637420696e7374616e63652068617320616c7265616479206265656e20696e697469616c697a6564a265627a7a72315820290673f8286a7308e9db3c0add6e418f10bec10ae59ae3922668afdd6901914b64736f6c63430005100032",
					"opcodes": "PUSH1 0x80 PUSH1 0x40 MSTORE CALLVALUE DUP1 ISZERO PUSH2 0x10 JUMPI PUSH1 0x0 DUP1 REVERT JUMPDEST POP PUSH2 0x1BB DUP1 PUSH2 0x20 PUSH1 0x0 CODECOPY PUSH1 0x0 RETURN INVALID PUSH1 0x80 PUSH1 0x40 MSTORE CALLVALUE DUP1 ISZERO PUSH2 0x10 JUMPI PUSH1 0x0 DUP1 REVERT JUMPDEST POP PUSH1 0x4 CALLDATASIZE LT PUSH2 0x2B JUMPI PUSH1 0x0 CALLDATALOAD PUSH1 0xE0 SHR DUP1 PUSH4 0x8129FC1C EQ PUSH2 0x30 JUMPI JUMPDEST PUSH1 0x0 DUP1 REVERT JUMPDEST PUSH2 0x38 PUSH2 0x3A JUMP JUMPDEST STOP JUMPDEST PUSH1 0x0 PUSH1 0x1 SWAP1 SLOAD SWAP1 PUSH2 0x100 EXP SWAP1 DIV PUSH1 0xFF AND DUP1 PUSH2 0x59 JUMPI POP PUSH2 0x58 PUSH2 0x141 JUMP JUMPDEST JUMPDEST DUP1 PUSH2 0x70 JUMPI POP PUSH1 0x0 DUP1 SWAP1 SLOAD SWAP1 PUSH2 0x100 EXP SWAP1 DIV PUSH1 0xFF AND ISZERO JUMPDEST PUSH2 0xC5 JUMPI PUSH1 0x40 MLOAD PUSH32 0x8C379A000000000000000000000000000000000000000000000000000000000 DUP2 MSTORE PUSH1 0x4 ADD DUP1 DUP1 PUSH1 0x20 ADD DUP3 DUP2 SUB DUP3 MSTORE PUSH1 0x2E DUP2 MSTORE PUSH1 0x20 ADD DUP1 PUSH2 0x159 PUSH1 0x2E SWAP2 CODECOPY PUSH1 0x40 ADD SWAP2 POP POP PUSH1 0x40 MLOAD DUP1 SWAP2 SUB SWAP1 REVERT JUMPDEST PUSH1 0x0 DUP1 PUSH1 0x1 SWAP1 SLOAD SWAP1 PUSH2 0x100 EXP SWAP1 DIV PUSH1 0xFF AND ISZERO SWAP1 POP DUP1 ISZERO PUSH2 0x115 JUMPI PUSH1 0x1 PUSH1 0x0 PUSH1 0x1 PUSH2 0x100 EXP DUP2 SLOAD DUP2 PUSH1 0xFF MUL NOT AND SWAP1 DUP4 ISZERO ISZERO MUL OR SWAP1 SSTORE POP PUSH1 0x1 PUSH1 0x0 DUP1 PUSH2 0x100 EXP DUP2 SLOAD DUP2 PUSH1 0xFF MUL NOT AND SWAP1 DUP4 ISZERO ISZERO MUL OR SWAP1 SSTORE POP JUMPDEST PUSH1 0x1 PUSH1 0x33 DUP2 SWAP1 SSTORE POP DUP1 ISZERO PUSH2 0x13E JUMPI PUSH1 0x0 DUP1 PUSH1 0x1 PUSH2 0x100 EXP DUP2 SLOAD DUP2 PUSH1 0xFF MUL NOT AND SWAP1 DUP4 ISZERO ISZERO MUL OR SWAP1 SSTORE POP JUMPDEST POP JUMP JUMPDEST PUSH1 0x0 DUP1 ADDRESS SWAP1 POP PUSH1 0x0 DUP2 EXTCODESIZE SWAP1 POP PUSH1 0x0 DUP2 EQ SWAP3 POP POP POP SWAP1 JUMP INVALID NUMBER PUSH16 0x6E747261637420696E7374616E636520 PUSH9 0x617320616C72656164 PUSH26 0x206265656E20696E697469616C697A6564A265627A7A72315820 0x29 MOD PUSH20 0xF8286A7308E9DB3C0ADD6E418F10BEC10AE59AE3 SWAP3 0x26 PUSH9 0xAFDD6901914B64736F PUSH13 0x63430005100032000000000000 "
				},
				"gasEstimates": {
					"creation": {
						"codeDepositCost": "88600",
						"executionCost": "135",
						"totalCost": "88735"
					},
					"external": {
						"initialize()": "infinite"
					}
				},
				"methodIdentifiers": {
					"initialize()": "8129fc1c"
				}
			},
			"userdoc": {
				"methods": {}
			}
		}
	}
}