{
	"contracts/lib/Sigmoid.sol": {
		"Sigmoid": {
			"abi": [
				{
					"constant": true,
					"inputs": [],
					"name": "PARAM_UPDATE_DELAY",
					"outputs": [
						{
							"internalType": "uint256",
							"name": "",
							"type": "uint256"
						}
					],
					"payable": false,
					"stateMutability": "view",
					"type": "function"
				}
			],
			"devdoc": {
				"methods": {}
			},
			"evm": {
				"assembly": "    /* \"contracts/lib/Sigmoid.sol\":134:2370  library Sigmoid {... */\n  dataSize(sub_0)\n  dataOffset(sub_0)\n    /* \"--CODEGEN--\":132:134   */\n  0x0b\n    /* \"--CODEGEN--\":166:173   */\n  dup3\n    /* \"--CODEGEN--\":155:164   */\n  dup3\n    /* \"--CODEGEN--\":146:153   */\n  dup3\n    /* \"--CODEGEN--\":137:174   */\n  codecopy\n    /* \"--CODEGEN--\":255:262   */\n  dup1\n    /* \"--CODEGEN--\":249:263   */\n  mload\n    /* \"--CODEGEN--\":246:247   */\n  0x00\n    /* \"--CODEGEN--\":241:264   */\n  byte\n    /* \"--CODEGEN--\":235:239   */\n  0x73\n    /* \"--CODEGEN--\":232:265   */\n  eq\n    /* \"--CODEGEN--\":222:224   */\n  tag_1\n  jumpi\n    /* \"--CODEGEN--\":269:278   */\n  invalid\n    /* \"--CODEGEN--\":222:224   */\ntag_1:\n    /* \"--CODEGEN--\":293:302   */\n  address\n    /* \"--CODEGEN--\":290:291   */\n  0x00\n    /* \"--CODEGEN--\":283:303   */\n  mstore\n    /* \"--CODEGEN--\":323:327   */\n  0x73\n    /* \"--CODEGEN--\":314:321   */\n  dup2\n    /* \"--CODEGEN--\":306:328   */\n  mstore8\n    /* \"--CODEGEN--\":347:354   */\n  dup3\n    /* \"--CODEGEN--\":338:345   */\n  dup2\n    /* \"--CODEGEN--\":331:355   */\n  return\nstop\n\nsub_0: assembly {\n        /* \"contracts/lib/Sigmoid.sol\":134:2370  library Sigmoid {... */\n      eq(address, deployTimeAddress())\n      mstore(0x40, 0x80)\n      jumpi(tag_1, lt(calldatasize, 0x04))\n      shr(0xe0, calldataload(0x00))\n      dup1\n      0xdb51ef92\n      eq\n      tag_2\n      jumpi\n    tag_1:\n      0x00\n      dup1\n      revert\n        /* \"contracts/lib/Sigmoid.sol\":293:344  uint256 public constant PARAM_UPDATE_DELAY = 7 days */\n    tag_2:\n      tag_3\n      tag_4\n      jump\t// in\n    tag_3:\n      mload(0x40)\n      dup1\n      dup3\n      dup2\n      mstore\n      0x20\n      add\n      swap2\n      pop\n      pop\n      mload(0x40)\n      dup1\n      swap2\n      sub\n      swap1\n      return\n    tag_4:\n        /* \"contracts/lib/Sigmoid.sol\":338:344  7 days */\n      0x093a80\n        /* \"contracts/lib/Sigmoid.sol\":293:344  uint256 public constant PARAM_UPDATE_DELAY = 7 days */\n      dup2\n      jump\t// out\n\n    auxdata: 0xa265627a7a72315820859a2c56a7bb7e2092a915ed3e57ff2ff1062f154e02d59e7abee939d8bfbf6264736f6c63430005100032\n}\n",
				"bytecode": {
					"linkReferences": {},
					"object": "6090610024600b82828239805160001a607314601757fe5b30600052607381538281f3fe730000000000000000000000000000000000000000301460806040526004361060335760003560e01c8063db51ef92146038575b600080fd5b603e6054565b6040518082815260200191505060405180910390f35b62093a808156fea265627a7a72315820859a2c56a7bb7e2092a915ed3e57ff2ff1062f154e02d59e7abee939d8bfbf6264736f6c63430005100032",
					"opcodes": "PUSH1 0x90 PUSH2 0x24 PUSH1 0xB DUP3 DUP3 DUP3 CODECOPY DUP1 MLOAD PUSH1 0x0 BYTE PUSH1 0x73 EQ PUSH1 0x17 JUMPI INVALID JUMPDEST ADDRESS PUSH1 0x0 MSTORE PUSH1 0x73 DUP2 MSTORE8 DUP3 DUP2 RETURN INVALID PUSH20 0x0 ADDRESS EQ PUSH1 0x80 PUSH1 0x40 MSTORE PUSH1 0x4 CALLDATASIZE LT PUSH1 0x33 JUMPI PUSH1 0x0 CALLDATALOAD PUSH1 0xE0 SHR DUP1 PUSH4 0xDB51EF92 EQ PUSH1 0x38 JUMPI JUMPDEST PUSH1 0x0 DUP1 REVERT JUMPDEST PUSH1 0x3E PUSH1 0x54 JUMP JUMPDEST PUSH1 0x40 MLOAD DUP1 DUP3 DUP2 MSTORE PUSH1 0x20 ADD SWAP2 POP POP PUSH1 0x40 MLOAD DUP1 SWAP2 SUB SWAP1 RETURN JUMPDEST PUSH3 0x93A80 DUP2 JUMP INVALID LOG2 PUSH6 0x627A7A723158 KECCAK256 DUP6 SWAP11 0x2C JUMP 0xA7 0xBB PUSH31 0x2092A915ED3E57FF2FF1062F154E02D59E7ABEE939D8BFBF6264736F6C6343 STOP SDIV LT STOP ORIGIN "
				},
				"gasEstimates": {
					"creation": {
						"codeDepositCost": "28800",
						"executionCost": "106",
						"totalCost": "28906"
					},
					"external": {
						"PARAM_UPDATE_DELAY()": "167"
					},
					"internal": {
						"_now()": "infinite",
						"calculate(struct Sigmoid.State storage pointer,int256)": "infinite",
						"getParameters(struct Sigmoid.State storage pointer)": "infinite",
						"setParameters(struct Sigmoid.State storage pointer,uint256,int256,uint256)": "infinite"
					}
				},
				"methodIdentifiers": {
					"PARAM_UPDATE_DELAY()": "db51ef92"
				}
			},
			"userdoc": {
				"methods": {}
			}
		}
	}
}